{
  "_format": "hh-sol-artifact-1",
  "contractName": "MusixverseFacet",
  "sourceName": "contracts/Musixverse/facets/MusixverseFacet.sol",
  "abi": [
    {
      "inputs": [
        {
          "internalType": "string",
          "name": "baseURI_",
          "type": "string"
        },
        {
          "internalType": "string",
          "name": "contractURI_",
          "type": "string"
        }
      ],
      "stateMutability": "nonpayable",
      "type": "constructor"
    },
    {
      "anonymous": false,
      "inputs": [
        {
          "indexed": true,
          "internalType": "address",
          "name": "account",
          "type": "address"
        },
        {
          "indexed": true,
          "internalType": "address",
          "name": "operator",
          "type": "address"
        },
        {
          "indexed": false,
          "internalType": "bool",
          "name": "approved",
          "type": "bool"
        }
      ],
      "name": "ApprovalForAll",
      "type": "event"
    },
    {
      "anonymous": false,
      "inputs": [
        {
          "indexed": false,
          "internalType": "address",
          "name": "account",
          "type": "address"
        }
      ],
      "name": "Paused",
      "type": "event"
    },
    {
      "anonymous": false,
      "inputs": [
        {
          "indexed": false,
          "internalType": "address",
          "name": "creator",
          "type": "address"
        },
        {
          "indexed": false,
          "internalType": "uint256",
          "name": "trackId",
          "type": "uint256"
        },
        {
          "indexed": false,
          "internalType": "uint256",
          "name": "tokenId",
          "type": "uint256"
        },
        {
          "indexed": false,
          "internalType": "uint256",
          "name": "price",
          "type": "uint256"
        },
        {
          "indexed": false,
          "internalType": "uint256",
          "name": "localTokenId",
          "type": "uint256"
        }
      ],
      "name": "TokenCreated",
      "type": "event"
    },
    {
      "anonymous": false,
      "inputs": [
        {
          "indexed": false,
          "internalType": "address",
          "name": "caller",
          "type": "address"
        },
        {
          "indexed": false,
          "internalType": "uint256",
          "name": "tokenId",
          "type": "uint256"
        },
        {
          "indexed": false,
          "internalType": "bool",
          "name": "onSale",
          "type": "bool"
        }
      ],
      "name": "TokenOnSaleUpdated",
      "type": "event"
    },
    {
      "anonymous": false,
      "inputs": [
        {
          "indexed": false,
          "internalType": "address",
          "name": "caller",
          "type": "address"
        },
        {
          "indexed": false,
          "internalType": "uint256",
          "name": "tokenId",
          "type": "uint256"
        },
        {
          "indexed": false,
          "internalType": "uint256",
          "name": "oldPrice",
          "type": "uint256"
        },
        {
          "indexed": false,
          "internalType": "uint256",
          "name": "newPrice",
          "type": "uint256"
        }
      ],
      "name": "TokenPriceUpdated",
      "type": "event"
    },
    {
      "anonymous": false,
      "inputs": [
        {
          "indexed": false,
          "internalType": "uint256",
          "name": "tokenId",
          "type": "uint256"
        },
        {
          "indexed": false,
          "internalType": "address",
          "name": "referrer",
          "type": "address"
        },
        {
          "indexed": false,
          "internalType": "address",
          "name": "previousOwner",
          "type": "address"
        },
        {
          "indexed": false,
          "internalType": "address",
          "name": "newOwner",
          "type": "address"
        },
        {
          "indexed": false,
          "internalType": "uint256",
          "name": "price",
          "type": "uint256"
        }
      ],
      "name": "TokenPurchased",
      "type": "event"
    },
    {
      "anonymous": false,
      "inputs": [
        {
          "indexed": false,
          "internalType": "address",
          "name": "creator",
          "type": "address"
        },
        {
          "indexed": false,
          "internalType": "uint256",
          "name": "trackId",
          "type": "uint256"
        },
        {
          "indexed": false,
          "internalType": "uint256",
          "name": "maxTokenId",
          "type": "uint256"
        },
        {
          "indexed": false,
          "internalType": "uint256",
          "name": "price",
          "type": "uint256"
        },
        {
          "indexed": false,
          "internalType": "string",
          "name": "URIHash",
          "type": "string"
        }
      ],
      "name": "TrackMinted",
      "type": "event"
    },
    {
      "anonymous": false,
      "inputs": [
        {
          "indexed": true,
          "internalType": "address",
          "name": "operator",
          "type": "address"
        },
        {
          "indexed": true,
          "internalType": "address",
          "name": "from",
          "type": "address"
        },
        {
          "indexed": true,
          "internalType": "address",
          "name": "to",
          "type": "address"
        },
        {
          "indexed": false,
          "internalType": "uint256[]",
          "name": "ids",
          "type": "uint256[]"
        },
        {
          "indexed": false,
          "internalType": "uint256[]",
          "name": "values",
          "type": "uint256[]"
        }
      ],
      "name": "TransferBatch",
      "type": "event"
    },
    {
      "anonymous": false,
      "inputs": [
        {
          "indexed": true,
          "internalType": "address",
          "name": "operator",
          "type": "address"
        },
        {
          "indexed": true,
          "internalType": "address",
          "name": "from",
          "type": "address"
        },
        {
          "indexed": true,
          "internalType": "address",
          "name": "to",
          "type": "address"
        },
        {
          "indexed": false,
          "internalType": "uint256",
          "name": "id",
          "type": "uint256"
        },
        {
          "indexed": false,
          "internalType": "uint256",
          "name": "value",
          "type": "uint256"
        }
      ],
      "name": "TransferSingle",
      "type": "event"
    },
    {
      "anonymous": false,
      "inputs": [
        {
          "indexed": false,
          "internalType": "string",
          "name": "value",
          "type": "string"
        },
        {
          "indexed": true,
          "internalType": "uint256",
          "name": "id",
          "type": "uint256"
        }
      ],
      "name": "URI",
      "type": "event"
    },
    {
      "anonymous": false,
      "inputs": [
        {
          "indexed": false,
          "internalType": "address",
          "name": "account",
          "type": "address"
        }
      ],
      "name": "Unpaused",
      "type": "event"
    },
    {
      "inputs": [
        {
          "internalType": "string",
          "name": "baseURI_",
          "type": "string"
        },
        {
          "internalType": "string",
          "name": "contractURI_",
          "type": "string"
        }
      ],
      "name": "__Musixverse_init_unchained",
      "outputs": [],
      "stateMutability": "nonpayable",
      "type": "function"
    },
    {
      "inputs": [
        {
          "internalType": "address",
          "name": "account",
          "type": "address"
        },
        {
          "internalType": "uint256",
          "name": "id",
          "type": "uint256"
        }
      ],
      "name": "balanceOf",
      "outputs": [
        {
          "internalType": "uint256",
          "name": "",
          "type": "uint256"
        }
      ],
      "stateMutability": "view",
      "type": "function"
    },
    {
      "inputs": [
        {
          "internalType": "address[]",
          "name": "accounts",
          "type": "address[]"
        },
        {
          "internalType": "uint256[]",
          "name": "ids",
          "type": "uint256[]"
        }
      ],
      "name": "balanceOfBatch",
      "outputs": [
        {
          "internalType": "uint256[]",
          "name": "",
          "type": "uint256[]"
        }
      ],
      "stateMutability": "view",
      "type": "function"
    },
    {
      "inputs": [
        {
          "internalType": "uint256",
          "name": "tokenId",
          "type": "uint256"
        }
      ],
      "name": "getRoyaltyInfo",
      "outputs": [
        {
          "components": [
            {
              "internalType": "address payable",
              "name": "recipient",
              "type": "address"
            },
            {
              "internalType": "uint256",
              "name": "percentage",
              "type": "uint256"
            }
          ],
          "internalType": "struct RoyaltyInfo[]",
          "name": "",
          "type": "tuple[]"
        }
      ],
      "stateMutability": "view",
      "type": "function"
    },
    {
      "inputs": [
        {
          "internalType": "address",
          "name": "account",
          "type": "address"
        },
        {
          "internalType": "address",
          "name": "operator",
          "type": "address"
        }
      ],
      "name": "isApprovedForAll",
      "outputs": [
        {
          "internalType": "bool",
          "name": "",
          "type": "bool"
        }
      ],
      "stateMutability": "view",
      "type": "function"
    },
    {
      "inputs": [
        {
          "components": [
            {
              "internalType": "uint16",
              "name": "amount",
              "type": "uint16"
            },
            {
              "internalType": "uint256",
              "name": "price",
              "type": "uint256"
            },
            {
              "internalType": "string",
              "name": "URIHash",
              "type": "string"
            },
            {
              "internalType": "address[]",
              "name": "collaborators",
              "type": "address[]"
            },
            {
              "internalType": "uint16[]",
              "name": "percentageContributions",
              "type": "uint16[]"
            },
            {
              "internalType": "uint16",
              "name": "resaleRoyaltyPercentage",
              "type": "uint16"
            },
            {
              "internalType": "bool",
              "name": "onSale",
              "type": "bool"
            },
            {
              "internalType": "uint256",
              "name": "unlockTimestamp",
              "type": "uint256"
            }
          ],
          "internalType": "struct TrackNftCreationData",
          "name": "data",
          "type": "tuple"
        }
      ],
      "name": "mintTrackNFT",
      "outputs": [],
      "stateMutability": "nonpayable",
      "type": "function"
    },
    {
      "inputs": [
        {
          "internalType": "uint256",
          "name": "tokenId",
          "type": "uint256"
        }
      ],
      "name": "ownerOf",
      "outputs": [
        {
          "internalType": "address",
          "name": "",
          "type": "address"
        }
      ],
      "stateMutability": "view",
      "type": "function"
    },
    {
      "inputs": [],
      "name": "pause",
      "outputs": [],
      "stateMutability": "nonpayable",
      "type": "function"
    },
    {
      "inputs": [],
      "name": "paused",
      "outputs": [
        {
          "internalType": "bool",
          "name": "",
          "type": "bool"
        }
      ],
      "stateMutability": "view",
      "type": "function"
    },
    {
      "inputs": [
        {
          "internalType": "uint256",
          "name": "tokenId",
          "type": "uint256"
        },
        {
          "internalType": "address payable",
          "name": "referrer",
          "type": "address"
        }
      ],
      "name": "purchaseReferredTrackNFT",
      "outputs": [],
      "stateMutability": "payable",
      "type": "function"
    },
    {
      "inputs": [
        {
          "internalType": "uint256",
          "name": "tokenId",
          "type": "uint256"
        }
      ],
      "name": "purchaseTrackNFT",
      "outputs": [],
      "stateMutability": "payable",
      "type": "function"
    },
    {
      "inputs": [
        {
          "internalType": "address",
          "name": "from",
          "type": "address"
        },
        {
          "internalType": "address",
          "name": "to",
          "type": "address"
        },
        {
          "internalType": "uint256[]",
          "name": "ids",
          "type": "uint256[]"
        },
        {
          "internalType": "uint256[]",
          "name": "amounts",
          "type": "uint256[]"
        },
        {
          "internalType": "bytes",
          "name": "data",
          "type": "bytes"
        }
      ],
      "name": "safeBatchTransferFrom",
      "outputs": [],
      "stateMutability": "nonpayable",
      "type": "function"
    },
    {
      "inputs": [
        {
          "internalType": "address",
          "name": "from",
          "type": "address"
        },
        {
          "internalType": "address",
          "name": "to",
          "type": "address"
        },
        {
          "internalType": "uint256",
          "name": "id",
          "type": "uint256"
        },
        {
          "internalType": "uint256",
          "name": "amount",
          "type": "uint256"
        },
        {
          "internalType": "bytes",
          "name": "data",
          "type": "bytes"
        }
      ],
      "name": "safeTransferFrom",
      "outputs": [],
      "stateMutability": "nonpayable",
      "type": "function"
    },
    {
      "inputs": [
        {
          "internalType": "address",
          "name": "operator",
          "type": "address"
        },
        {
          "internalType": "bool",
          "name": "approved",
          "type": "bool"
        }
      ],
      "name": "setApprovalForAll",
      "outputs": [],
      "stateMutability": "nonpayable",
      "type": "function"
    },
    {
      "inputs": [
        {
          "internalType": "bytes4",
          "name": "interfaceId",
          "type": "bytes4"
        }
      ],
      "name": "supportsInterface",
      "outputs": [
        {
          "internalType": "bool",
          "name": "",
          "type": "bool"
        }
      ],
      "stateMutability": "view",
      "type": "function"
    },
    {
      "inputs": [
        {
          "internalType": "uint256",
          "name": "tokenId",
          "type": "uint256"
        }
      ],
      "name": "toggleOnSale",
      "outputs": [],
      "stateMutability": "nonpayable",
      "type": "function"
    },
    {
      "inputs": [],
      "name": "unpause",
      "outputs": [],
      "stateMutability": "nonpayable",
      "type": "function"
    },
    {
      "inputs": [
        {
          "internalType": "uint256",
          "name": "tokenId",
          "type": "uint256"
        },
        {
          "internalType": "uint256",
          "name": "newPrice",
          "type": "uint256"
        }
      ],
      "name": "updatePrice",
      "outputs": [],
      "stateMutability": "nonpayable",
      "type": "function"
    },
    {
      "inputs": [
        {
          "internalType": "string",
          "name": "newURI",
          "type": "string"
        }
      ],
      "name": "updateURI",
      "outputs": [],
      "stateMutability": "nonpayable",
      "type": "function"
    },
    {
      "inputs": [
        {
          "internalType": "uint256",
          "name": "mxvTokenId",
          "type": "uint256"
        }
      ],
      "name": "uri",
      "outputs": [
        {
          "internalType": "string",
          "name": "",
          "type": "string"
        }
      ],
      "stateMutability": "view",
      "type": "function"
    }
  ],
  "bytecode": "0x60806040523480156200001157600080fd5b50604051620055763803806200557683398181016040528101906200003791906200036f565b816040516020016200004a919062000440565b6040516020818303038152906040526200006a81620000a060201b60201c565b506000600e60006101000a81548160ff021916908315150217905550620000988282620000bc60201b60201c565b505062000615565b80600d9080519060200190620000b89291906200024d565b5050565b6040518060400160405280600a81526020017f4d757369787665727365000000000000000000000000000000000000000000008152506000800190805190602001906200010b9291906200024d565b506040518060400160405280600381526020017f4d58560000000000000000000000000000000000000000000000000000000000815250600060010190805190602001906200015c9291906200024d565b506001600060040160006101000a81548160ff021916908360ff16021790555030600060040160016101000a81548173ffffffffffffffffffffffffffffffffffffffff021916908373ffffffffffffffffffffffffffffffffffffffff160217905550600a600060040160156101000a81548160ff021916908360ff1602179055508060006002019080519060200190620001fa9291906200024d565b508160006003019080519060200190620002169291906200024d565b5062000249826040516020016200022e919062000440565b604051602081830303815290604052620000a060201b60201c565b5050565b8280546200025b9062000511565b90600052602060002090601f0160209004810192826200027f5760008555620002cb565b82601f106200029a57805160ff1916838001178555620002cb565b82800160010185558215620002cb579182015b82811115620002ca578251825591602001919060010190620002ad565b5b509050620002da9190620002de565b5090565b5b80821115620002f9576000816000905550600101620002df565b5090565b6000620003146200030e846200048f565b62000466565b9050828152602081018484840111156200032d57600080fd5b6200033a848285620004db565b509392505050565b600082601f8301126200035457600080fd5b815162000366848260208601620002fd565b91505092915050565b600080604083850312156200038357600080fd5b600083015167ffffffffffffffff8111156200039e57600080fd5b620003ac8582860162000342565b925050602083015167ffffffffffffffff811115620003ca57600080fd5b620003d88582860162000342565b9150509250929050565b6000620003ef82620004c5565b620003fb8185620004d0565b93506200040d818560208601620004db565b80840191505092915050565b600062000428600483620004d0565b91506200043582620005ec565b600482019050919050565b60006200044e8284620003e2565b91506200045b8262000419565b915081905092915050565b60006200047262000485565b905062000480828262000547565b919050565b6000604051905090565b600067ffffffffffffffff821115620004ad57620004ac620005ac565b5b620004b882620005db565b9050602081019050919050565b600081519050919050565b600081905092915050565b60005b83811015620004fb578082015181840152602081019050620004de565b838111156200050b576000848401525b50505050565b600060028204905060018216806200052a57607f821691505b602082108114156200054157620005406200057d565b5b50919050565b6200055282620005db565b810181811067ffffffffffffffff82111715620005745762000573620005ac565b5b80604052505050565b7f4e487b7100000000000000000000000000000000000000000000000000000000600052602260045260246000fd5b7f4e487b7100000000000000000000000000000000000000000000000000000000600052604160045260246000fd5b6000601f19601f8301169050919050565b7f7b69647d00000000000000000000000000000000000000000000000000000000600082015250565b614f5180620006256000396000f3fe60806040526004361061011e5760003560e01c8063a22cb465116100a0578063d618902511610064578063d6189025146103d3578063e985e9c5146103fc578063ee169bd314610439578063f242432a14610462578063fd0366551461048b5761011e565b8063a22cb465146102ff578063aa91d52814610328578063b76c632b14610351578063c30f4a5a1461038e578063d39c5ee2146103b75761011e565b80634e1273f4116100e75780634e1273f41461021a5780635c975abb146102575780636352211e1461028257806382367b2d146102bf5780638456cb59146102e85761011e565b8062fdd58e1461012357806301ffc9a7146101605780630e89341c1461019d5780632eb2c2d6146101da5780633f4ba83a14610203575b600080fd5b34801561012f57600080fd5b5061014a6004803603810190610145919061302a565b6104a7565b60405161015791906140ff565b60405180910390f35b34801561016c57600080fd5b5061018760048036038101906101829190613124565b610571565b6040516101949190613ee0565b60405180910390f35b3480156101a957600080fd5b506101c460048036038101906101bf919061328d565b610653565b6040516101d19190613efb565b60405180910390f35b3480156101e657600080fd5b5061020160048036038101906101fc9190612ea0565b6106f2565b005b34801561020f57600080fd5b50610218610793565b005b34801561022657600080fd5b50610241600480360381019061023c9190613066565b6107ad565b60405161024e9190613e87565b60405180910390f35b34801561026357600080fd5b5061026c61095e565b6040516102799190613ee0565b60405180910390f35b34801561028e57600080fd5b506102a960048036038101906102a4919061328d565b610975565b6040516102b69190613bc5565b60405180910390f35b3480156102cb57600080fd5b506102e660048036038101906102e191906132f2565b610a5a565b005b3480156102f457600080fd5b506102fd610b5f565b005b34801561030b57600080fd5b5061032660048036038101906103219190612fee565b610b79565b005b34801561033457600080fd5b5061034f600480360381019061034a9190613223565b610b8f565b005b34801561035d57600080fd5b506103786004803603810190610373919061328d565b611214565b6040516103859190613e65565b60405180910390f35b34801561039a57600080fd5b506103b560048036038101906103b09190613176565b6112e9565b005b6103d160048036038101906103cc91906132b6565b6112fd565b005b3480156103df57600080fd5b506103fa60048036038101906103f591906131b7565b61143d565b005b34801561040857600080fd5b50610423600480360381019061041e9190612e64565b6115bc565b6040516104309190613ee0565b60405180910390f35b34801561044557600080fd5b50610460600480360381019061045b919061328d565b611650565b005b34801561046e57600080fd5b5061048960048036038101906104849190612f5f565b61174d565b005b6104a560048036038101906104a0919061328d565b6117ee565b005b60008073ffffffffffffffffffffffffffffffffffffffff168373ffffffffffffffffffffffffffffffffffffffff161415610518576040517f08c379a000000000000000000000000000000000000000000000000000000000815260040161050f90613fbd565b60405180910390fd5b600b600083815260200190815260200160002060008473ffffffffffffffffffffffffffffffffffffffff1673ffffffffffffffffffffffffffffffffffffffff16815260200190815260200160002054905092915050565b60007fd9b67a26000000000000000000000000000000000000000000000000000000007bffffffffffffffffffffffffffffffffffffffffffffffffffffffff1916827bffffffffffffffffffffffffffffffffffffffffffffffffffffffff1916148061063c57507f0e89341c000000000000000000000000000000000000000000000000000000007bffffffffffffffffffffffffffffffffffffffffffffffffffffffff1916827bffffffffffffffffffffffffffffffffffffffffffffffffffffffff1916145b8061064c575061064b8261192e565b5b9050919050565b6060600082118015610671575061066d6000600501611998565b8211155b6106b0576040517f08c379a00000000000000000000000000000000000000000000000000000000081526004016106a79061403d565b60405180910390fd5b6000600301600060070160008481526020019081526020016000206040516020016106dc929190613ba1565b6040516020818303038152906040529050919050565b6106fa6119a6565b73ffffffffffffffffffffffffffffffffffffffff168573ffffffffffffffffffffffffffffffffffffffff161480610740575061073f8561073a6119a6565b6115bc565b5b61077f576040517f08c379a000000000000000000000000000000000000000000000000000000000815260040161077690613f3d565b60405180910390fd5b61078c85858585856119ae565b5050505050565b61079b611d1f565b6107a3611d68565b6107ab611e03565b565b606081518351146107f3576040517f08c379a00000000000000000000000000000000000000000000000000000000081526004016107ea9061407d565b60405180910390fd5b6000835167ffffffffffffffff811115610836577f4e487b7100000000000000000000000000000000000000000000000000000000600052604160045260246000fd5b6040519080825280602002602001820160405280156108645781602001602082028036833780820191505090505b50905060005b8451811015610953576108fd8582815181106108af577f4e487b7100000000000000000000000000000000000000000000000000000000600052603260045260246000fd5b60200260200101518583815181106108f0577f4e487b7100000000000000000000000000000000000000000000000000000000600052603260045260246000fd5b60200260200101516104a7565b828281518110610936577f4e487b7100000000000000000000000000000000000000000000000000000000600052603260045260246000fd5b6020026020010181815250508061094c906148dc565b905061086a565b508091505092915050565b6000600e60009054906101000a900460ff16905090565b60008073ffffffffffffffffffffffffffffffffffffffff166000600801600084815260200190815260200160002060009054906101000a900473ffffffffffffffffffffffffffffffffffffffff1673ffffffffffffffffffffffffffffffffffffffff161415610a1c576040517f08c379a0000000000000000000000000000000000000000000000000000000008152600401610a139061403d565b60405180910390fd5b6000600801600083815260200190815260200160002060009054906101000a900473ffffffffffffffffffffffffffffffffffffffff169050919050565b60008073__$5fb119e9dd3bfa8403a9274d94a0e1d1ed$__638e60b2c5600060040160019054906101000a900473ffffffffffffffffffffffffffffffffffffffff168660006009018760006005016040518663ffffffff1660e01b8152600401610ac9959493929190613c25565b604080518083038186803b158015610ae057600080fd5b505af4158015610af4573d6000803e3d6000fd5b505050506040513d601f19601f82011682018060405250810190610b18919061332e565b915091507f89ef1bf2373367c2626c5a62e7a9eb1645310f8a9ae5f544086c984a11122fa133858484604051610b519493929190613d71565b60405180910390a150505050565b610b67611e66565b610b6f611d68565b610b77611eb0565b565b610b8b610b846119a6565b8383611f13565b5050565b610b97611e66565b73__$5fb119e9dd3bfa8403a9274d94a0e1d1ed$__63b4196759826040518263ffffffff1660e01b8152600401610bce91906140dd565b60006040518083038186803b158015610be657600080fd5b505af4158015610bfa573d6000803e3d6000fd5b505050506000816000016020810190610c139190613264565b61ffff1667ffffffffffffffff811115610c56577f4e487b7100000000000000000000000000000000000000000000000000000000600052604160045260246000fd5b604051908082528060200260200182016040528015610c845781602001602082028036833780820191505090505b5090506000826000016020810190610c9c9190613264565b61ffff1667ffffffffffffffff811115610cdf577f4e487b7100000000000000000000000000000000000000000000000000000000600052604160045260246000fd5b604051908082528060200260200182016040528015610d0d5781602001602082028036833780820191505090505b50905060005b836000016020810190610d269190613264565b61ffff168110156110ab57610d3e6000600501612080565b610d4b6000600501611998565b838281518110610d84577f4e487b7100000000000000000000000000000000000000000000000000000000600052603260045260246000fd5b6020026020010181815250506001828281518110610dcb577f4e487b7100000000000000000000000000000000000000000000000000000000600052603260045260246000fd5b602002602001018181525050610e3f610de76000600501611998565b858060400190610df79190614333565b8080601f016020809104026020016040519081016040528093929190818152602001838380828437600081840152601f19601f82011690508083019250505050505050612096565b73__$5fb119e9dd3bfa8403a9274d94a0e1d1ed$__635c868675610e666000600501611998565b868060600190610e769190614285565b888060800190610e8691906142dc565b6000600a016040518763ffffffff1660e01b8152600401610eac96959493929190614205565b60006040518083038186803b158015610ec457600080fd5b505af4158015610ed8573d6000803e3d6000fd5b505050503360006008016000610ef16000600501611998565b815260200190815260200160002060006101000a81548173ffffffffffffffffffffffffffffffffffffffff021916908373ffffffffffffffffffffffffffffffffffffffff1602179055506040518060c00160405280856020013581526020013373ffffffffffffffffffffffffffffffffffffffff1681526020018560a0016020810190610f819190613264565b61ffff1681526020018560c0016020810190610f9d91906130d2565b151581526020016000151581526020018560e0013581525060006009016000610fc96000600501611998565b81526020019081526020016000206000820151816000015560208201518160010160006101000a81548173ffffffffffffffffffffffffffffffffffffffff021916908373ffffffffffffffffffffffffffffffffffffffff16021790555060408201518160010160146101000a81548161ffff021916908361ffff16021790555060608201518160010160166101000a81548160ff02191690831515021790555060808201518160010160176101000a81548160ff02191690831515021790555060a0820151816002015590505080806110a3906148dc565b915050610d13565b506110c7338383604051806020016040528060008152506120c5565b6110d46000600601612080565b60005b8360000160208101906110ea9190613264565b61ffff168110156111a3577ff6665b7e151bd911df3c92fad49c355b0a6a4441132b4f725fb666c310ec5e05336111246000600601611998565b85848151811061115d577f4e487b7100000000000000000000000000000000000000000000000000000000600052603260045260246000fd5b602002602001015187602001356001866111779190614717565b604051611188959493929190613e12565b60405180910390a1808061119b906148dc565b9150506110d7565b507f64804021d180b1d48131bab847ae66242dac48356a26d554b31e447a7b142647336111d36000600601611998565b6111e06000600501611998565b86602001358780604001906111f59190614333565b60405161120796959493929190613db6565b60405180910390a1505050565b60606000600a016000838152602001908152602001600020805480602002602001604051908101604052809291908181526020016000905b828210156112de57838290600052602060002090600202016040518060400160405290816000820160009054906101000a900473ffffffffffffffffffffffffffffffffffffffff1673ffffffffffffffffffffffffffffffffffffffff1673ffffffffffffffffffffffffffffffffffffffff1681526020016001820154815250508152602001906001019061124c565b505050509050919050565b6112f1611d68565b6112fa8161233f565b50565b611305611e66565b600061131083610975565b905073__$5fb119e9dd3bfa8403a9274d94a0e1d1ed$__636af930d28484600060090160006005016040518563ffffffff1660e01b8152600401611357949392919061416d565b60006040518083038186803b15801561136f57600080fd5b505af4158015611383573d6000803e3d6000fd5b505050506113a4813385600160405180602001604052806000815250612359565b336000600801600085815260200190815260200160002060006101000a81548173ffffffffffffffffffffffffffffffffffffffff021916908373ffffffffffffffffffffffffffffffffffffffff1602179055507f42bef846c5ea007c8d0175954362da29e871e87797692fadbf68f6e6347af824838383333460405161143095949392919061411a565b60405180910390a1505050565b6040518060400160405280600a81526020017f4d7573697876657273650000000000000000000000000000000000000000000081525060008001908051906020019061148a929190612aec565b506040518060400160405280600381526020017f4d58560000000000000000000000000000000000000000000000000000000000815250600060010190805190602001906114d9929190612aec565b506001600060040160006101000a81548160ff021916908360ff16021790555030600060040160016101000a81548173ffffffffffffffffffffffffffffffffffffffff021916908373ffffffffffffffffffffffffffffffffffffffff160217905550600a600060040160156101000a81548160ff021916908360ff1602179055508060006002019080519060200190611575929190612aec565b50816000600301908051906020019061158f929190612aec565b506115b8826040516020016115a49190613b7f565b60405160208183030381529060405261233f565b5050565b6000600c60008473ffffffffffffffffffffffffffffffffffffffff1673ffffffffffffffffffffffffffffffffffffffff16815260200190815260200160002060008373ffffffffffffffffffffffffffffffffffffffff1673ffffffffffffffffffffffffffffffffffffffff16815260200190815260200160002060009054906101000a900460ff16905092915050565b600073__$5fb119e9dd3bfa8403a9274d94a0e1d1ed$__6380702b6d600060040160019054906101000a900473ffffffffffffffffffffffffffffffffffffffff1684600060090160006005016040518563ffffffff1660e01b81526004016116bc9493929190613be0565b60206040518083038186803b1580156116d457600080fd5b505af41580156116e8573d6000803e3d6000fd5b505050506040513d601f19601f8201168201806040525081019061170c91906130fb565b90507f28262f8ffb8cdeb21437c7fa8c9951c1f5350a6cac1ba7559391a5190a34be4d33838360405161174193929190613d3a565b60405180910390a15050565b6117556119a6565b73ffffffffffffffffffffffffffffffffffffffff168573ffffffffffffffffffffffffffffffffffffffff16148061179b575061179a856117956119a6565b6115bc565b5b6117da576040517f08c379a00000000000000000000000000000000000000000000000000000000081526004016117d190613f3d565b60405180910390fd5b6117e78585858585612359565b5050505050565b6117f6611e66565b600061180182610975565b905073__$5fb119e9dd3bfa8403a9274d94a0e1d1ed$__636af930d28360008060090160006005016040518563ffffffff1660e01b8152600401611848949392919061416d565b60006040518083038186803b15801561186057600080fd5b505af4158015611874573d6000803e3d6000fd5b50505050611895813384600160405180602001604052806000815250612359565b336000600801600084815260200190815260200160002060006101000a81548173ffffffffffffffffffffffffffffffffffffffff021916908373ffffffffffffffffffffffffffffffffffffffff1602179055507f42bef846c5ea007c8d0175954362da29e871e87797692fadbf68f6e6347af8248260008333346040516119229594939291906141b2565b60405180910390a15050565b60007f01ffc9a7000000000000000000000000000000000000000000000000000000007bffffffffffffffffffffffffffffffffffffffffffffffffffffffff1916827bffffffffffffffffffffffffffffffffffffffffffffffffffffffff1916149050919050565b600081600001549050919050565b600033905090565b81518351146119f2576040517f08c379a00000000000000000000000000000000000000000000000000000000081526004016119e99061409d565b60405180910390fd5b600073ffffffffffffffffffffffffffffffffffffffff168473ffffffffffffffffffffffffffffffffffffffff161415611a62576040517f08c379a0000000000000000000000000000000000000000000000000000000008152600401611a5990613ffd565b60405180910390fd5b6000611a6c6119a6565b9050611a7c8187878787876125f8565b60005b8451811015611c7c576000858281518110611ac3577f4e487b7100000000000000000000000000000000000000000000000000000000600052603260045260246000fd5b602002602001015190506000858381518110611b08577f4e487b7100000000000000000000000000000000000000000000000000000000600052603260045260246000fd5b602002602001015190506000600b600084815260200190815260200160002060008b73ffffffffffffffffffffffffffffffffffffffff1673ffffffffffffffffffffffffffffffffffffffff16815260200190815260200160002054905081811015611baa576040517f08c379a0000000000000000000000000000000000000000000000000000000008152600401611ba19061401d565b60405180910390fd5b818103600b600085815260200190815260200160002060008c73ffffffffffffffffffffffffffffffffffffffff1673ffffffffffffffffffffffffffffffffffffffff1681526020019081526020016000208190555081600b600085815260200190815260200160002060008b73ffffffffffffffffffffffffffffffffffffffff1673ffffffffffffffffffffffffffffffffffffffff1681526020019081526020016000206000828254611c619190614717565b9250508190555050505080611c75906148dc565b9050611a7f565b508473ffffffffffffffffffffffffffffffffffffffff168673ffffffffffffffffffffffffffffffffffffffff168273ffffffffffffffffffffffffffffffffffffffff167f4a39dc06d4c0dbc64b70af90fd698a233a518aa5d07e595d983b8c0526c8f7fb8787604051611cf3929190613ea9565b60405180910390a4611d09818787878787612600565b611d17818787878787612608565b505050505050565b611d2761095e565b611d66576040517f08c379a0000000000000000000000000000000000000000000000000000000008152600401611d5d90613f7d565b60405180910390fd5b565b611d706127ef565b60040160009054906101000a900473ffffffffffffffffffffffffffffffffffffffff1673ffffffffffffffffffffffffffffffffffffffff163373ffffffffffffffffffffffffffffffffffffffff1614611e01576040517f08c379a0000000000000000000000000000000000000000000000000000000008152600401611df890613f9d565b60405180910390fd5b565b611e0b611d1f565b6000600e60006101000a81548160ff0219169083151502179055507f5db9ee0a495bf2e6ff9c91a7834c1ba4fdd244a5e8aa4e537bd38aeae4b073aa611e4f6119a6565b604051611e5c9190613bc5565b60405180910390a1565b611e6e61095e565b15611eae576040517f08c379a0000000000000000000000000000000000000000000000000000000008152600401611ea590613fdd565b60405180910390fd5b565b611eb8611e66565b6001600e60006101000a81548160ff0219169083151502179055507f62e78cea01bee320cd4e420270b5ea74000d11b0c9f74754ebdbfc544b05a258611efc6119a6565b604051611f099190613bc5565b60405180910390a1565b8173ffffffffffffffffffffffffffffffffffffffff168373ffffffffffffffffffffffffffffffffffffffff161415611f82576040517f08c379a0000000000000000000000000000000000000000000000000000000008152600401611f799061405d565b60405180910390fd5b80600c60008573ffffffffffffffffffffffffffffffffffffffff1673ffffffffffffffffffffffffffffffffffffffff16815260200190815260200160002060008473ffffffffffffffffffffffffffffffffffffffff1673ffffffffffffffffffffffffffffffffffffffff16815260200190815260200160002060006101000a81548160ff0219169083151502179055508173ffffffffffffffffffffffffffffffffffffffff168373ffffffffffffffffffffffffffffffffffffffff167f17307eab39ab6107e8899845ad3d59bd9653f200f220920489ca2b5937696c31836040516120739190613ee0565b60405180910390a3505050565b6001816000016000828254019250508190555050565b806000600701600084815260200190815260200160002090805190602001906120c0929190612aec565b505050565b600073ffffffffffffffffffffffffffffffffffffffff168473ffffffffffffffffffffffffffffffffffffffff161415612135576040517f08c379a000000000000000000000000000000000000000000000000000000000815260040161212c906140bd565b60405180910390fd5b8151835114612179576040517f08c379a00000000000000000000000000000000000000000000000000000000081526004016121709061409d565b60405180910390fd5b60006121836119a6565b9050612194816000878787876125f8565b60005b845181101561229a578381815181106121d9577f4e487b7100000000000000000000000000000000000000000000000000000000600052603260045260246000fd5b6020026020010151600b600087848151811061221e577f4e487b7100000000000000000000000000000000000000000000000000000000600052603260045260246000fd5b6020026020010151815260200190815260200160002060008873ffffffffffffffffffffffffffffffffffffffff1673ffffffffffffffffffffffffffffffffffffffff16815260200190815260200160002060008282546122809190614717565b925050819055508080612292906148dc565b915050612197565b508473ffffffffffffffffffffffffffffffffffffffff16600073ffffffffffffffffffffffffffffffffffffffff168273ffffffffffffffffffffffffffffffffffffffff167f4a39dc06d4c0dbc64b70af90fd698a233a518aa5d07e595d983b8c0526c8f7fb8787604051612312929190613ea9565b60405180910390a461232981600087878787612600565b61233881600087878787612608565b5050505050565b80600d9080519060200190612355929190612aec565b5050565b600073ffffffffffffffffffffffffffffffffffffffff168473ffffffffffffffffffffffffffffffffffffffff1614156123c9576040517f08c379a00000000000000000000000000000000000000000000000000000000081526004016123c090613ffd565b60405180910390fd5b60006123d36119a6565b905060006123e08561281c565b905060006123ed8561281c565b90506123fd8389898585896125f8565b6000600b600088815260200190815260200160002060008a73ffffffffffffffffffffffffffffffffffffffff1673ffffffffffffffffffffffffffffffffffffffff16815260200190815260200160002054905085811015612495576040517f08c379a000000000000000000000000000000000000000000000000000000000815260040161248c9061401d565b60405180910390fd5b858103600b600089815260200190815260200160002060008b73ffffffffffffffffffffffffffffffffffffffff1673ffffffffffffffffffffffffffffffffffffffff1681526020019081526020016000208190555085600b600089815260200190815260200160002060008a73ffffffffffffffffffffffffffffffffffffffff1673ffffffffffffffffffffffffffffffffffffffff168152602001908152602001600020600082825461254c9190614717565b925050819055508773ffffffffffffffffffffffffffffffffffffffff168973ffffffffffffffffffffffffffffffffffffffff168573ffffffffffffffffffffffffffffffffffffffff167fc3d58168c5ae7397731d063d5bbf3d657854427343f4c083240f7aacaa2d0f628a8a6040516125c992919061425c565b60405180910390a46125df848a8a86868a612600565b6125ed848a8a8a8a8a6128e2565b505050505050505050565b505050505050565b505050505050565b6126278473ffffffffffffffffffffffffffffffffffffffff16612ac9565b156127e7578373ffffffffffffffffffffffffffffffffffffffff1663bc197c8187878686866040518663ffffffff1660e01b815260040161266d959493929190613c78565b602060405180830381600087803b15801561268757600080fd5b505af19250505080156126b857506040513d601f19601f820116820180604052508101906126b5919061314d565b60015b61275e576126c46149b2565b806308c379a0141561272157506126d9614dfb565b806126e45750612723565b806040517f08c379a00000000000000000000000000000000000000000000000000000000081526004016127189190613efb565b60405180910390fd5b505b6040517f08c379a000000000000000000000000000000000000000000000000000000000815260040161275590613f1d565b60405180910390fd5b63bc197c8160e01b7bffffffffffffffffffffffffffffffffffffffffffffffffffffffff1916817bffffffffffffffffffffffffffffffffffffffffffffffffffffffff1916146127e5576040517f08c379a00000000000000000000000000000000000000000000000000000000081526004016127dc90613f5d565b60405180910390fd5b505b505050505050565b6000807f7ebe20acead178826e523aa23b9f2d4ec9903a0a82ea2ad143a2aab72ae49df190508091505090565b60606000600167ffffffffffffffff811115612861577f4e487b7100000000000000000000000000000000000000000000000000000000600052604160045260246000fd5b60405190808252806020026020018201604052801561288f5781602001602082028036833780820191505090505b50905082816000815181106128cd577f4e487b7100000000000000000000000000000000000000000000000000000000600052603260045260246000fd5b60200260200101818152505080915050919050565b6129018473ffffffffffffffffffffffffffffffffffffffff16612ac9565b15612ac1578373ffffffffffffffffffffffffffffffffffffffff1663f23a6e6187878686866040518663ffffffff1660e01b8152600401612947959493929190613ce0565b602060405180830381600087803b15801561296157600080fd5b505af192505050801561299257506040513d601f19601f8201168201806040525081019061298f919061314d565b60015b612a385761299e6149b2565b806308c379a014156129fb57506129b3614dfb565b806129be57506129fd565b806040517f08c379a00000000000000000000000000000000000000000000000000000000081526004016129f29190613efb565b60405180910390fd5b505b6040517f08c379a0000000000000000000000000000000000000000000000000000000008152600401612a2f90613f1d565b60405180910390fd5b63f23a6e6160e01b7bffffffffffffffffffffffffffffffffffffffffffffffffffffffff1916817bffffffffffffffffffffffffffffffffffffffffffffffffffffffff191614612abf576040517f08c379a0000000000000000000000000000000000000000000000000000000008152600401612ab690613f5d565b60405180910390fd5b505b505050505050565b6000808273ffffffffffffffffffffffffffffffffffffffff163b119050919050565b828054612af890614879565b90600052602060002090601f016020900481019282612b1a5760008555612b61565b82601f10612b3357805160ff1916838001178555612b61565b82800160010185558215612b61579182015b82811115612b60578251825591602001919060010190612b45565b5b509050612b6e9190612b72565b5090565b5b80821115612b8b576000816000905550600101612b73565b5090565b6000612ba2612b9d846143af565b61438a565b90508083825260208201905082856020860282011115612bc157600080fd5b60005b85811015612bf15781612bd78882612ce3565b845260208401935060208301925050600181019050612bc4565b5050509392505050565b6000612c0e612c09846143db565b61438a565b90508083825260208201905082856020860282011115612c2d57600080fd5b60005b85811015612c5d5781612c438882612e3a565b845260208401935060208301925050600181019050612c30565b5050509392505050565b6000612c7a612c7584614407565b61438a565b905082815260208101848484011115612c9257600080fd5b612c9d848285614837565b509392505050565b6000612cb8612cb384614438565b61438a565b905082815260208101848484011115612cd057600080fd5b612cdb848285614837565b509392505050565b600081359050612cf281614e91565b92915050565b600081359050612d0781614ea8565b92915050565b600082601f830112612d1e57600080fd5b8135612d2e848260208601612b8f565b91505092915050565b600082601f830112612d4857600080fd5b8135612d58848260208601612bfb565b91505092915050565b600081359050612d7081614ebf565b92915050565b600081519050612d8581614ebf565b92915050565b600081359050612d9a81614ed6565b92915050565b600081519050612daf81614ed6565b92915050565b600082601f830112612dc657600080fd5b8135612dd6848260208601612c67565b91505092915050565b600082601f830112612df057600080fd5b8135612e00848260208601612ca5565b91505092915050565b60006101008284031215612e1c57600080fd5b81905092915050565b600081359050612e3481614eed565b92915050565b600081359050612e4981614f04565b92915050565b600081519050612e5e81614f04565b92915050565b60008060408385031215612e7757600080fd5b6000612e8585828601612ce3565b9250506020612e9685828601612ce3565b9150509250929050565b600080600080600060a08688031215612eb857600080fd5b6000612ec688828901612ce3565b9550506020612ed788828901612ce3565b945050604086013567ffffffffffffffff811115612ef457600080fd5b612f0088828901612d37565b935050606086013567ffffffffffffffff811115612f1d57600080fd5b612f2988828901612d37565b925050608086013567ffffffffffffffff811115612f4657600080fd5b612f5288828901612db5565b9150509295509295909350565b600080600080600060a08688031215612f7757600080fd5b6000612f8588828901612ce3565b9550506020612f9688828901612ce3565b9450506040612fa788828901612e3a565b9350506060612fb888828901612e3a565b925050608086013567ffffffffffffffff811115612fd557600080fd5b612fe188828901612db5565b9150509295509295909350565b6000806040838503121561300157600080fd5b600061300f85828601612ce3565b925050602061302085828601612d61565b9150509250929050565b6000806040838503121561303d57600080fd5b600061304b85828601612ce3565b925050602061305c85828601612e3a565b9150509250929050565b6000806040838503121561307957600080fd5b600083013567ffffffffffffffff81111561309357600080fd5b61309f85828601612d0d565b925050602083013567ffffffffffffffff8111156130bc57600080fd5b6130c885828601612d37565b9150509250929050565b6000602082840312156130e457600080fd5b60006130f284828501612d61565b91505092915050565b60006020828403121561310d57600080fd5b600061311b84828501612d76565b91505092915050565b60006020828403121561313657600080fd5b600061314484828501612d8b565b91505092915050565b60006020828403121561315f57600080fd5b600061316d84828501612da0565b91505092915050565b60006020828403121561318857600080fd5b600082013567ffffffffffffffff8111156131a257600080fd5b6131ae84828501612ddf565b91505092915050565b600080604083850312156131ca57600080fd5b600083013567ffffffffffffffff8111156131e457600080fd5b6131f085828601612ddf565b925050602083013567ffffffffffffffff81111561320d57600080fd5b61321985828601612ddf565b9150509250929050565b60006020828403121561323557600080fd5b600082013567ffffffffffffffff81111561324f57600080fd5b61325b84828501612e09565b91505092915050565b60006020828403121561327657600080fd5b600061328484828501612e25565b91505092915050565b60006020828403121561329f57600080fd5b60006132ad84828501612e3a565b91505092915050565b600080604083850312156132c957600080fd5b60006132d785828601612e3a565b92505060206132e885828601612cf8565b9150509250929050565b6000806040838503121561330557600080fd5b600061331385828601612e3a565b925050602061332485828601612e3a565b9150509250929050565b6000806040838503121561334157600080fd5b600061334f85828601612e4f565b925050602061336085828601612e4f565b9150509250929050565b60006133768383613406565b60208301905092915050565b600061338e8383613a01565b60408301905092915050565b60006133a68383613b34565b60208301905092915050565b60006133be8383613b43565b60208301905092915050565b6133d381614801565b82525050565b6133e28161477f565b82525050565b6133f18161477f565b82525050565b6134008161476d565b82525050565b61340f8161476d565b82525050565b60006134218385614512565b935061342c82614469565b8060005b858110156134655761344282846145b6565b61344c888261336a565b9750613457836144de565b925050600181019050613430565b5085925050509392505050565b600061347e8385614523565b935061348982614469565b8060005b858110156134c25761349f82846145b6565b6134a9888261336a565b97506134b4836144de565b92505060018101905061348d565b5085925050509392505050565b60006134da826144b2565b6134e48185614534565b93506134ef83614473565b8060005b838110156135205781516135078882613382565b9750613512836144eb565b9250506001810190506134f3565b5085935050505092915050565b60006135398385614545565b935061354482614483565b8060005b8581101561357d5761355a82846146e9565b613564888261339a565b975061356f836144f8565b925050600181019050613548565b5085925050509392505050565b60006135968385614556565b93506135a182614483565b8060005b858110156135da576135b782846146e9565b6135c1888261339a565b97506135cc836144f8565b9250506001810190506135a5565b5085925050509392505050565b60006135f2826144bd565b6135fc8185614567565b93506136078361448d565b8060005b8381101561363857815161361f88826133b2565b975061362a83614505565b92505060018101905061360b565b5085935050505092915050565b61364e81614791565b82525050565b61365d81614791565b82525050565b600061366e826144c8565b6136788185614578565b9350613688818560208601614846565b613691816149d4565b840191505092915050565b8082525050565b8082525050565b60006136b68385614589565b93506136c3838584614837565b6136cc836149d4565b840190509392505050565b60006136e3838561459a565b93506136f0838584614837565b6136f9836149d4565b840190509392505050565b600061370f826144d3565b6137198185614589565b9350613729818560208601614846565b613732816149d4565b840191505092915050565b6000613748826144d3565b61375281856145ab565b9350613762818560208601614846565b80840191505092915050565b6000815461377b81614879565b61378581866145ab565b945060018216600081146137a057600181146137b1576137e4565b60ff198316865281860193506137e4565b6137ba8561449d565b60005b838110156137dc578154818901526001820191506020810190506137bd565b838801955050505b50505092915050565b60006137fa603483614589565b9150613805826149f2565b604082019050919050565b600061381d602f83614589565b915061382882614a41565b604082019050919050565b6000613840602883614589565b915061384b82614a90565b604082019050919050565b6000613863601483614589565b915061386e82614adf565b602082019050919050565b6000613886602283614589565b915061389182614b08565b604082019050919050565b60006138a9602a83614589565b91506138b482614b57565b604082019050919050565b60006138cc601083614589565b91506138d782614ba6565b602082019050919050565b60006138ef602583614589565b91506138fa82614bcf565b604082019050919050565b6000613912602a83614589565b915061391d82614c1e565b604082019050919050565b6000613935600983614589565b915061394082614c6d565b602082019050919050565b60006139586004836145ab565b915061396382614c96565b600482019050919050565b600061397b602983614589565b915061398682614cbf565b604082019050919050565b600061399e602983614589565b91506139a982614d0e565b604082019050919050565b60006139c1602883614589565b91506139cc82614d5d565b604082019050919050565b60006139e4602183614589565b91506139ef82614dac565b604082019050919050565b8082525050565b604082016000820151613a1760008501826133d9565b506020820151613a2a6020850182613b43565b50505050565b60006101008301613a4460008401846146e9565b613a516000860182613b34565b50613a5f6020840184614700565b613a6c6020860182613b70565b50613a7a6040840184614692565b8583036040870152613a8d8382846136d7565b92505050613a9e60608401846145cd565b8583036060870152613ab1838284613472565b92505050613ac26080840184614624565b8583036080870152613ad583828461358a565b92505050613ae660a08401846146e9565b613af360a0860182613b34565b50613b0160c084018461467b565b613b0e60c0860182613654565b50613b1c60e0840184614700565b613b2960e0860182613b70565b508091505092915050565b613b3d816147c9565b82525050565b613b4c816147f7565b82525050565b613b5b816147f7565b82525050565b613b6a816147f7565b82525050565b613b79816147f7565b82525050565b6000613b8b828461373d565b9150613b968261394b565b915081905092915050565b6000613bad828561376e565b9150613bb9828461376e565b91508190509392505050565b6000602082019050613bda60008301846133f7565b92915050565b6000608082019050613bf560008301876133e8565b613c026020830186613b61565b613c0f60408301856136a3565b613c1c60608301846139fa565b95945050505050565b600060a082019050613c3a60008301886133e8565b613c476020830187613b61565b613c5460408301866136a3565b613c616060830185613b61565b613c6e60808301846139fa565b9695505050505050565b600060a082019050613c8d60008301886133f7565b613c9a60208301876133f7565b8181036040830152613cac81866135e7565b90508181036060830152613cc081856135e7565b90508181036080830152613cd48184613663565b90509695505050505050565b600060a082019050613cf560008301886133f7565b613d0260208301876133f7565b613d0f6040830186613b52565b613d1c6060830185613b52565b8181036080830152613d2e8184613663565b90509695505050505050565b6000606082019050613d4f60008301866133f7565b613d5c6020830185613b52565b613d696040830184613645565b949350505050565b6000608082019050613d8660008301876133f7565b613d936020830186613b52565b613da06040830185613b52565b613dad6060830184613b52565b95945050505050565b600060a082019050613dcb60008301896133f7565b613dd86020830188613b52565b613de56040830187613b52565b613df26060830186613b52565b8181036080830152613e058184866136aa565b9050979650505050505050565b600060a082019050613e2760008301886133f7565b613e346020830187613b52565b613e416040830186613b52565b613e4e6060830185613b52565b613e5b6080830184613b52565b9695505050505050565b60006020820190508181036000830152613e7f81846134cf565b905092915050565b60006020820190508181036000830152613ea181846135e7565b905092915050565b60006040820190508181036000830152613ec381856135e7565b90508181036020830152613ed781846135e7565b90509392505050565b6000602082019050613ef56000830184613645565b92915050565b60006020820190508181036000830152613f158184613704565b905092915050565b60006020820190508181036000830152613f36816137ed565b9050919050565b60006020820190508181036000830152613f5681613810565b9050919050565b60006020820190508181036000830152613f7681613833565b9050919050565b60006020820190508181036000830152613f9681613856565b9050919050565b60006020820190508181036000830152613fb681613879565b9050919050565b60006020820190508181036000830152613fd68161389c565b9050919050565b60006020820190508181036000830152613ff6816138bf565b9050919050565b60006020820190508181036000830152614016816138e2565b9050919050565b6000602082019050818103600083015261403681613905565b9050919050565b6000602082019050818103600083015261405681613928565b9050919050565b600060208201905081810360008301526140768161396e565b9050919050565b6000602082019050818103600083015261409681613991565b9050919050565b600060208201905081810360008301526140b6816139b4565b9050919050565b600060208201905081810360008301526140d6816139d7565b9050919050565b600060208201905081810360008301526140f78184613a30565b905092915050565b60006020820190506141146000830184613b52565b92915050565b600060a08201905061412f6000830188613b52565b61413c60208301876133ca565b61414960408301866133f7565b61415660608301856133f7565b6141636080830184613b52565b9695505050505050565b60006080820190506141826000830187613b61565b61418f60208301866133e8565b61419c60408301856136a3565b6141a960608301846139fa565b95945050505050565b600060a0820190506141c76000830188613b52565b6141d460208301876133f7565b6141e160408301866133f7565b6141ee60608301856133f7565b6141fb6080830184613b52565b9695505050505050565b600060808201905061421a6000830189613b61565b818103602083015261422d818789613415565b9050818103604083015261424281858761352d565b9050614251606083018461369c565b979650505050505050565b60006040820190506142716000830185613b52565b61427e6020830184613b52565b9392505050565b6000808335600160200384360303811261429e57600080fd5b80840192508235915067ffffffffffffffff8211156142bc57600080fd5b6020830192506020820236038313156142d457600080fd5b509250929050565b600080833560016020038436030381126142f557600080fd5b80840192508235915067ffffffffffffffff82111561431357600080fd5b60208301925060208202360383131561432b57600080fd5b509250929050565b6000808335600160200384360303811261434c57600080fd5b80840192508235915067ffffffffffffffff82111561436a57600080fd5b60208301925060018202360383131561438257600080fd5b509250929050565b60006143946143a5565b90506143a082826148ab565b919050565b6000604051905090565b600067ffffffffffffffff8211156143ca576143c9614983565b5b602082029050602081019050919050565b600067ffffffffffffffff8211156143f6576143f5614983565b5b602082029050602081019050919050565b600067ffffffffffffffff82111561442257614421614983565b5b61442b826149d4565b9050602081019050919050565b600067ffffffffffffffff82111561445357614452614983565b5b61445c826149d4565b9050602081019050919050565b6000819050919050565b6000819050602082019050919050565b6000819050919050565b6000819050602082019050919050565b60008190508160005260206000209050919050565b600081519050919050565b600081519050919050565b600081519050919050565b600081519050919050565b6000602082019050919050565b6000602082019050919050565b6000602082019050919050565b6000602082019050919050565b600082825260208201905092915050565b600082825260208201905092915050565b600082825260208201905092915050565b600082825260208201905092915050565b600082825260208201905092915050565b600082825260208201905092915050565b600082825260208201905092915050565b600082825260208201905092915050565b600082825260208201905092915050565b600081905092915050565b60006145c56020840184612ce3565b905092915050565b600080833560016020038436030381126145e657600080fd5b83810192508235915060208301925067ffffffffffffffff82111561460a57600080fd5b60208202360384131561461c57600080fd5b509250929050565b6000808335600160200384360303811261463d57600080fd5b83810192508235915060208301925067ffffffffffffffff82111561466157600080fd5b60208202360384131561467357600080fd5b509250929050565b600061468a6020840184612d61565b905092915050565b600080833560016020038436030381126146ab57600080fd5b83810192508235915060208301925067ffffffffffffffff8211156146cf57600080fd5b6001820236038413156146e157600080fd5b509250929050565b60006146f86020840184612e25565b905092915050565b600061470f6020840184612e3a565b905092915050565b6000614722826147f7565b915061472d836147f7565b9250827fffffffffffffffffffffffffffffffffffffffffffffffffffffffffffffffff0382111561476257614761614925565b5b828201905092915050565b6000614778826147d7565b9050919050565b600061478a826147d7565b9050919050565b60008115159050919050565b60007fffffffff0000000000000000000000000000000000000000000000000000000082169050919050565b600061ffff82169050919050565b600073ffffffffffffffffffffffffffffffffffffffff82169050919050565b6000819050919050565b600061480c82614813565b9050919050565b600061481e82614825565b9050919050565b6000614830826147d7565b9050919050565b82818337600083830152505050565b60005b83811015614864578082015181840152602081019050614849565b83811115614873576000848401525b50505050565b6000600282049050600182168061489157607f821691505b602082108114156148a5576148a4614954565b5b50919050565b6148b4826149d4565b810181811067ffffffffffffffff821117156148d3576148d2614983565b5b80604052505050565b60006148e7826147f7565b91507fffffffffffffffffffffffffffffffffffffffffffffffffffffffffffffffff82141561491a57614919614925565b5b600182019050919050565b7f4e487b7100000000000000000000000000000000000000000000000000000000600052601160045260246000fd5b7f4e487b7100000000000000000000000000000000000000000000000000000000600052602260045260246000fd5b7f4e487b7100000000000000000000000000000000000000000000000000000000600052604160045260246000fd5b600060033d11156149d15760046000803e6149ce6000516149e5565b90505b90565b6000601f19601f8301169050919050565b60008160e01c9050919050565b7f455243313135353a207472616e7366657220746f206e6f6e204552433131353560008201527f526563656976657220696d706c656d656e746572000000000000000000000000602082015250565b7f455243313135353a2063616c6c6572206973206e6f7420746f6b656e206f776e60008201527f6572206e6f7220617070726f7665640000000000000000000000000000000000602082015250565b7f455243313135353a204552433131353552656365697665722072656a6563746560008201527f6420746f6b656e73000000000000000000000000000000000000000000000000602082015250565b7f5061757361626c653a206e6f7420706175736564000000000000000000000000600082015250565b7f4c69624469616d6f6e643a204d75737420626520636f6e7472616374206f776e60008201527f6572000000000000000000000000000000000000000000000000000000000000602082015250565b7f455243313135353a2061646472657373207a65726f206973206e6f742061207660008201527f616c6964206f776e657200000000000000000000000000000000000000000000602082015250565b7f5061757361626c653a2070617573656400000000000000000000000000000000600082015250565b7f455243313135353a207472616e7366657220746f20746865207a65726f20616460008201527f6472657373000000000000000000000000000000000000000000000000000000602082015250565b7f455243313135353a20696e73756666696369656e742062616c616e636520666f60008201527f72207472616e7366657200000000000000000000000000000000000000000000602082015250565b7f546f6b656e20444e450000000000000000000000000000000000000000000000600082015250565b7f7b69647d00000000000000000000000000000000000000000000000000000000600082015250565b7f455243313135353a2073657474696e6720617070726f76616c2073746174757360008201527f20666f722073656c660000000000000000000000000000000000000000000000602082015250565b7f455243313135353a206163636f756e747320616e6420696473206c656e67746860008201527f206d69736d617463680000000000000000000000000000000000000000000000602082015250565b7f455243313135353a2069647320616e6420616d6f756e7473206c656e6774682060008201527f6d69736d61746368000000000000000000000000000000000000000000000000602082015250565b7f455243313135353a206d696e7420746f20746865207a65726f2061646472657360008201527f7300000000000000000000000000000000000000000000000000000000000000602082015250565b600060443d1015614e0b57614e8e565b614e136143a5565b60043d036004823e80513d602482011167ffffffffffffffff82111715614e3b575050614e8e565b808201805167ffffffffffffffff811115614e595750505050614e8e565b80602083010160043d038501811115614e76575050505050614e8e565b614e85826020018501866148ab565b82955050505050505b90565b614e9a8161476d565b8114614ea557600080fd5b50565b614eb18161477f565b8114614ebc57600080fd5b50565b614ec881614791565b8114614ed357600080fd5b50565b614edf8161479d565b8114614eea57600080fd5b50565b614ef6816147c9565b8114614f0157600080fd5b50565b614f0d816147f7565b8114614f1857600080fd5b5056fea2646970667358221220e63ca5d46d5a358c538fec54f5df90b1d2a48dc03d1fc40739bd4ba212670faf64736f6c63430008040033",
  "linkReferences": {
    "contracts/Musixverse/libraries/LibMusixverse.sol": {
      "LibMusixverse": [
        {
          "length": 20,
          "start": 4228
        },
        {
          "length": 20,
          "start": 4542
        },
        {
          "length": 20,
          "start": 5222
        },
        {
          "length": 20,
          "start": 6457
        },
        {
          "length": 20,
          "start": 7289
        },
        {
          "length": 20,
          "start": 7722
        }
      ]
    }
  },
  "deployedLinkReferences": {
    "contracts/Musixverse/libraries/LibMusixverse.sol": {
      "LibMusixverse": [
        {
          "length": 20,
          "start": 2655
        },
        {
          "length": 20,
          "start": 2969
        },
        {
          "length": 20,
          "start": 3649
        },
        {
          "length": 20,
          "start": 4884
        },
        {
          "length": 20,
          "start": 5716
        },
        {
          "length": 20,
          "start": 6149
        }
      ]
    }
  }
}