{
	"_format": "hh-sol-artifact-1",
	"contractName": "MusixverseFacet",
	"sourceName": "contracts/Musixverse/facets/MusixverseFacet.sol",
	"abi": [
		{
			"inputs": [
				{
					"internalType": "string",
					"name": "baseURI_",
					"type": "string"
				},
				{
					"internalType": "string",
					"name": "contractURI_",
					"type": "string"
				}
			],
			"stateMutability": "nonpayable",
			"type": "constructor"
		},
		{
			"anonymous": false,
			"inputs": [
				{
					"indexed": true,
					"internalType": "address",
					"name": "account",
					"type": "address"
				},
				{
					"indexed": true,
					"internalType": "address",
					"name": "operator",
					"type": "address"
				},
				{
					"indexed": false,
					"internalType": "bool",
					"name": "approved",
					"type": "bool"
				}
			],
			"name": "ApprovalForAll",
			"type": "event"
		},
		{
			"anonymous": false,
			"inputs": [
				{
					"indexed": false,
					"internalType": "address",
					"name": "account",
					"type": "address"
				}
			],
			"name": "Paused",
			"type": "event"
		},
		{
			"anonymous": false,
			"inputs": [
				{
					"indexed": false,
					"internalType": "address",
					"name": "caller",
					"type": "address"
				},
				{
					"indexed": false,
					"internalType": "uint256",
					"name": "tokenId",
					"type": "uint256"
				},
				{
					"indexed": false,
					"internalType": "string",
					"name": "previousComment",
					"type": "string"
				},
				{
					"indexed": false,
					"internalType": "string",
					"name": "newComment",
					"type": "string"
				}
			],
			"name": "TokenCommentUpdated",
			"type": "event"
		},
		{
			"anonymous": false,
			"inputs": [
				{
					"indexed": false,
					"internalType": "address",
					"name": "creator",
					"type": "address"
				},
				{
					"indexed": false,
					"internalType": "uint256",
					"name": "trackId",
					"type": "uint256"
				},
				{
					"indexed": false,
					"internalType": "uint256",
					"name": "tokenId",
					"type": "uint256"
				},
				{
					"indexed": false,
					"internalType": "uint256",
					"name": "price",
					"type": "uint256"
				},
				{
					"indexed": false,
					"internalType": "uint256",
					"name": "localTokenId",
					"type": "uint256"
				}
			],
			"name": "TokenCreated",
			"type": "event"
		},
		{
			"anonymous": false,
			"inputs": [
				{
					"indexed": false,
					"internalType": "address",
					"name": "caller",
					"type": "address"
				},
				{
					"indexed": false,
					"internalType": "uint256",
					"name": "tokenId",
					"type": "uint256"
				},
				{
					"indexed": false,
					"internalType": "bool",
					"name": "onSale",
					"type": "bool"
				}
			],
			"name": "TokenOnSaleUpdated",
			"type": "event"
		},
		{
			"anonymous": false,
			"inputs": [
				{
					"indexed": false,
					"internalType": "address",
					"name": "caller",
					"type": "address"
				},
				{
					"indexed": false,
					"internalType": "uint256",
					"name": "tokenId",
					"type": "uint256"
				},
				{
					"indexed": false,
					"internalType": "uint256",
					"name": "oldPrice",
					"type": "uint256"
				},
				{
					"indexed": false,
					"internalType": "uint256",
					"name": "newPrice",
					"type": "uint256"
				}
			],
			"name": "TokenPriceUpdated",
			"type": "event"
		},
		{
			"anonymous": false,
			"inputs": [
				{
					"indexed": false,
					"internalType": "uint256",
					"name": "tokenId",
					"type": "uint256"
				},
				{
					"indexed": false,
					"internalType": "address",
					"name": "referrer",
					"type": "address"
				},
				{
					"indexed": false,
					"internalType": "address",
					"name": "previousOwner",
					"type": "address"
				},
				{
					"indexed": false,
					"internalType": "address",
					"name": "newOwner",
					"type": "address"
				},
				{
					"indexed": false,
					"internalType": "uint256",
					"name": "price",
					"type": "uint256"
				}
			],
			"name": "TokenPurchased",
			"type": "event"
		},
		{
			"anonymous": false,
			"inputs": [
				{
					"indexed": false,
					"internalType": "address",
					"name": "creator",
					"type": "address"
				},
				{
					"indexed": false,
					"internalType": "uint256",
					"name": "trackId",
					"type": "uint256"
				},
				{
					"indexed": false,
					"internalType": "uint256",
					"name": "maxTokenId",
					"type": "uint256"
				},
				{
					"indexed": false,
					"internalType": "uint256",
					"name": "price",
					"type": "uint256"
				},
				{
					"indexed": false,
					"internalType": "string",
					"name": "URIHash",
					"type": "string"
				}
			],
			"name": "TrackMinted",
			"type": "event"
		},
		{
			"anonymous": false,
			"inputs": [
				{
					"indexed": true,
					"internalType": "address",
					"name": "operator",
					"type": "address"
				},
				{
					"indexed": true,
					"internalType": "address",
					"name": "from",
					"type": "address"
				},
				{
					"indexed": true,
					"internalType": "address",
					"name": "to",
					"type": "address"
				},
				{
					"indexed": false,
					"internalType": "uint256[]",
					"name": "ids",
					"type": "uint256[]"
				},
				{
					"indexed": false,
					"internalType": "uint256[]",
					"name": "values",
					"type": "uint256[]"
				}
			],
			"name": "TransferBatch",
			"type": "event"
		},
		{
			"anonymous": false,
			"inputs": [
				{
					"indexed": true,
					"internalType": "address",
					"name": "operator",
					"type": "address"
				},
				{
					"indexed": true,
					"internalType": "address",
					"name": "from",
					"type": "address"
				},
				{
					"indexed": true,
					"internalType": "address",
					"name": "to",
					"type": "address"
				},
				{
					"indexed": false,
					"internalType": "uint256",
					"name": "id",
					"type": "uint256"
				},
				{
					"indexed": false,
					"internalType": "uint256",
					"name": "value",
					"type": "uint256"
				}
			],
			"name": "TransferSingle",
			"type": "event"
		},
		{
			"anonymous": false,
			"inputs": [
				{
					"indexed": false,
					"internalType": "string",
					"name": "value",
					"type": "string"
				},
				{
					"indexed": true,
					"internalType": "uint256",
					"name": "id",
					"type": "uint256"
				}
			],
			"name": "URI",
			"type": "event"
		},
		{
			"anonymous": false,
			"inputs": [
				{
					"indexed": false,
					"internalType": "address",
					"name": "account",
					"type": "address"
				}
			],
			"name": "Unpaused",
			"type": "event"
		},
		{
			"inputs": [
				{
					"internalType": "string",
					"name": "baseURI_",
					"type": "string"
				},
				{
					"internalType": "string",
					"name": "contractURI_",
					"type": "string"
				}
			],
			"name": "__Musixverse_init_unchained",
			"outputs": [],
			"stateMutability": "nonpayable",
			"type": "function"
		},
		{
			"inputs": [
				{
					"internalType": "address",
					"name": "account",
					"type": "address"
				},
				{
					"internalType": "uint256",
					"name": "id",
					"type": "uint256"
				}
			],
			"name": "balanceOf",
			"outputs": [
				{
					"internalType": "uint256",
					"name": "",
					"type": "uint256"
				}
			],
			"stateMutability": "view",
			"type": "function"
		},
		{
			"inputs": [
				{
					"internalType": "address[]",
					"name": "accounts",
					"type": "address[]"
				},
				{
					"internalType": "uint256[]",
					"name": "ids",
					"type": "uint256[]"
				}
			],
			"name": "balanceOfBatch",
			"outputs": [
				{
					"internalType": "uint256[]",
					"name": "",
					"type": "uint256[]"
				}
			],
			"stateMutability": "view",
			"type": "function"
		},
		{
			"inputs": [
				{
					"internalType": "uint256",
					"name": "tokenId",
					"type": "uint256"
				}
			],
			"name": "getRoyaltyInfo",
			"outputs": [
				{
					"components": [
						{
							"internalType": "address payable",
							"name": "recipient",
							"type": "address"
						},
						{
							"internalType": "uint256",
							"name": "percentage",
							"type": "uint256"
						}
					],
					"internalType": "struct RoyaltyInfo[]",
					"name": "",
					"type": "tuple[]"
				}
			],
			"stateMutability": "view",
			"type": "function"
		},
		{
			"inputs": [
				{
					"internalType": "address",
					"name": "account",
					"type": "address"
				},
				{
					"internalType": "address",
					"name": "operator",
					"type": "address"
				}
			],
			"name": "isApprovedForAll",
			"outputs": [
				{
					"internalType": "bool",
					"name": "",
					"type": "bool"
				}
			],
			"stateMutability": "view",
			"type": "function"
		},
		{
			"inputs": [
				{
					"components": [
						{
							"internalType": "uint16",
							"name": "amount",
							"type": "uint16"
						},
						{
							"internalType": "uint256",
							"name": "price",
							"type": "uint256"
						},
						{
							"internalType": "string",
							"name": "URIHash",
							"type": "string"
						},
						{
							"internalType": "string",
							"name": "unlockableContentURIHash",
							"type": "string"
						},
						{
							"internalType": "address[]",
							"name": "collaborators",
							"type": "address[]"
						},
						{
							"internalType": "uint16[]",
							"name": "percentageContributions",
							"type": "uint16[]"
						},
						{
							"internalType": "uint16",
							"name": "resaleRoyaltyPercentage",
							"type": "uint16"
						},
						{
							"internalType": "bool",
							"name": "onSale",
							"type": "bool"
						},
						{
							"internalType": "uint256",
							"name": "unlockTimestamp",
							"type": "uint256"
						}
					],
					"internalType": "struct TrackNftCreationData",
					"name": "data",
					"type": "tuple"
				}
			],
			"name": "mintTrackNFT",
			"outputs": [],
			"stateMutability": "nonpayable",
			"type": "function"
		},
		{
			"inputs": [
				{
					"internalType": "uint256",
					"name": "tokenId",
					"type": "uint256"
				}
			],
			"name": "ownerOf",
			"outputs": [
				{
					"internalType": "address",
					"name": "",
					"type": "address"
				}
			],
			"stateMutability": "view",
			"type": "function"
		},
		{
			"inputs": [],
			"name": "pause",
			"outputs": [],
			"stateMutability": "nonpayable",
			"type": "function"
		},
		{
			"inputs": [],
			"name": "paused",
			"outputs": [
				{
					"internalType": "bool",
					"name": "",
					"type": "bool"
				}
			],
			"stateMutability": "view",
			"type": "function"
		},
		{
			"inputs": [
				{
					"internalType": "uint256",
					"name": "tokenId",
					"type": "uint256"
				},
				{
					"internalType": "address payable",
					"name": "referrer",
					"type": "address"
				}
			],
			"name": "purchaseReferredTrackNFT",
			"outputs": [],
			"stateMutability": "payable",
			"type": "function"
		},
		{
			"inputs": [
				{
					"internalType": "uint256",
					"name": "tokenId",
					"type": "uint256"
				}
			],
			"name": "purchaseTrackNFT",
			"outputs": [],
			"stateMutability": "payable",
			"type": "function"
		},
		{
			"inputs": [
				{
					"internalType": "address",
					"name": "from",
					"type": "address"
				},
				{
					"internalType": "address",
					"name": "to",
					"type": "address"
				},
				{
					"internalType": "uint256[]",
					"name": "ids",
					"type": "uint256[]"
				},
				{
					"internalType": "uint256[]",
					"name": "amounts",
					"type": "uint256[]"
				},
				{
					"internalType": "bytes",
					"name": "data",
					"type": "bytes"
				}
			],
			"name": "safeBatchTransferFrom",
			"outputs": [],
			"stateMutability": "nonpayable",
			"type": "function"
		},
		{
			"inputs": [
				{
					"internalType": "address",
					"name": "from",
					"type": "address"
				},
				{
					"internalType": "address",
					"name": "to",
					"type": "address"
				},
				{
					"internalType": "uint256",
					"name": "id",
					"type": "uint256"
				},
				{
					"internalType": "uint256",
					"name": "amount",
					"type": "uint256"
				},
				{
					"internalType": "bytes",
					"name": "data",
					"type": "bytes"
				}
			],
			"name": "safeTransferFrom",
			"outputs": [],
			"stateMutability": "nonpayable",
			"type": "function"
		},
		{
			"inputs": [
				{
					"internalType": "address",
					"name": "operator",
					"type": "address"
				},
				{
					"internalType": "bool",
					"name": "approved",
					"type": "bool"
				}
			],
			"name": "setApprovalForAll",
			"outputs": [],
			"stateMutability": "nonpayable",
			"type": "function"
		},
		{
			"inputs": [
				{
					"internalType": "bytes4",
					"name": "interfaceId",
					"type": "bytes4"
				}
			],
			"name": "supportsInterface",
			"outputs": [
				{
					"internalType": "bool",
					"name": "",
					"type": "bool"
				}
			],
			"stateMutability": "view",
			"type": "function"
		},
		{
			"inputs": [
				{
					"internalType": "uint256",
					"name": "tokenId",
					"type": "uint256"
				}
			],
			"name": "toggleOnSale",
			"outputs": [],
			"stateMutability": "nonpayable",
			"type": "function"
		},
		{
			"inputs": [
				{
					"internalType": "uint256",
					"name": "mxvTokenId",
					"type": "uint256"
				}
			],
			"name": "unlockableContentUri",
			"outputs": [
				{
					"internalType": "string",
					"name": "",
					"type": "string"
				}
			],
			"stateMutability": "view",
			"type": "function"
		},
		{
			"inputs": [],
			"name": "unpause",
			"outputs": [],
			"stateMutability": "nonpayable",
			"type": "function"
		},
		{
			"inputs": [
				{
					"internalType": "uint256",
					"name": "_tokenId",
					"type": "uint256"
				},
				{
					"internalType": "string",
					"name": "_comment",
					"type": "string"
				}
			],
			"name": "updateCommentOnToken",
			"outputs": [],
			"stateMutability": "nonpayable",
			"type": "function"
		},
		{
			"inputs": [
				{
					"internalType": "uint256",
					"name": "tokenId",
					"type": "uint256"
				},
				{
					"internalType": "uint256",
					"name": "newPrice",
					"type": "uint256"
				}
			],
			"name": "updatePrice",
			"outputs": [],
			"stateMutability": "nonpayable",
			"type": "function"
		},
		{
			"inputs": [
				{
					"internalType": "string",
					"name": "newURI",
					"type": "string"
				}
			],
			"name": "updateURI",
			"outputs": [],
			"stateMutability": "nonpayable",
			"type": "function"
		},
		{
			"inputs": [
				{
					"internalType": "uint256",
					"name": "mxvTokenId",
					"type": "uint256"
				}
			],
			"name": "uri",
			"outputs": [
				{
					"internalType": "string",
					"name": "",
					"type": "string"
				}
			],
			"stateMutability": "view",
			"type": "function"
		}
	],
	"bytecode": "0x60806040523480156200001157600080fd5b5060405162005b5938038062005b5983398181016040528101906200003791906200036f565b816040516020016200004a919062000440565b6040516020818303038152906040526200006a81620000a060201b60201c565b506000601060006101000a81548160ff021916908315150217905550620000988282620000bc60201b60201c565b505062000615565b80600f9080519060200190620000b89291906200024d565b5050565b6040518060400160405280600a81526020017f4d757369787665727365000000000000000000000000000000000000000000008152506000800190805190602001906200010b9291906200024d565b506040518060400160405280600381526020017f4d58560000000000000000000000000000000000000000000000000000000000815250600060010190805190602001906200015c9291906200024d565b506001600060040160006101000a81548160ff021916908360ff16021790555030600060040160016101000a81548173ffffffffffffffffffffffffffffffffffffffff021916908373ffffffffffffffffffffffffffffffffffffffff160217905550600a600060040160156101000a81548160ff021916908360ff1602179055508060006002019080519060200190620001fa9291906200024d565b508160006003019080519060200190620002169291906200024d565b5062000249826040516020016200022e919062000440565b604051602081830303815290604052620000a060201b60201c565b5050565b8280546200025b9062000511565b90600052602060002090601f0160209004810192826200027f5760008555620002cb565b82601f106200029a57805160ff1916838001178555620002cb565b82800160010185558215620002cb579182015b82811115620002ca578251825591602001919060010190620002ad565b5b509050620002da9190620002de565b5090565b5b80821115620002f9576000816000905550600101620002df565b5090565b6000620003146200030e846200048f565b62000466565b9050828152602081018484840111156200032d57600080fd5b6200033a848285620004db565b509392505050565b600082601f8301126200035457600080fd5b815162000366848260208601620002fd565b91505092915050565b600080604083850312156200038357600080fd5b600083015167ffffffffffffffff8111156200039e57600080fd5b620003ac8582860162000342565b925050602083015167ffffffffffffffff811115620003ca57600080fd5b620003d88582860162000342565b9150509250929050565b6000620003ef82620004c5565b620003fb8185620004d0565b93506200040d818560208601620004db565b80840191505092915050565b600062000428600483620004d0565b91506200043582620005ec565b600482019050919050565b60006200044e8284620003e2565b91506200045b8262000419565b915081905092915050565b60006200047262000485565b905062000480828262000547565b919050565b6000604051905090565b600067ffffffffffffffff821115620004ad57620004ac620005ac565b5b620004b882620005db565b9050602081019050919050565b600081519050919050565b600081905092915050565b60005b83811015620004fb578082015181840152602081019050620004de565b838111156200050b576000848401525b50505050565b600060028204905060018216806200052a57607f821691505b602082108114156200054157620005406200057d565b5b50919050565b6200055282620005db565b810181811067ffffffffffffffff82111715620005745762000573620005ac565b5b80604052505050565b7f4e487b7100000000000000000000000000000000000000000000000000000000600052602260045260246000fd5b7f4e487b7100000000000000000000000000000000000000000000000000000000600052604160045260246000fd5b6000601f19601f8301169050919050565b7f7b69647d00000000000000000000000000000000000000000000000000000000600082015250565b61553480620006256000396000f3fe6080604052600436106101345760003560e01c80638456cb59116100ab578063d39c5ee21161006f578063d39c5ee214610433578063d61890251461044f578063e985e9c514610478578063ee169bd3146104b5578063f242432a146104de578063fd0366551461050757610134565b80638456cb5914610364578063a22cb4651461037b578063b76c632b146103a4578063c30f4a5a146103e1578063c6f8532d1461040a57610134565b80634e1273f4116100fd5780634e1273f4146102305780635c975abb1461026d5780635e9bf8bc146102985780636352211e146102d557806378981a731461031257806382367b2d1461033b57610134565b8062fdd58e1461013957806301ffc9a7146101765780630e89341c146101b35780632eb2c2d6146101f05780633f4ba83a14610219575b600080fd5b34801561014557600080fd5b50610160600480360381019061015b91906133c2565b610523565b60405161016d9190614682565b60405180910390f35b34801561018257600080fd5b5061019d600480360381019061019891906134bc565b6105ed565b6040516101aa9190614443565b60405180910390f35b3480156101bf57600080fd5b506101da60048036038101906101d59190613666565b6106cf565b6040516101e7919061445e565b60405180910390f35b3480156101fc57600080fd5b5061021760048036038101906102129190613238565b61076e565b005b34801561022557600080fd5b5061022e61080f565b005b34801561023c57600080fd5b50610257600480360381019061025291906133fe565b610829565b60405161026491906143ea565b60405180910390f35b34801561027957600080fd5b506102826109da565b60405161028f9190614443565b60405180910390f35b3480156102a457600080fd5b506102bf60048036038101906102ba9190613666565b6109f1565b6040516102cc919061445e565b60405180910390f35b3480156102e157600080fd5b506102fc60048036038101906102f79190613666565b610b06565b604051610309919061407b565b60405180910390f35b34801561031e57600080fd5b50610339600480360381019061033491906135fc565b610beb565b005b34801561034757600080fd5b50610362600480360381019061035d919061371f565b6112d9565b005b34801561037057600080fd5b506103796113de565b005b34801561038757600080fd5b506103a2600480360381019061039d9190613386565b6113f8565b005b3480156103b057600080fd5b506103cb60048036038101906103c69190613666565b61140e565b6040516103d891906143c8565b60405180910390f35b3480156103ed57600080fd5b506104086004803603810190610403919061350e565b6114e3565b005b34801561041657600080fd5b50610431600480360381019061042c91906136cb565b6114f7565b005b61044d6004803603810190610448919061368f565b6115fe565b005b34801561045b57600080fd5b5061047660048036038101906104719190613590565b61173e565b005b34801561048457600080fd5b5061049f600480360381019061049a91906131fc565b6118bd565b6040516104ac9190614443565b60405180910390f35b3480156104c157600080fd5b506104dc60048036038101906104d79190613666565b611951565b005b3480156104ea57600080fd5b50610505600480360381019061050091906132f7565b611a4e565b005b610521600480360381019061051c9190613666565b611aef565b005b60008073ffffffffffffffffffffffffffffffffffffffff168373ffffffffffffffffffffffffffffffffffffffff161415610594576040517f08c379a000000000000000000000000000000000000000000000000000000000815260040161058b90614520565b60405180910390fd5b600d600083815260200190815260200160002060008473ffffffffffffffffffffffffffffffffffffffff1673ffffffffffffffffffffffffffffffffffffffff16815260200190815260200160002054905092915050565b60007fd9b67a26000000000000000000000000000000000000000000000000000000007bffffffffffffffffffffffffffffffffffffffffffffffffffffffff1916827bffffffffffffffffffffffffffffffffffffffffffffffffffffffff191614806106b857507f0e89341c000000000000000000000000000000000000000000000000000000007bffffffffffffffffffffffffffffffffffffffffffffffffffffffff1916827bffffffffffffffffffffffffffffffffffffffffffffffffffffffff1916145b806106c857506106c782611c2f565b5b9050919050565b60606000821180156106ed57506106e96000600501611c99565b8211155b61072c576040517f08c379a0000000000000000000000000000000000000000000000000000000008152600401610723906145c0565b60405180910390fd5b600060030160006007016000848152602001908152602001600020604051602001610758929190614057565b6040516020818303038152906040529050919050565b610776611ca7565b73ffffffffffffffffffffffffffffffffffffffff168573ffffffffffffffffffffffffffffffffffffffff1614806107bc57506107bb856107b6611ca7565b6118bd565b5b6107fb576040517f08c379a00000000000000000000000000000000000000000000000000000000081526004016107f2906144a0565b60405180910390fd5b6108088585858585611caf565b5050505050565b610817612020565b61081f612069565b610827612104565b565b6060815183511461086f576040517f08c379a000000000000000000000000000000000000000000000000000000000815260040161086690614600565b60405180910390fd5b6000835167ffffffffffffffff8111156108b2577f4e487b7100000000000000000000000000000000000000000000000000000000600052604160045260246000fd5b6040519080825280602002602001820160405280156108e05781602001602082028036833780820191505090505b50905060005b84518110156109cf5761097985828151811061092b577f4e487b7100000000000000000000000000000000000000000000000000000000600052603260045260246000fd5b602002602001015185838151811061096c577f4e487b7100000000000000000000000000000000000000000000000000000000600052603260045260246000fd5b6020026020010151610523565b8282815181106109b2577f4e487b7100000000000000000000000000000000000000000000000000000000600052603260045260246000fd5b602002602001018181525050806109c890614e70565b90506108e6565b508091505092915050565b6000601060009054906101000a900460ff16905090565b6060600082118015610a0f5750610a0b6000600501611c99565b8211155b610a4e576040517f08c379a0000000000000000000000000000000000000000000000000000000008152600401610a45906145c0565b60405180910390fd5b3373ffffffffffffffffffffffffffffffffffffffff16610a6e83610b06565b73ffffffffffffffffffffffffffffffffffffffff1614610ac4576040517f08c379a0000000000000000000000000000000000000000000000000000000008152600401610abb90614540565b60405180910390fd5b600060030160006008016000848152602001908152602001600020604051602001610af0929190614057565b6040516020818303038152906040529050919050565b60008073ffffffffffffffffffffffffffffffffffffffff166000600a01600084815260200190815260200160002060009054906101000a900473ffffffffffffffffffffffffffffffffffffffff1673ffffffffffffffffffffffffffffffffffffffff161415610bad576040517f08c379a0000000000000000000000000000000000000000000000000000000008152600401610ba4906145c0565b60405180910390fd5b6000600a01600083815260200190815260200160002060009054906101000a900473ffffffffffffffffffffffffffffffffffffffff169050919050565b610bf3612167565b73__$5fb119e9dd3bfa8403a9274d94a0e1d1ed$__63b4196759826040518263ffffffff1660e01b8152600401610c2a9190614660565b60006040518083038186803b158015610c4257600080fd5b505af4158015610c56573d6000803e3d6000fd5b505050506000816000016020810190610c6f919061363d565b61ffff1667ffffffffffffffff811115610cb2577f4e487b7100000000000000000000000000000000000000000000000000000000600052604160045260246000fd5b604051908082528060200260200182016040528015610ce05781602001602082028036833780820191505090505b5090506000826000016020810190610cf8919061363d565b61ffff1667ffffffffffffffff811115610d3b577f4e487b7100000000000000000000000000000000000000000000000000000000600052604160045260246000fd5b604051908082528060200260200182016040528015610d695781602001602082028036833780820191505090505b50905060005b836000016020810190610d82919061363d565b61ffff1681101561117057610d9a60006005016121b1565b610da76000600501611c99565b838281518110610de0577f4e487b7100000000000000000000000000000000000000000000000000000000600052603260045260246000fd5b6020026020010181815250506001828281518110610e27577f4e487b7100000000000000000000000000000000000000000000000000000000600052603260045260246000fd5b602002602001018181525050610e9b610e436000600501611c99565b858060400190610e5391906148b6565b8080601f016020809104026020016040519081016040528093929190818152602001838380828437600081840152601f19601f820116905080830192505050505050506121c7565b610f03610eab6000600501611c99565b858060600190610ebb91906148b6565b8080601f016020809104026020016040519081016040528093929190818152602001838380828437600081840152601f19601f820116905080830192505050505050506121f6565b73__$5fb119e9dd3bfa8403a9274d94a0e1d1ed$__635c868675610f2a6000600501611c99565b868060800190610f3a9190614808565b888060a00190610f4a919061485f565b6000600c016040518763ffffffff1660e01b8152600401610f7096959493929190614788565b60006040518083038186803b158015610f8857600080fd5b505af4158015610f9c573d6000803e3d6000fd5b50505050336000600a016000610fb56000600501611c99565b815260200190815260200160002060006101000a81548173ffffffffffffffffffffffffffffffffffffffff021916908373ffffffffffffffffffffffffffffffffffffffff1602179055506040518060c00160405280856020013581526020013373ffffffffffffffffffffffffffffffffffffffff1681526020018560c0016020810190611045919061363d565b61ffff1681526020018560e0016020810190611061919061346a565b151581526020016000151581526020018561010001358152506000600b01600061108e6000600501611c99565b81526020019081526020016000206000820151816000015560208201518160010160006101000a81548173ffffffffffffffffffffffffffffffffffffffff021916908373ffffffffffffffffffffffffffffffffffffffff16021790555060408201518160010160146101000a81548161ffff021916908361ffff16021790555060608201518160010160166101000a81548160ff02191690831515021790555060808201518160010160176101000a81548160ff02191690831515021790555060a08201518160020155905050808061116890614e70565b915050610d6f565b5061118c33838360405180602001604052806000815250612225565b61119960006006016121b1565b60005b8360000160208101906111af919061363d565b61ffff16811015611268577ff6665b7e151bd911df3c92fad49c355b0a6a4441132b4f725fb666c310ec5e05336111e96000600601611c99565b858481518110611222577f4e487b7100000000000000000000000000000000000000000000000000000000600052603260045260246000fd5b6020026020010151876020013560018661123c9190614cab565b60405161124d959493929190614375565b60405180910390a1808061126090614e70565b91505061119c565b507f64804021d180b1d48131bab847ae66242dac48356a26d554b31e447a7b142647336112986000600601611c99565b6112a56000600501611c99565b86602001358780604001906112ba91906148b6565b6040516112cc96959493929190614319565b60405180910390a1505050565b60008073__$5fb119e9dd3bfa8403a9274d94a0e1d1ed$__638e60b2c5600060040160019054906101000a900473ffffffffffffffffffffffffffffffffffffffff16866000600b018760006005016040518663ffffffff1660e01b81526004016113489594939291906140db565b604080518083038186803b15801561135f57600080fd5b505af4158015611373573d6000803e3d6000fd5b505050506040513d601f19601f82011682018060405250810190611397919061375b565b915091507f89ef1bf2373367c2626c5a62e7a9eb1645310f8a9ae5f544086c984a11122fa1338584846040516113d094939291906142d4565b60405180910390a150505050565b6113e6612167565b6113ee612069565b6113f661249f565b565b61140a611403611ca7565b8383612502565b5050565b60606000600c016000838152602001908152602001600020805480602002602001604051908101604052809291908181526020016000905b828210156114d857838290600052602060002090600202016040518060400160405290816000820160009054906101000a900473ffffffffffffffffffffffffffffffffffffffff1673ffffffffffffffffffffffffffffffffffffffff1673ffffffffffffffffffffffffffffffffffffffff16815260200160018201548152505081526020019060010190611446565b505050509050919050565b6114eb612069565b6114f48161266f565b50565b600073__$5fb119e9dd3bfa8403a9274d94a0e1d1ed$__63e5ef4468600060040160019054906101000a900473ffffffffffffffffffffffffffffffffffffffff168585600060090160006005016040518663ffffffff1660e01b815260040161156595949392919061412e565b60006040518083038186803b15801561157d57600080fd5b505af4158015611591573d6000803e3d6000fd5b505050506040513d6000823e3d601f19601f820116820180604052508101906115ba919061354f565b90507f2e13edb1190206fc67476dcaa4c4c9991f8ee62db6d4bf10d2cb03c8974cee42338483856040516115f19493929190614281565b60405180910390a1505050565b611606612167565b600061161183610b06565b905073__$5fb119e9dd3bfa8403a9274d94a0e1d1ed$__636af930d284846000600b0160006005016040518563ffffffff1660e01b815260040161165894939291906146f0565b60006040518083038186803b15801561167057600080fd5b505af4158015611684573d6000803e3d6000fd5b505050506116a5813385600160405180602001604052806000815250612689565b336000600a01600085815260200190815260200160002060006101000a81548173ffffffffffffffffffffffffffffffffffffffff021916908373ffffffffffffffffffffffffffffffffffffffff1602179055507f42bef846c5ea007c8d0175954362da29e871e87797692fadbf68f6e6347af824838383333460405161173195949392919061469d565b60405180910390a1505050565b6040518060400160405280600a81526020017f4d7573697876657273650000000000000000000000000000000000000000000081525060008001908051906020019061178b929190612e1c565b506040518060400160405280600381526020017f4d58560000000000000000000000000000000000000000000000000000000000815250600060010190805190602001906117da929190612e1c565b506001600060040160006101000a81548160ff021916908360ff16021790555030600060040160016101000a81548173ffffffffffffffffffffffffffffffffffffffff021916908373ffffffffffffffffffffffffffffffffffffffff160217905550600a600060040160156101000a81548160ff021916908360ff1602179055508060006002019080519060200190611876929190612e1c565b508160006003019080519060200190611890929190612e1c565b506118b9826040516020016118a59190614035565b60405160208183030381529060405261266f565b5050565b6000600e60008473ffffffffffffffffffffffffffffffffffffffff1673ffffffffffffffffffffffffffffffffffffffff16815260200190815260200160002060008373ffffffffffffffffffffffffffffffffffffffff1673ffffffffffffffffffffffffffffffffffffffff16815260200190815260200160002060009054906101000a900460ff16905092915050565b600073__$5fb119e9dd3bfa8403a9274d94a0e1d1ed$__6380702b6d600060040160019054906101000a900473ffffffffffffffffffffffffffffffffffffffff16846000600b0160006005016040518563ffffffff1660e01b81526004016119bd9493929190614096565b60206040518083038186803b1580156119d557600080fd5b505af41580156119e9573d6000803e3d6000fd5b505050506040513d601f19601f82011682018060405250810190611a0d9190613493565b90507f28262f8ffb8cdeb21437c7fa8c9951c1f5350a6cac1ba7559391a5190a34be4d338383604051611a429392919061424a565b60405180910390a15050565b611a56611ca7565b73ffffffffffffffffffffffffffffffffffffffff168573ffffffffffffffffffffffffffffffffffffffff161480611a9c5750611a9b85611a96611ca7565b6118bd565b5b611adb576040517f08c379a0000000000000000000000000000000000000000000000000000000008152600401611ad2906144a0565b60405180910390fd5b611ae88585858585612689565b5050505050565b611af7612167565b6000611b0282610b06565b905073__$5fb119e9dd3bfa8403a9274d94a0e1d1ed$__636af930d283600080600b0160006005016040518563ffffffff1660e01b8152600401611b4994939291906146f0565b60006040518083038186803b158015611b6157600080fd5b505af4158015611b75573d6000803e3d6000fd5b50505050611b96813384600160405180602001604052806000815250612689565b336000600a01600084815260200190815260200160002060006101000a81548173ffffffffffffffffffffffffffffffffffffffff021916908373ffffffffffffffffffffffffffffffffffffffff1602179055507f42bef846c5ea007c8d0175954362da29e871e87797692fadbf68f6e6347af824826000833334604051611c23959493929190614735565b60405180910390a15050565b60007f01ffc9a7000000000000000000000000000000000000000000000000000000007bffffffffffffffffffffffffffffffffffffffffffffffffffffffff1916827bffffffffffffffffffffffffffffffffffffffffffffffffffffffff1916149050919050565b600081600001549050919050565b600033905090565b8151835114611cf3576040517f08c379a0000000000000000000000000000000000000000000000000000000008152600401611cea90614620565b60405180910390fd5b600073ffffffffffffffffffffffffffffffffffffffff168473ffffffffffffffffffffffffffffffffffffffff161415611d63576040517f08c379a0000000000000000000000000000000000000000000000000000000008152600401611d5a90614580565b60405180910390fd5b6000611d6d611ca7565b9050611d7d818787878787612928565b60005b8451811015611f7d576000858281518110611dc4577f4e487b7100000000000000000000000000000000000000000000000000000000600052603260045260246000fd5b602002602001015190506000858381518110611e09577f4e487b7100000000000000000000000000000000000000000000000000000000600052603260045260246000fd5b602002602001015190506000600d600084815260200190815260200160002060008b73ffffffffffffffffffffffffffffffffffffffff1673ffffffffffffffffffffffffffffffffffffffff16815260200190815260200160002054905081811015611eab576040517f08c379a0000000000000000000000000000000000000000000000000000000008152600401611ea2906145a0565b60405180910390fd5b818103600d600085815260200190815260200160002060008c73ffffffffffffffffffffffffffffffffffffffff1673ffffffffffffffffffffffffffffffffffffffff1681526020019081526020016000208190555081600d600085815260200190815260200160002060008b73ffffffffffffffffffffffffffffffffffffffff1673ffffffffffffffffffffffffffffffffffffffff1681526020019081526020016000206000828254611f629190614cab565b9250508190555050505080611f7690614e70565b9050611d80565b508473ffffffffffffffffffffffffffffffffffffffff168673ffffffffffffffffffffffffffffffffffffffff168273ffffffffffffffffffffffffffffffffffffffff167f4a39dc06d4c0dbc64b70af90fd698a233a518aa5d07e595d983b8c0526c8f7fb8787604051611ff492919061440c565b60405180910390a461200a818787878787612930565b612018818787878787612938565b505050505050565b6120286109da565b612067576040517f08c379a000000000000000000000000000000000000000000000000000000000815260040161205e906144e0565b60405180910390fd5b565b612071612b1f565b60040160009054906101000a900473ffffffffffffffffffffffffffffffffffffffff1673ffffffffffffffffffffffffffffffffffffffff163373ffffffffffffffffffffffffffffffffffffffff1614612102576040517f08c379a00000000000000000000000000000000000000000000000000000000081526004016120f990614500565b60405180910390fd5b565b61210c612020565b6000601060006101000a81548160ff0219169083151502179055507f5db9ee0a495bf2e6ff9c91a7834c1ba4fdd244a5e8aa4e537bd38aeae4b073aa612150611ca7565b60405161215d919061407b565b60405180910390a1565b61216f6109da565b156121af576040517f08c379a00000000000000000000000000000000000000000000000000000000081526004016121a690614560565b60405180910390fd5b565b6001816000016000828254019250508190555050565b806000600701600084815260200190815260200160002090805190602001906121f1929190612e1c565b505050565b80600060080160008481526020019081526020016000209080519060200190612220929190612e1c565b505050565b600073ffffffffffffffffffffffffffffffffffffffff168473ffffffffffffffffffffffffffffffffffffffff161415612295576040517f08c379a000000000000000000000000000000000000000000000000000000000815260040161228c90614640565b60405180910390fd5b81518351146122d9576040517f08c379a00000000000000000000000000000000000000000000000000000000081526004016122d090614620565b60405180910390fd5b60006122e3611ca7565b90506122f481600087878787612928565b60005b84518110156123fa57838181518110612339577f4e487b7100000000000000000000000000000000000000000000000000000000600052603260045260246000fd5b6020026020010151600d600087848151811061237e577f4e487b7100000000000000000000000000000000000000000000000000000000600052603260045260246000fd5b6020026020010151815260200190815260200160002060008873ffffffffffffffffffffffffffffffffffffffff1673ffffffffffffffffffffffffffffffffffffffff16815260200190815260200160002060008282546123e09190614cab565b9250508190555080806123f290614e70565b9150506122f7565b508473ffffffffffffffffffffffffffffffffffffffff16600073ffffffffffffffffffffffffffffffffffffffff168273ffffffffffffffffffffffffffffffffffffffff167f4a39dc06d4c0dbc64b70af90fd698a233a518aa5d07e595d983b8c0526c8f7fb878760405161247292919061440c565b60405180910390a461248981600087878787612930565b61249881600087878787612938565b5050505050565b6124a7612167565b6001601060006101000a81548160ff0219169083151502179055507f62e78cea01bee320cd4e420270b5ea74000d11b0c9f74754ebdbfc544b05a2586124eb611ca7565b6040516124f8919061407b565b60405180910390a1565b8173ffffffffffffffffffffffffffffffffffffffff168373ffffffffffffffffffffffffffffffffffffffff161415612571576040517f08c379a0000000000000000000000000000000000000000000000000000000008152600401612568906145e0565b60405180910390fd5b80600e60008573ffffffffffffffffffffffffffffffffffffffff1673ffffffffffffffffffffffffffffffffffffffff16815260200190815260200160002060008473ffffffffffffffffffffffffffffffffffffffff1673ffffffffffffffffffffffffffffffffffffffff16815260200190815260200160002060006101000a81548160ff0219169083151502179055508173ffffffffffffffffffffffffffffffffffffffff168373ffffffffffffffffffffffffffffffffffffffff167f17307eab39ab6107e8899845ad3d59bd9653f200f220920489ca2b5937696c31836040516126629190614443565b60405180910390a3505050565b80600f9080519060200190612685929190612e1c565b5050565b600073ffffffffffffffffffffffffffffffffffffffff168473ffffffffffffffffffffffffffffffffffffffff1614156126f9576040517f08c379a00000000000000000000000000000000000000000000000000000000081526004016126f090614580565b60405180910390fd5b6000612703611ca7565b9050600061271085612b4c565b9050600061271d85612b4c565b905061272d838989858589612928565b6000600d600088815260200190815260200160002060008a73ffffffffffffffffffffffffffffffffffffffff1673ffffffffffffffffffffffffffffffffffffffff168152602001908152602001600020549050858110156127c5576040517f08c379a00000000000000000000000000000000000000000000000000000000081526004016127bc906145a0565b60405180910390fd5b858103600d600089815260200190815260200160002060008b73ffffffffffffffffffffffffffffffffffffffff1673ffffffffffffffffffffffffffffffffffffffff1681526020019081526020016000208190555085600d600089815260200190815260200160002060008a73ffffffffffffffffffffffffffffffffffffffff1673ffffffffffffffffffffffffffffffffffffffff168152602001908152602001600020600082825461287c9190614cab565b925050819055508773ffffffffffffffffffffffffffffffffffffffff168973ffffffffffffffffffffffffffffffffffffffff168573ffffffffffffffffffffffffffffffffffffffff167fc3d58168c5ae7397731d063d5bbf3d657854427343f4c083240f7aacaa2d0f628a8a6040516128f99291906147df565b60405180910390a461290f848a8a86868a612930565b61291d848a8a8a8a8a612c12565b505050505050505050565b505050505050565b505050505050565b6129578473ffffffffffffffffffffffffffffffffffffffff16612df9565b15612b17578373ffffffffffffffffffffffffffffffffffffffff1663bc197c8187878686866040518663ffffffff1660e01b815260040161299d959493929190614188565b602060405180830381600087803b1580156129b757600080fd5b505af19250505080156129e857506040513d601f19601f820116820180604052508101906129e591906134e5565b60015b612a8e576129f4614f46565b806308c379a01415612a515750612a096153de565b80612a145750612a53565b806040517f08c379a0000000000000000000000000000000000000000000000000000000008152600401612a48919061445e565b60405180910390fd5b505b6040517f08c379a0000000000000000000000000000000000000000000000000000000008152600401612a8590614480565b60405180910390fd5b63bc197c8160e01b7bffffffffffffffffffffffffffffffffffffffffffffffffffffffff1916817bffffffffffffffffffffffffffffffffffffffffffffffffffffffff191614612b15576040517f08c379a0000000000000000000000000000000000000000000000000000000008152600401612b0c906144c0565b60405180910390fd5b505b505050505050565b6000807f7ebe20acead178826e523aa23b9f2d4ec9903a0a82ea2ad143a2aab72ae49df190508091505090565b60606000600167ffffffffffffffff811115612b91577f4e487b7100000000000000000000000000000000000000000000000000000000600052604160045260246000fd5b604051908082528060200260200182016040528015612bbf5781602001602082028036833780820191505090505b5090508281600081518110612bfd577f4e487b7100000000000000000000000000000000000000000000000000000000600052603260045260246000fd5b60200260200101818152505080915050919050565b612c318473ffffffffffffffffffffffffffffffffffffffff16612df9565b15612df1578373ffffffffffffffffffffffffffffffffffffffff1663f23a6e6187878686866040518663ffffffff1660e01b8152600401612c779594939291906141f0565b602060405180830381600087803b158015612c9157600080fd5b505af1925050508015612cc257506040513d601f19601f82011682018060405250810190612cbf91906134e5565b60015b612d6857612cce614f46565b806308c379a01415612d2b5750612ce36153de565b80612cee5750612d2d565b806040517f08c379a0000000000000000000000000000000000000000000000000000000008152600401612d22919061445e565b60405180910390fd5b505b6040517f08c379a0000000000000000000000000000000000000000000000000000000008152600401612d5f90614480565b60405180910390fd5b63f23a6e6160e01b7bffffffffffffffffffffffffffffffffffffffffffffffffffffffff1916817bffffffffffffffffffffffffffffffffffffffffffffffffffffffff191614612def576040517f08c379a0000000000000000000000000000000000000000000000000000000008152600401612de6906144c0565b60405180910390fd5b505b505050505050565b6000808273ffffffffffffffffffffffffffffffffffffffff163b119050919050565b828054612e2890614e0d565b90600052602060002090601f016020900481019282612e4a5760008555612e91565b82601f10612e6357805160ff1916838001178555612e91565b82800160010185558215612e91579182015b82811115612e90578251825591602001919060010190612e75565b5b509050612e9e9190612ea2565b5090565b5b80821115612ebb576000816000905550600101612ea3565b5090565b6000612ed2612ecd84614932565b61490d565b90508083825260208201905082856020860282011115612ef157600080fd5b60005b85811015612f215781612f078882613051565b845260208401935060208301925050600181019050612ef4565b5050509392505050565b6000612f3e612f398461495e565b61490d565b90508083825260208201905082856020860282011115612f5d57600080fd5b60005b85811015612f8d5781612f7388826131d2565b845260208401935060208301925050600181019050612f60565b5050509392505050565b6000612faa612fa58461498a565b61490d565b905082815260208101848484011115612fc257600080fd5b612fcd848285614dcb565b509392505050565b6000612fe8612fe3846149bb565b61490d565b90508281526020810184848401111561300057600080fd5b61300b848285614dcb565b509392505050565b6000613026613021846149bb565b61490d565b90508281526020810184848401111561303e57600080fd5b613049848285614dda565b509392505050565b60008135905061306081615474565b92915050565b6000813590506130758161548b565b92915050565b600082601f83011261308c57600080fd5b813561309c848260208601612ebf565b91505092915050565b600082601f8301126130b657600080fd5b81356130c6848260208601612f2b565b91505092915050565b6000813590506130de816154a2565b92915050565b6000815190506130f3816154a2565b92915050565b600081359050613108816154b9565b92915050565b60008151905061311d816154b9565b92915050565b600082601f83011261313457600080fd5b8135613144848260208601612f97565b91505092915050565b600082601f83011261315e57600080fd5b813561316e848260208601612fd5565b91505092915050565b600082601f83011261318857600080fd5b8151613198848260208601613013565b91505092915050565b600061012082840312156131b457600080fd5b81905092915050565b6000813590506131cc816154d0565b92915050565b6000813590506131e1816154e7565b92915050565b6000815190506131f6816154e7565b92915050565b6000806040838503121561320f57600080fd5b600061321d85828601613051565b925050602061322e85828601613051565b9150509250929050565b600080600080600060a0868803121561325057600080fd5b600061325e88828901613051565b955050602061326f88828901613051565b945050604086013567ffffffffffffffff81111561328c57600080fd5b613298888289016130a5565b935050606086013567ffffffffffffffff8111156132b557600080fd5b6132c1888289016130a5565b925050608086013567ffffffffffffffff8111156132de57600080fd5b6132ea88828901613123565b9150509295509295909350565b600080600080600060a0868803121561330f57600080fd5b600061331d88828901613051565b955050602061332e88828901613051565b945050604061333f888289016131d2565b9350506060613350888289016131d2565b925050608086013567ffffffffffffffff81111561336d57600080fd5b61337988828901613123565b9150509295509295909350565b6000806040838503121561339957600080fd5b60006133a785828601613051565b92505060206133b8858286016130cf565b9150509250929050565b600080604083850312156133d557600080fd5b60006133e385828601613051565b92505060206133f4858286016131d2565b9150509250929050565b6000806040838503121561341157600080fd5b600083013567ffffffffffffffff81111561342b57600080fd5b6134378582860161307b565b925050602083013567ffffffffffffffff81111561345457600080fd5b613460858286016130a5565b9150509250929050565b60006020828403121561347c57600080fd5b600061348a848285016130cf565b91505092915050565b6000602082840312156134a557600080fd5b60006134b3848285016130e4565b91505092915050565b6000602082840312156134ce57600080fd5b60006134dc848285016130f9565b91505092915050565b6000602082840312156134f757600080fd5b60006135058482850161310e565b91505092915050565b60006020828403121561352057600080fd5b600082013567ffffffffffffffff81111561353a57600080fd5b6135468482850161314d565b91505092915050565b60006020828403121561356157600080fd5b600082015167ffffffffffffffff81111561357b57600080fd5b61358784828501613177565b91505092915050565b600080604083850312156135a357600080fd5b600083013567ffffffffffffffff8111156135bd57600080fd5b6135c98582860161314d565b925050602083013567ffffffffffffffff8111156135e657600080fd5b6135f28582860161314d565b9150509250929050565b60006020828403121561360e57600080fd5b600082013567ffffffffffffffff81111561362857600080fd5b613634848285016131a1565b91505092915050565b60006020828403121561364f57600080fd5b600061365d848285016131bd565b91505092915050565b60006020828403121561367857600080fd5b6000613686848285016131d2565b91505092915050565b600080604083850312156136a257600080fd5b60006136b0858286016131d2565b92505060206136c185828601613066565b9150509250929050565b600080604083850312156136de57600080fd5b60006136ec858286016131d2565b925050602083013567ffffffffffffffff81111561370957600080fd5b6137158582860161314d565b9150509250929050565b6000806040838503121561373257600080fd5b6000613740858286016131d2565b9250506020613751858286016131d2565b9150509250929050565b6000806040838503121561376e57600080fd5b600061377c858286016131e7565b925050602061378d858286016131e7565b9150509250929050565b60006137a38383613833565b60208301905092915050565b60006137bb8383613e91565b60408301905092915050565b60006137d38383613fea565b60208301905092915050565b60006137eb8383613ff9565b60208301905092915050565b61380081614d95565b82525050565b61380f81614d13565b82525050565b61381e81614d13565b82525050565b61382d81614d01565b82525050565b61383c81614d01565b82525050565b600061384e8385614a95565b9350613859826149ec565b8060005b858110156138925761386f8284614b4a565b6138798882613797565b975061388483614a61565b92505060018101905061385d565b5085925050509392505050565b60006138ab8385614aa6565b93506138b6826149ec565b8060005b858110156138ef576138cc8284614b4a565b6138d68882613797565b97506138e183614a61565b9250506001810190506138ba565b5085925050509392505050565b600061390782614a35565b6139118185614ab7565b935061391c836149f6565b8060005b8381101561394d57815161393488826137af565b975061393f83614a6e565b925050600181019050613920565b5085935050505092915050565b60006139668385614ac8565b935061397182614a06565b8060005b858110156139aa576139878284614c7d565b61399188826137c7565b975061399c83614a7b565b925050600181019050613975565b5085925050509392505050565b60006139c38385614ad9565b93506139ce82614a06565b8060005b85811015613a07576139e48284614c7d565b6139ee88826137c7565b97506139f983614a7b565b9250506001810190506139d2565b5085925050509392505050565b6000613a1f82614a40565b613a298185614aea565b9350613a3483614a10565b8060005b83811015613a65578151613a4c88826137df565b9750613a5783614a88565b925050600181019050613a38565b5085935050505092915050565b613a7b81614d25565b82525050565b613a8a81614d25565b82525050565b6000613a9b82614a4b565b613aa58185614afb565b9350613ab5818560208601614dda565b613abe81614f68565b840191505092915050565b8082525050565b8082525050565b8082525050565b6000613aea8385614b0c565b9350613af7838584614dcb565b613b0083614f68565b840190509392505050565b6000613b178385614b2e565b9350613b24838584614dcb565b613b2d83614f68565b840190509392505050565b6000613b4382614a56565b613b4d8185614b0c565b9350613b5d818560208601614dda565b613b6681614f68565b840191505092915050565b6000613b7c82614a56565b613b868185614b1d565b9350613b96818560208601614dda565b613b9f81614f68565b840191505092915050565b6000613bb582614a56565b613bbf8185614b3f565b9350613bcf818560208601614dda565b80840191505092915050565b60008154613be881614e0d565b613bf28186614b3f565b94506001821660008114613c0d5760018114613c1e57613c51565b60ff19831686528186019350613c51565b613c2785614a20565b60005b83811015613c4957815481890152600182019150602081019050613c2a565b838801955050505b50505092915050565b6000613c67603483614b0c565b9150613c7282614f86565b604082019050919050565b6000613c8a602f83614b0c565b9150613c9582614fd5565b604082019050919050565b6000613cad602883614b0c565b9150613cb882615024565b604082019050919050565b6000613cd0601483614b0c565b9150613cdb82615073565b602082019050919050565b6000613cf3602283614b0c565b9150613cfe8261509c565b604082019050919050565b6000613d16602a83614b0c565b9150613d21826150eb565b604082019050919050565b6000613d39602983614b0c565b9150613d448261513a565b604082019050919050565b6000613d5c601083614b0c565b9150613d6782615189565b602082019050919050565b6000613d7f602583614b0c565b9150613d8a826151b2565b604082019050919050565b6000613da2602a83614b0c565b9150613dad82615201565b604082019050919050565b6000613dc5600983614b0c565b9150613dd082615250565b602082019050919050565b6000613de8600483614b3f565b9150613df382615279565b600482019050919050565b6000613e0b602983614b0c565b9150613e16826152a2565b604082019050919050565b6000613e2e602983614b0c565b9150613e39826152f1565b604082019050919050565b6000613e51602883614b0c565b9150613e5c82615340565b604082019050919050565b6000613e74602183614b0c565b9150613e7f8261538f565b604082019050919050565b8082525050565b604082016000820151613ea76000850182613806565b506020820151613eba6020850182613ff9565b50505050565b60006101208301613ed46000840184614c7d565b613ee16000860182613fea565b50613eef6020840184614c94565b613efc6020860182614026565b50613f0a6040840184614c26565b8583036040870152613f1d838284613b0b565b92505050613f2e6060840184614c26565b8583036060870152613f41838284613b0b565b92505050613f526080840184614b61565b8583036080870152613f6583828461389f565b92505050613f7660a0840184614bb8565b85830360a0870152613f898382846139b7565b92505050613f9a60c0840184614c7d565b613fa760c0860182613fea565b50613fb560e0840184614c0f565b613fc260e0860182613a81565b50613fd1610100840184614c94565b613fdf610100860182614026565b508091505092915050565b613ff381614d5d565b82525050565b61400281614d8b565b82525050565b61401181614d8b565b82525050565b61402081614d8b565b82525050565b61402f81614d8b565b82525050565b60006140418284613baa565b915061404c82613ddb565b915081905092915050565b60006140638285613bdb565b915061406f8284613bdb565b91508190509392505050565b60006020820190506140906000830184613824565b92915050565b60006080820190506140ab6000830187613815565b6140b86020830186614017565b6140c56040830185613ad7565b6140d26060830184613e8a565b95945050505050565b600060a0820190506140f06000830188613815565b6140fd6020830187614017565b61410a6040830186613ad7565b6141176060830185614017565b6141246080830184613e8a565b9695505050505050565b600060a0820190506141436000830188613815565b6141506020830187614017565b81810360408301526141628186613b71565b90506141716060830185613ad0565b61417e6080830184613e8a565b9695505050505050565b600060a08201905061419d6000830188613824565b6141aa6020830187613824565b81810360408301526141bc8186613a14565b905081810360608301526141d08185613a14565b905081810360808301526141e48184613a90565b90509695505050505050565b600060a0820190506142056000830188613824565b6142126020830187613824565b61421f6040830186614008565b61422c6060830185614008565b818103608083015261423e8184613a90565b90509695505050505050565b600060608201905061425f6000830186613824565b61426c6020830185614008565b6142796040830184613a72565b949350505050565b60006080820190506142966000830187613824565b6142a36020830186614008565b81810360408301526142b58185613b38565b905081810360608301526142c98184613b38565b905095945050505050565b60006080820190506142e96000830187613824565b6142f66020830186614008565b6143036040830185614008565b6143106060830184614008565b95945050505050565b600060a08201905061432e6000830189613824565b61433b6020830188614008565b6143486040830187614008565b6143556060830186614008565b8181036080830152614368818486613ade565b9050979650505050505050565b600060a08201905061438a6000830188613824565b6143976020830187614008565b6143a46040830186614008565b6143b16060830185614008565b6143be6080830184614008565b9695505050505050565b600060208201905081810360008301526143e281846138fc565b905092915050565b600060208201905081810360008301526144048184613a14565b905092915050565b600060408201905081810360008301526144268185613a14565b9050818103602083015261443a8184613a14565b90509392505050565b60006020820190506144586000830184613a72565b92915050565b600060208201905081810360008301526144788184613b38565b905092915050565b6000602082019050818103600083015261449981613c5a565b9050919050565b600060208201905081810360008301526144b981613c7d565b9050919050565b600060208201905081810360008301526144d981613ca0565b9050919050565b600060208201905081810360008301526144f981613cc3565b9050919050565b6000602082019050818103600083015261451981613ce6565b9050919050565b6000602082019050818103600083015261453981613d09565b9050919050565b6000602082019050818103600083015261455981613d2c565b9050919050565b6000602082019050818103600083015261457981613d4f565b9050919050565b6000602082019050818103600083015261459981613d72565b9050919050565b600060208201905081810360008301526145b981613d95565b9050919050565b600060208201905081810360008301526145d981613db8565b9050919050565b600060208201905081810360008301526145f981613dfe565b9050919050565b6000602082019050818103600083015261461981613e21565b9050919050565b6000602082019050818103600083015261463981613e44565b9050919050565b6000602082019050818103600083015261465981613e67565b9050919050565b6000602082019050818103600083015261467a8184613ec0565b905092915050565b60006020820190506146976000830184614008565b92915050565b600060a0820190506146b26000830188614008565b6146bf60208301876137f7565b6146cc6040830186613824565b6146d96060830185613824565b6146e66080830184614008565b9695505050505050565b60006080820190506147056000830187614017565b6147126020830186613815565b61471f6040830185613ad7565b61472c6060830184613e8a565b95945050505050565b600060a08201905061474a6000830188614008565b6147576020830187613824565b6147646040830186613824565b6147716060830185613824565b61477e6080830184614008565b9695505050505050565b600060808201905061479d6000830189614017565b81810360208301526147b0818789613842565b905081810360408301526147c581858761395a565b90506147d46060830184613ac9565b979650505050505050565b60006040820190506147f46000830185614008565b6148016020830184614008565b9392505050565b6000808335600160200384360303811261482157600080fd5b80840192508235915067ffffffffffffffff82111561483f57600080fd5b60208301925060208202360383131561485757600080fd5b509250929050565b6000808335600160200384360303811261487857600080fd5b80840192508235915067ffffffffffffffff82111561489657600080fd5b6020830192506020820236038313156148ae57600080fd5b509250929050565b600080833560016020038436030381126148cf57600080fd5b80840192508235915067ffffffffffffffff8211156148ed57600080fd5b60208301925060018202360383131561490557600080fd5b509250929050565b6000614917614928565b90506149238282614e3f565b919050565b6000604051905090565b600067ffffffffffffffff82111561494d5761494c614f17565b5b602082029050602081019050919050565b600067ffffffffffffffff82111561497957614978614f17565b5b602082029050602081019050919050565b600067ffffffffffffffff8211156149a5576149a4614f17565b5b6149ae82614f68565b9050602081019050919050565b600067ffffffffffffffff8211156149d6576149d5614f17565b5b6149df82614f68565b9050602081019050919050565b6000819050919050565b6000819050602082019050919050565b6000819050919050565b6000819050602082019050919050565b60008190508160005260206000209050919050565b600081519050919050565b600081519050919050565b600081519050919050565b600081519050919050565b6000602082019050919050565b6000602082019050919050565b6000602082019050919050565b6000602082019050919050565b600082825260208201905092915050565b600082825260208201905092915050565b600082825260208201905092915050565b600082825260208201905092915050565b600082825260208201905092915050565b600082825260208201905092915050565b600082825260208201905092915050565b600082825260208201905092915050565b600082825260208201905092915050565b600082825260208201905092915050565b600081905092915050565b6000614b596020840184613051565b905092915050565b60008083356001602003843603038112614b7a57600080fd5b83810192508235915060208301925067ffffffffffffffff821115614b9e57600080fd5b602082023603841315614bb057600080fd5b509250929050565b60008083356001602003843603038112614bd157600080fd5b83810192508235915060208301925067ffffffffffffffff821115614bf557600080fd5b602082023603841315614c0757600080fd5b509250929050565b6000614c1e60208401846130cf565b905092915050565b60008083356001602003843603038112614c3f57600080fd5b83810192508235915060208301925067ffffffffffffffff821115614c6357600080fd5b600182023603841315614c7557600080fd5b509250929050565b6000614c8c60208401846131bd565b905092915050565b6000614ca360208401846131d2565b905092915050565b6000614cb682614d8b565b9150614cc183614d8b565b9250827fffffffffffffffffffffffffffffffffffffffffffffffffffffffffffffffff03821115614cf657614cf5614eb9565b5b828201905092915050565b6000614d0c82614d6b565b9050919050565b6000614d1e82614d6b565b9050919050565b60008115159050919050565b60007fffffffff0000000000000000000000000000000000000000000000000000000082169050919050565b600061ffff82169050919050565b600073ffffffffffffffffffffffffffffffffffffffff82169050919050565b6000819050919050565b6000614da082614da7565b9050919050565b6000614db282614db9565b9050919050565b6000614dc482614d6b565b9050919050565b82818337600083830152505050565b60005b83811015614df8578082015181840152602081019050614ddd565b83811115614e07576000848401525b50505050565b60006002820490506001821680614e2557607f821691505b60208210811415614e3957614e38614ee8565b5b50919050565b614e4882614f68565b810181811067ffffffffffffffff82111715614e6757614e66614f17565b5b80604052505050565b6000614e7b82614d8b565b91507fffffffffffffffffffffffffffffffffffffffffffffffffffffffffffffffff821415614eae57614ead614eb9565b5b600182019050919050565b7f4e487b7100000000000000000000000000000000000000000000000000000000600052601160045260246000fd5b7f4e487b7100000000000000000000000000000000000000000000000000000000600052602260045260246000fd5b7f4e487b7100000000000000000000000000000000000000000000000000000000600052604160045260246000fd5b600060033d1115614f655760046000803e614f62600051614f79565b90505b90565b6000601f19601f8301169050919050565b60008160e01c9050919050565b7f455243313135353a207472616e7366657220746f206e6f6e204552433131353560008201527f526563656976657220696d706c656d656e746572000000000000000000000000602082015250565b7f455243313135353a2063616c6c6572206973206e6f7420746f6b656e206f776e60008201527f6572206e6f7220617070726f7665640000000000000000000000000000000000602082015250565b7f455243313135353a204552433131353552656365697665722072656a6563746560008201527f6420746f6b656e73000000000000000000000000000000000000000000000000602082015250565b7f5061757361626c653a206e6f7420706175736564000000000000000000000000600082015250565b7f4c69624469616d6f6e643a204d75737420626520636f6e7472616374206f776e60008201527f6572000000000000000000000000000000000000000000000000000000000000602082015250565b7f455243313135353a2061646472657373207a65726f206973206e6f742061207660008201527f616c6964206f776e657200000000000000000000000000000000000000000000602082015250565b7f4d75737420626520746f6b656e206f776e657220746f2063616c6c207468697360008201527f2066756e6374696f6e0000000000000000000000000000000000000000000000602082015250565b7f5061757361626c653a2070617573656400000000000000000000000000000000600082015250565b7f455243313135353a207472616e7366657220746f20746865207a65726f20616460008201527f6472657373000000000000000000000000000000000000000000000000000000602082015250565b7f455243313135353a20696e73756666696369656e742062616c616e636520666f60008201527f72207472616e7366657200000000000000000000000000000000000000000000602082015250565b7f546f6b656e20444e450000000000000000000000000000000000000000000000600082015250565b7f7b69647d00000000000000000000000000000000000000000000000000000000600082015250565b7f455243313135353a2073657474696e6720617070726f76616c2073746174757360008201527f20666f722073656c660000000000000000000000000000000000000000000000602082015250565b7f455243313135353a206163636f756e747320616e6420696473206c656e67746860008201527f206d69736d617463680000000000000000000000000000000000000000000000602082015250565b7f455243313135353a2069647320616e6420616d6f756e7473206c656e6774682060008201527f6d69736d61746368000000000000000000000000000000000000000000000000602082015250565b7f455243313135353a206d696e7420746f20746865207a65726f2061646472657360008201527f7300000000000000000000000000000000000000000000000000000000000000602082015250565b600060443d10156153ee57615471565b6153f6614928565b60043d036004823e80513d602482011167ffffffffffffffff8211171561541e575050615471565b808201805167ffffffffffffffff81111561543c5750505050615471565b80602083010160043d038501811115615459575050505050615471565b61546882602001850186614e3f565b82955050505050505b90565b61547d81614d01565b811461548857600080fd5b50565b61549481614d13565b811461549f57600080fd5b50565b6154ab81614d25565b81146154b657600080fd5b50565b6154c281614d31565b81146154cd57600080fd5b50565b6154d981614d5d565b81146154e457600080fd5b50565b6154f081614d8b565b81146154fb57600080fd5b5056fea26469706673582212206b212f4d68a7bf1587dc4cc49626a44f47d3c861df69262c0f6ba132edc3947f64736f6c63430008040033",
	"linkReferences": {
		"contracts/Musixverse/libraries/LibMusixverse.sol": {
			"LibMusixverse": [
				{
					"length": 20,
					"start": 4634
				},
				{
					"length": 20,
					"start": 5418
				},
				{
					"length": 20,
					"start": 6403
				},
				{
					"length": 20,
					"start": 6944
				},
				{
					"length": 20,
					"start": 7226
				},
				{
					"length": 20,
					"start": 8058
				},
				{
					"length": 20,
					"start": 8491
				}
			]
		}
	},
	"deployedLinkReferences": {
		"contracts/Musixverse/libraries/LibMusixverse.sol": {
			"LibMusixverse": [
				{
					"length": 20,
					"start": 3061
				},
				{
					"length": 20,
					"start": 3845
				},
				{
					"length": 20,
					"start": 4830
				},
				{
					"length": 20,
					"start": 5371
				},
				{
					"length": 20,
					"start": 5653
				},
				{
					"length": 20,
					"start": 6485
				},
				{
					"length": 20,
					"start": 6918
				}
			]
		}
	}
}