{
  "_format": "hh-sol-artifact-1",
  "contractName": "MusixverseLib",
  "sourceName": "contracts/v1/lib/MusixverseLib.sol",
  "abi": [
    {
      "inputs": [
        {
          "internalType": "uint16",
          "name": "amount",
          "type": "uint16"
        },
        {
          "internalType": "uint256",
          "name": "price",
          "type": "uint256"
        },
        {
          "internalType": "string",
          "name": "URIHash",
          "type": "string"
        },
        {
          "internalType": "address[]",
          "name": "collaborators",
          "type": "address[]"
        },
        {
          "internalType": "uint16[]",
          "name": "percentageContributions",
          "type": "uint16[]"
        },
        {
          "internalType": "uint16",
          "name": "resaleRoyaltyPercentage",
          "type": "uint16"
        }
      ],
      "name": "checkForMinting",
      "outputs": [],
      "stateMutability": "pure",
      "type": "function"
    },
    {
      "inputs": [
        {
          "internalType": "address[]",
          "name": "collaborators",
          "type": "address[]"
        },
        {
          "internalType": "uint16[]",
          "name": "percentageContributions",
          "type": "uint16[]"
        }
      ],
      "name": "checkForRoyalties",
      "outputs": [],
      "stateMutability": "pure",
      "type": "function"
    },
    {
      "inputs": [
        {
          "components": [
            {
              "internalType": "uint256",
              "name": "price",
              "type": "uint256"
            },
            {
              "internalType": "address",
              "name": "artistAddress",
              "type": "address"
            },
            {
              "internalType": "uint16",
              "name": "resaleRoyaltyPercentage",
              "type": "uint16"
            },
            {
              "internalType": "bool",
              "name": "onSale",
              "type": "bool"
            },
            {
              "internalType": "bool",
              "name": "soldOnce",
              "type": "bool"
            },
            {
              "internalType": "uint256",
              "name": "unlockTimestamp",
              "type": "uint256"
            }
          ],
          "internalType": "struct MusixverseEternalStorage.TrackNFT",
          "name": "trackNFT",
          "type": "tuple"
        },
        {
          "internalType": "address",
          "name": "prevOwner",
          "type": "address"
        }
      ],
      "name": "checkForSale",
      "outputs": [],
      "stateMutability": "view",
      "type": "function"
    },
    {
      "inputs": [
        {
          "internalType": "address payable",
          "name": "PLATFORM_ADDRESS",
          "type": "address"
        },
        {
          "internalType": "uint256",
          "name": "tokenId",
          "type": "uint256"
        }
      ],
      "name": "isNFTOwner",
      "outputs": [],
      "stateMutability": "view",
      "type": "function"
    },
    {
      "inputs": [
        {
          "components": [
            {
              "internalType": "uint256",
              "name": "price",
              "type": "uint256"
            },
            {
              "internalType": "address",
              "name": "artistAddress",
              "type": "address"
            },
            {
              "internalType": "uint16",
              "name": "resaleRoyaltyPercentage",
              "type": "uint16"
            },
            {
              "internalType": "bool",
              "name": "onSale",
              "type": "bool"
            },
            {
              "internalType": "bool",
              "name": "soldOnce",
              "type": "bool"
            },
            {
              "internalType": "uint256",
              "name": "unlockTimestamp",
              "type": "uint256"
            }
          ],
          "internalType": "struct MusixverseEternalStorage.TrackNFT",
          "name": "trackNFT",
          "type": "tuple"
        }
      ],
      "name": "isPastUnlockTimestamp",
      "outputs": [],
      "stateMutability": "view",
      "type": "function"
    }
  ],
  "bytecode": "0x6129b4610053600b82828239805160001a607314610046577f4e487b7100000000000000000000000000000000000000000000000000000000600052600060045260246000fd5b30600052607381538281f3fe73000000000000000000000000000000000000000030146080604052600436106100b35760003560e01c8063497a033a1161007b578063497a033a1461018057806360b56535146101bd57806393a6aa18146101d9578063a12bb00f146101f5578063cd2aeaaa14610211578063f23becbf1461022d576100b3565b806308363d7f146100b85780631d5492e4146100f65780631fa674861461011f578063224c025e1461013b5780633fe56e1114610164575b600080fd5b8180156100c457600080fd5b506100df60048036038101906100da91906118ea565b610249565b6040516100ed9291906121a9565b60405180910390f35b81801561010257600080fd5b5061011d60048036038101906101189190611bd3565b6103ad565b005b61013960048036038101906101349190611a8f565b61053a565b005b81801561014757600080fd5b50610162600480360381019061015d9190611c6e565b610641565b005b61017e60048036038101906101799190611af4565b6107da565b005b81801561018c57600080fd5b506101a760048036038101906101a29190611887565b610946565b6040516101b49190611f93565b60405180910390f35b6101d760048036038101906101d29190611961565b610bf3565b005b6101f360048036038101906101ee9190611ce5565b610c0c565b005b61020f600480360381019061020a9190611a66565b610c67565b005b61022b6004803603810190610226919061184b565b610cb0565b005b610247600480360381019061024291906119b0565b610daa565b005b600080610257878785610bf3565b60008560008881526020019081526020016000209050600081600001549050858260000181905550818760008a8152602001908152602001600020600082015481600001556001820160009054906101000a900473ffffffffffffffffffffffffffffffffffffffff168160010160006101000a81548173ffffffffffffffffffffffffffffffffffffffff021916908373ffffffffffffffffffffffffffffffffffffffff1602179055506001820160149054906101000a900461ffff168160010160146101000a81548161ffff021916908361ffff1602179055506001820160169054906101000a900460ff168160010160166101000a81548160ff0219169083151502179055506001820160179054906101000a900460ff168160010160176101000a81548160ff0219169083151502179055506002820154816002015590505080869350935050509550959350505050565b6103b985858585610daa565b60005b8585905081101561053157816000888152602001908152602001600020604051806040016040528088888581811061041d577f4e487b7100000000000000000000000000000000000000000000000000000000600052603260045260246000fd5b905060200201602081019061043291906117f9565b73ffffffffffffffffffffffffffffffffffffffff168152602001868685818110610486577f4e487b7100000000000000000000000000000000000000000000000000000000600052603260045260246000fd5b905060200201602081019061049b9190611acb565b61ffff16815250908060018154018082558091505060019003906000526020600020906002020160009091909190915060008201518160000160006101000a81548173ffffffffffffffffffffffffffffffffffffffff021916908373ffffffffffffffffffffffffffffffffffffffff16021790555060208201518160010155505080806105299061242e565b9150506103bc565b50505050505050565b61054382610c67565b8160600151610587576040517f08c379a000000000000000000000000000000000000000000000000000000000815260040161057e90611fee565b60405180910390fd5b3373ffffffffffffffffffffffffffffffffffffffff168173ffffffffffffffffffffffffffffffffffffffff1614156105f6576040517f08c379a00000000000000000000000000000000000000000000000000000000081526004016105ed906120ce565b60405180910390fd5b816000015134101561063d576040517f08c379a00000000000000000000000000000000000000000000000000000000081526004016106349061208e565b60405180910390fd5b5050565b61064b8582610c0c565b60008460008781526020019081526020016000206040518060c0016040529081600082015481526020016001820160009054906101000a900473ffffffffffffffffffffffffffffffffffffffff1673ffffffffffffffffffffffffffffffffffffffff1673ffffffffffffffffffffffffffffffffffffffff1681526020016001820160149054906101000a900461ffff1661ffff1661ffff1681526020016001820160169054906101000a900460ff161515151581526020016001820160179054906101000a900460ff16151515158152602001600282015481525050905060008473ffffffffffffffffffffffffffffffffffffffff16636352211e886040518263ffffffff1660e01b8152600401610767919061218e565b60206040518083038186803b15801561077f57600080fd5b505afa158015610793573d6000803e3d6000fd5b505050506040513d601f19601f820116820180604052508101906107b79190611822565b90506107c3828261053a565b6107d187838387898b610f6b565b50505050505050565b60008961ffff1611610821576040517f08c379a00000000000000000000000000000000000000000000000000000000081526004016108189061212e565b60405180910390fd5b60008811610864576040517f08c379a000000000000000000000000000000000000000000000000000000000815260040161085b9061216e565b60405180910390fd5b60008787905014156108ab576040517f08c379a00000000000000000000000000000000000000000000000000000000081526004016108a2906120ee565b60405180910390fd5b8282905085859050146108f3576040517f08c379a00000000000000000000000000000000000000000000000000000000081526004016108ea9061200e565b60405180910390fd5b60008161ffff16101561093b576040517f08c379a000000000000000000000000000000000000000000000000000000000815260040161093290611fae565b60405180910390fd5b505050505050505050565b6000610953858584610bf3565b60008360008681526020019081526020016000209050610a3d816040518060c0016040529081600082015481526020016001820160009054906101000a900473ffffffffffffffffffffffffffffffffffffffff1673ffffffffffffffffffffffffffffffffffffffff1673ffffffffffffffffffffffffffffffffffffffff1681526020016001820160149054906101000a900461ffff1661ffff1661ffff1681526020016001820160169054906101000a900460ff161515151581526020016001820160179054906101000a900460ff16151515158152602001600282015481525050610c67565b600115158160010160169054906101000a900460ff1615151415610a7d5760008160010160166101000a81548160ff021916908315150217905550610aba565b600015158160010160169054906101000a900460ff1615151415610ab95760018160010160166101000a81548160ff0219169083151502179055505b5b80846000878152602001908152602001600020600082015481600001556001820160009054906101000a900473ffffffffffffffffffffffffffffffffffffffff168160010160006101000a81548173ffffffffffffffffffffffffffffffffffffffff021916908373ffffffffffffffffffffffffffffffffffffffff1602179055506001820160149054906101000a900461ffff168160010160146101000a81548161ffff021916908361ffff1602179055506001820160169054906101000a900460ff168160010160166101000a81548160ff0219169083151502179055506001820160179054906101000a900460ff168160010160176101000a81548160ff021916908315150217905550600282015481600201559050508060010160169054906101000a900460ff16915050949350505050565b610bfd8282610c0c565b610c078383610cb0565b505050565b600082118015610c245750610c20816111c1565b8211155b610c63576040517f08c379a0000000000000000000000000000000000000000000000000000000008152600401610c5a9061202e565b60405180910390fd5b5050565b8060a001514211610cad576040517f08c379a0000000000000000000000000000000000000000000000000000000008152600401610ca49061210e565b60405180910390fd5b50565b3373ffffffffffffffffffffffffffffffffffffffff168273ffffffffffffffffffffffffffffffffffffffff16636352211e836040518263ffffffff1660e01b8152600401610d00919061218e565b60206040518083038186803b158015610d1857600080fd5b505afa158015610d2c573d6000803e3d6000fd5b505050506040513d601f19601f82011682018060405250810190610d509190611822565b73ffffffffffffffffffffffffffffffffffffffff1614610da6576040517f08c379a0000000000000000000000000000000000000000000000000000000008152600401610d9d90611fce565b60405180910390fd5b5050565b818190508484905014610df2576040517f08c379a0000000000000000000000000000000000000000000000000000000008152600401610de99061200e565b60405180910390fd5b60005b84849050811015610f6457600073ffffffffffffffffffffffffffffffffffffffff16858583818110610e51577f4e487b7100000000000000000000000000000000000000000000000000000000600052603260045260246000fd5b9050602002016020810190610e6691906117f9565b73ffffffffffffffffffffffffffffffffffffffff161415610ebd576040517f08c379a0000000000000000000000000000000000000000000000000000000008152600401610eb49061214e565b60405180910390fd5b6000838383818110610ef8577f4e487b7100000000000000000000000000000000000000000000000000000000600052603260045260246000fd5b9050602002016020810190610f0d9190611acb565b61ffff1611610f51576040517f08c379a0000000000000000000000000000000000000000000000000000000008152600401610f48906120ae565b60405180910390fd5b8080610f5c9061242e565b915050610df5565b5050505050565b6000610f966064610f888660ff16346111cf90919063ffffffff16565b6111e590919063ffffffff16565b9050610fa283826111fb565b856080015115611083576000610fdc6064610fce896040015161ffff16346111cf90919063ffffffff16565b6111e590919063ffffffff16565b9050610fe98489836112ef565b600061103360646110258a604001518960ff16611006919061223f565b60646110129190612302565b61ffff16346111cf90919063ffffffff16565b6111e590919063ffffffff16565b90508673ffffffffffffffffffffffffffffffffffffffff166108fc829081150290604051600060405180830381858888f1935050505015801561107b573d6000803e3d6000fd5b5050506110c9565b60006110ba60646110ac87606461109a9190612336565b60ff16346111cf90919063ffffffff16565b6111e590919063ffffffff16565b90506110c78489836112ef565b505b85608001516111b8576001866080019015159081151581525050858260008981526020019081526020016000206000820151816000015560208201518160010160006101000a81548173ffffffffffffffffffffffffffffffffffffffff021916908373ffffffffffffffffffffffffffffffffffffffff16021790555060408201518160010160146101000a81548161ffff021916908361ffff16021790555060608201518160010160166101000a81548160ff02191690831515021790555060808201518160010160176101000a81548160ff02191690831515021790555060a082015181600201559050505b50505050505050565b600081600001549050919050565b600081836111dd91906122a8565b905092915050565b600081836111f39190612277565b905092915050565b8047101561123e576040517f08c379a00000000000000000000000000000000000000000000000000000000081526004016112359061206e565b60405180910390fd5b60008273ffffffffffffffffffffffffffffffffffffffff168260405161126490611f7e565b60006040518083038185875af1925050503d80600081146112a1576040519150601f19603f3d011682016040523d82523d6000602084013e6112a6565b606091505b50509050806112ea576040517f08c379a00000000000000000000000000000000000000000000000000000000081526004016112e19061204e565b60405180910390fd5b505050565b60008373ffffffffffffffffffffffffffffffffffffffff1663b76c632b846040518263ffffffff1660e01b815260040161132a919061218e565b60006040518083038186803b15801561134257600080fd5b505afa158015611356573d6000803e3d6000fd5b505050506040513d6000823e3d601f19601f8201168201806040525081019061137f9190611a25565b905060005b815181101561149a5760006113f960646113eb8585815181106113d0577f4e487b7100000000000000000000000000000000000000000000000000000000600052603260045260246000fd5b602002602001015160200151876111cf90919063ffffffff16565b6111e590919063ffffffff16565b9050828281518110611434577f4e487b7100000000000000000000000000000000000000000000000000000000600052603260045260246000fd5b60200260200101516000015173ffffffffffffffffffffffffffffffffffffffff166108fc829081150290604051600060405180830381858888f19350505050158015611485573d6000803e3d6000fd5b505080806114929061242e565b915050611384565b5050505050565b60006114b46114af846121f7565b6121d2565b905080838252602082019050828560408602820111156114d357600080fd5b60005b8581101561150357816114e988826116bd565b8452602084019350604083019250506001810190506114d6565b5050509392505050565b60008135905061151c816128af565b92915050565b600081519050611531816128af565b92915050565b600081359050611546816128c6565b92915050565b60008151905061155b816128c6565b92915050565b60008083601f84011261157357600080fd5b8235905067ffffffffffffffff81111561158c57600080fd5b6020830191508360208202830111156115a457600080fd5b9250929050565b600082601f8301126115bc57600080fd5b81516115cc8482602086016114a1565b91505092915050565b60008083601f8401126115e757600080fd5b8235905067ffffffffffffffff81111561160057600080fd5b60208301915083602082028301111561161857600080fd5b9250929050565b60008135905061162e816128dd565b92915050565b600081359050611643816128f4565b92915050565b6000813590506116588161290b565b92915050565b60008083601f84011261167057600080fd5b8235905067ffffffffffffffff81111561168957600080fd5b6020830191508360018202830111156116a157600080fd5b9250929050565b6000813590506116b781612922565b92915050565b6000604082840312156116cf57600080fd5b6116d960406121d2565b905060006116e98482850161154c565b60008301525060206116fd848285016117cf565b60208301525092915050565b600060c0828403121561171b57600080fd5b61172560c06121d2565b90506000611735848285016117ba565b60008301525060206117498482850161150d565b602083015250604061175d848285016117a5565b60408301525060606117718482850161161f565b60608301525060806117858482850161161f565b60808301525060a0611799848285016117ba565b60a08301525092915050565b6000813590506117b481612939565b92915050565b6000813590506117c981612950565b92915050565b6000815190506117de81612950565b92915050565b6000813590506117f381612967565b92915050565b60006020828403121561180b57600080fd5b60006118198482850161150d565b91505092915050565b60006020828403121561183457600080fd5b600061184284828501611522565b91505092915050565b6000806040838503121561185e57600080fd5b600061186c85828601611537565b925050602061187d858286016117ba565b9150509250929050565b6000806000806080858703121561189d57600080fd5b60006118ab87828801611537565b94505060206118bc878288016117ba565b93505060406118cd87828801611649565b92505060606118de878288016116a8565b91505092959194509250565b600080600080600060a0868803121561190257600080fd5b600061191088828901611537565b9550506020611921888289016117ba565b945050604061193288828901611649565b9350506060611943888289016117ba565b9250506080611954888289016116a8565b9150509295509295909350565b60008060006060848603121561197657600080fd5b600061198486828701611537565b9350506020611995868287016117ba565b92505060406119a6868287016116a8565b9150509250925092565b600080600080604085870312156119c657600080fd5b600085013567ffffffffffffffff8111156119e057600080fd5b6119ec87828801611561565b9450945050602085013567ffffffffffffffff811115611a0b57600080fd5b611a17878288016115d5565b925092505092959194509250565b600060208284031215611a3757600080fd5b600082015167ffffffffffffffff811115611a5157600080fd5b611a5d848285016115ab565b91505092915050565b600060c08284031215611a7857600080fd5b6000611a8684828501611709565b91505092915050565b60008060e08385031215611aa257600080fd5b6000611ab085828601611709565b92505060c0611ac18582860161150d565b9150509250929050565b600060208284031215611add57600080fd5b6000611aeb848285016117a5565b91505092915050565b600080600080600080600080600060c08a8c031215611b1257600080fd5b6000611b208c828d016117a5565b9950506020611b318c828d016117ba565b98505060408a013567ffffffffffffffff811115611b4e57600080fd5b611b5a8c828d0161165e565b975097505060608a013567ffffffffffffffff811115611b7957600080fd5b611b858c828d01611561565b955095505060808a013567ffffffffffffffff811115611ba457600080fd5b611bb08c828d016115d5565b935093505060a0611bc38c828d016117a5565b9150509295985092959850929598565b60008060008060008060808789031215611bec57600080fd5b6000611bfa89828a016117ba565b965050602087013567ffffffffffffffff811115611c1757600080fd5b611c2389828a01611561565b9550955050604087013567ffffffffffffffff811115611c4257600080fd5b611c4e89828a016115d5565b93509350506060611c6189828a01611634565b9150509295509295509295565b600080600080600060a08688031215611c8657600080fd5b6000611c94888289016117ba565b9550506020611ca588828901611649565b9450506040611cb688828901611537565b9350506060611cc7888289016117e4565b9250506080611cd8888289016116a8565b9150509295509295909350565b60008060408385031215611cf857600080fd5b6000611d06858286016117ba565b9250506020611d17858286016116a8565b9150509250929050565b611d2a8161238e565b82525050565b6000611d3d603a8361222e565b9150611d4882612515565b604082019050919050565b6000611d6060328361222e565b9150611d6b82612564565b604082019050919050565b6000611d83601e8361222e565b9150611d8e826125b3565b602082019050919050565b6000611da660418361222e565b9150611db1826125dc565b606082019050919050565b6000611dc9600e8361222e565b9150611dd482612651565b602082019050919050565b6000611dec603a8361222e565b9150611df78261267a565b604082019050919050565b6000611e0f601d8361222e565b9150611e1a826126c9565b602082019050919050565b6000611e3260248361222e565b9150611e3d826126f2565b604082019050919050565b6000611e5560258361222e565b9150611e6082612741565b604082019050919050565b6000611e7860218361222e565b9150611e8382612790565b604082019050919050565b6000611e9b600083612223565b9150611ea6826127df565b600082019050919050565b6000611ebe60178361222e565b9150611ec9826127e2565b602082019050919050565b6000611ee160168361222e565b9150611eec8261280b565b602082019050919050565b6000611f0460118361222e565b9150611f0f82612834565b602082019050919050565b6000611f27601b8361222e565b9150611f328261285d565b602082019050919050565b6000611f4a601c8361222e565b9150611f5582612886565b602082019050919050565b611f69816123e6565b82525050565b611f78816123e6565b82525050565b6000611f8982611e8e565b9150819050919050565b6000602082019050611fa86000830184611d21565b92915050565b60006020820190508181036000830152611fc781611d30565b9050919050565b60006020820190508181036000830152611fe781611d53565b9050919050565b6000602082019050818103600083015261200781611d76565b9050919050565b6000602082019050818103600083015261202781611d99565b9050919050565b6000602082019050818103600083015261204781611dbc565b9050919050565b6000602082019050818103600083015261206781611ddf565b9050919050565b6000602082019050818103600083015261208781611e02565b9050919050565b600060208201905081810360008301526120a781611e25565b9050919050565b600060208201905081810360008301526120c781611e48565b9050919050565b600060208201905081810360008301526120e781611e6b565b9050919050565b6000602082019050818103600083015261210781611eb1565b9050919050565b6000602082019050818103600083015261212781611ed4565b9050919050565b6000602082019050818103600083015261214781611ef7565b9050919050565b6000602082019050818103600083015261216781611f1a565b9050919050565b6000602082019050818103600083015261218781611f3d565b9050919050565b60006020820190506121a36000830184611f60565b92915050565b60006040820190506121be6000830185611f6f565b6121cb6020830184611f6f565b9392505050565b60006121dc6121ed565b90506121e882826123fd565b919050565b6000604051905090565b600067ffffffffffffffff821115612212576122116124d5565b5b602082029050602081019050919050565b600081905092915050565b600082825260208201905092915050565b600061224a826123b8565b9150612255836123b8565b92508261ffff0382111561226c5761226b612477565b5b828201905092915050565b6000612282826123e6565b915061228d836123e6565b92508261229d5761229c6124a6565b5b828204905092915050565b60006122b3826123e6565b91506122be836123e6565b9250817fffffffffffffffffffffffffffffffffffffffffffffffffffffffffffffffff04831182151516156122f7576122f6612477565b5b828202905092915050565b600061230d826123b8565b9150612318836123b8565b92508282101561232b5761232a612477565b5b828203905092915050565b6000612341826123f0565b915061234c836123f0565b92508282101561235f5761235e612477565b5b828203905092915050565b6000612375826123c6565b9050919050565b6000612387826123c6565b9050919050565b60008115159050919050565b6000819050919050565b6000819050919050565b6000819050919050565b600061ffff82169050919050565b600073ffffffffffffffffffffffffffffffffffffffff82169050919050565b6000819050919050565b600060ff82169050919050565b61240682612504565b810181811067ffffffffffffffff82111715612425576124246124d5565b5b80604052505050565b6000612439826123e6565b91507fffffffffffffffffffffffffffffffffffffffffffffffffffffffffffffffff82141561246c5761246b612477565b5b600182019050919050565b7f4e487b7100000000000000000000000000000000000000000000000000000000600052601160045260246000fd5b7f4e487b7100000000000000000000000000000000000000000000000000000000600052601260045260246000fd5b7f4e487b7100000000000000000000000000000000000000000000000000000000600052604160045260246000fd5b6000601f19601f8301169050919050565b7f726573616c65526f79616c747950657263656e74616765206d7573742062652060008201527f67726561746572207468616e206f7220657175616c20746f2030000000000000602082015250565b7f4f6e6c79204e4654206f776e657220697320617574686f72697a656420746f2060008201527f63616c6c20746869732066756e6374696f6e0000000000000000000000000000602082015250565b7f536f6e67206973206e6f7420617661696c61626c6520666f722073616c650000600082015250565b7f636f6c6c61626f7261746f727320616e642070657263656e74616765436f6e7460008201527f7269627574696f6e73206d757374206265207468652073616d65206c656e677460208201527f6800000000000000000000000000000000000000000000000000000000000000604082015250565b7f496e76616c6964204e4654206964000000000000000000000000000000000000600082015250565b7f416464726573733a20756e61626c6520746f2073656e642076616c75652c207260008201527f6563697069656e74206d61792068617665207265766572746564000000000000602082015250565b7f416464726573733a20696e73756666696369656e742062616c616e6365000000600082015250565b7f4e6f7420656e6f7567682076616c756520666f7220746865207472616e73616360008201527f74696f6e00000000000000000000000000000000000000000000000000000000602082015250565b7f526f79616c74792070657263656e746167652073686f756c6420626520706f7360008201527f6974697665000000000000000000000000000000000000000000000000000000602082015250565b7f596f752063616e6e6f7420707572636861736520796f7572206f776e20736f6e60008201527f6700000000000000000000000000000000000000000000000000000000000000602082015250565b50565b7f55524948617368206d7573742062652070726573656e74000000000000000000600082015250565b7f4e46542069736e277420756e6c6f636b65642079657400000000000000000000600082015250565b7f4e6f20746f6b656e7320746f206d696e74000000000000000000000000000000600082015250565b7f526563697069656e742073686f756c642062652070726573656e740000000000600082015250565b7f5072696365206d7573742062652067726561746572207468616e203000000000600082015250565b6128b88161236a565b81146128c357600080fd5b50565b6128cf8161237c565b81146128da57600080fd5b50565b6128e68161238e565b81146128f157600080fd5b50565b6128fd8161239a565b811461290857600080fd5b50565b612914816123a4565b811461291f57600080fd5b50565b61292b816123ae565b811461293657600080fd5b50565b612942816123b8565b811461294d57600080fd5b50565b612959816123e6565b811461296457600080fd5b50565b612970816123f0565b811461297b57600080fd5b5056fea2646970667358221220cd7c5e131eeff9e1ee9d0228a53658552c4670dbeb58ed61b5cd2e4111e4e86564736f6c63430008040033",
  "linkReferences": {},
  "deployedLinkReferences": {}
}