{
  "_format": "hh-sol-artifact-1",
  "contractName": "MusixverseLib",
  "sourceName": "contracts/v1/lib/MusixverseLib.sol",
  "abi": [
    {
      "inputs": [
        {
          "internalType": "uint16",
          "name": "amount",
          "type": "uint16"
        },
        {
          "internalType": "uint256",
          "name": "price",
          "type": "uint256"
        },
        {
          "internalType": "string[]",
          "name": "URIHashes",
          "type": "string[]"
        },
        {
          "internalType": "address[]",
          "name": "contributors",
          "type": "address[]"
        },
        {
          "internalType": "uint16[]",
          "name": "percentageContributions",
          "type": "uint16[]"
        },
        {
          "internalType": "uint16",
          "name": "resaleRoyaltyPercentage",
          "type": "uint16"
        }
      ],
      "name": "checkForMinting",
      "outputs": [],
      "stateMutability": "pure",
      "type": "function"
    },
    {
      "inputs": [
        {
          "internalType": "address[]",
          "name": "contributors",
          "type": "address[]"
        },
        {
          "internalType": "uint16[]",
          "name": "percentageContributions",
          "type": "uint16[]"
        }
      ],
      "name": "checkForRoyalties",
      "outputs": [],
      "stateMutability": "pure",
      "type": "function"
    },
    {
      "inputs": [
        {
          "components": [
            {
              "internalType": "uint256",
              "name": "price",
              "type": "uint256"
            },
            {
              "internalType": "address",
              "name": "artistAddress",
              "type": "address"
            },
            {
              "internalType": "uint16",
              "name": "resaleRoyaltyPercentage",
              "type": "uint16"
            },
            {
              "internalType": "bool",
              "name": "onSale",
              "type": "bool"
            },
            {
              "internalType": "bool",
              "name": "soldOnce",
              "type": "bool"
            }
          ],
          "internalType": "struct MusixverseEternalStorage.MusicNFT",
          "name": "musicNFT",
          "type": "tuple"
        },
        {
          "internalType": "address",
          "name": "prevOwner",
          "type": "address"
        }
      ],
      "name": "checkForSale",
      "outputs": [],
      "stateMutability": "view",
      "type": "function"
    },
    {
      "inputs": [
        {
          "internalType": "address payable",
          "name": "PLATFORM_ADDRESS",
          "type": "address"
        },
        {
          "internalType": "uint256",
          "name": "tokenId",
          "type": "uint256"
        }
      ],
      "name": "isNFTOwner",
      "outputs": [],
      "stateMutability": "view",
      "type": "function"
    }
  ],
  "bytecode": "0x61277e610053600b82828239805160001a607314610046577f4e487b7100000000000000000000000000000000000000000000000000000000600052600060045260246000fd5b30600052607381538281f3fe73000000000000000000000000000000000000000030146080604052600436106100a85760003560e01c806393a6aa181161007057806393a6aa1814610167578063cd2aeaaa14610183578063d68d51c31461019f578063e6485f60146101dc578063f23becbf14610205576100a8565b80631d5492e4146100ad5780632072854d146100d657806323bfc320146100f257806360b565351461012f57806374cdfefb1461014b575b600080fd5b8180156100b957600080fd5b506100d460048036038101906100cf9190611a17565b610221565b005b6100f060048036038101906100eb9190611938565b6103ae565b005b8180156100fe57600080fd5b50610119600480360381019061011491906116f4565b61051c565b6040516101269190611db4565b60405180910390f35b610149600480360381019061014491906117ce565b6106eb565b005b610165600480360381019061016091906118d3565b610704565b005b610181600480360381019061017c9190611b29565b610802565b005b61019d600480360381019061019891906116b8565b61085d565b005b8180156101ab57600080fd5b506101c660048036038101906101c19190611757565b610957565b6040516101d39190611f8f565b60405180910390f35b8180156101e857600080fd5b5061020360048036038101906101fe9190611ab2565b610aa6565b005b61021f600480360381019061021a919061181d565b610c35565b005b61022d85858585610c35565b60005b858590508110156103a5578160008881526020019081526020016000206040518060400160405280888885818110610291577f4e487b7100000000000000000000000000000000000000000000000000000000600052603260045260246000fd5b90506020020160208101906102a69190611666565b73ffffffffffffffffffffffffffffffffffffffff1681526020018686858181106102fa577f4e487b7100000000000000000000000000000000000000000000000000000000600052603260045260246000fd5b905060200201602081019061030f919061190f565b61ffff16815250908060018154018082558091505060019003906000526020600020906002020160009091909190915060008201518160000160006101000a81548173ffffffffffffffffffffffffffffffffffffffff021916908373ffffffffffffffffffffffffffffffffffffffff160217905550602082015181600101555050808061039d90612221565b915050610230565b50505050505050565b60008961ffff16116103f5576040517f08c379a00000000000000000000000000000000000000000000000000000000081526004016103ec90611f2f565b60405180910390fd5b60008811610438576040517f08c379a000000000000000000000000000000000000000000000000000000000815260040161042f90611f6f565b60405180910390fd5b8861ffff168787905014610481576040517f08c379a000000000000000000000000000000000000000000000000000000000815260040161047890611eaf565b60405180910390fd5b8282905085859050146104c9576040517f08c379a00000000000000000000000000000000000000000000000000000000081526004016104c090611ecf565b60405180910390fd5b60008161ffff161015610511576040517f08c379a000000000000000000000000000000000000000000000000000000000815260040161050890611dcf565b60405180910390fd5b505050505050505050565b60006105298585846106eb565b60008360008681526020019081526020016000209050600115158160010160169054906101000a900460ff161515141561057f5760008160010160166101000a81548160ff0219169083151502179055506105bc565b600015158160010160169054906101000a900460ff16151514156105bb5760018160010160166101000a81548160ff0219169083151502179055505b5b80846000878152602001908152602001600020600082015481600001556001820160009054906101000a900473ffffffffffffffffffffffffffffffffffffffff168160010160006101000a81548173ffffffffffffffffffffffffffffffffffffffff021916908373ffffffffffffffffffffffffffffffffffffffff1602179055506001820160149054906101000a900461ffff168160010160146101000a81548161ffff021916908361ffff1602179055506001820160169054906101000a900460ff168160010160166101000a81548160ff0219169083151502179055506001820160179054906101000a900460ff168160010160176101000a81548160ff0219169083151502179055509050508060010160169054906101000a900460ff16915050949350505050565b6106f58282610802565b6106ff838361085d565b505050565b816000015134101561074b576040517f08c379a000000000000000000000000000000000000000000000000000000000815260040161074290611e8f565b60405180910390fd5b816060015161078f576040517f08c379a000000000000000000000000000000000000000000000000000000000815260040161078690611e0f565b60405180910390fd5b3373ffffffffffffffffffffffffffffffffffffffff168173ffffffffffffffffffffffffffffffffffffffff1614156107fe576040517f08c379a00000000000000000000000000000000000000000000000000000000081526004016107f590611f0f565b60405180910390fd5b5050565b60008211801561081a575061081681610df6565b8211155b610859576040517f08c379a000000000000000000000000000000000000000000000000000000000815260040161085090611e2f565b60405180910390fd5b5050565b3373ffffffffffffffffffffffffffffffffffffffff168273ffffffffffffffffffffffffffffffffffffffff16636352211e836040518263ffffffff1660e01b81526004016108ad9190611faa565b60206040518083038186803b1580156108c557600080fd5b505afa1580156108d9573d6000803e3d6000fd5b505050506040513d601f19601f820116820180604052508101906108fd919061168f565b73ffffffffffffffffffffffffffffffffffffffff1614610953576040517f08c379a000000000000000000000000000000000000000000000000000000000815260040161094a90611def565b60405180910390fd5b5050565b60006109648686846106eb565b6000846000878152602001908152602001600020905083816000018190555080856000888152602001908152602001600020600082015481600001556001820160009054906101000a900473ffffffffffffffffffffffffffffffffffffffff168160010160006101000a81548173ffffffffffffffffffffffffffffffffffffffff021916908373ffffffffffffffffffffffffffffffffffffffff1602179055506001820160149054906101000a900461ffff168160010160146101000a81548161ffff021916908361ffff1602179055506001820160169054906101000a900460ff168160010160166101000a81548160ff0219169083151502179055506001820160179054906101000a900460ff168160010160176101000a81548160ff021916908315150217905550905050806000015491505095945050505050565b610ab08582610802565b60008460008781526020019081526020016000206040518060a0016040529081600082015481526020016001820160009054906101000a900473ffffffffffffffffffffffffffffffffffffffff1673ffffffffffffffffffffffffffffffffffffffff1673ffffffffffffffffffffffffffffffffffffffff1681526020016001820160149054906101000a900461ffff1661ffff1661ffff1681526020016001820160169054906101000a900460ff161515151581526020016001820160179054906101000a900460ff161515151581525050905060008473ffffffffffffffffffffffffffffffffffffffff16636352211e886040518263ffffffff1660e01b8152600401610bc29190611faa565b60206040518083038186803b158015610bda57600080fd5b505afa158015610bee573d6000803e3d6000fd5b505050506040513d601f19601f82011682018060405250810190610c12919061168f565b9050610c1e8282610704565b610c2c87838387898b610e04565b50505050505050565b818190508484905014610c7d576040517f08c379a0000000000000000000000000000000000000000000000000000000008152600401610c7490611ecf565b60405180910390fd5b60005b84849050811015610def57600073ffffffffffffffffffffffffffffffffffffffff16858583818110610cdc577f4e487b7100000000000000000000000000000000000000000000000000000000600052603260045260246000fd5b9050602002016020810190610cf19190611666565b73ffffffffffffffffffffffffffffffffffffffff161415610d48576040517f08c379a0000000000000000000000000000000000000000000000000000000008152600401610d3f90611f4f565b60405180910390fd5b6000838383818110610d83577f4e487b7100000000000000000000000000000000000000000000000000000000600052603260045260246000fd5b9050602002016020810190610d98919061190f565b61ffff1611610ddc576040517f08c379a0000000000000000000000000000000000000000000000000000000008152600401610dd390611eef565b60405180910390fd5b8080610de790612221565b915050610c80565b5050505050565b600081600001549050919050565b6000610e2f6064610e218660ff163461105090919063ffffffff16565b61106690919063ffffffff16565b9050610e3b838261107c565b856080015115610f1c576000610e756064610e67896040015161ffff163461105090919063ffffffff16565b61106690919063ffffffff16565b9050610e82848983611170565b6000610ecc6064610ebe8a604001518960ff16610e9f9190612032565b6064610eab91906120f5565b61ffff163461105090919063ffffffff16565b61106690919063ffffffff16565b90508673ffffffffffffffffffffffffffffffffffffffff166108fc829081150290604051600060405180830381858888f19350505050158015610f14573d6000803e3d6000fd5b505050610f62565b6000610f536064610f45876064610f339190612129565b60ff163461105090919063ffffffff16565b61106690919063ffffffff16565b9050610f60848983611170565b505b8560800151611047576001866080019015159081151581525050858260008981526020019081526020016000206000820151816000015560208201518160010160006101000a81548173ffffffffffffffffffffffffffffffffffffffff021916908373ffffffffffffffffffffffffffffffffffffffff16021790555060408201518160010160146101000a81548161ffff021916908361ffff16021790555060608201518160010160166101000a81548160ff02191690831515021790555060808201518160010160176101000a81548160ff0219169083151502179055509050505b50505050505050565b6000818361105e919061209b565b905092915050565b60008183611074919061206a565b905092915050565b804710156110bf576040517f08c379a00000000000000000000000000000000000000000000000000000000081526004016110b690611e6f565b60405180910390fd5b60008273ffffffffffffffffffffffffffffffffffffffff16826040516110e590611d9f565b60006040518083038185875af1925050503d8060008114611122576040519150601f19603f3d011682016040523d82523d6000602084013e611127565b606091505b505090508061116b576040517f08c379a000000000000000000000000000000000000000000000000000000000815260040161116290611e4f565b60405180910390fd5b505050565b60008373ffffffffffffffffffffffffffffffffffffffff1663b76c632b846040518263ffffffff1660e01b81526004016111ab9190611faa565b60006040518083038186803b1580156111c357600080fd5b505afa1580156111d7573d6000803e3d6000fd5b505050506040513d6000823e3d601f19601f820116820180604052508101906112009190611892565b905060005b815181101561131b57600061127a606461126c858581518110611251577f4e487b7100000000000000000000000000000000000000000000000000000000600052603260045260246000fd5b6020026020010151602001518761105090919063ffffffff16565b61106690919063ffffffff16565b90508282815181106112b5577f4e487b7100000000000000000000000000000000000000000000000000000000600052603260045260246000fd5b60200260200101516000015173ffffffffffffffffffffffffffffffffffffffff166108fc829081150290604051600060405180830381858888f19350505050158015611306573d6000803e3d6000fd5b5050808061131390612221565b915050611205565b5050505050565b600061133561133084611fea565b611fc5565b9050808382526020820190508285604086028201111561135457600080fd5b60005b85811015611384578161136a88826115c6565b845260208401935060408301925050600181019050611357565b5050509392505050565b60008135905061139d81612679565b92915050565b6000815190506113b281612679565b92915050565b6000813590506113c781612690565b92915050565b6000815190506113dc81612690565b92915050565b60008083601f8401126113f457600080fd5b8235905067ffffffffffffffff81111561140d57600080fd5b60208301915083602082028301111561142557600080fd5b9250929050565b60008083601f84011261143e57600080fd5b8235905067ffffffffffffffff81111561145757600080fd5b60208301915083602082028301111561146f57600080fd5b9250929050565b600082601f83011261148757600080fd5b8151611497848260208601611322565b91505092915050565b60008083601f8401126114b257600080fd5b8235905067ffffffffffffffff8111156114cb57600080fd5b6020830191508360208202830111156114e357600080fd5b9250929050565b6000813590506114f9816126a7565b92915050565b60008135905061150e816126be565b92915050565b600081359050611523816126d5565b92915050565b600081359050611538816126ec565b92915050565b600060a0828403121561155057600080fd5b61155a60a0611fc5565b9050600061156a84828501611627565b600083015250602061157e8482850161138e565b602083015250604061159284828501611612565b60408301525060606115a6848285016114ea565b60608301525060806115ba848285016114ea565b60808301525092915050565b6000604082840312156115d857600080fd5b6115e26040611fc5565b905060006115f2848285016113cd565b60008301525060206116068482850161163c565b60208301525092915050565b60008135905061162181612703565b92915050565b6000813590506116368161271a565b92915050565b60008151905061164b8161271a565b92915050565b60008135905061166081612731565b92915050565b60006020828403121561167857600080fd5b60006116868482850161138e565b91505092915050565b6000602082840312156116a157600080fd5b60006116af848285016113a3565b91505092915050565b600080604083850312156116cb57600080fd5b60006116d9858286016113b8565b92505060206116ea85828601611627565b9150509250929050565b6000806000806080858703121561170a57600080fd5b6000611718878288016113b8565b945050602061172987828801611627565b935050604061173a87828801611514565b925050606061174b87828801611529565b91505092959194509250565b600080600080600060a0868803121561176f57600080fd5b600061177d888289016113b8565b955050602061178e88828901611627565b945050604061179f88828901611514565b93505060606117b088828901611627565b92505060806117c188828901611529565b9150509295509295909350565b6000806000606084860312156117e357600080fd5b60006117f1868287016113b8565b935050602061180286828701611627565b925050604061181386828701611529565b9150509250925092565b6000806000806040858703121561183357600080fd5b600085013567ffffffffffffffff81111561184d57600080fd5b611859878288016113e2565b9450945050602085013567ffffffffffffffff81111561187857600080fd5b611884878288016114a0565b925092505092959194509250565b6000602082840312156118a457600080fd5b600082015167ffffffffffffffff8111156118be57600080fd5b6118ca84828501611476565b91505092915050565b60008060c083850312156118e657600080fd5b60006118f48582860161153e565b92505060a06119058582860161138e565b9150509250929050565b60006020828403121561192157600080fd5b600061192f84828501611612565b91505092915050565b600080600080600080600080600060c08a8c03121561195657600080fd5b60006119648c828d01611612565b99505060206119758c828d01611627565b98505060408a013567ffffffffffffffff81111561199257600080fd5b61199e8c828d0161142c565b975097505060608a013567ffffffffffffffff8111156119bd57600080fd5b6119c98c828d016113e2565b955095505060808a013567ffffffffffffffff8111156119e857600080fd5b6119f48c828d016114a0565b935093505060a0611a078c828d01611612565b9150509295985092959850929598565b60008060008060008060808789031215611a3057600080fd5b6000611a3e89828a01611627565b965050602087013567ffffffffffffffff811115611a5b57600080fd5b611a6789828a016113e2565b9550955050604087013567ffffffffffffffff811115611a8657600080fd5b611a9289828a016114a0565b93509350506060611aa589828a016114ff565b9150509295509295509295565b600080600080600060a08688031215611aca57600080fd5b6000611ad888828901611627565b9550506020611ae988828901611514565b9450506040611afa888289016113b8565b9350506060611b0b88828901611651565b9250506080611b1c88828901611529565b9150509295509295909350565b60008060408385031215611b3c57600080fd5b6000611b4a85828601611627565b9250506020611b5b85828601611529565b9150509250929050565b611b6e81612181565b82525050565b6000611b81603a83612021565b9150611b8c82612308565b604082019050919050565b6000611ba4603283612021565b9150611baf82612357565b604082019050919050565b6000611bc7601e83612021565b9150611bd2826123a6565b602082019050919050565b6000611bea600e83612021565b9150611bf5826123cf565b602082019050919050565b6000611c0d603a83612021565b9150611c18826123f8565b604082019050919050565b6000611c30601d83612021565b9150611c3b82612447565b602082019050919050565b6000611c53602483612021565b9150611c5e82612470565b604082019050919050565b6000611c76602f83612021565b9150611c81826124bf565b604082019050919050565b6000611c99604083612021565b9150611ca48261250e565b604082019050919050565b6000611cbc602583612021565b9150611cc78261255d565b604082019050919050565b6000611cdf602183612021565b9150611cea826125ac565b604082019050919050565b6000611d02600083612016565b9150611d0d826125fb565b600082019050919050565b6000611d25601183612021565b9150611d30826125fe565b602082019050919050565b6000611d48601b83612021565b9150611d5382612627565b602082019050919050565b6000611d6b601c83612021565b9150611d7682612650565b602082019050919050565b611d8a816121d9565b82525050565b611d99816121d9565b82525050565b6000611daa82611cf5565b9150819050919050565b6000602082019050611dc96000830184611b65565b92915050565b60006020820190508181036000830152611de881611b74565b9050919050565b60006020820190508181036000830152611e0881611b97565b9050919050565b60006020820190508181036000830152611e2881611bba565b9050919050565b60006020820190508181036000830152611e4881611bdd565b9050919050565b60006020820190508181036000830152611e6881611c00565b9050919050565b60006020820190508181036000830152611e8881611c23565b9050919050565b60006020820190508181036000830152611ea881611c46565b9050919050565b60006020820190508181036000830152611ec881611c69565b9050919050565b60006020820190508181036000830152611ee881611c8c565b9050919050565b60006020820190508181036000830152611f0881611caf565b9050919050565b60006020820190508181036000830152611f2881611cd2565b9050919050565b60006020820190508181036000830152611f4881611d18565b9050919050565b60006020820190508181036000830152611f6881611d3b565b9050919050565b60006020820190508181036000830152611f8881611d5e565b9050919050565b6000602082019050611fa46000830184611d90565b92915050565b6000602082019050611fbf6000830184611d81565b92915050565b6000611fcf611fe0565b9050611fdb82826121f0565b919050565b6000604051905090565b600067ffffffffffffffff821115612005576120046122c8565b5b602082029050602081019050919050565b600081905092915050565b600082825260208201905092915050565b600061203d826121ab565b9150612048836121ab565b92508261ffff0382111561205f5761205e61226a565b5b828201905092915050565b6000612075826121d9565b9150612080836121d9565b9250826120905761208f612299565b5b828204905092915050565b60006120a6826121d9565b91506120b1836121d9565b9250817fffffffffffffffffffffffffffffffffffffffffffffffffffffffffffffffff04831182151516156120ea576120e961226a565b5b828202905092915050565b6000612100826121ab565b915061210b836121ab565b92508282101561211e5761211d61226a565b5b828203905092915050565b6000612134826121e3565b915061213f836121e3565b9250828210156121525761215161226a565b5b828203905092915050565b6000612168826121b9565b9050919050565b600061217a826121b9565b9050919050565b60008115159050919050565b6000819050919050565b6000819050919050565b6000819050919050565b600061ffff82169050919050565b600073ffffffffffffffffffffffffffffffffffffffff82169050919050565b6000819050919050565b600060ff82169050919050565b6121f9826122f7565b810181811067ffffffffffffffff82111715612218576122176122c8565b5b80604052505050565b600061222c826121d9565b91507fffffffffffffffffffffffffffffffffffffffffffffffffffffffffffffffff82141561225f5761225e61226a565b5b600182019050919050565b7f4e487b7100000000000000000000000000000000000000000000000000000000600052601160045260246000fd5b7f4e487b7100000000000000000000000000000000000000000000000000000000600052601260045260246000fd5b7f4e487b7100000000000000000000000000000000000000000000000000000000600052604160045260246000fd5b6000601f19601f8301169050919050565b7f726573616c65526f79616c747950657263656e74616765206d7573742062652060008201527f67726561746572207468616e206f7220657175616c20746f2030000000000000602082015250565b7f4f6e6c79204e4654206f776e657220697320617574686f72697a656420746f2060008201527f63616c6c20746869732066756e6374696f6e0000000000000000000000000000602082015250565b7f536f6e67206973206e6f7420617661696c61626c6520666f722073616c650000600082015250565b7f496e76616c6964204e4654206964000000000000000000000000000000000000600082015250565b7f416464726573733a20756e61626c6520746f2073656e642076616c75652c207260008201527f6563697069656e74206d61792068617665207265766572746564000000000000602082015250565b7f416464726573733a20696e73756666696369656e742062616c616e6365000000600082015250565b7f4e6f7420656e6f7567682076616c756520666f7220746865207472616e73616360008201527f74696f6e00000000000000000000000000000000000000000000000000000000602082015250565b7f416d6f756e74206f6620555249486173686573206d757374206d61746368206160008201527f6d6f756e74206f6620746f6b656e730000000000000000000000000000000000602082015250565b7f636f6e7472696275746f727320616e642070657263656e74616765436f6e747260008201527f69627574696f6e73206d757374206265207468652073616d65206c656e677468602082015250565b7f526f79616c74792070657263656e746167652073686f756c6420626520706f7360008201527f6974697665000000000000000000000000000000000000000000000000000000602082015250565b7f596f752063616e6e6f7420707572636861736520796f7572206f776e20736f6e60008201527f6700000000000000000000000000000000000000000000000000000000000000602082015250565b50565b7f4e6f20746f6b656e7320746f206d696e74000000000000000000000000000000600082015250565b7f526563697069656e742073686f756c642062652070726573656e740000000000600082015250565b7f5072696365206d7573742062652067726561746572207468616e203000000000600082015250565b6126828161215d565b811461268d57600080fd5b50565b6126998161216f565b81146126a457600080fd5b50565b6126b081612181565b81146126bb57600080fd5b50565b6126c78161218d565b81146126d257600080fd5b50565b6126de81612197565b81146126e957600080fd5b50565b6126f5816121a1565b811461270057600080fd5b50565b61270c816121ab565b811461271757600080fd5b50565b612723816121d9565b811461272e57600080fd5b50565b61273a816121e3565b811461274557600080fd5b5056fea2646970667358221220f19fd5c467f7946f9f371f67981e2108c726df7a41ba2c390e6dfa86ce17ac7964736f6c63430008040033",
  "linkReferences": {},
  "deployedLinkReferences": {}
}