{
  "_format": "hh-sol-artifact-1",
  "contractName": "MusixverseLib",
  "sourceName": "contracts/v1/lib/MusixverseLib.sol",
  "abi": [
    {
      "inputs": [
        {
          "internalType": "uint16",
          "name": "amount",
          "type": "uint16"
        },
        {
          "internalType": "uint256",
          "name": "price",
          "type": "uint256"
        },
        {
          "internalType": "string",
          "name": "URIHash",
          "type": "string"
        },
        {
          "internalType": "address[]",
          "name": "collaborators",
          "type": "address[]"
        },
        {
          "internalType": "uint16[]",
          "name": "percentageContributions",
          "type": "uint16[]"
        },
        {
          "internalType": "uint16",
          "name": "resaleRoyaltyPercentage",
          "type": "uint16"
        }
      ],
      "name": "checkForMinting",
      "outputs": [],
      "stateMutability": "pure",
      "type": "function"
    },
    {
      "inputs": [
        {
          "internalType": "address[]",
          "name": "collaborators",
          "type": "address[]"
        },
        {
          "internalType": "uint16[]",
          "name": "percentageContributions",
          "type": "uint16[]"
        }
      ],
      "name": "checkForRoyalties",
      "outputs": [],
      "stateMutability": "pure",
      "type": "function"
    },
    {
      "inputs": [
        {
          "components": [
            {
              "internalType": "uint256",
              "name": "price",
              "type": "uint256"
            },
            {
              "internalType": "address",
              "name": "artistAddress",
              "type": "address"
            },
            {
              "internalType": "uint16",
              "name": "resaleRoyaltyPercentage",
              "type": "uint16"
            },
            {
              "internalType": "bool",
              "name": "onSale",
              "type": "bool"
            },
            {
              "internalType": "bool",
              "name": "soldOnce",
              "type": "bool"
            },
            {
              "internalType": "uint256",
              "name": "unlockTimestamp",
              "type": "uint256"
            }
          ],
          "internalType": "struct MusixverseEternalStorage.MusicNFT",
          "name": "musicNFT",
          "type": "tuple"
        },
        {
          "internalType": "address",
          "name": "prevOwner",
          "type": "address"
        }
      ],
      "name": "checkForSale",
      "outputs": [],
      "stateMutability": "view",
      "type": "function"
    },
    {
      "inputs": [
        {
          "internalType": "address payable",
          "name": "PLATFORM_ADDRESS",
          "type": "address"
        },
        {
          "internalType": "uint256",
          "name": "tokenId",
          "type": "uint256"
        }
      ],
      "name": "isNFTOwner",
      "outputs": [],
      "stateMutability": "view",
      "type": "function"
    },
    {
      "inputs": [
        {
          "components": [
            {
              "internalType": "uint256",
              "name": "price",
              "type": "uint256"
            },
            {
              "internalType": "address",
              "name": "artistAddress",
              "type": "address"
            },
            {
              "internalType": "uint16",
              "name": "resaleRoyaltyPercentage",
              "type": "uint16"
            },
            {
              "internalType": "bool",
              "name": "onSale",
              "type": "bool"
            },
            {
              "internalType": "bool",
              "name": "soldOnce",
              "type": "bool"
            },
            {
              "internalType": "uint256",
              "name": "unlockTimestamp",
              "type": "uint256"
            }
          ],
          "internalType": "struct MusixverseEternalStorage.MusicNFT",
          "name": "musicNFT",
          "type": "tuple"
        }
      ],
      "name": "isPastUnlockTimestamp",
      "outputs": [],
      "stateMutability": "view",
      "type": "function"
    }
  ],
  "bytecode": "0x61299a610053600b82828239805160001a607314610046577f4e487b7100000000000000000000000000000000000000000000000000000000600052600060045260246000fd5b30600052607381538281f3fe73000000000000000000000000000000000000000030146080604052600436106100b35760003560e01c806374cdfefb1161007b57806374cdfefb1461017257806393a6aa181461018e578063cd2aeaaa146101aa578063d68d51c3146101c6578063e6485f6014610203578063f23becbf1461022c576100b3565b80631d5492e4146100b857806323bfc320146100e15780632c561ad31461011e5780633fe56e111461013a57806360b5653514610156575b600080fd5b8180156100c457600080fd5b506100df60048036038101906100da9190611bc7565b610248565b005b8180156100ed57600080fd5b506101086004803603810190610103919061187b565b6103d5565b6040516101159190611f87565b60405180910390f35b61013860048036038101906101339190611a5a565b610682565b005b610154600480360381019061014f9190611ae8565b6106cb565b005b610170600480360381019061016b9190611955565b610837565b005b61018c60048036038101906101879190611a83565b610850565b005b6101a860048036038101906101a39190611cd9565b610957565b005b6101c460048036038101906101bf919061183f565b6109b2565b005b8180156101d257600080fd5b506101ed60048036038101906101e891906118de565b610aac565b6040516101fa9190612182565b60405180910390f35b81801561020f57600080fd5b5061022a60048036038101906102259190611c62565b610c05565b005b610246600480360381019061024191906119a4565b610d9e565b005b61025485858585610d9e565b60005b858590508110156103cc5781600088815260200190815260200160002060405180604001604052808888858181106102b8577f4e487b7100000000000000000000000000000000000000000000000000000000600052603260045260246000fd5b90506020020160208101906102cd91906117ed565b73ffffffffffffffffffffffffffffffffffffffff168152602001868685818110610321577f4e487b7100000000000000000000000000000000000000000000000000000000600052603260045260246000fd5b90506020020160208101906103369190611abf565b61ffff16815250908060018154018082558091505060019003906000526020600020906002020160009091909190915060008201518160000160006101000a81548173ffffffffffffffffffffffffffffffffffffffff021916908373ffffffffffffffffffffffffffffffffffffffff16021790555060208201518160010155505080806103c490612414565b915050610257565b50505050505050565b60006103e2858584610837565b600083600086815260200190815260200160002090506104cc816040518060c0016040529081600082015481526020016001820160009054906101000a900473ffffffffffffffffffffffffffffffffffffffff1673ffffffffffffffffffffffffffffffffffffffff1673ffffffffffffffffffffffffffffffffffffffff1681526020016001820160149054906101000a900461ffff1661ffff1661ffff1681526020016001820160169054906101000a900460ff161515151581526020016001820160179054906101000a900460ff16151515158152602001600282015481525050610682565b600115158160010160169054906101000a900460ff161515141561050c5760008160010160166101000a81548160ff021916908315150217905550610549565b600015158160010160169054906101000a900460ff16151514156105485760018160010160166101000a81548160ff0219169083151502179055505b5b80846000878152602001908152602001600020600082015481600001556001820160009054906101000a900473ffffffffffffffffffffffffffffffffffffffff168160010160006101000a81548173ffffffffffffffffffffffffffffffffffffffff021916908373ffffffffffffffffffffffffffffffffffffffff1602179055506001820160149054906101000a900461ffff168160010160146101000a81548161ffff021916908361ffff1602179055506001820160169054906101000a900460ff168160010160166101000a81548160ff0219169083151502179055506001820160179054906101000a900460ff168160010160176101000a81548160ff021916908315150217905550600282015481600201559050508060010160169054906101000a900460ff16915050949350505050565b8060a0015142116106c8576040517f08c379a00000000000000000000000000000000000000000000000000000000081526004016106bf90612102565b60405180910390fd5b50565b60008961ffff1611610712576040517f08c379a000000000000000000000000000000000000000000000000000000000815260040161070990612122565b60405180910390fd5b60008811610755576040517f08c379a000000000000000000000000000000000000000000000000000000000815260040161074c90612162565b60405180910390fd5b600087879050141561079c576040517f08c379a0000000000000000000000000000000000000000000000000000000008152600401610793906120e2565b60405180910390fd5b8282905085859050146107e4576040517f08c379a00000000000000000000000000000000000000000000000000000000081526004016107db90612002565b60405180910390fd5b60008161ffff16101561082c576040517f08c379a000000000000000000000000000000000000000000000000000000000815260040161082390611fa2565b60405180910390fd5b505050505050505050565b6108418282610957565b61084b83836109b2565b505050565b61085982610682565b816060015161089d576040517f08c379a000000000000000000000000000000000000000000000000000000000815260040161089490611fe2565b60405180910390fd5b3373ffffffffffffffffffffffffffffffffffffffff168173ffffffffffffffffffffffffffffffffffffffff16141561090c576040517f08c379a0000000000000000000000000000000000000000000000000000000008152600401610903906120c2565b60405180910390fd5b8160000151341015610953576040517f08c379a000000000000000000000000000000000000000000000000000000000815260040161094a90612082565b60405180910390fd5b5050565b60008211801561096f575061096b81610f5f565b8211155b6109ae576040517f08c379a00000000000000000000000000000000000000000000000000000000081526004016109a590612022565b60405180910390fd5b5050565b3373ffffffffffffffffffffffffffffffffffffffff168273ffffffffffffffffffffffffffffffffffffffff16636352211e836040518263ffffffff1660e01b8152600401610a02919061219d565b60206040518083038186803b158015610a1a57600080fd5b505afa158015610a2e573d6000803e3d6000fd5b505050506040513d601f19601f82011682018060405250810190610a529190611816565b73ffffffffffffffffffffffffffffffffffffffff1614610aa8576040517f08c379a0000000000000000000000000000000000000000000000000000000008152600401610a9f90611fc2565b60405180910390fd5b5050565b6000610ab9868684610837565b6000846000878152602001908152602001600020905083816000018190555080856000888152602001908152602001600020600082015481600001556001820160009054906101000a900473ffffffffffffffffffffffffffffffffffffffff168160010160006101000a81548173ffffffffffffffffffffffffffffffffffffffff021916908373ffffffffffffffffffffffffffffffffffffffff1602179055506001820160149054906101000a900461ffff168160010160146101000a81548161ffff021916908361ffff1602179055506001820160169054906101000a900460ff168160010160166101000a81548160ff0219169083151502179055506001820160179054906101000a900460ff168160010160176101000a81548160ff02191690831515021790555060028201548160020155905050806000015491505095945050505050565b610c0f8582610957565b60008460008781526020019081526020016000206040518060c0016040529081600082015481526020016001820160009054906101000a900473ffffffffffffffffffffffffffffffffffffffff1673ffffffffffffffffffffffffffffffffffffffff1673ffffffffffffffffffffffffffffffffffffffff1681526020016001820160149054906101000a900461ffff1661ffff1661ffff1681526020016001820160169054906101000a900460ff161515151581526020016001820160179054906101000a900460ff16151515158152602001600282015481525050905060008473ffffffffffffffffffffffffffffffffffffffff16636352211e886040518263ffffffff1660e01b8152600401610d2b919061219d565b60206040518083038186803b158015610d4357600080fd5b505afa158015610d57573d6000803e3d6000fd5b505050506040513d601f19601f82011682018060405250810190610d7b9190611816565b9050610d878282610850565b610d9587838387898b610f6d565b50505050505050565b818190508484905014610de6576040517f08c379a0000000000000000000000000000000000000000000000000000000008152600401610ddd90612002565b60405180910390fd5b60005b84849050811015610f5857600073ffffffffffffffffffffffffffffffffffffffff16858583818110610e45577f4e487b7100000000000000000000000000000000000000000000000000000000600052603260045260246000fd5b9050602002016020810190610e5a91906117ed565b73ffffffffffffffffffffffffffffffffffffffff161415610eb1576040517f08c379a0000000000000000000000000000000000000000000000000000000008152600401610ea890612142565b60405180910390fd5b6000838383818110610eec577f4e487b7100000000000000000000000000000000000000000000000000000000600052603260045260246000fd5b9050602002016020810190610f019190611abf565b61ffff1611610f45576040517f08c379a0000000000000000000000000000000000000000000000000000000008152600401610f3c906120a2565b60405180910390fd5b8080610f5090612414565b915050610de9565b5050505050565b600081600001549050919050565b6000610f986064610f8a8660ff16346111c390919063ffffffff16565b6111d990919063ffffffff16565b9050610fa483826111ef565b856080015115611085576000610fde6064610fd0896040015161ffff16346111c390919063ffffffff16565b6111d990919063ffffffff16565b9050610feb8489836112e3565b600061103560646110278a604001518960ff166110089190612225565b606461101491906122e8565b61ffff16346111c390919063ffffffff16565b6111d990919063ffffffff16565b90508673ffffffffffffffffffffffffffffffffffffffff166108fc829081150290604051600060405180830381858888f1935050505015801561107d573d6000803e3d6000fd5b5050506110cb565b60006110bc60646110ae87606461109c919061231c565b60ff16346111c390919063ffffffff16565b6111d990919063ffffffff16565b90506110c98489836112e3565b505b85608001516111ba576001866080019015159081151581525050858260008981526020019081526020016000206000820151816000015560208201518160010160006101000a81548173ffffffffffffffffffffffffffffffffffffffff021916908373ffffffffffffffffffffffffffffffffffffffff16021790555060408201518160010160146101000a81548161ffff021916908361ffff16021790555060608201518160010160166101000a81548160ff02191690831515021790555060808201518160010160176101000a81548160ff02191690831515021790555060a082015181600201559050505b50505050505050565b600081836111d1919061228e565b905092915050565b600081836111e7919061225d565b905092915050565b80471015611232576040517f08c379a000000000000000000000000000000000000000000000000000000000815260040161122990612062565b60405180910390fd5b60008273ffffffffffffffffffffffffffffffffffffffff168260405161125890611f72565b60006040518083038185875af1925050503d8060008114611295576040519150601f19603f3d011682016040523d82523d6000602084013e61129a565b606091505b50509050806112de576040517f08c379a00000000000000000000000000000000000000000000000000000000081526004016112d590612042565b60405180910390fd5b505050565b60008373ffffffffffffffffffffffffffffffffffffffff1663b76c632b846040518263ffffffff1660e01b815260040161131e919061219d565b60006040518083038186803b15801561133657600080fd5b505afa15801561134a573d6000803e3d6000fd5b505050506040513d6000823e3d601f19601f820116820180604052508101906113739190611a19565b905060005b815181101561148e5760006113ed60646113df8585815181106113c4577f4e487b7100000000000000000000000000000000000000000000000000000000600052603260045260246000fd5b602002602001015160200151876111c390919063ffffffff16565b6111d990919063ffffffff16565b9050828281518110611428577f4e487b7100000000000000000000000000000000000000000000000000000000600052603260045260246000fd5b60200260200101516000015173ffffffffffffffffffffffffffffffffffffffff166108fc829081150290604051600060405180830381858888f19350505050158015611479573d6000803e3d6000fd5b5050808061148690612414565b915050611378565b5050505050565b60006114a86114a3846121dd565b6121b8565b905080838252602082019050828560408602820111156114c757600080fd5b60005b858110156114f757816114dd888261174d565b8452602084019350604083019250506001810190506114ca565b5050509392505050565b60008135905061151081612895565b92915050565b60008151905061152581612895565b92915050565b60008135905061153a816128ac565b92915050565b60008151905061154f816128ac565b92915050565b60008083601f84011261156757600080fd5b8235905067ffffffffffffffff81111561158057600080fd5b60208301915083602082028301111561159857600080fd5b9250929050565b600082601f8301126115b057600080fd5b81516115c0848260208601611495565b91505092915050565b60008083601f8401126115db57600080fd5b8235905067ffffffffffffffff8111156115f457600080fd5b60208301915083602082028301111561160c57600080fd5b9250929050565b600081359050611622816128c3565b92915050565b600081359050611637816128da565b92915050565b60008135905061164c816128f1565b92915050565b60008083601f84011261166457600080fd5b8235905067ffffffffffffffff81111561167d57600080fd5b60208301915083600182028301111561169557600080fd5b9250929050565b6000813590506116ab81612908565b92915050565b600060c082840312156116c357600080fd5b6116cd60c06121b8565b905060006116dd848285016117ae565b60008301525060206116f184828501611501565b602083015250604061170584828501611799565b604083015250606061171984828501611613565b606083015250608061172d84828501611613565b60808301525060a0611741848285016117ae565b60a08301525092915050565b60006040828403121561175f57600080fd5b61176960406121b8565b9050600061177984828501611540565b600083015250602061178d848285016117c3565b60208301525092915050565b6000813590506117a88161291f565b92915050565b6000813590506117bd81612936565b92915050565b6000815190506117d281612936565b92915050565b6000813590506117e78161294d565b92915050565b6000602082840312156117ff57600080fd5b600061180d84828501611501565b91505092915050565b60006020828403121561182857600080fd5b600061183684828501611516565b91505092915050565b6000806040838503121561185257600080fd5b60006118608582860161152b565b9250506020611871858286016117ae565b9150509250929050565b6000806000806080858703121561189157600080fd5b600061189f8782880161152b565b94505060206118b0878288016117ae565b93505060406118c18782880161163d565b92505060606118d28782880161169c565b91505092959194509250565b600080600080600060a086880312156118f657600080fd5b60006119048882890161152b565b9550506020611915888289016117ae565b94505060406119268882890161163d565b9350506060611937888289016117ae565b92505060806119488882890161169c565b9150509295509295909350565b60008060006060848603121561196a57600080fd5b60006119788682870161152b565b9350506020611989868287016117ae565b925050604061199a8682870161169c565b9150509250925092565b600080600080604085870312156119ba57600080fd5b600085013567ffffffffffffffff8111156119d457600080fd5b6119e087828801611555565b9450945050602085013567ffffffffffffffff8111156119ff57600080fd5b611a0b878288016115c9565b925092505092959194509250565b600060208284031215611a2b57600080fd5b600082015167ffffffffffffffff811115611a4557600080fd5b611a518482850161159f565b91505092915050565b600060c08284031215611a6c57600080fd5b6000611a7a848285016116b1565b91505092915050565b60008060e08385031215611a9657600080fd5b6000611aa4858286016116b1565b92505060c0611ab585828601611501565b9150509250929050565b600060208284031215611ad157600080fd5b6000611adf84828501611799565b91505092915050565b600080600080600080600080600060c08a8c031215611b0657600080fd5b6000611b148c828d01611799565b9950506020611b258c828d016117ae565b98505060408a013567ffffffffffffffff811115611b4257600080fd5b611b4e8c828d01611652565b975097505060608a013567ffffffffffffffff811115611b6d57600080fd5b611b798c828d01611555565b955095505060808a013567ffffffffffffffff811115611b9857600080fd5b611ba48c828d016115c9565b935093505060a0611bb78c828d01611799565b9150509295985092959850929598565b60008060008060008060808789031215611be057600080fd5b6000611bee89828a016117ae565b965050602087013567ffffffffffffffff811115611c0b57600080fd5b611c1789828a01611555565b9550955050604087013567ffffffffffffffff811115611c3657600080fd5b611c4289828a016115c9565b93509350506060611c5589828a01611628565b9150509295509295509295565b600080600080600060a08688031215611c7a57600080fd5b6000611c88888289016117ae565b9550506020611c998882890161163d565b9450506040611caa8882890161152b565b9350506060611cbb888289016117d8565b9250506080611ccc8882890161169c565b9150509295509295909350565b60008060408385031215611cec57600080fd5b6000611cfa858286016117ae565b9250506020611d0b8582860161169c565b9150509250929050565b611d1e81612374565b82525050565b6000611d31603a83612214565b9150611d3c826124fb565b604082019050919050565b6000611d54603283612214565b9150611d5f8261254a565b604082019050919050565b6000611d77601e83612214565b9150611d8282612599565b602082019050919050565b6000611d9a604183612214565b9150611da5826125c2565b606082019050919050565b6000611dbd600e83612214565b9150611dc882612637565b602082019050919050565b6000611de0603a83612214565b9150611deb82612660565b604082019050919050565b6000611e03601d83612214565b9150611e0e826126af565b602082019050919050565b6000611e26602483612214565b9150611e31826126d8565b604082019050919050565b6000611e49602583612214565b9150611e5482612727565b604082019050919050565b6000611e6c602183612214565b9150611e7782612776565b604082019050919050565b6000611e8f600083612209565b9150611e9a826127c5565b600082019050919050565b6000611eb2601783612214565b9150611ebd826127c8565b602082019050919050565b6000611ed5601683612214565b9150611ee0826127f1565b602082019050919050565b6000611ef8601183612214565b9150611f038261281a565b602082019050919050565b6000611f1b601b83612214565b9150611f2682612843565b602082019050919050565b6000611f3e601c83612214565b9150611f498261286c565b602082019050919050565b611f5d816123cc565b82525050565b611f6c816123cc565b82525050565b6000611f7d82611e82565b9150819050919050565b6000602082019050611f9c6000830184611d15565b92915050565b60006020820190508181036000830152611fbb81611d24565b9050919050565b60006020820190508181036000830152611fdb81611d47565b9050919050565b60006020820190508181036000830152611ffb81611d6a565b9050919050565b6000602082019050818103600083015261201b81611d8d565b9050919050565b6000602082019050818103600083015261203b81611db0565b9050919050565b6000602082019050818103600083015261205b81611dd3565b9050919050565b6000602082019050818103600083015261207b81611df6565b9050919050565b6000602082019050818103600083015261209b81611e19565b9050919050565b600060208201905081810360008301526120bb81611e3c565b9050919050565b600060208201905081810360008301526120db81611e5f565b9050919050565b600060208201905081810360008301526120fb81611ea5565b9050919050565b6000602082019050818103600083015261211b81611ec8565b9050919050565b6000602082019050818103600083015261213b81611eeb565b9050919050565b6000602082019050818103600083015261215b81611f0e565b9050919050565b6000602082019050818103600083015261217b81611f31565b9050919050565b60006020820190506121976000830184611f63565b92915050565b60006020820190506121b26000830184611f54565b92915050565b60006121c26121d3565b90506121ce82826123e3565b919050565b6000604051905090565b600067ffffffffffffffff8211156121f8576121f76124bb565b5b602082029050602081019050919050565b600081905092915050565b600082825260208201905092915050565b60006122308261239e565b915061223b8361239e565b92508261ffff038211156122525761225161245d565b5b828201905092915050565b6000612268826123cc565b9150612273836123cc565b9250826122835761228261248c565b5b828204905092915050565b6000612299826123cc565b91506122a4836123cc565b9250817fffffffffffffffffffffffffffffffffffffffffffffffffffffffffffffffff04831182151516156122dd576122dc61245d565b5b828202905092915050565b60006122f38261239e565b91506122fe8361239e565b9250828210156123115761231061245d565b5b828203905092915050565b6000612327826123d6565b9150612332836123d6565b9250828210156123455761234461245d565b5b828203905092915050565b600061235b826123ac565b9050919050565b600061236d826123ac565b9050919050565b60008115159050919050565b6000819050919050565b6000819050919050565b6000819050919050565b600061ffff82169050919050565b600073ffffffffffffffffffffffffffffffffffffffff82169050919050565b6000819050919050565b600060ff82169050919050565b6123ec826124ea565b810181811067ffffffffffffffff8211171561240b5761240a6124bb565b5b80604052505050565b600061241f826123cc565b91507fffffffffffffffffffffffffffffffffffffffffffffffffffffffffffffffff8214156124525761245161245d565b5b600182019050919050565b7f4e487b7100000000000000000000000000000000000000000000000000000000600052601160045260246000fd5b7f4e487b7100000000000000000000000000000000000000000000000000000000600052601260045260246000fd5b7f4e487b7100000000000000000000000000000000000000000000000000000000600052604160045260246000fd5b6000601f19601f8301169050919050565b7f726573616c65526f79616c747950657263656e74616765206d7573742062652060008201527f67726561746572207468616e206f7220657175616c20746f2030000000000000602082015250565b7f4f6e6c79204e4654206f776e657220697320617574686f72697a656420746f2060008201527f63616c6c20746869732066756e6374696f6e0000000000000000000000000000602082015250565b7f536f6e67206973206e6f7420617661696c61626c6520666f722073616c650000600082015250565b7f636f6c6c61626f7261746f727320616e642070657263656e74616765436f6e7460008201527f7269627574696f6e73206d757374206265207468652073616d65206c656e677460208201527f6800000000000000000000000000000000000000000000000000000000000000604082015250565b7f496e76616c6964204e4654206964000000000000000000000000000000000000600082015250565b7f416464726573733a20756e61626c6520746f2073656e642076616c75652c207260008201527f6563697069656e74206d61792068617665207265766572746564000000000000602082015250565b7f416464726573733a20696e73756666696369656e742062616c616e6365000000600082015250565b7f4e6f7420656e6f7567682076616c756520666f7220746865207472616e73616360008201527f74696f6e00000000000000000000000000000000000000000000000000000000602082015250565b7f526f79616c74792070657263656e746167652073686f756c6420626520706f7360008201527f6974697665000000000000000000000000000000000000000000000000000000602082015250565b7f596f752063616e6e6f7420707572636861736520796f7572206f776e20736f6e60008201527f6700000000000000000000000000000000000000000000000000000000000000602082015250565b50565b7f55524948617368206d7573742062652070726573656e74000000000000000000600082015250565b7f4e46542069736e277420756e6c6f636b65642079657400000000000000000000600082015250565b7f4e6f20746f6b656e7320746f206d696e74000000000000000000000000000000600082015250565b7f526563697069656e742073686f756c642062652070726573656e740000000000600082015250565b7f5072696365206d7573742062652067726561746572207468616e203000000000600082015250565b61289e81612350565b81146128a957600080fd5b50565b6128b581612362565b81146128c057600080fd5b50565b6128cc81612374565b81146128d757600080fd5b50565b6128e381612380565b81146128ee57600080fd5b50565b6128fa8161238a565b811461290557600080fd5b50565b61291181612394565b811461291c57600080fd5b50565b6129288161239e565b811461293357600080fd5b50565b61293f816123cc565b811461294a57600080fd5b50565b612956816123d6565b811461296157600080fd5b5056fea26469706673582212201aa0d136582784ad4d1824127c7e19903c61640d0cdc56815415cccfa8194fbb64736f6c63430008040033",
  "linkReferences": {},
  "deployedLinkReferences": {}
}