{
  "_format": "hh-sol-artifact-1",
  "contractName": "Musixverse",
  "sourceName": "contracts/Musixverse.sol",
  "abi": [
    {
      "anonymous": false,
      "inputs": [
        {
          "indexed": false,
          "internalType": "address",
          "name": "previousAdmin",
          "type": "address"
        },
        {
          "indexed": false,
          "internalType": "address",
          "name": "newAdmin",
          "type": "address"
        }
      ],
      "name": "AdminChanged",
      "type": "event"
    },
    {
      "anonymous": false,
      "inputs": [
        {
          "indexed": true,
          "internalType": "address",
          "name": "account",
          "type": "address"
        },
        {
          "indexed": true,
          "internalType": "address",
          "name": "operator",
          "type": "address"
        },
        {
          "indexed": false,
          "internalType": "bool",
          "name": "approved",
          "type": "bool"
        }
      ],
      "name": "ApprovalForAll",
      "type": "event"
    },
    {
      "anonymous": false,
      "inputs": [
        {
          "indexed": true,
          "internalType": "address",
          "name": "beacon",
          "type": "address"
        }
      ],
      "name": "BeaconUpgraded",
      "type": "event"
    },
    {
      "anonymous": false,
      "inputs": [
        {
          "indexed": true,
          "internalType": "address",
          "name": "previousOwner",
          "type": "address"
        },
        {
          "indexed": true,
          "internalType": "address",
          "name": "newOwner",
          "type": "address"
        }
      ],
      "name": "OwnershipTransferred",
      "type": "event"
    },
    {
      "anonymous": false,
      "inputs": [
        {
          "indexed": false,
          "internalType": "address",
          "name": "account",
          "type": "address"
        }
      ],
      "name": "Paused",
      "type": "event"
    },
    {
      "anonymous": false,
      "inputs": [
        {
          "indexed": false,
          "internalType": "uint256",
          "name": "tokenId",
          "type": "uint256"
        },
        {
          "components": [
            {
              "internalType": "address payable",
              "name": "recipient",
              "type": "address"
            },
            {
              "internalType": "uint256",
              "name": "percentage",
              "type": "uint256"
            }
          ],
          "indexed": false,
          "internalType": "struct MusixverseStorage.RoyaltyInfo[]",
          "name": "royalties",
          "type": "tuple[]"
        }
      ],
      "name": "RoyaltiesSet",
      "type": "event"
    },
    {
      "anonymous": false,
      "inputs": [
        {
          "indexed": false,
          "internalType": "uint256",
          "name": "id",
          "type": "uint256"
        },
        {
          "indexed": false,
          "internalType": "address",
          "name": "previousOwner",
          "type": "address"
        },
        {
          "indexed": false,
          "internalType": "uint256",
          "name": "price",
          "type": "uint256"
        },
        {
          "indexed": false,
          "internalType": "uint256",
          "name": "saleTime",
          "type": "uint256"
        },
        {
          "indexed": false,
          "internalType": "address",
          "name": "newOwner",
          "type": "address"
        }
      ],
      "name": "Sale",
      "type": "event"
    },
    {
      "anonymous": false,
      "inputs": [
        {
          "indexed": false,
          "internalType": "uint256",
          "name": "id",
          "type": "uint256"
        },
        {
          "indexed": false,
          "internalType": "uint256",
          "name": "price",
          "type": "uint256"
        },
        {
          "indexed": false,
          "internalType": "uint256",
          "name": "createTime",
          "type": "uint256"
        }
      ],
      "name": "SongCreated",
      "type": "event"
    },
    {
      "anonymous": false,
      "inputs": [
        {
          "indexed": true,
          "internalType": "address",
          "name": "operator",
          "type": "address"
        },
        {
          "indexed": true,
          "internalType": "address",
          "name": "from",
          "type": "address"
        },
        {
          "indexed": true,
          "internalType": "address",
          "name": "to",
          "type": "address"
        },
        {
          "indexed": false,
          "internalType": "uint256[]",
          "name": "ids",
          "type": "uint256[]"
        },
        {
          "indexed": false,
          "internalType": "uint256[]",
          "name": "values",
          "type": "uint256[]"
        }
      ],
      "name": "TransferBatch",
      "type": "event"
    },
    {
      "anonymous": false,
      "inputs": [
        {
          "indexed": true,
          "internalType": "address",
          "name": "operator",
          "type": "address"
        },
        {
          "indexed": true,
          "internalType": "address",
          "name": "from",
          "type": "address"
        },
        {
          "indexed": true,
          "internalType": "address",
          "name": "to",
          "type": "address"
        },
        {
          "indexed": false,
          "internalType": "uint256",
          "name": "id",
          "type": "uint256"
        },
        {
          "indexed": false,
          "internalType": "uint256",
          "name": "value",
          "type": "uint256"
        }
      ],
      "name": "TransferSingle",
      "type": "event"
    },
    {
      "anonymous": false,
      "inputs": [
        {
          "indexed": false,
          "internalType": "string",
          "name": "value",
          "type": "string"
        },
        {
          "indexed": true,
          "internalType": "uint256",
          "name": "id",
          "type": "uint256"
        }
      ],
      "name": "URI",
      "type": "event"
    },
    {
      "anonymous": false,
      "inputs": [
        {
          "indexed": false,
          "internalType": "address",
          "name": "account",
          "type": "address"
        }
      ],
      "name": "Unpaused",
      "type": "event"
    },
    {
      "anonymous": false,
      "inputs": [
        {
          "indexed": true,
          "internalType": "address",
          "name": "implementation",
          "type": "address"
        }
      ],
      "name": "Upgraded",
      "type": "event"
    },
    {
      "inputs": [],
      "name": "_baseURI",
      "outputs": [
        {
          "internalType": "string",
          "name": "",
          "type": "string"
        }
      ],
      "stateMutability": "view",
      "type": "function"
    },
    {
      "inputs": [],
      "name": "_contractMetadataURI",
      "outputs": [
        {
          "internalType": "string",
          "name": "",
          "type": "string"
        }
      ],
      "stateMutability": "view",
      "type": "function"
    },
    {
      "inputs": [
        {
          "internalType": "address",
          "name": "account",
          "type": "address"
        },
        {
          "internalType": "uint256",
          "name": "id",
          "type": "uint256"
        }
      ],
      "name": "balanceOf",
      "outputs": [
        {
          "internalType": "uint256",
          "name": "",
          "type": "uint256"
        }
      ],
      "stateMutability": "view",
      "type": "function"
    },
    {
      "inputs": [
        {
          "internalType": "address[]",
          "name": "accounts",
          "type": "address[]"
        },
        {
          "internalType": "uint256[]",
          "name": "ids",
          "type": "uint256[]"
        }
      ],
      "name": "balanceOfBatch",
      "outputs": [
        {
          "internalType": "uint256[]",
          "name": "",
          "type": "uint256[]"
        }
      ],
      "stateMutability": "view",
      "type": "function"
    },
    {
      "inputs": [],
      "name": "baseURI",
      "outputs": [
        {
          "internalType": "string",
          "name": "",
          "type": "string"
        }
      ],
      "stateMutability": "view",
      "type": "function"
    },
    {
      "inputs": [],
      "name": "contractURI",
      "outputs": [
        {
          "internalType": "string",
          "name": "",
          "type": "string"
        }
      ],
      "stateMutability": "view",
      "type": "function"
    },
    {
      "inputs": [
        {
          "internalType": "uint256",
          "name": "_tokenId",
          "type": "uint256"
        }
      ],
      "name": "getRoyaltyInfo",
      "outputs": [
        {
          "components": [
            {
              "internalType": "address payable",
              "name": "recipient",
              "type": "address"
            },
            {
              "internalType": "uint256",
              "name": "percentage",
              "type": "uint256"
            }
          ],
          "internalType": "struct MusixverseStorage.RoyaltyInfo[]",
          "name": "",
          "type": "tuple[]"
        }
      ],
      "stateMutability": "view",
      "type": "function"
    },
    {
      "inputs": [],
      "name": "initialize",
      "outputs": [],
      "stateMutability": "nonpayable",
      "type": "function"
    },
    {
      "inputs": [
        {
          "internalType": "address",
          "name": "_owner",
          "type": "address"
        },
        {
          "internalType": "address",
          "name": "_operator",
          "type": "address"
        }
      ],
      "name": "isApprovedForAll",
      "outputs": [
        {
          "internalType": "bool",
          "name": "isOperator",
          "type": "bool"
        }
      ],
      "stateMutability": "view",
      "type": "function"
    },
    {
      "inputs": [
        {
          "internalType": "uint16",
          "name": "amount",
          "type": "uint16"
        },
        {
          "internalType": "string[]",
          "name": "URIHashes",
          "type": "string[]"
        },
        {
          "internalType": "address[]",
          "name": "contributors",
          "type": "address[]"
        },
        {
          "internalType": "uint256[]",
          "name": "percentageContributions",
          "type": "uint256[]"
        }
      ],
      "name": "mintTrackNFT",
      "outputs": [
        {
          "internalType": "uint256",
          "name": "",
          "type": "uint256"
        }
      ],
      "stateMutability": "nonpayable",
      "type": "function"
    },
    {
      "inputs": [],
      "name": "name",
      "outputs": [
        {
          "internalType": "string",
          "name": "",
          "type": "string"
        }
      ],
      "stateMutability": "view",
      "type": "function"
    },
    {
      "inputs": [],
      "name": "owner",
      "outputs": [
        {
          "internalType": "address",
          "name": "",
          "type": "address"
        }
      ],
      "stateMutability": "view",
      "type": "function"
    },
    {
      "inputs": [],
      "name": "pause",
      "outputs": [],
      "stateMutability": "nonpayable",
      "type": "function"
    },
    {
      "inputs": [],
      "name": "paused",
      "outputs": [
        {
          "internalType": "bool",
          "name": "",
          "type": "bool"
        }
      ],
      "stateMutability": "view",
      "type": "function"
    },
    {
      "inputs": [],
      "name": "renounceOwnership",
      "outputs": [],
      "stateMutability": "nonpayable",
      "type": "function"
    },
    {
      "inputs": [
        {
          "internalType": "uint256",
          "name": "",
          "type": "uint256"
        },
        {
          "internalType": "uint256",
          "name": "",
          "type": "uint256"
        }
      ],
      "name": "royalties",
      "outputs": [
        {
          "internalType": "address payable",
          "name": "recipient",
          "type": "address"
        },
        {
          "internalType": "uint256",
          "name": "percentage",
          "type": "uint256"
        }
      ],
      "stateMutability": "view",
      "type": "function"
    },
    {
      "inputs": [
        {
          "internalType": "uint256",
          "name": "_tokenId",
          "type": "uint256"
        },
        {
          "internalType": "uint256",
          "name": "_salePrice",
          "type": "uint256"
        }
      ],
      "name": "royaltyInfo",
      "outputs": [
        {
          "internalType": "address",
          "name": "receiver",
          "type": "address"
        },
        {
          "internalType": "uint256",
          "name": "royaltyAmount",
          "type": "uint256"
        }
      ],
      "stateMutability": "view",
      "type": "function"
    },
    {
      "inputs": [
        {
          "internalType": "address",
          "name": "from",
          "type": "address"
        },
        {
          "internalType": "address",
          "name": "to",
          "type": "address"
        },
        {
          "internalType": "uint256[]",
          "name": "ids",
          "type": "uint256[]"
        },
        {
          "internalType": "uint256[]",
          "name": "amounts",
          "type": "uint256[]"
        },
        {
          "internalType": "bytes",
          "name": "data",
          "type": "bytes"
        }
      ],
      "name": "safeBatchTransferFrom",
      "outputs": [],
      "stateMutability": "nonpayable",
      "type": "function"
    },
    {
      "inputs": [
        {
          "internalType": "address",
          "name": "from",
          "type": "address"
        },
        {
          "internalType": "address",
          "name": "to",
          "type": "address"
        },
        {
          "internalType": "uint256",
          "name": "id",
          "type": "uint256"
        },
        {
          "internalType": "uint256",
          "name": "amount",
          "type": "uint256"
        },
        {
          "internalType": "bytes",
          "name": "data",
          "type": "bytes"
        }
      ],
      "name": "safeTransferFrom",
      "outputs": [],
      "stateMutability": "nonpayable",
      "type": "function"
    },
    {
      "inputs": [
        {
          "internalType": "address",
          "name": "operator",
          "type": "address"
        },
        {
          "internalType": "bool",
          "name": "approved",
          "type": "bool"
        }
      ],
      "name": "setApprovalForAll",
      "outputs": [],
      "stateMutability": "nonpayable",
      "type": "function"
    },
    {
      "inputs": [
        {
          "internalType": "bytes4",
          "name": "interfaceId",
          "type": "bytes4"
        }
      ],
      "name": "supportsInterface",
      "outputs": [
        {
          "internalType": "bool",
          "name": "",
          "type": "bool"
        }
      ],
      "stateMutability": "view",
      "type": "function"
    },
    {
      "inputs": [],
      "name": "symbol",
      "outputs": [
        {
          "internalType": "string",
          "name": "",
          "type": "string"
        }
      ],
      "stateMutability": "view",
      "type": "function"
    },
    {
      "inputs": [
        {
          "internalType": "address",
          "name": "newOwner",
          "type": "address"
        }
      ],
      "name": "transferOwnership",
      "outputs": [],
      "stateMutability": "nonpayable",
      "type": "function"
    },
    {
      "inputs": [],
      "name": "unpause",
      "outputs": [],
      "stateMutability": "nonpayable",
      "type": "function"
    },
    {
      "inputs": [
        {
          "internalType": "string",
          "name": "newURI",
          "type": "string"
        }
      ],
      "name": "updateBaseURI",
      "outputs": [],
      "stateMutability": "nonpayable",
      "type": "function"
    },
    {
      "inputs": [
        {
          "internalType": "string",
          "name": "newURI",
          "type": "string"
        }
      ],
      "name": "updateContractMetadataURI",
      "outputs": [],
      "stateMutability": "nonpayable",
      "type": "function"
    },
    {
      "inputs": [
        {
          "internalType": "string",
          "name": "newURI",
          "type": "string"
        }
      ],
      "name": "updateURI",
      "outputs": [],
      "stateMutability": "nonpayable",
      "type": "function"
    },
    {
      "inputs": [
        {
          "internalType": "address",
          "name": "newImplementation",
          "type": "address"
        }
      ],
      "name": "upgradeTo",
      "outputs": [],
      "stateMutability": "nonpayable",
      "type": "function"
    },
    {
      "inputs": [
        {
          "internalType": "address",
          "name": "newImplementation",
          "type": "address"
        },
        {
          "internalType": "bytes",
          "name": "data",
          "type": "bytes"
        }
      ],
      "name": "upgradeToAndCall",
      "outputs": [],
      "stateMutability": "payable",
      "type": "function"
    },
    {
      "inputs": [
        {
          "internalType": "uint256",
          "name": "_mxvTokenId",
          "type": "uint256"
        }
      ],
      "name": "uri",
      "outputs": [
        {
          "internalType": "string",
          "name": "",
          "type": "string"
        }
      ],
      "stateMutability": "view",
      "type": "function"
    }
  ],
  "bytecode": "0x60a06040523073ffffffffffffffffffffffffffffffffffffffff1660809073ffffffffffffffffffffffffffffffffffffffff1660601b81525034801561004657600080fd5b5060805160601c615dea6200007b60003960008181610c7701528181610d060152818161105d01526110ec0152615dea6000f3fe6080604052600436106101cc5760003560e01c80638129fc1c116100f7578063adb28a1d11610095578063e8a3d48511610064578063e8a3d48514610656578063e985e9c514610681578063f242432a146106be578063f2fde38b146106e7576101cc565b8063adb28a1d1461059c578063b76c632b146105c7578063c30f4a5a14610604578063d6e83cda1461062d576101cc565b80638da5cb5b116100d15780638da5cb5b146104f4578063931688cb1461051f57806395d89b4114610548578063a22cb46514610573576101cc565b80638129fc1c146104885780638456cb591461049f5780638924af74146104b6576101cc565b80633659cfe61161016f5780635c975abb1161013e5780635c975abb146103f05780636c0360eb1461041b578063715018a614610446578063743976a01461045d576101cc565b80633659cfe6146103575780633f4ba83a146103805780634e1273f4146103975780634f1ef286146103d4576101cc565b80630e89341c116101ab5780630e89341c146102765780631d830992146102b35780632a55205a146102f05780632eb2c2d61461032e576101cc565b8062fdd58e146101d157806301ffc9a71461020e57806306fdde031461024b575b600080fd5b3480156101dd57600080fd5b506101f860048036038101906101f391906141c8565b610710565b6040516102059190615001565b60405180910390f35b34801561021a57600080fd5b5061023560048036038101906102309190614270565b6107da565b6040516102429190614cc4565b60405180910390f35b34801561025757600080fd5b506102606108bc565b60405161026d9190614cdf565b60405180910390f35b34801561028257600080fd5b5061029d600480360381019061029891906143ae565b61094b565b6040516102aa9190614cdf565b60405180910390f35b3480156102bf57600080fd5b506102da60048036038101906102d59190614303565b610990565b6040516102e79190615001565b60405180910390f35b3480156102fc57600080fd5b50610317600480360381019061031291906143d7565b610bca565b604051610325929190614c20565b60405180910390f35b34801561033a57600080fd5b5061035560048036038101906103509190613fea565b610bd4565b005b34801561036357600080fd5b5061037e60048036038101906103799190613f85565b610c75565b005b34801561038c57600080fd5b50610395610e24565b005b3480156103a357600080fd5b506103be60048036038101906103b99190614204565b610eaa565b6040516103cb9190614c6b565b60405180910390f35b6103ee60048036038101906103e99190614174565b61105b565b005b3480156103fc57600080fd5b50610405611198565b6040516104129190614cc4565b60405180910390f35b34801561042757600080fd5b506104306111af565b60405161043d9190614cdf565b60405180910390f35b34801561045257600080fd5b5061045b611242565b005b34801561046957600080fd5b506104726112ca565b60405161047f9190614cdf565b60405180910390f35b34801561049457600080fd5b5061049d611359565b005b3480156104ab57600080fd5b506104b461154e565b005b3480156104c257600080fd5b506104dd60048036038101906104d891906143d7565b6115d4565b6040516104eb929190614b35565b60405180910390f35b34801561050057600080fd5b50610509611636565b6040516105169190614b1a565b60405180910390f35b34801561052b57600080fd5b50610546600480360381019061054191906142c2565b611660565b005b34801561055457600080fd5b5061055d61173f565b60405161056a9190614cdf565b60405180910390f35b34801561057f57600080fd5b5061059a60048036038101906105959190614138565b6117ce565b005b3480156105a857600080fd5b506105b16117e4565b6040516105be9190614cdf565b60405180910390f35b3480156105d357600080fd5b506105ee60048036038101906105e991906143ae565b611873565b6040516105fb9190614c49565b60405180910390f35b34801561061057600080fd5b5061062b600480360381019061062691906142c2565b611946565b005b34801561063957600080fd5b50610654600480360381019061064f91906142c2565b6119ce565b005b34801561066257600080fd5b5061066b611aad565b6040516106789190614cdf565b60405180910390f35b34801561068d57600080fd5b506106a860048036038101906106a39190613fae565b611b40565b6040516106b59190614cc4565b60405180910390f35b3480156106ca57600080fd5b506106e560048036038101906106e091906140a9565b611ba6565b005b3480156106f357600080fd5b5061070e60048036038101906107099190613f85565b611c47565b005b60008073ffffffffffffffffffffffffffffffffffffffff168373ffffffffffffffffffffffffffffffffffffffff161415610781576040517f08c379a000000000000000000000000000000000000000000000000000000000815260040161077890614d61565b60405180910390fd5b6065600083815260200190815260200160002060008473ffffffffffffffffffffffffffffffffffffffff1673ffffffffffffffffffffffffffffffffffffffff16815260200190815260200160002054905092915050565b60007fd9b67a26000000000000000000000000000000000000000000000000000000007bffffffffffffffffffffffffffffffffffffffffffffffffffffffff1916827bffffffffffffffffffffffffffffffffffffffffffffffffffffffff191614806108a557507f0e89341c000000000000000000000000000000000000000000000000000000007bffffffffffffffffffffffffffffffffffffffffffffffffffffffff1916827bffffffffffffffffffffffffffffffffffffffffffffffffffffffff1916145b806108b557506108b482611d3f565b5b9050919050565b61019180546108ca906153d8565b80601f01602080910402602001604051908101604052809291908181526020018280546108f6906153d8565b80156109435780601f1061091857610100808354040283529160200191610943565b820191906000526020600020905b81548152906001019060200180831161092657829003601f168201915b505050505081565b60606109556111af565b610193600084815260200190815260200160002060405160200161097a929190614af6565b6040516020818303038152906040529050919050565b6000808561ffff1667ffffffffffffffff8111156109d7577f4e487b7100000000000000000000000000000000000000000000000000000000600052604160045260246000fd5b604051908082528060200260200182016040528015610a055781602001602082028036833780820191505090505b50905060008661ffff1667ffffffffffffffff811115610a4e577f4e487b7100000000000000000000000000000000000000000000000000000000600052604160045260246000fd5b604051908082528060200260200182016040528015610a7c5781602001602082028036833780820191505090505b509050600080600090505b8861ffff16811015610ba057610a9e610194611da9565b610aa9610194611dbf565b915081848281518110610ae5577f4e487b7100000000000000000000000000000000000000000000000000000000600052603260045260246000fd5b6020026020010181815250506001838281518110610b2c577f4e487b7100000000000000000000000000000000000000000000000000000000600052603260045260246000fd5b602002602001018181525050610b8282898381518110610b75577f4e487b7100000000000000000000000000000000000000000000000000000000600052603260045260246000fd5b6020026020010151611dcd565b610b8d828888611dfa565b8080610b989061546f565b915050610a87565b50610bbc338484604051806020016040528060008152506120e0565b809350505050949350505050565b6000809250929050565b610bdc61234b565b73ffffffffffffffffffffffffffffffffffffffff168573ffffffffffffffffffffffffffffffffffffffff161480610c225750610c2185610c1c61234b565b611b40565b5b610c61576040517f08c379a0000000000000000000000000000000000000000000000000000000008152600401610c5890614e61565b60405180910390fd5b610c6e858585858561235a565b5050505050565b7f000000000000000000000000000000000000000000000000000000000000000073ffffffffffffffffffffffffffffffffffffffff163073ffffffffffffffffffffffffffffffffffffffff161415610d04576040517f08c379a0000000000000000000000000000000000000000000000000000000008152600401610cfb90614dc1565b60405180910390fd5b7f000000000000000000000000000000000000000000000000000000000000000073ffffffffffffffffffffffffffffffffffffffff16610d436126bd565b73ffffffffffffffffffffffffffffffffffffffff1614610d99576040517f08c379a0000000000000000000000000000000000000000000000000000000008152600401610d9090614e01565b60405180910390fd5b610da281612714565b610e2181600067ffffffffffffffff811115610de7577f4e487b7100000000000000000000000000000000000000000000000000000000600052604160045260246000fd5b6040519080825280601f01601f191660200182016040528015610e195781602001600182028036833780820191505090505b506000612793565b50565b610e2c61234b565b73ffffffffffffffffffffffffffffffffffffffff16610e4a611636565b73ffffffffffffffffffffffffffffffffffffffff1614610ea0576040517f08c379a0000000000000000000000000000000000000000000000000000000008152600401610e9790614ee1565b60405180910390fd5b610ea8612964565b565b60608151835114610ef0576040517f08c379a0000000000000000000000000000000000000000000000000000000008152600401610ee790614f81565b60405180910390fd5b6000835167ffffffffffffffff811115610f33577f4e487b7100000000000000000000000000000000000000000000000000000000600052604160045260246000fd5b604051908082528060200260200182016040528015610f615781602001602082028036833780820191505090505b50905060005b845181101561105057610ffa858281518110610fac577f4e487b7100000000000000000000000000000000000000000000000000000000600052603260045260246000fd5b6020026020010151858381518110610fed577f4e487b7100000000000000000000000000000000000000000000000000000000600052603260045260246000fd5b6020026020010151610710565b828281518110611033577f4e487b7100000000000000000000000000000000000000000000000000000000600052603260045260246000fd5b602002602001018181525050806110499061546f565b9050610f67565b508091505092915050565b7f000000000000000000000000000000000000000000000000000000000000000073ffffffffffffffffffffffffffffffffffffffff163073ffffffffffffffffffffffffffffffffffffffff1614156110ea576040517f08c379a00000000000000000000000000000000000000000000000000000000081526004016110e190614dc1565b60405180910390fd5b7f000000000000000000000000000000000000000000000000000000000000000073ffffffffffffffffffffffffffffffffffffffff166111296126bd565b73ffffffffffffffffffffffffffffffffffffffff161461117f576040517f08c379a000000000000000000000000000000000000000000000000000000000815260040161117690614e01565b60405180910390fd5b61118882612714565b61119482826001612793565b5050565b600060c960009054906101000a900460ff16905090565b606061019680546111bf906153d8565b80601f01602080910402602001604051908101604052809291908181526020018280546111eb906153d8565b80156112385780601f1061120d57610100808354040283529160200191611238565b820191906000526020600020905b81548152906001019060200180831161121b57829003601f168201915b5050505050905090565b61124a61234b565b73ffffffffffffffffffffffffffffffffffffffff16611268611636565b73ffffffffffffffffffffffffffffffffffffffff16146112be576040517f08c379a00000000000000000000000000000000000000000000000000000000081526004016112b590614ee1565b60405180910390fd5b6112c86000612a06565b565b61019680546112d8906153d8565b80601f0160208091040260200160405190810160405280929190818152602001828054611304906153d8565b80156113515780601f1061132657610100808354040283529160200191611351565b820191906000526020600020905b81548152906001019060200180831161133457829003601f168201915b505050505081565b600060019054906101000a900460ff166113815760008054906101000a900460ff161561138a565b611389612acc565b5b6113c9576040517f08c379a00000000000000000000000000000000000000000000000000000000081526004016113c090614e81565b60405180910390fd5b60008060019054906101000a900460ff161590508015611419576001600060016101000a81548160ff02191690831515021790555060016000806101000a81548160ff0219169083151502179055505b6114576040518060400160405280601a81526020017f68747470733a2f2f7777772e6d7573697876657273652e636f6d000000000000815250612add565b61145f612b48565b611467612ba9565b61146f612c0a565b611490604051806060016040528060228152602001615d6c60229139611660565b6040518060400160405280600a81526020017f4d7573697876657273650000000000000000000000000000000000000000000081525061019190805190602001906114dc929190613be1565b506040518060400160405280600381526020017f4d585600000000000000000000000000000000000000000000000000000000008152506101929080519060200190611529929190613be1565b50801561154b5760008060016101000a81548160ff0219169083151502179055505b50565b61155661234b565b73ffffffffffffffffffffffffffffffffffffffff16611574611636565b73ffffffffffffffffffffffffffffffffffffffff16146115ca576040517f08c379a00000000000000000000000000000000000000000000000000000000081526004016115c190614ee1565b60405180910390fd5b6115d2612c6b565b565b61019860205281600052604060002081815481106115f157600080fd5b9060005260206000209060020201600091509150508060000160009054906101000a900473ffffffffffffffffffffffffffffffffffffffff16908060010154905082565b6000609760009054906101000a900473ffffffffffffffffffffffffffffffffffffffff16905090565b61166861234b565b73ffffffffffffffffffffffffffffffffffffffff16611686611636565b73ffffffffffffffffffffffffffffffffffffffff16146116dc576040517f08c379a00000000000000000000000000000000000000000000000000000000081526004016116d390614ee1565b60405180910390fd5b6116e4611198565b15611724576040517f08c379a000000000000000000000000000000000000000000000000000000000815260040161171b90614e21565b60405180910390fd5b80610196908051906020019061173b929190613be1565b5050565b610192805461174d906153d8565b80601f0160208091040260200160405190810160405280929190818152602001828054611779906153d8565b80156117c65780601f1061179b576101008083540402835291602001916117c6565b820191906000526020600020905b8154815290600101906020018083116117a957829003601f168201915b505050505081565b6117e06117d961234b565b8383612d0e565b5050565b61019580546117f2906153d8565b80601f016020809104026020016040519081016040528092919081815260200182805461181e906153d8565b801561186b5780601f106118405761010080835404028352916020019161186b565b820191906000526020600020905b81548152906001019060200180831161184e57829003601f168201915b505050505081565b60606101986000838152602001908152602001600020805480602002602001604051908101604052809291908181526020016000905b8282101561193b57838290600052602060002090600202016040518060400160405290816000820160009054906101000a900473ffffffffffffffffffffffffffffffffffffffff1673ffffffffffffffffffffffffffffffffffffffff1673ffffffffffffffffffffffffffffffffffffffff168152602001600182015481525050815260200190600101906118a9565b505050509050919050565b61194e61234b565b73ffffffffffffffffffffffffffffffffffffffff1661196c611636565b73ffffffffffffffffffffffffffffffffffffffff16146119c2576040517f08c379a00000000000000000000000000000000000000000000000000000000081526004016119b990614ee1565b60405180910390fd5b6119cb81612e7b565b50565b6119d661234b565b73ffffffffffffffffffffffffffffffffffffffff166119f4611636565b73ffffffffffffffffffffffffffffffffffffffff1614611a4a576040517f08c379a0000000000000000000000000000000000000000000000000000000008152600401611a4190614ee1565b60405180910390fd5b611a52611198565b15611a92576040517f08c379a0000000000000000000000000000000000000000000000000000000008152600401611a8990614e21565b60405180910390fd5b806101959080519060200190611aa9929190613be1565b5050565b60606101958054611abd906153d8565b80601f0160208091040260200160405190810160405280929190818152602001828054611ae9906153d8565b8015611b365780601f10611b0b57610100808354040283529160200191611b36565b820191906000526020600020905b815481529060010190602001808311611b1957829003601f168201915b5050505050905090565b600073207fa8df3a17d96ca7ea4f2893fcdcb78a30410173ffffffffffffffffffffffffffffffffffffffff168273ffffffffffffffffffffffffffffffffffffffff161415611b935760019050611ba0565b611b9d8383612e95565b90505b92915050565b611bae61234b565b73ffffffffffffffffffffffffffffffffffffffff168573ffffffffffffffffffffffffffffffffffffffff161480611bf45750611bf385611bee61234b565b611b40565b5b611c33576040517f08c379a0000000000000000000000000000000000000000000000000000000008152600401611c2a90614de1565b60405180910390fd5b611c408585858585612f29565b5050505050565b611c4f61234b565b73ffffffffffffffffffffffffffffffffffffffff16611c6d611636565b73ffffffffffffffffffffffffffffffffffffffff1614611cc3576040517f08c379a0000000000000000000000000000000000000000000000000000000008152600401611cba90614ee1565b60405180910390fd5b600073ffffffffffffffffffffffffffffffffffffffff168173ffffffffffffffffffffffffffffffffffffffff161415611d33576040517f08c379a0000000000000000000000000000000000000000000000000000000008152600401611d2a90614da1565b60405180910390fd5b611d3c81612a06565b50565b60007f01ffc9a7000000000000000000000000000000000000000000000000000000007bffffffffffffffffffffffffffffffffffffffffffffffffffffffff1916827bffffffffffffffffffffffffffffffffffffffffffffffffffffffff1916149050919050565b6001816000016000828254019250508190555050565b600081600001549050919050565b8061019360008481526020019081526020016000209080519060200190611df5929190613be1565b505050565b60005b825181101561208e57600073ffffffffffffffffffffffffffffffffffffffff16838281518110611e57577f4e487b7100000000000000000000000000000000000000000000000000000000600052603260045260246000fd5b602002602001015173ffffffffffffffffffffffffffffffffffffffff161415611eb6576040517f08c379a0000000000000000000000000000000000000000000000000000000008152600401611ead90614fe1565b60405180910390fd5b6000828281518110611ef1577f4e487b7100000000000000000000000000000000000000000000000000000000600052603260045260246000fd5b60200260200101511415611f3a576040517f08c379a0000000000000000000000000000000000000000000000000000000008152600401611f3190614f01565b60405180910390fd5b60006040518060400160405280858481518110611f80577f4e487b7100000000000000000000000000000000000000000000000000000000600052603260045260246000fd5b602002602001015173ffffffffffffffffffffffffffffffffffffffff168152602001848481518110611fdc577f4e487b7100000000000000000000000000000000000000000000000000000000600052603260045260246000fd5b60200260200101518152509050610198600086815260200190815260200160002081908060018154018082558091505060019003906000526020600020906002020160009091909190915060008201518160000160006101000a81548173ffffffffffffffffffffffffffffffffffffffff021916908373ffffffffffffffffffffffffffffffffffffffff1602179055506020820151816001015550505080806120869061546f565b915050611dfd565b507f11de1ed290ef7c79f0112213bdb47a9e423f83e4878a1d730a7a48c35065794d8361019860008681526020019081526020016000206040516120d392919061501c565b60405180910390a1505050565b600073ffffffffffffffffffffffffffffffffffffffff168473ffffffffffffffffffffffffffffffffffffffff161415612150576040517f08c379a000000000000000000000000000000000000000000000000000000000815260040161214790614fc1565b60405180910390fd5b8151835114612194576040517f08c379a000000000000000000000000000000000000000000000000000000000815260040161218b90614fa1565b60405180910390fd5b600061219e61234b565b90506121af816000878787876131ae565b60005b84518110156122b5578381815181106121f4577f4e487b7100000000000000000000000000000000000000000000000000000000600052603260045260246000fd5b602002602001015160656000878481518110612239577f4e487b7100000000000000000000000000000000000000000000000000000000600052603260045260246000fd5b6020026020010151815260200190815260200160002060008873ffffffffffffffffffffffffffffffffffffffff1673ffffffffffffffffffffffffffffffffffffffff168152602001908152602001600020600082825461229b9190615282565b9250508190555080806122ad9061546f565b9150506121b2565b508473ffffffffffffffffffffffffffffffffffffffff16600073ffffffffffffffffffffffffffffffffffffffff168273ffffffffffffffffffffffffffffffffffffffff167f4a39dc06d4c0dbc64b70af90fd698a233a518aa5d07e595d983b8c0526c8f7fb878760405161232d929190614c8d565b60405180910390a4612344816000878787876131b6565b5050505050565b600061235561339d565b905090565b815183511461239e576040517f08c379a000000000000000000000000000000000000000000000000000000000815260040161239590614fa1565b60405180910390fd5b600073ffffffffffffffffffffffffffffffffffffffff168473ffffffffffffffffffffffffffffffffffffffff16141561240e576040517f08c379a000000000000000000000000000000000000000000000000000000000815260040161240590614e41565b60405180910390fd5b600061241861234b565b90506124288187878787876131ae565b60005b845181101561262857600085828151811061246f577f4e487b7100000000000000000000000000000000000000000000000000000000600052603260045260246000fd5b6020026020010151905060008583815181106124b4577f4e487b7100000000000000000000000000000000000000000000000000000000600052603260045260246000fd5b6020026020010151905060006065600084815260200190815260200160002060008b73ffffffffffffffffffffffffffffffffffffffff1673ffffffffffffffffffffffffffffffffffffffff16815260200190815260200160002054905081811015612556576040517f08c379a000000000000000000000000000000000000000000000000000000000815260040161254d90614ea1565b60405180910390fd5b8181036065600085815260200190815260200160002060008c73ffffffffffffffffffffffffffffffffffffffff1673ffffffffffffffffffffffffffffffffffffffff16815260200190815260200160002081905550816065600085815260200190815260200160002060008b73ffffffffffffffffffffffffffffffffffffffff1673ffffffffffffffffffffffffffffffffffffffff168152602001908152602001600020600082825461260d9190615282565b92505081905550505050806126219061546f565b905061242b565b508473ffffffffffffffffffffffffffffffffffffffff168673ffffffffffffffffffffffffffffffffffffffff168273ffffffffffffffffffffffffffffffffffffffff167f4a39dc06d4c0dbc64b70af90fd698a233a518aa5d07e595d983b8c0526c8f7fb878760405161269f929190614c8d565b60405180910390a46126b58187878787876131b6565b505050505050565b60006126eb7f360894a13ba1a3210667c828492db98dca3e2076cc3735a920a3ca505d382bbc60001b61344e565b60000160009054906101000a900473ffffffffffffffffffffffffffffffffffffffff16905090565b61271c61234b565b73ffffffffffffffffffffffffffffffffffffffff1661273a611636565b73ffffffffffffffffffffffffffffffffffffffff1614612790576040517f08c379a000000000000000000000000000000000000000000000000000000000815260040161278790614ee1565b60405180910390fd5b50565b600061279d6126bd565b90506127a884613458565b6000835111806127b55750815b156127c6576127c48484613511565b505b60006127f47f4910fdfa16fed3260ed0e7147f7cc6da11a60208b5b9406d12a635614ffd914360001b6135f5565b90508060000160009054906101000a900460ff1661295d5760018160000160006101000a81548160ff0219169083151502179055506128c0858360405160240161283e9190614b1a565b6040516020818303038152906040527f3659cfe6000000000000000000000000000000000000000000000000000000007bffffffffffffffffffffffffffffffffffffffffffffffffffffffff19166020820180517bffffffffffffffffffffffffffffffffffffffffffffffffffffffff8381831617835250505050613511565b5060008160000160006101000a81548160ff0219169083151502179055506128e66126bd565b73ffffffffffffffffffffffffffffffffffffffff168273ffffffffffffffffffffffffffffffffffffffff1614612953576040517f08c379a000000000000000000000000000000000000000000000000000000000815260040161294a90614d81565b60405180910390fd5b61295c856135ff565b5b5050505050565b61296c611198565b6129ab576040517f08c379a00000000000000000000000000000000000000000000000000000000081526004016129a290614d41565b60405180910390fd5b600060c960006101000a81548160ff0219169083151502179055507f5db9ee0a495bf2e6ff9c91a7834c1ba4fdd244a5e8aa4e537bd38aeae4b073aa6129ef61234b565b6040516129fc9190614b1a565b60405180910390a1565b6000609760009054906101000a900473ffffffffffffffffffffffffffffffffffffffff16905081609760006101000a81548173ffffffffffffffffffffffffffffffffffffffff021916908373ffffffffffffffffffffffffffffffffffffffff1602179055508173ffffffffffffffffffffffffffffffffffffffff168173ffffffffffffffffffffffffffffffffffffffff167f8be0079c531659141344cd1fd0a4f28419497f9722a3daafe3b4186f6b6457e060405160405180910390a35050565b6000612ad73061364e565b15905090565b600060019054906101000a900460ff16612b2c576040517f08c379a0000000000000000000000000000000000000000000000000000000008152600401612b2390614f41565b60405180910390fd5b612b34613661565b612b3c6136b2565b612b4581613703565b50565b600060019054906101000a900460ff16612b97576040517f08c379a0000000000000000000000000000000000000000000000000000000008152600401612b8e90614f41565b60405180910390fd5b612b9f613661565b612ba761375e565b565b600060019054906101000a900460ff16612bf8576040517f08c379a0000000000000000000000000000000000000000000000000000000008152600401612bef90614f41565b60405180910390fd5b612c00613661565b612c086137bf565b565b600060019054906101000a900460ff16612c59576040517f08c379a0000000000000000000000000000000000000000000000000000000008152600401612c5090614f41565b60405180910390fd5b612c6161382b565b612c6961387c565b565b612c73611198565b15612cb3576040517f08c379a0000000000000000000000000000000000000000000000000000000008152600401612caa90614e21565b60405180910390fd5b600160c960006101000a81548160ff0219169083151502179055507f62e78cea01bee320cd4e420270b5ea74000d11b0c9f74754ebdbfc544b05a258612cf761234b565b604051612d049190614b1a565b60405180910390a1565b8173ffffffffffffffffffffffffffffffffffffffff168373ffffffffffffffffffffffffffffffffffffffff161415612d7d576040517f08c379a0000000000000000000000000000000000000000000000000000000008152600401612d7490614f61565b60405180910390fd5b80606660008573ffffffffffffffffffffffffffffffffffffffff1673ffffffffffffffffffffffffffffffffffffffff16815260200190815260200160002060008473ffffffffffffffffffffffffffffffffffffffff1673ffffffffffffffffffffffffffffffffffffffff16815260200190815260200160002060006101000a81548160ff0219169083151502179055508173ffffffffffffffffffffffffffffffffffffffff168373ffffffffffffffffffffffffffffffffffffffff167f17307eab39ab6107e8899845ad3d59bd9653f200f220920489ca2b5937696c3183604051612e6e9190614cc4565b60405180910390a3505050565b8060679080519060200190612e91929190613be1565b5050565b6000606660008473ffffffffffffffffffffffffffffffffffffffff1673ffffffffffffffffffffffffffffffffffffffff16815260200190815260200160002060008373ffffffffffffffffffffffffffffffffffffffff1673ffffffffffffffffffffffffffffffffffffffff16815260200190815260200160002060009054906101000a900460ff16905092915050565b600073ffffffffffffffffffffffffffffffffffffffff168473ffffffffffffffffffffffffffffffffffffffff161415612f99576040517f08c379a0000000000000000000000000000000000000000000000000000000008152600401612f9090614e41565b60405180910390fd5b6000612fa361234b565b9050612fc3818787612fb4886138cd565b612fbd886138cd565b876131ae565b60006065600086815260200190815260200160002060008873ffffffffffffffffffffffffffffffffffffffff1673ffffffffffffffffffffffffffffffffffffffff1681526020019081526020016000205490508381101561305b576040517f08c379a000000000000000000000000000000000000000000000000000000000815260040161305290614ea1565b60405180910390fd5b8381036065600087815260200190815260200160002060008973ffffffffffffffffffffffffffffffffffffffff1673ffffffffffffffffffffffffffffffffffffffff16815260200190815260200160002081905550836065600087815260200190815260200160002060008873ffffffffffffffffffffffffffffffffffffffff1673ffffffffffffffffffffffffffffffffffffffff16815260200190815260200160002060008282546131129190615282565b925050819055508573ffffffffffffffffffffffffffffffffffffffff168773ffffffffffffffffffffffffffffffffffffffff168373ffffffffffffffffffffffffffffffffffffffff167fc3d58168c5ae7397731d063d5bbf3d657854427343f4c083240f7aacaa2d0f62888860405161318f92919061504c565b60405180910390a46131a5828888888888613993565b50505050505050565b505050505050565b6131d58473ffffffffffffffffffffffffffffffffffffffff1661364e565b15613395578373ffffffffffffffffffffffffffffffffffffffff1663bc197c8187878686866040518663ffffffff1660e01b815260040161321b959493929190614b5e565b602060405180830381600087803b15801561323557600080fd5b505af192505050801561326657506040513d601f19601f820116820180604052508101906132639190614299565b60015b61330c57613272615545565b806308c379a014156132cf5750613287615c62565b8061329257506132d1565b806040517f08c379a00000000000000000000000000000000000000000000000000000000081526004016132c69190614cdf565b60405180910390fd5b505b6040517f08c379a000000000000000000000000000000000000000000000000000000000815260040161330390614d01565b60405180910390fd5b63bc197c8160e01b7bffffffffffffffffffffffffffffffffffffffffffffffffffffffff1916817bffffffffffffffffffffffffffffffffffffffffffffffffffffffff191614613393576040517f08c379a000000000000000000000000000000000000000000000000000000000815260040161338a90614d21565b60405180910390fd5b505b505050505050565b60003073ffffffffffffffffffffffffffffffffffffffff163373ffffffffffffffffffffffffffffffffffffffff16141561344757600080368080601f016020809104026020016040519081016040528093929190818152602001838380828437600081840152601f19601f820116905080830192505050505050509050600080369050905073ffffffffffffffffffffffffffffffffffffffff81830151169250505061344b565b3390505b90565b6000819050919050565b6134618161364e565b6134a0576040517f08c379a000000000000000000000000000000000000000000000000000000000815260040161349790614ec1565b60405180910390fd5b806134cd7f360894a13ba1a3210667c828492db98dca3e2076cc3735a920a3ca505d382bbc60001b61344e565b60000160006101000a81548173ffffffffffffffffffffffffffffffffffffffff021916908373ffffffffffffffffffffffffffffffffffffffff16021790555050565b606061351c8361364e565b61355b576040517f08c379a000000000000000000000000000000000000000000000000000000000815260040161355290614f21565b60405180910390fd5b6000808473ffffffffffffffffffffffffffffffffffffffff16846040516135839190614adf565b600060405180830381855af49150503d80600081146135be576040519150601f19603f3d011682016040523d82523d6000602084013e6135c3565b606091505b50915091506135eb8282604051806060016040528060278152602001615d8e60279139613b7a565b9250505092915050565b6000819050919050565b61360881613458565b8073ffffffffffffffffffffffffffffffffffffffff167fbc7cd75a20ee27fd9adebab32041f755214dbc6bffa90cc0225b39da2e5c2d3b60405160405180910390a250565b600080823b905060008111915050919050565b600060019054906101000a900460ff166136b0576040517f08c379a00000000000000000000000000000000000000000000000000000000081526004016136a790614f41565b60405180910390fd5b565b600060019054906101000a900460ff16613701576040517f08c379a00000000000000000000000000000000000000000000000000000000081526004016136f890614f41565b60405180910390fd5b565b600060019054906101000a900460ff16613752576040517f08c379a000000000000000000000000000000000000000000000000000000000815260040161374990614f41565b60405180910390fd5b61375b81612e7b565b50565b600060019054906101000a900460ff166137ad576040517f08c379a00000000000000000000000000000000000000000000000000000000081526004016137a490614f41565b60405180910390fd5b6137bd6137b861234b565b612a06565b565b600060019054906101000a900460ff1661380e576040517f08c379a000000000000000000000000000000000000000000000000000000000815260040161380590614f41565b60405180910390fd5b600060c960006101000a81548160ff021916908315150217905550565b600060019054906101000a900460ff1661387a576040517f08c379a000000000000000000000000000000000000000000000000000000000815260040161387190614f41565b60405180910390fd5b565b600060019054906101000a900460ff166138cb576040517f08c379a00000000000000000000000000000000000000000000000000000000081526004016138c290614f41565b60405180910390fd5b565b60606000600167ffffffffffffffff811115613912577f4e487b7100000000000000000000000000000000000000000000000000000000600052604160045260246000fd5b6040519080825280602002602001820160405280156139405781602001602082028036833780820191505090505b509050828160008151811061397e577f4e487b7100000000000000000000000000000000000000000000000000000000600052603260045260246000fd5b60200260200101818152505080915050919050565b6139b28473ffffffffffffffffffffffffffffffffffffffff1661364e565b15613b72578373ffffffffffffffffffffffffffffffffffffffff1663f23a6e6187878686866040518663ffffffff1660e01b81526004016139f8959493929190614bc6565b602060405180830381600087803b158015613a1257600080fd5b505af1925050508015613a4357506040513d601f19601f82011682018060405250810190613a409190614299565b60015b613ae957613a4f615545565b806308c379a01415613aac5750613a64615c62565b80613a6f5750613aae565b806040517f08c379a0000000000000000000000000000000000000000000000000000000008152600401613aa39190614cdf565b60405180910390fd5b505b6040517f08c379a0000000000000000000000000000000000000000000000000000000008152600401613ae090614d01565b60405180910390fd5b63f23a6e6160e01b7bffffffffffffffffffffffffffffffffffffffffffffffffffffffff1916817bffffffffffffffffffffffffffffffffffffffffffffffffffffffff191614613b70576040517f08c379a0000000000000000000000000000000000000000000000000000000008152600401613b6790614d21565b60405180910390fd5b505b505050505050565b60608315613b8a57829050613bda565b600083511115613b9d5782518084602001fd5b816040517f08c379a0000000000000000000000000000000000000000000000000000000008152600401613bd19190614cdf565b60405180910390fd5b9392505050565b828054613bed906153d8565b90600052602060002090601f016020900481019282613c0f5760008555613c56565b82601f10613c2857805160ff1916838001178555613c56565b82800160010185558215613c56579182015b82811115613c55578251825591602001919060010190613c3a565b5b509050613c639190613c67565b5090565b5b80821115613c80576000816000905550600101613c68565b5090565b6000613c97613c928461509a565b615075565b90508083825260208201905082856020860282011115613cb657600080fd5b60005b85811015613ce65781613ccc8882613e35565b845260208401935060208301925050600181019050613cb9565b5050509392505050565b6000613d03613cfe846150c6565b615075565b9050808382526020820190508260005b85811015613d435781358501613d298882613f31565b845260208401935060208301925050600181019050613d13565b5050509392505050565b6000613d60613d5b846150f2565b615075565b90508083825260208201905082856020860282011115613d7f57600080fd5b60005b85811015613daf5781613d958882613f70565b845260208401935060208301925050600181019050613d82565b5050509392505050565b6000613dcc613dc78461511e565b615075565b905082815260208101848484011115613de457600080fd5b613def848285615396565b509392505050565b6000613e0a613e058461514f565b615075565b905082815260208101848484011115613e2257600080fd5b613e2d848285615396565b509392505050565b600081359050613e4481615cf8565b92915050565b600082601f830112613e5b57600080fd5b8135613e6b848260208601613c84565b91505092915050565b600082601f830112613e8557600080fd5b8135613e95848260208601613cf0565b91505092915050565b600082601f830112613eaf57600080fd5b8135613ebf848260208601613d4d565b91505092915050565b600081359050613ed781615d0f565b92915050565b600081359050613eec81615d26565b92915050565b600081519050613f0181615d26565b92915050565b600082601f830112613f1857600080fd5b8135613f28848260208601613db9565b91505092915050565b600082601f830112613f4257600080fd5b8135613f52848260208601613df7565b91505092915050565b600081359050613f6a81615d3d565b92915050565b600081359050613f7f81615d54565b92915050565b600060208284031215613f9757600080fd5b6000613fa584828501613e35565b91505092915050565b60008060408385031215613fc157600080fd5b6000613fcf85828601613e35565b9250506020613fe085828601613e35565b9150509250929050565b600080600080600060a0868803121561400257600080fd5b600061401088828901613e35565b955050602061402188828901613e35565b945050604086013567ffffffffffffffff81111561403e57600080fd5b61404a88828901613e9e565b935050606086013567ffffffffffffffff81111561406757600080fd5b61407388828901613e9e565b925050608086013567ffffffffffffffff81111561409057600080fd5b61409c88828901613f07565b9150509295509295909350565b600080600080600060a086880312156140c157600080fd5b60006140cf88828901613e35565b95505060206140e088828901613e35565b94505060406140f188828901613f70565b935050606061410288828901613f70565b925050608086013567ffffffffffffffff81111561411f57600080fd5b61412b88828901613f07565b9150509295509295909350565b6000806040838503121561414b57600080fd5b600061415985828601613e35565b925050602061416a85828601613ec8565b9150509250929050565b6000806040838503121561418757600080fd5b600061419585828601613e35565b925050602083013567ffffffffffffffff8111156141b257600080fd5b6141be85828601613f07565b9150509250929050565b600080604083850312156141db57600080fd5b60006141e985828601613e35565b92505060206141fa85828601613f70565b9150509250929050565b6000806040838503121561421757600080fd5b600083013567ffffffffffffffff81111561423157600080fd5b61423d85828601613e4a565b925050602083013567ffffffffffffffff81111561425a57600080fd5b61426685828601613e9e565b9150509250929050565b60006020828403121561428257600080fd5b600061429084828501613edd565b91505092915050565b6000602082840312156142ab57600080fd5b60006142b984828501613ef2565b91505092915050565b6000602082840312156142d457600080fd5b600082013567ffffffffffffffff8111156142ee57600080fd5b6142fa84828501613f31565b91505092915050565b6000806000806080858703121561431957600080fd5b600061432787828801613f5b565b945050602085013567ffffffffffffffff81111561434457600080fd5b61435087828801613e74565b935050604085013567ffffffffffffffff81111561436d57600080fd5b61437987828801613e4a565b925050606085013567ffffffffffffffff81111561439657600080fd5b6143a287828801613e9e565b91505092959194509250565b6000602082840312156143c057600080fd5b60006143ce84828501613f70565b91505092915050565b600080604083850312156143ea57600080fd5b60006143f885828601613f70565b925050602061440985828601613f70565b9150509250929050565b600061441f8383614a4b565b60408301905092915050565b60006144378383614a7a565b60408301905092915050565b600061444f8383614ac1565b60208301905092915050565b61446481615314565b82525050565b61447381615314565b82525050565b61448281615302565b82525050565b6000614493826151ca565b61449d8185615228565b93506144a883615180565b8060005b838110156144d95781516144c08882614413565b97506144cb83615201565b9250506001810190506144ac565b5085935050505092915050565b60006144f1826151d5565b6144fb8185615228565b935061450683615190565b8060005b83811015614536578161451d888261442b565b97506145288361520e565b92505060018101905061450a565b5085935050505092915050565b600061454e826151e0565b6145588185615239565b9350614563836151a5565b8060005b8381101561459457815161457b8882614443565b97506145868361521b565b925050600181019050614567565b5085935050505092915050565b6145aa81615326565b82525050565b60006145bb826151eb565b6145c5818561524a565b93506145d58185602086016153a5565b6145de81615567565b840191505092915050565b60006145f4826151eb565b6145fe818561525b565b935061460e8185602086016153a5565b80840191505092915050565b6000614625826151f6565b61462f8185615266565b935061463f8185602086016153a5565b61464881615567565b840191505092915050565b600061465e826151f6565b6146688185615277565b93506146788185602086016153a5565b80840191505092915050565b60008154614691816153d8565b61469b8186615277565b945060018216600081146146b657600181146146c7576146fa565b60ff198316865281860193506146fa565b6146d0856151b5565b60005b838110156146f2578154818901526001820191506020810190506146d3565b838801955050505b50505092915050565b6000614710603483615266565b915061471b82615592565b604082019050919050565b6000614733602883615266565b915061473e826155e1565b604082019050919050565b6000614756601483615266565b915061476182615630565b602082019050919050565b6000614779602b83615266565b915061478482615659565b604082019050919050565b600061479c602f83615266565b91506147a7826156a8565b604082019050919050565b60006147bf602683615266565b91506147ca826156f7565b604082019050919050565b60006147e2602c83615266565b91506147ed82615746565b604082019050919050565b6000614805602983615266565b915061481082615795565b604082019050919050565b6000614828602c83615266565b9150614833826157e4565b604082019050919050565b600061484b601083615266565b915061485682615833565b602082019050919050565b600061486e602583615266565b91506148798261585c565b604082019050919050565b6000614891603283615266565b915061489c826158ab565b604082019050919050565b60006148b4602e83615266565b91506148bf826158fa565b604082019050919050565b60006148d7602a83615266565b91506148e282615949565b604082019050919050565b60006148fa602d83615266565b915061490582615998565b604082019050919050565b600061491d602083615266565b9150614928826159e7565b602082019050919050565b6000614940602583615266565b915061494b82615a10565b604082019050919050565b6000614963602683615266565b915061496e82615a5f565b604082019050919050565b6000614986602b83615266565b915061499182615aae565b604082019050919050565b60006149a9602983615266565b91506149b482615afd565b604082019050919050565b60006149cc602983615266565b91506149d782615b4c565b604082019050919050565b60006149ef602883615266565b91506149fa82615b9b565b604082019050919050565b6000614a12602183615266565b9150614a1d82615bea565b604082019050919050565b6000614a35601b83615266565b9150614a4082615c39565b602082019050919050565b604082016000820151614a61600085018261445b565b506020820151614a746020850182614ac1565b50505050565b604082016000808301549050614a8f8161540a565b614a9c600086018261445b565b5060018301549050614aad81615424565b614aba6020860182614ac1565b5050505050565b614aca8161538c565b82525050565b614ad98161538c565b82525050565b6000614aeb82846145e9565b915081905092915050565b6000614b028285614653565b9150614b0e8284614684565b91508190509392505050565b6000602082019050614b2f6000830184614479565b92915050565b6000604082019050614b4a600083018561446a565b614b576020830184614ad0565b9392505050565b600060a082019050614b736000830188614479565b614b806020830187614479565b8181036040830152614b928186614543565b90508181036060830152614ba68185614543565b90508181036080830152614bba81846145b0565b90509695505050505050565b600060a082019050614bdb6000830188614479565b614be86020830187614479565b614bf56040830186614ad0565b614c026060830185614ad0565b8181036080830152614c1481846145b0565b90509695505050505050565b6000604082019050614c356000830185614479565b614c426020830184614ad0565b9392505050565b60006020820190508181036000830152614c638184614488565b905092915050565b60006020820190508181036000830152614c858184614543565b905092915050565b60006040820190508181036000830152614ca78185614543565b90508181036020830152614cbb8184614543565b90509392505050565b6000602082019050614cd960008301846145a1565b92915050565b60006020820190508181036000830152614cf9818461461a565b905092915050565b60006020820190508181036000830152614d1a81614703565b9050919050565b60006020820190508181036000830152614d3a81614726565b9050919050565b60006020820190508181036000830152614d5a81614749565b9050919050565b60006020820190508181036000830152614d7a8161476c565b9050919050565b60006020820190508181036000830152614d9a8161478f565b9050919050565b60006020820190508181036000830152614dba816147b2565b9050919050565b60006020820190508181036000830152614dda816147d5565b9050919050565b60006020820190508181036000830152614dfa816147f8565b9050919050565b60006020820190508181036000830152614e1a8161481b565b9050919050565b60006020820190508181036000830152614e3a8161483e565b9050919050565b60006020820190508181036000830152614e5a81614861565b9050919050565b60006020820190508181036000830152614e7a81614884565b9050919050565b60006020820190508181036000830152614e9a816148a7565b9050919050565b60006020820190508181036000830152614eba816148ca565b9050919050565b60006020820190508181036000830152614eda816148ed565b9050919050565b60006020820190508181036000830152614efa81614910565b9050919050565b60006020820190508181036000830152614f1a81614933565b9050919050565b60006020820190508181036000830152614f3a81614956565b9050919050565b60006020820190508181036000830152614f5a81614979565b9050919050565b60006020820190508181036000830152614f7a8161499c565b9050919050565b60006020820190508181036000830152614f9a816149bf565b9050919050565b60006020820190508181036000830152614fba816149e2565b9050919050565b60006020820190508181036000830152614fda81614a05565b9050919050565b60006020820190508181036000830152614ffa81614a28565b9050919050565b60006020820190506150166000830184614ad0565b92915050565b60006040820190506150316000830185614ad0565b818103602083015261504381846144e6565b90509392505050565b60006040820190506150616000830185614ad0565b61506e6020830184614ad0565b9392505050565b600061507f615090565b905061508b828261543e565b919050565b6000604051905090565b600067ffffffffffffffff8211156150b5576150b4615516565b5b602082029050602081019050919050565b600067ffffffffffffffff8211156150e1576150e0615516565b5b602082029050602081019050919050565b600067ffffffffffffffff82111561510d5761510c615516565b5b602082029050602081019050919050565b600067ffffffffffffffff82111561513957615138615516565b5b61514282615567565b9050602081019050919050565b600067ffffffffffffffff82111561516a57615169615516565b5b61517382615567565b9050602081019050919050565b6000819050602082019050919050565b60008190508160005260206000209050919050565b6000819050602082019050919050565b60008190508160005260206000209050919050565b600081519050919050565b600081549050919050565b600081519050919050565b600081519050919050565b600081519050919050565b6000602082019050919050565b6000600282019050919050565b6000602082019050919050565b600082825260208201905092915050565b600082825260208201905092915050565b600082825260208201905092915050565b600081905092915050565b600082825260208201905092915050565b600081905092915050565b600061528d8261538c565b91506152988361538c565b9250827fffffffffffffffffffffffffffffffffffffffffffffffffffffffffffffffff038211156152cd576152cc6154b8565b5b828201905092915050565b600073ffffffffffffffffffffffffffffffffffffffff82169050919050565b6000819050919050565b600061530d8261536c565b9050919050565b600061531f8261536c565b9050919050565b60008115159050919050565b60007fffffffff0000000000000000000000000000000000000000000000000000000082169050919050565b600061ffff82169050919050565b600073ffffffffffffffffffffffffffffffffffffffff82169050919050565b6000819050919050565b82818337600083830152505050565b60005b838110156153c35780820151818401526020810190506153a8565b838111156153d2576000848401525b50505050565b600060028204905060018216806153f057607f821691505b60208210811415615404576154036154e7565b5b50919050565b600061541d61541883615578565b6152d8565b9050919050565b600061543761543283615578565b6152f8565b9050919050565b61544782615567565b810181811067ffffffffffffffff8211171561546657615465615516565b5b80604052505050565b600061547a8261538c565b91507fffffffffffffffffffffffffffffffffffffffffffffffffffffffffffffffff8214156154ad576154ac6154b8565b5b600182019050919050565b7f4e487b7100000000000000000000000000000000000000000000000000000000600052601160045260246000fd5b7f4e487b7100000000000000000000000000000000000000000000000000000000600052602260045260246000fd5b7f4e487b7100000000000000000000000000000000000000000000000000000000600052604160045260246000fd5b600060033d11156155645760046000803e615561600051615585565b90505b90565b6000601f19601f8301169050919050565b60008160001c9050919050565b60008160e01c9050919050565b7f455243313135353a207472616e7366657220746f206e6f6e204552433131353560008201527f526563656976657220696d706c656d656e746572000000000000000000000000602082015250565b7f455243313135353a204552433131353552656365697665722072656a6563746560008201527f6420746f6b656e73000000000000000000000000000000000000000000000000602082015250565b7f5061757361626c653a206e6f7420706175736564000000000000000000000000600082015250565b7f455243313135353a2062616c616e636520717565727920666f7220746865207a60008201527f65726f2061646472657373000000000000000000000000000000000000000000602082015250565b7f45524331393637557067726164653a207570677261646520627265616b73206660008201527f7572746865722075706772616465730000000000000000000000000000000000602082015250565b7f4f776e61626c653a206e6577206f776e657220697320746865207a65726f206160008201527f6464726573730000000000000000000000000000000000000000000000000000602082015250565b7f46756e6374696f6e206d7573742062652063616c6c6564207468726f7567682060008201527f64656c656761746563616c6c0000000000000000000000000000000000000000602082015250565b7f455243313135353a2063616c6c6572206973206e6f74206f776e6572206e6f7260008201527f20617070726f7665640000000000000000000000000000000000000000000000602082015250565b7f46756e6374696f6e206d7573742062652063616c6c6564207468726f7567682060008201527f6163746976652070726f78790000000000000000000000000000000000000000602082015250565b7f5061757361626c653a2070617573656400000000000000000000000000000000600082015250565b7f455243313135353a207472616e7366657220746f20746865207a65726f20616460008201527f6472657373000000000000000000000000000000000000000000000000000000602082015250565b7f455243313135353a207472616e736665722063616c6c6572206973206e6f742060008201527f6f776e6572206e6f7220617070726f7665640000000000000000000000000000602082015250565b7f496e697469616c697a61626c653a20636f6e747261637420697320616c72656160008201527f647920696e697469616c697a6564000000000000000000000000000000000000602082015250565b7f455243313135353a20696e73756666696369656e742062616c616e636520666f60008201527f72207472616e7366657200000000000000000000000000000000000000000000602082015250565b7f455243313936373a206e657720696d706c656d656e746174696f6e206973206e60008201527f6f74206120636f6e747261637400000000000000000000000000000000000000602082015250565b7f4f776e61626c653a2063616c6c6572206973206e6f7420746865206f776e6572600082015250565b7f526f79616c74792070657263656e746167652073686f756c6420626520706f7360008201527f6974697665000000000000000000000000000000000000000000000000000000602082015250565b7f416464726573733a2064656c65676174652063616c6c20746f206e6f6e2d636f60008201527f6e74726163740000000000000000000000000000000000000000000000000000602082015250565b7f496e697469616c697a61626c653a20636f6e7472616374206973206e6f74206960008201527f6e697469616c697a696e67000000000000000000000000000000000000000000602082015250565b7f455243313135353a2073657474696e6720617070726f76616c2073746174757360008201527f20666f722073656c660000000000000000000000000000000000000000000000602082015250565b7f455243313135353a206163636f756e747320616e6420696473206c656e67746860008201527f206d69736d617463680000000000000000000000000000000000000000000000602082015250565b7f455243313135353a2069647320616e6420616d6f756e7473206c656e6774682060008201527f6d69736d61746368000000000000000000000000000000000000000000000000602082015250565b7f455243313135353a206d696e7420746f20746865207a65726f2061646472657360008201527f7300000000000000000000000000000000000000000000000000000000000000602082015250565b7f526563697069656e742073686f756c642062652070726573656e740000000000600082015250565b600060443d1015615c7257615cf5565b615c7a615090565b60043d036004823e80513d602482011167ffffffffffffffff82111715615ca2575050615cf5565b808201805167ffffffffffffffff811115615cc05750505050615cf5565b80602083010160043d038501811115615cdd575050505050615cf5565b615cec8260200185018661543e565b82955050505050505b90565b615d0181615302565b8114615d0c57600080fd5b50565b615d1881615326565b8114615d2357600080fd5b50565b615d2f81615332565b8114615d3a57600080fd5b50565b615d468161535e565b8114615d5157600080fd5b50565b615d5d8161538c565b8114615d6857600080fd5b5056fe68747470733a2f2f697066732e6d6f72616c69732e696f3a323035332f697066732f416464726573733a206c6f772d6c6576656c2064656c65676174652063616c6c206661696c6564a26469706673582212206f31da8365495e64c963a967e7cccc23d2931834f3e46840dc8c150f4af9d58464736f6c63430008020033",
  "linkReferences": {},
  "deployedLinkReferences": {}
}