{
  "_format": "hh-sol-artifact-1",
  "contractName": "LibMusixverse",
  "sourceName": "contracts/Musixverse/libraries/LibMusixverse.sol",
  "abi": [
    {
      "inputs": [
        {
          "components": [
            {
              "internalType": "uint16",
              "name": "amount",
              "type": "uint16"
            },
            {
              "internalType": "uint256",
              "name": "price",
              "type": "uint256"
            },
            {
              "internalType": "string",
              "name": "URIHash",
              "type": "string"
            },
            {
              "internalType": "address[]",
              "name": "collaborators",
              "type": "address[]"
            },
            {
              "internalType": "uint16[]",
              "name": "percentageContributions",
              "type": "uint16[]"
            },
            {
              "internalType": "uint16",
              "name": "resaleRoyaltyPercentage",
              "type": "uint16"
            },
            {
              "internalType": "bool",
              "name": "onSale",
              "type": "bool"
            },
            {
              "internalType": "uint256",
              "name": "unlockTimestamp",
              "type": "uint256"
            }
          ],
          "internalType": "struct TrackNftCreationData",
          "name": "data",
          "type": "tuple"
        }
      ],
      "name": "checkForMinting",
      "outputs": [],
      "stateMutability": "pure",
      "type": "function"
    },
    {
      "inputs": [
        {
          "internalType": "address[]",
          "name": "collaborators",
          "type": "address[]"
        },
        {
          "internalType": "uint16[]",
          "name": "percentageContributions",
          "type": "uint16[]"
        }
      ],
      "name": "checkForRoyalties",
      "outputs": [],
      "stateMutability": "pure",
      "type": "function"
    },
    {
      "inputs": [
        {
          "components": [
            {
              "internalType": "uint256",
              "name": "price",
              "type": "uint256"
            },
            {
              "internalType": "address",
              "name": "artistAddress",
              "type": "address"
            },
            {
              "internalType": "uint16",
              "name": "resaleRoyaltyPercentage",
              "type": "uint16"
            },
            {
              "internalType": "bool",
              "name": "onSale",
              "type": "bool"
            },
            {
              "internalType": "bool",
              "name": "soldOnce",
              "type": "bool"
            },
            {
              "internalType": "uint256",
              "name": "unlockTimestamp",
              "type": "uint256"
            }
          ],
          "internalType": "struct TrackNFT",
          "name": "trackNFT",
          "type": "tuple"
        },
        {
          "internalType": "address",
          "name": "prevOwner",
          "type": "address"
        }
      ],
      "name": "checkForSale",
      "outputs": [],
      "stateMutability": "view",
      "type": "function"
    },
    {
      "inputs": [
        {
          "internalType": "address payable",
          "name": "PLATFORM_ADDRESS",
          "type": "address"
        },
        {
          "internalType": "uint256",
          "name": "tokenId",
          "type": "uint256"
        }
      ],
      "name": "isNFTOwner",
      "outputs": [],
      "stateMutability": "view",
      "type": "function"
    },
    {
      "inputs": [
        {
          "components": [
            {
              "internalType": "uint256",
              "name": "price",
              "type": "uint256"
            },
            {
              "internalType": "address",
              "name": "artistAddress",
              "type": "address"
            },
            {
              "internalType": "uint16",
              "name": "resaleRoyaltyPercentage",
              "type": "uint16"
            },
            {
              "internalType": "bool",
              "name": "onSale",
              "type": "bool"
            },
            {
              "internalType": "bool",
              "name": "soldOnce",
              "type": "bool"
            },
            {
              "internalType": "uint256",
              "name": "unlockTimestamp",
              "type": "uint256"
            }
          ],
          "internalType": "struct TrackNFT",
          "name": "trackNFT",
          "type": "tuple"
        }
      ],
      "name": "isPastUnlockTimestamp",
      "outputs": [],
      "stateMutability": "view",
      "type": "function"
    }
  ],
  "bytecode": "0x612dbd610053600b82828239805160001a607314610046577f4e487b7100000000000000000000000000000000000000000000000000000000600052600060045260246000fd5b30600052607381538281f3fe73000000000000000000000000000000000000000030146080604052600436106100b35760003560e01c8063a8ef5c7f1161007b578063a8ef5c7f146101a1578063b4196759146101bd578063cd2aeaaa146101d9578063d54eaf26146101f5578063e6b7999514610211578063f23becbf1461022d576100b3565b80635c868675146100b85780636af930d2146100e157806380702b6d1461010a5780638e60b2c5146101475780639a41ea7414610185575b600080fd5b8180156100c457600080fd5b506100df60048036038101906100da9190611f0b565b610249565b005b8180156100ed57600080fd5b5061010860048036038101906101039190611ea8565b6103d6565b005b81801561011657600080fd5b50610131600480360381019061012c9190611bfa565b61059e565b60405161013e9190612254565b60405180910390f35b81801561015357600080fd5b5061016e60048036038101906101699190611c5d565b61084b565b60405161017c92919061246a565b60405180910390f35b61019f600480360381019061019a9190611e02565b6109af565b005b6101bb60048036038101906101b69190611fa6565b610ab6565b005b6101d760048036038101906101d29190611e3e565b610b11565b005b6101f360048036038101906101ee9190611bbe565b610cc7565b005b61020f600480360381019061020a9190611cd4565b610dc1565b005b61022b60048036038101906102269190611dd9565b610dda565b005b61024760048036038101906102429190611d23565b610e23565b005b61025585858585610e23565b60005b858590508110156103cd5781600088815260200190815260200160002060405180604001604052808888858181106102b9577f4e487b7100000000000000000000000000000000000000000000000000000000600052603260045260246000fd5b90506020020160208101906102ce9190611b6c565b73ffffffffffffffffffffffffffffffffffffffff168152602001868685818110610322577f4e487b7100000000000000000000000000000000000000000000000000000000600052603260045260246000fd5b90506020020160208101906103379190611e7f565b61ffff16815250908060018154018082558091505060019003906000526020600020906002020160009091909190915060008201518160000160006101000a81548173ffffffffffffffffffffffffffffffffffffffff021916908373ffffffffffffffffffffffffffffffffffffffff16021790555060208201518160010155505080806103c590612828565b915050610258565b50505050505050565b60006103e0610fe4565b90506103ec8583610ab6565b60008360008781526020019081526020016000206040518060c0016040529081600082015481526020016001820160009054906101000a900473ffffffffffffffffffffffffffffffffffffffff1673ffffffffffffffffffffffffffffffffffffffff1673ffffffffffffffffffffffffffffffffffffffff1681526020016001820160149054906101000a900461ffff1661ffff1661ffff1681526020016001820160169054906101000a900460ff161515151581526020016001820160179054906101000a900460ff16151515158152602001600282015481525050905060008260040160019054906101000a900473ffffffffffffffffffffffffffffffffffffffff1673ffffffffffffffffffffffffffffffffffffffff16636352211e886040518263ffffffff1660e01b815260040161052c919061244f565b60206040518083038186803b15801561054457600080fd5b505afa158015610558573d6000803e3d6000fd5b505050506040513d601f19601f8201168201806040525081019061057c9190611b95565b905061058882826109af565b6105958787848489610fe9565b50505050505050565b60006105ab858584610dc1565b60008360008681526020019081526020016000209050610695816040518060c0016040529081600082015481526020016001820160009054906101000a900473ffffffffffffffffffffffffffffffffffffffff1673ffffffffffffffffffffffffffffffffffffffff1673ffffffffffffffffffffffffffffffffffffffff1681526020016001820160149054906101000a900461ffff1661ffff1661ffff1681526020016001820160169054906101000a900460ff161515151581526020016001820160179054906101000a900460ff16151515158152602001600282015481525050610dda565b600115158160010160169054906101000a900460ff16151514156106d55760008160010160166101000a81548160ff021916908315150217905550610712565b600015158160010160169054906101000a900460ff16151514156107115760018160010160166101000a81548160ff0219169083151502179055505b5b80846000878152602001908152602001600020600082015481600001556001820160009054906101000a900473ffffffffffffffffffffffffffffffffffffffff168160010160006101000a81548173ffffffffffffffffffffffffffffffffffffffff021916908373ffffffffffffffffffffffffffffffffffffffff1602179055506001820160149054906101000a900461ffff168160010160146101000a81548161ffff021916908361ffff1602179055506001820160169054906101000a900460ff168160010160166101000a81548160ff0219169083151502179055506001820160179054906101000a900460ff168160010160176101000a81548160ff021916908315150217905550600282015481600201559050508060010160169054906101000a900460ff16915050949350505050565b600080610859878785610dc1565b60008560008881526020019081526020016000209050600081600001549050858260000181905550818760008a8152602001908152602001600020600082015481600001556001820160009054906101000a900473ffffffffffffffffffffffffffffffffffffffff168160010160006101000a81548173ffffffffffffffffffffffffffffffffffffffff021916908373ffffffffffffffffffffffffffffffffffffffff1602179055506001820160149054906101000a900461ffff168160010160146101000a81548161ffff021916908361ffff1602179055506001820160169054906101000a900460ff168160010160166101000a81548160ff0219169083151502179055506001820160179054906101000a900460ff168160010160176101000a81548160ff0219169083151502179055506002820154816002015590505080869350935050509550959350505050565b6109b882610dda565b81606001516109fc576040517f08c379a00000000000000000000000000000000000000000000000000000000081526004016109f3906122af565b60405180910390fd5b3373ffffffffffffffffffffffffffffffffffffffff168173ffffffffffffffffffffffffffffffffffffffff161415610a6b576040517f08c379a0000000000000000000000000000000000000000000000000000000008152600401610a62906123af565b60405180910390fd5b8160000151341015610ab2576040517f08c379a0000000000000000000000000000000000000000000000000000000008152600401610aa99061234f565b60405180910390fd5b5050565b600082118015610ace5750610aca81611577565b8211155b610b0d576040517f08c379a0000000000000000000000000000000000000000000000000000000008152600401610b04906122ef565b60405180910390fd5b5050565b6000816000016020810190610b269190611e7f565b61ffff1611610b6a576040517f08c379a0000000000000000000000000000000000000000000000000000000008152600401610b61906123ef565b60405180910390fd5b6000816020013511610bb1576040517f08c379a0000000000000000000000000000000000000000000000000000000008152600401610ba89061242f565b60405180910390fd5b6000818060400190610bc39190612541565b90501415610c06576040517f08c379a0000000000000000000000000000000000000000000000000000000008152600401610bfd906123cf565b60405180910390fd5b808060800190610c1691906124ea565b9050818060600190610c289190612493565b905014610c6a576040517f08c379a0000000000000000000000000000000000000000000000000000000008152600401610c61906122cf565b60405180910390fd5b60008160a0016020810190610c7f9190611e7f565b61ffff161015610cc4576040517f08c379a0000000000000000000000000000000000000000000000000000000008152600401610cbb9061226f565b60405180910390fd5b50565b3373ffffffffffffffffffffffffffffffffffffffff168273ffffffffffffffffffffffffffffffffffffffff16636352211e836040518263ffffffff1660e01b8152600401610d17919061244f565b60206040518083038186803b158015610d2f57600080fd5b505afa158015610d43573d6000803e3d6000fd5b505050506040513d601f19601f82011682018060405250810190610d679190611b95565b73ffffffffffffffffffffffffffffffffffffffff1614610dbd576040517f08c379a0000000000000000000000000000000000000000000000000000000008152600401610db49061236f565b60405180910390fd5b5050565b610dcb8282610ab6565b610dd58383610cc7565b505050565b8060a001514211610e20576040517f08c379a0000000000000000000000000000000000000000000000000000000008152600401610e179061228f565b60405180910390fd5b50565b818190508484905014610e6b576040517f08c379a0000000000000000000000000000000000000000000000000000000008152600401610e62906122cf565b60405180910390fd5b60005b84849050811015610fdd57600073ffffffffffffffffffffffffffffffffffffffff16858583818110610eca577f4e487b7100000000000000000000000000000000000000000000000000000000600052603260045260246000fd5b9050602002016020810190610edf9190611b6c565b73ffffffffffffffffffffffffffffffffffffffff161415610f36576040517f08c379a0000000000000000000000000000000000000000000000000000000008152600401610f2d9061240f565b60405180910390fd5b6000838383818110610f71577f4e487b7100000000000000000000000000000000000000000000000000000000600052603260045260246000fd5b9050602002016020810190610f869190611e7f565b61ffff1611610fca576040517f08c379a0000000000000000000000000000000000000000000000000000000008152600401610fc19061238f565b60405180910390fd5b8080610fd590612828565b915050610e6e565b5050505050565b600090565b6000610ff3610fe4565b9050600073ffffffffffffffffffffffffffffffffffffffff168573ffffffffffffffffffffffffffffffffffffffff16141561122d57600061106660646110588460040160009054906101000a900460ff1660ff163461158590919063ffffffff16565b61159b90919063ffffffff16565b90506110968260040160019054906101000a900473ffffffffffffffffffffffffffffffffffffffff16826115b1565b8460800151156111ac5760006110d060646110c2886040015161ffff163461158590919063ffffffff16565b61159b90919063ffffffff16565b90506111018360040160019054906101000a900473ffffffffffffffffffffffffffffffffffffffff1689836116a5565b600061115c606461114e89604001518760040160009054906101000a900460ff1660ff1661112f9190612605565b606461113b91906126c8565b61ffff163461158590919063ffffffff16565b61159b90919063ffffffff16565b90508573ffffffffffffffffffffffffffffffffffffffff166108fc829081150290604051600060405180830381858888f193505050501580156111a4573d6000803e3d6000fd5b505050611227565b60006111f460646111e68560040160009054906101000a900460ff1660646111d49190612730565b60ff163461158590919063ffffffff16565b61159b90919063ffffffff16565b90506112258360040160019054906101000a900473ffffffffffffffffffffffffffffffffffffffff1689836116a5565b505b50611480565b6000611269606461125b8460040160009054906101000a900460ff1660ff163461158590919063ffffffff16565b61159b90919063ffffffff16565b905060006112a760646112998560040160159054906101000a900460ff1660ff168561158590919063ffffffff16565b61159b90919063ffffffff16565b90506112b387826115b1565b6112ec8360040160019054906101000a900473ffffffffffffffffffffffffffffffffffffffff1682846112e791906126fc565b6115b1565b8560800151156114025760006113266064611318896040015161ffff163461158590919063ffffffff16565b61159b90919063ffffffff16565b90506113578460040160019054906101000a900473ffffffffffffffffffffffffffffffffffffffff168a836116a5565b60006113b260646113a48a604001518860040160009054906101000a900460ff1660ff166113859190612605565b606461139191906126c8565b61ffff163461158590919063ffffffff16565b61159b90919063ffffffff16565b90508673ffffffffffffffffffffffffffffffffffffffff166108fc829081150290604051600060405180830381858888f193505050501580156113fa573d6000803e3d6000fd5b50505061147d565b600061144a606461143c8660040160009054906101000a900460ff16606461142a9190612730565b60ff163461158590919063ffffffff16565b61159b90919063ffffffff16565b905061147b8460040160019054906101000a900473ffffffffffffffffffffffffffffffffffffffff168a836116a5565b505b50505b836080015161156f576001846080019015159081151581525050838260008881526020019081526020016000206000820151816000015560208201518160010160006101000a81548173ffffffffffffffffffffffffffffffffffffffff021916908373ffffffffffffffffffffffffffffffffffffffff16021790555060408201518160010160146101000a81548161ffff021916908361ffff16021790555060608201518160010160166101000a81548160ff02191690831515021790555060808201518160010160176101000a81548160ff02191690831515021790555060a082015181600201559050505b505050505050565b600081600001549050919050565b60008183611593919061266e565b905092915050565b600081836115a9919061263d565b905092915050565b804710156115f4576040517f08c379a00000000000000000000000000000000000000000000000000000000081526004016115eb9061232f565b60405180910390fd5b60008273ffffffffffffffffffffffffffffffffffffffff168260405161161a9061223f565b60006040518083038185875af1925050503d8060008114611657576040519150601f19603f3d011682016040523d82523d6000602084013e61165c565b606091505b50509050806116a0576040517f08c379a00000000000000000000000000000000000000000000000000000000081526004016116979061230f565b60405180910390fd5b505050565b60008373ffffffffffffffffffffffffffffffffffffffff1663b76c632b846040518263ffffffff1660e01b81526004016116e0919061244f565b60006040518083038186803b1580156116f857600080fd5b505afa15801561170c573d6000803e3d6000fd5b505050506040513d6000823e3d601f19601f820116820180604052508101906117359190611d98565b905060005b81518110156118505760006117af60646117a1858581518110611786577f4e487b7100000000000000000000000000000000000000000000000000000000600052603260045260246000fd5b6020026020010151602001518761158590919063ffffffff16565b61159b90919063ffffffff16565b90508282815181106117ea577f4e487b7100000000000000000000000000000000000000000000000000000000600052603260045260246000fd5b60200260200101516000015173ffffffffffffffffffffffffffffffffffffffff166108fc829081150290604051600060405180830381858888f1935050505015801561183b573d6000803e3d6000fd5b5050808061184890612828565b91505061173a565b5050505050565b600061186a611865846125bd565b612598565b9050808382526020820190508285604086028201111561188957600080fd5b60005b858110156118b9578161189f8882611a29565b84526020840193506040830192505060018101905061188c565b5050509392505050565b6000813590506118d281612ccf565b92915050565b6000815190506118e781612ccf565b92915050565b6000813590506118fc81612ce6565b92915050565b60008151905061191181612ce6565b92915050565b60008083601f84011261192957600080fd5b8235905067ffffffffffffffff81111561194257600080fd5b60208301915083602082028301111561195a57600080fd5b9250929050565b600082601f83011261197257600080fd5b8151611982848260208601611857565b91505092915050565b60008083601f84011261199d57600080fd5b8235905067ffffffffffffffff8111156119b657600080fd5b6020830191508360208202830111156119ce57600080fd5b9250929050565b6000813590506119e481612cfd565b92915050565b6000813590506119f981612d14565b92915050565b600081359050611a0e81612d2b565b92915050565b600081359050611a2381612d42565b92915050565b600060408284031215611a3b57600080fd5b611a456040612598565b90506000611a5584828501611902565b6000830152506020611a6984828501611b57565b60208301525092915050565b600060c08284031215611a8757600080fd5b611a9160c0612598565b90506000611aa184828501611b42565b6000830152506020611ab5848285016118c3565b6020830152506040611ac984828501611b2d565b6040830152506060611add848285016119d5565b6060830152506080611af1848285016119d5565b60808301525060a0611b0584828501611b42565b60a08301525092915050565b60006101008284031215611b2457600080fd5b81905092915050565b600081359050611b3c81612d59565b92915050565b600081359050611b5181612d70565b92915050565b600081519050611b6681612d70565b92915050565b600060208284031215611b7e57600080fd5b6000611b8c848285016118c3565b91505092915050565b600060208284031215611ba757600080fd5b6000611bb5848285016118d8565b91505092915050565b60008060408385031215611bd157600080fd5b6000611bdf858286016118ed565b9250506020611bf085828601611b42565b9150509250929050565b60008060008060808587031215611c1057600080fd5b6000611c1e878288016118ed565b9450506020611c2f87828801611b42565b9350506040611c40878288016119ff565b9250506060611c5187828801611a14565b91505092959194509250565b600080600080600060a08688031215611c7557600080fd5b6000611c83888289016118ed565b9550506020611c9488828901611b42565b9450506040611ca5888289016119ff565b9350506060611cb688828901611b42565b9250506080611cc788828901611a14565b9150509295509295909350565b600080600060608486031215611ce957600080fd5b6000611cf7868287016118ed565b9350506020611d0886828701611b42565b9250506040611d1986828701611a14565b9150509250925092565b60008060008060408587031215611d3957600080fd5b600085013567ffffffffffffffff811115611d5357600080fd5b611d5f87828801611917565b9450945050602085013567ffffffffffffffff811115611d7e57600080fd5b611d8a8782880161198b565b925092505092959194509250565b600060208284031215611daa57600080fd5b600082015167ffffffffffffffff811115611dc457600080fd5b611dd084828501611961565b91505092915050565b600060c08284031215611deb57600080fd5b6000611df984828501611a75565b91505092915050565b60008060e08385031215611e1557600080fd5b6000611e2385828601611a75565b92505060c0611e34858286016118c3565b9150509250929050565b600060208284031215611e5057600080fd5b600082013567ffffffffffffffff811115611e6a57600080fd5b611e7684828501611b11565b91505092915050565b600060208284031215611e9157600080fd5b6000611e9f84828501611b2d565b91505092915050565b60008060008060808587031215611ebe57600080fd5b6000611ecc87828801611b42565b9450506020611edd878288016118ed565b9350506040611eee878288016119ff565b9250506060611eff87828801611a14565b91505092959194509250565b60008060008060008060808789031215611f2457600080fd5b6000611f3289828a01611b42565b965050602087013567ffffffffffffffff811115611f4f57600080fd5b611f5b89828a01611917565b9550955050604087013567ffffffffffffffff811115611f7a57600080fd5b611f8689828a0161198b565b93509350506060611f9989828a016119ea565b9150509295509295509295565b60008060408385031215611fb957600080fd5b6000611fc785828601611b42565b9250506020611fd885828601611a14565b9150509250929050565b611feb81612788565b82525050565b6000611ffe603a836125f4565b91506120098261290f565b604082019050919050565b6000612021602f836125f4565b915061202c8261295e565b604082019050919050565b6000612044601c836125f4565b915061204f826129ad565b602082019050919050565b60006120676041836125f4565b9150612072826129d6565b606082019050919050565b600061208a601e836125f4565b915061209582612a4b565b602082019050919050565b60006120ad603a836125f4565b91506120b882612a74565b604082019050919050565b60006120d0601d836125f4565b91506120db82612ac3565b602082019050919050565b60006120f36024836125f4565b91506120fe82612aec565b604082019050919050565b60006121166038836125f4565b915061212182612b3b565b604082019050919050565b60006121396025836125f4565b915061214482612b8a565b604082019050919050565b600061215c6021836125f4565b915061216782612bd9565b604082019050919050565b600061217f6000836125e9565b915061218a82612c28565b600082019050919050565b60006121a26017836125f4565b91506121ad82612c2b565b602082019050919050565b60006121c56011836125f4565b91506121d082612c54565b602082019050919050565b60006121e8601b836125f4565b91506121f382612c7d565b602082019050919050565b600061220b601c836125f4565b915061221682612ca6565b602082019050919050565b61222a816127e0565b82525050565b612239816127e0565b82525050565b600061224a82612172565b9150819050919050565b60006020820190506122696000830184611fe2565b92915050565b6000602082019050818103600083015261228881611ff1565b9050919050565b600060208201905081810360008301526122a881612014565b9050919050565b600060208201905081810360008301526122c881612037565b9050919050565b600060208201905081810360008301526122e88161205a565b9050919050565b600060208201905081810360008301526123088161207d565b9050919050565b60006020820190508181036000830152612328816120a0565b9050919050565b60006020820190508181036000830152612348816120c3565b9050919050565b60006020820190508181036000830152612368816120e6565b9050919050565b6000602082019050818103600083015261238881612109565b9050919050565b600060208201905081810360008301526123a88161212c565b9050919050565b600060208201905081810360008301526123c88161214f565b9050919050565b600060208201905081810360008301526123e881612195565b9050919050565b60006020820190508181036000830152612408816121b8565b9050919050565b60006020820190508181036000830152612428816121db565b9050919050565b60006020820190508181036000830152612448816121fe565b9050919050565b60006020820190506124646000830184612221565b92915050565b600060408201905061247f6000830185612230565b61248c6020830184612230565b9392505050565b600080833560016020038436030381126124ac57600080fd5b80840192508235915067ffffffffffffffff8211156124ca57600080fd5b6020830192506020820236038313156124e257600080fd5b509250929050565b6000808335600160200384360303811261250357600080fd5b80840192508235915067ffffffffffffffff82111561252157600080fd5b60208301925060208202360383131561253957600080fd5b509250929050565b6000808335600160200384360303811261255a57600080fd5b80840192508235915067ffffffffffffffff82111561257857600080fd5b60208301925060018202360383131561259057600080fd5b509250929050565b60006125a26125b3565b90506125ae82826127f7565b919050565b6000604051905090565b600067ffffffffffffffff8211156125d8576125d76128cf565b5b602082029050602081019050919050565b600081905092915050565b600082825260208201905092915050565b6000612610826127b2565b915061261b836127b2565b92508261ffff0382111561263257612631612871565b5b828201905092915050565b6000612648826127e0565b9150612653836127e0565b925082612663576126626128a0565b5b828204905092915050565b6000612679826127e0565b9150612684836127e0565b9250817fffffffffffffffffffffffffffffffffffffffffffffffffffffffffffffffff04831182151516156126bd576126bc612871565b5b828202905092915050565b60006126d3826127b2565b91506126de836127b2565b9250828210156126f1576126f0612871565b5b828203905092915050565b6000612707826127e0565b9150612712836127e0565b92508282101561272557612724612871565b5b828203905092915050565b600061273b826127ea565b9150612746836127ea565b92508282101561275957612758612871565b5b828203905092915050565b600061276f826127c0565b9050919050565b6000612781826127c0565b9050919050565b60008115159050919050565b6000819050919050565b6000819050919050565b6000819050919050565b600061ffff82169050919050565b600073ffffffffffffffffffffffffffffffffffffffff82169050919050565b6000819050919050565b600060ff82169050919050565b612800826128fe565b810181811067ffffffffffffffff8211171561281f5761281e6128cf565b5b80604052505050565b6000612833826127e0565b91507fffffffffffffffffffffffffffffffffffffffffffffffffffffffffffffffff82141561286657612865612871565b5b600182019050919050565b7f4e487b7100000000000000000000000000000000000000000000000000000000600052601160045260246000fd5b7f4e487b7100000000000000000000000000000000000000000000000000000000600052601260045260246000fd5b7f4e487b7100000000000000000000000000000000000000000000000000000000600052604160045260246000fd5b6000601f19601f8301169050919050565b7f726573616c65526f79616c747950657263656e74616765206d7573742062652060008201527f67726561746572207468616e206f7220657175616c20746f2030000000000000602082015250565b7f4c69624d7573697876657273653a204f6e6c792063616c6c61626c65206f6e2060008201527f756e6c6f636b656420746f6b656e730000000000000000000000000000000000602082015250565b7f546f6b656e206e6f7420617661696c61626c6520666f722073616c6500000000600082015250565b7f636f6c6c61626f7261746f727320616e642070657263656e74616765436f6e7460008201527f7269627574696f6e73206d757374206265207468652073616d65206c656e677460208201527f6800000000000000000000000000000000000000000000000000000000000000604082015250565b7f4c69624d7573697876657273653a20496e76616c696420746f6b656e49640000600082015250565b7f416464726573733a20756e61626c6520746f2073656e642076616c75652c207260008201527f6563697069656e74206d61792068617665207265766572746564000000000000602082015250565b7f416464726573733a20696e73756666696369656e742062616c616e6365000000600082015250565b7f4e6f7420656e6f7567682076616c756520666f7220746865207472616e73616360008201527f74696f6e00000000000000000000000000000000000000000000000000000000602082015250565b7f4c69624d7573697876657273653a204d75737420626520746f6b656e206f776e60008201527f657220746f2063616c6c20746869732066756e6374696f6e0000000000000000602082015250565b7f526f79616c74792070657263656e746167652073686f756c6420626520706f7360008201527f6974697665000000000000000000000000000000000000000000000000000000602082015250565b7f596f752063616e6e6f7420707572636861736520796f7572206f776e20736f6e60008201527f6700000000000000000000000000000000000000000000000000000000000000602082015250565b50565b7f55524948617368206d7573742062652070726573656e74000000000000000000600082015250565b7f4e6f20746f6b656e7320746f206d696e74000000000000000000000000000000600082015250565b7f526563697069656e742073686f756c642062652070726573656e740000000000600082015250565b7f5072696365206d7573742062652067726561746572207468616e203000000000600082015250565b612cd881612764565b8114612ce357600080fd5b50565b612cef81612776565b8114612cfa57600080fd5b50565b612d0681612788565b8114612d1157600080fd5b50565b612d1d81612794565b8114612d2857600080fd5b50565b612d348161279e565b8114612d3f57600080fd5b50565b612d4b816127a8565b8114612d5657600080fd5b50565b612d62816127b2565b8114612d6d57600080fd5b50565b612d79816127e0565b8114612d8457600080fd5b5056fea2646970667358221220dbbbd560fc745c30a7923e7705a095eb4c9446ba70253e395b808f7ccb1328b264736f6c63430008040033",
  "linkReferences": {},
  "deployedLinkReferences": {}
}