{
  "_format": "hh-sol-artifact-1",
  "contractName": "LibMusixverse",
  "sourceName": "contracts/Musixverse/libraries/LibMusixverse.sol",
  "abi": [
    {
      "inputs": [
        {
          "components": [
            {
              "internalType": "uint16",
              "name": "amount",
              "type": "uint16"
            },
            {
              "internalType": "uint256",
              "name": "price",
              "type": "uint256"
            },
            {
              "internalType": "string",
              "name": "URIHash",
              "type": "string"
            },
            {
              "internalType": "string",
              "name": "unlockableContentURIHash",
              "type": "string"
            },
            {
              "internalType": "address[]",
              "name": "collaborators",
              "type": "address[]"
            },
            {
              "internalType": "uint16[]",
              "name": "percentageContributions",
              "type": "uint16[]"
            },
            {
              "internalType": "uint16",
              "name": "resaleRoyaltyPercentage",
              "type": "uint16"
            },
            {
              "internalType": "bool",
              "name": "onSale",
              "type": "bool"
            },
            {
              "internalType": "uint256",
              "name": "unlockTimestamp",
              "type": "uint256"
            }
          ],
          "internalType": "struct TrackNftCreationData",
          "name": "data",
          "type": "tuple"
        }
      ],
      "name": "checkForMinting",
      "outputs": [],
      "stateMutability": "pure",
      "type": "function"
    },
    {
      "inputs": [
        {
          "internalType": "address[]",
          "name": "collaborators",
          "type": "address[]"
        },
        {
          "internalType": "uint16[]",
          "name": "percentageContributions",
          "type": "uint16[]"
        }
      ],
      "name": "checkForRoyalties",
      "outputs": [],
      "stateMutability": "pure",
      "type": "function"
    },
    {
      "inputs": [
        {
          "components": [
            {
              "internalType": "uint256",
              "name": "price",
              "type": "uint256"
            },
            {
              "internalType": "address",
              "name": "artistAddress",
              "type": "address"
            },
            {
              "internalType": "uint16",
              "name": "resaleRoyaltyPercentage",
              "type": "uint16"
            },
            {
              "internalType": "bool",
              "name": "onSale",
              "type": "bool"
            },
            {
              "internalType": "bool",
              "name": "soldOnce",
              "type": "bool"
            },
            {
              "internalType": "uint256",
              "name": "unlockTimestamp",
              "type": "uint256"
            }
          ],
          "internalType": "struct TrackNFT",
          "name": "trackNFT",
          "type": "tuple"
        },
        {
          "internalType": "address",
          "name": "prevOwner",
          "type": "address"
        }
      ],
      "name": "checkForSale",
      "outputs": [],
      "stateMutability": "view",
      "type": "function"
    },
    {
      "inputs": [
        {
          "internalType": "address payable",
          "name": "PLATFORM_ADDRESS",
          "type": "address"
        },
        {
          "internalType": "uint256",
          "name": "tokenId",
          "type": "uint256"
        }
      ],
      "name": "isNFTOwner",
      "outputs": [],
      "stateMutability": "view",
      "type": "function"
    },
    {
      "inputs": [
        {
          "components": [
            {
              "internalType": "uint256",
              "name": "price",
              "type": "uint256"
            },
            {
              "internalType": "address",
              "name": "artistAddress",
              "type": "address"
            },
            {
              "internalType": "uint16",
              "name": "resaleRoyaltyPercentage",
              "type": "uint16"
            },
            {
              "internalType": "bool",
              "name": "onSale",
              "type": "bool"
            },
            {
              "internalType": "bool",
              "name": "soldOnce",
              "type": "bool"
            },
            {
              "internalType": "uint256",
              "name": "unlockTimestamp",
              "type": "uint256"
            }
          ],
          "internalType": "struct TrackNFT",
          "name": "trackNFT",
          "type": "tuple"
        }
      ],
      "name": "isPastUnlockTimestamp",
      "outputs": [],
      "stateMutability": "view",
      "type": "function"
    }
  ],
  "bytecode": "0x613200610053600b82828239805160001a607314610046577f4e487b7100000000000000000000000000000000000000000000000000000000600052600060045260246000fd5b30600052607381538281f3fe73000000000000000000000000000000000000000030146080604052600436106100be5760003560e01c8063b41967591161007b578063b4196759146101c8578063cd2aeaaa146101e4578063d54eaf2614610200578063e5ef44681461021c578063e6b7999514610259578063f23becbf14610275576100be565b80635c868675146100c35780636af930d2146100ec57806380702b6d146101155780638e60b2c5146101525780639a41ea7414610190578063a8ef5c7f146101ac575b600080fd5b8180156100cf57600080fd5b506100ea60048036038101906100e591906121e2565b610291565b005b8180156100f857600080fd5b50610113600480360381019061010e919061217f565b61041e565b005b81801561012157600080fd5b5061013c60048036038101906101379190611e42565b6105e6565b6040516101499190612564565b60405180910390f35b81801561015e57600080fd5b5061017960048036038101906101749190611ea5565b610893565b60405161018792919061279c565b60405180910390f35b6101aa60048036038101906101a591906120d9565b6109f7565b005b6101c660048036038101906101c1919061227d565b610afe565b005b6101e260048036038101906101dd9190612115565b610b59565b005b6101fe60048036038101906101f99190611e06565b610d0f565b005b61021a60048036038101906102159190611fab565b610e09565b005b81801561022857600080fd5b50610243600480360381019061023e9190611f1c565b610e22565b604051610250919061257f565b60405180910390f35b610273600480360381019061026e91906120b0565b610f02565b005b61028f600480360381019061028a9190611ffa565b610f4b565b005b61029d85858585610f4b565b60005b85859050811015610415578160008881526020019081526020016000206040518060400160405280888885818110610301577f4e487b7100000000000000000000000000000000000000000000000000000000600052603260045260246000fd5b90506020020160208101906103169190611db4565b73ffffffffffffffffffffffffffffffffffffffff16815260200186868581811061036a577f4e487b7100000000000000000000000000000000000000000000000000000000600052603260045260246000fd5b905060200201602081019061037f9190612156565b61ffff16815250908060018154018082558091505060019003906000526020600020906002020160009091909190915060008201518160000160006101000a81548173ffffffffffffffffffffffffffffffffffffffff021916908373ffffffffffffffffffffffffffffffffffffffff160217905550602082015181600101555050808061040d90612c25565b9150506102a0565b50505050505050565b600061042861110c565b90506104348583610afe565b60008360008781526020019081526020016000206040518060c0016040529081600082015481526020016001820160009054906101000a900473ffffffffffffffffffffffffffffffffffffffff1673ffffffffffffffffffffffffffffffffffffffff1673ffffffffffffffffffffffffffffffffffffffff1681526020016001820160149054906101000a900461ffff1661ffff1661ffff1681526020016001820160169054906101000a900460ff161515151581526020016001820160179054906101000a900460ff16151515158152602001600282015481525050905060008260040160019054906101000a900473ffffffffffffffffffffffffffffffffffffffff1673ffffffffffffffffffffffffffffffffffffffff16636352211e886040518263ffffffff1660e01b81526004016105749190612781565b60206040518083038186803b15801561058c57600080fd5b505afa1580156105a0573d6000803e3d6000fd5b505050506040513d601f19601f820116820180604052508101906105c49190611ddd565b90506105d082826109f7565b6105dd8787848489611111565b50505050505050565b60006105f3858584610e09565b600083600086815260200190815260200160002090506106dd816040518060c0016040529081600082015481526020016001820160009054906101000a900473ffffffffffffffffffffffffffffffffffffffff1673ffffffffffffffffffffffffffffffffffffffff1673ffffffffffffffffffffffffffffffffffffffff1681526020016001820160149054906101000a900461ffff1661ffff1661ffff1681526020016001820160169054906101000a900460ff161515151581526020016001820160179054906101000a900460ff16151515158152602001600282015481525050610f02565b600115158160010160169054906101000a900460ff161515141561071d5760008160010160166101000a81548160ff02191690831515021790555061075a565b600015158160010160169054906101000a900460ff16151514156107595760018160010160166101000a81548160ff0219169083151502179055505b5b80846000878152602001908152602001600020600082015481600001556001820160009054906101000a900473ffffffffffffffffffffffffffffffffffffffff168160010160006101000a81548173ffffffffffffffffffffffffffffffffffffffff021916908373ffffffffffffffffffffffffffffffffffffffff1602179055506001820160149054906101000a900461ffff168160010160146101000a81548161ffff021916908361ffff1602179055506001820160169054906101000a900460ff168160010160166101000a81548160ff0219169083151502179055506001820160179054906101000a900460ff168160010160176101000a81548160ff021916908315150217905550600282015481600201559050508060010160169054906101000a900460ff16915050949350505050565b6000806108a1878785610e09565b60008560008881526020019081526020016000209050600081600001549050858260000181905550818760008a8152602001908152602001600020600082015481600001556001820160009054906101000a900473ffffffffffffffffffffffffffffffffffffffff168160010160006101000a81548173ffffffffffffffffffffffffffffffffffffffff021916908373ffffffffffffffffffffffffffffffffffffffff1602179055506001820160149054906101000a900461ffff168160010160146101000a81548161ffff021916908361ffff1602179055506001820160169054906101000a900460ff168160010160166101000a81548160ff0219169083151502179055506001820160179054906101000a900460ff168160010160176101000a81548160ff0219169083151502179055506002820154816002015590505080869350935050509550959350505050565b610a0082610f02565b8160600151610a44576040517f08c379a0000000000000000000000000000000000000000000000000000000008152600401610a3b906125e1565b60405180910390fd5b3373ffffffffffffffffffffffffffffffffffffffff168173ffffffffffffffffffffffffffffffffffffffff161415610ab3576040517f08c379a0000000000000000000000000000000000000000000000000000000008152600401610aaa906126c1565b60405180910390fd5b8160000151341015610afa576040517f08c379a0000000000000000000000000000000000000000000000000000000008152600401610af190612661565b60405180910390fd5b5050565b600082118015610b165750610b128161169f565b8211155b610b55576040517f08c379a0000000000000000000000000000000000000000000000000000000008152600401610b4c90612761565b60405180910390fd5b5050565b6000816000016020810190610b6e9190612156565b61ffff1611610bb2576040517f08c379a0000000000000000000000000000000000000000000000000000000008152600401610ba990612701565b60405180910390fd5b6000816020013511610bf9576040517f08c379a0000000000000000000000000000000000000000000000000000000008152600401610bf090612741565b60405180910390fd5b6000818060400190610c0b9190612873565b90501415610c4e576040517f08c379a0000000000000000000000000000000000000000000000000000000008152600401610c45906126e1565b60405180910390fd5b808060a00190610c5e919061281c565b9050818060800190610c7091906127c5565b905014610cb2576040517f08c379a0000000000000000000000000000000000000000000000000000000008152600401610ca990612601565b60405180910390fd5b60008160c0016020810190610cc79190612156565b61ffff161015610d0c576040517f08c379a0000000000000000000000000000000000000000000000000000000008152600401610d03906125a1565b60405180910390fd5b50565b3373ffffffffffffffffffffffffffffffffffffffff168273ffffffffffffffffffffffffffffffffffffffff16636352211e836040518263ffffffff1660e01b8152600401610d5f9190612781565b60206040518083038186803b158015610d7757600080fd5b505afa158015610d8b573d6000803e3d6000fd5b505050506040513d601f19601f82011682018060405250810190610daf9190611ddd565b73ffffffffffffffffffffffffffffffffffffffff1614610e05576040517f08c379a0000000000000000000000000000000000000000000000000000000008152600401610dfc90612681565b60405180910390fd5b5050565b610e138282610afe565b610e1d8383610d0f565b505050565b6060610e2f868684610e09565b60008360008781526020019081526020016000208054610e4e90612bc2565b80601f0160208091040260200160405190810160405280929190818152602001828054610e7a90612bc2565b8015610ec75780601f10610e9c57610100808354040283529160200191610ec7565b820191906000526020600020905b815481529060010190602001808311610eaa57829003601f168201915b50505050509050848460008881526020019081526020016000209080519060200190610ef492919061197f565b508091505095945050505050565b8060a001514211610f48576040517f08c379a0000000000000000000000000000000000000000000000000000000008152600401610f3f906125c1565b60405180910390fd5b50565b818190508484905014610f93576040517f08c379a0000000000000000000000000000000000000000000000000000000008152600401610f8a90612601565b60405180910390fd5b60005b8484905081101561110557600073ffffffffffffffffffffffffffffffffffffffff16858583818110610ff2577f4e487b7100000000000000000000000000000000000000000000000000000000600052603260045260246000fd5b90506020020160208101906110079190611db4565b73ffffffffffffffffffffffffffffffffffffffff16141561105e576040517f08c379a000000000000000000000000000000000000000000000000000000000815260040161105590612721565b60405180910390fd5b6000838383818110611099577f4e487b7100000000000000000000000000000000000000000000000000000000600052603260045260246000fd5b90506020020160208101906110ae9190612156565b61ffff16116110f2576040517f08c379a00000000000000000000000000000000000000000000000000000000081526004016110e9906126a1565b60405180910390fd5b80806110fd90612c25565b915050610f96565b5050505050565b600090565b600061111b61110c565b9050600073ffffffffffffffffffffffffffffffffffffffff168573ffffffffffffffffffffffffffffffffffffffff16141561135557600061118e60646111808460040160009054906101000a900460ff1660ff16346116ad90919063ffffffff16565b6116c390919063ffffffff16565b90506111be8260040160019054906101000a900473ffffffffffffffffffffffffffffffffffffffff16826116d9565b8460800151156112d45760006111f860646111ea886040015161ffff16346116ad90919063ffffffff16565b6116c390919063ffffffff16565b90506112298360040160019054906101000a900473ffffffffffffffffffffffffffffffffffffffff1689836117cd565b6000611284606461127689604001518760040160009054906101000a900460ff1660ff166112579190612984565b60646112639190612a47565b61ffff16346116ad90919063ffffffff16565b6116c390919063ffffffff16565b90508573ffffffffffffffffffffffffffffffffffffffff166108fc829081150290604051600060405180830381858888f193505050501580156112cc573d6000803e3d6000fd5b50505061134f565b600061131c606461130e8560040160009054906101000a900460ff1660646112fc9190612aaf565b60ff16346116ad90919063ffffffff16565b6116c390919063ffffffff16565b905061134d8360040160019054906101000a900473ffffffffffffffffffffffffffffffffffffffff1689836117cd565b505b506115a8565b600061139160646113838460040160009054906101000a900460ff1660ff16346116ad90919063ffffffff16565b6116c390919063ffffffff16565b905060006113cf60646113c18560040160159054906101000a900460ff1660ff16856116ad90919063ffffffff16565b6116c390919063ffffffff16565b90506113db87826116d9565b6114148360040160019054906101000a900473ffffffffffffffffffffffffffffffffffffffff16828461140f9190612a7b565b6116d9565b85608001511561152a57600061144e6064611440896040015161ffff16346116ad90919063ffffffff16565b6116c390919063ffffffff16565b905061147f8460040160019054906101000a900473ffffffffffffffffffffffffffffffffffffffff168a836117cd565b60006114da60646114cc8a604001518860040160009054906101000a900460ff1660ff166114ad9190612984565b60646114b99190612a47565b61ffff16346116ad90919063ffffffff16565b6116c390919063ffffffff16565b90508673ffffffffffffffffffffffffffffffffffffffff166108fc829081150290604051600060405180830381858888f19350505050158015611522573d6000803e3d6000fd5b5050506115a5565b600061157260646115648660040160009054906101000a900460ff1660646115529190612aaf565b60ff16346116ad90919063ffffffff16565b6116c390919063ffffffff16565b90506115a38460040160019054906101000a900473ffffffffffffffffffffffffffffffffffffffff168a836117cd565b505b50505b8360800151611697576001846080019015159081151581525050838260008881526020019081526020016000206000820151816000015560208201518160010160006101000a81548173ffffffffffffffffffffffffffffffffffffffff021916908373ffffffffffffffffffffffffffffffffffffffff16021790555060408201518160010160146101000a81548161ffff021916908361ffff16021790555060608201518160010160166101000a81548160ff02191690831515021790555060808201518160010160176101000a81548160ff02191690831515021790555060a082015181600201559050505b505050505050565b600081600001549050919050565b600081836116bb91906129ed565b905092915050565b600081836116d191906129bc565b905092915050565b8047101561171c576040517f08c379a000000000000000000000000000000000000000000000000000000000815260040161171390612641565b60405180910390fd5b60008273ffffffffffffffffffffffffffffffffffffffff16826040516117429061254f565b60006040518083038185875af1925050503d806000811461177f576040519150601f19603f3d011682016040523d82523d6000602084013e611784565b606091505b50509050806117c8576040517f08c379a00000000000000000000000000000000000000000000000000000000081526004016117bf90612621565b60405180910390fd5b505050565b60008373ffffffffffffffffffffffffffffffffffffffff1663b76c632b846040518263ffffffff1660e01b81526004016118089190612781565b60006040518083038186803b15801561182057600080fd5b505afa158015611834573d6000803e3d6000fd5b505050506040513d6000823e3d601f19601f8201168201806040525081019061185d919061206f565b905060005b81518110156119785760006118d760646118c98585815181106118ae577f4e487b7100000000000000000000000000000000000000000000000000000000600052603260045260246000fd5b602002602001015160200151876116ad90919063ffffffff16565b6116c390919063ffffffff16565b9050828281518110611912577f4e487b7100000000000000000000000000000000000000000000000000000000600052603260045260246000fd5b60200260200101516000015173ffffffffffffffffffffffffffffffffffffffff166108fc829081150290604051600060405180830381858888f19350505050158015611963573d6000803e3d6000fd5b5050808061197090612c25565b915050611862565b5050505050565b82805461198b90612bc2565b90600052602060002090601f0160209004810192826119ad57600085556119f4565b82601f106119c657805160ff19168380011785556119f4565b828001600101855582156119f4579182015b828111156119f35782518255916020019190600101906119d8565b5b509050611a019190611a05565b5090565b5b80821115611a1e576000816000905550600101611a06565b5090565b6000611a35611a30846128ef565b6128ca565b90508083825260208201905082856040860282011115611a5457600080fd5b60005b85811015611a845781611a6a8882611c71565b845260208401935060408301925050600181019050611a57565b5050509392505050565b6000611aa1611a9c8461291b565b6128ca565b905082815260208101848484011115611ab957600080fd5b611ac4848285612b80565b509392505050565b600081359050611adb816130fb565b92915050565b600081519050611af0816130fb565b92915050565b600081359050611b0581613112565b92915050565b600081519050611b1a81613112565b92915050565b60008083601f840112611b3257600080fd5b8235905067ffffffffffffffff811115611b4b57600080fd5b602083019150836020820283011115611b6357600080fd5b9250929050565b600082601f830112611b7b57600080fd5b8151611b8b848260208601611a22565b91505092915050565b60008083601f840112611ba657600080fd5b8235905067ffffffffffffffff811115611bbf57600080fd5b602083019150836020820283011115611bd757600080fd5b9250929050565b600081359050611bed81613129565b92915050565b600081359050611c0281613140565b92915050565b600081359050611c1781613157565b92915050565b600081359050611c2c8161316e565b92915050565b600082601f830112611c4357600080fd5b8135611c53848260208601611a8e565b91505092915050565b600081359050611c6b81613185565b92915050565b600060408284031215611c8357600080fd5b611c8d60406128ca565b90506000611c9d84828501611b0b565b6000830152506020611cb184828501611d9f565b60208301525092915050565b600060c08284031215611ccf57600080fd5b611cd960c06128ca565b90506000611ce984828501611d8a565b6000830152506020611cfd84828501611acc565b6020830152506040611d1184828501611d75565b6040830152506060611d2584828501611bde565b6060830152506080611d3984828501611bde565b60808301525060a0611d4d84828501611d8a565b60a08301525092915050565b60006101208284031215611d6c57600080fd5b81905092915050565b600081359050611d848161319c565b92915050565b600081359050611d99816131b3565b92915050565b600081519050611dae816131b3565b92915050565b600060208284031215611dc657600080fd5b6000611dd484828501611acc565b91505092915050565b600060208284031215611def57600080fd5b6000611dfd84828501611ae1565b91505092915050565b60008060408385031215611e1957600080fd5b6000611e2785828601611af6565b9250506020611e3885828601611d8a565b9150509250929050565b60008060008060808587031215611e5857600080fd5b6000611e6687828801611af6565b9450506020611e7787828801611d8a565b9350506040611e8887828801611c1d565b9250506060611e9987828801611c5c565b91505092959194509250565b600080600080600060a08688031215611ebd57600080fd5b6000611ecb88828901611af6565b9550506020611edc88828901611d8a565b9450506040611eed88828901611c1d565b9350506060611efe88828901611d8a565b9250506080611f0f88828901611c5c565b9150509295509295909350565b600080600080600060a08688031215611f3457600080fd5b6000611f4288828901611af6565b9550506020611f5388828901611d8a565b945050604086013567ffffffffffffffff811115611f7057600080fd5b611f7c88828901611c32565b9350506060611f8d88828901611c08565b9250506080611f9e88828901611c5c565b9150509295509295909350565b600080600060608486031215611fc057600080fd5b6000611fce86828701611af6565b9350506020611fdf86828701611d8a565b9250506040611ff086828701611c5c565b9150509250925092565b6000806000806040858703121561201057600080fd5b600085013567ffffffffffffffff81111561202a57600080fd5b61203687828801611b20565b9450945050602085013567ffffffffffffffff81111561205557600080fd5b61206187828801611b94565b925092505092959194509250565b60006020828403121561208157600080fd5b600082015167ffffffffffffffff81111561209b57600080fd5b6120a784828501611b6a565b91505092915050565b600060c082840312156120c257600080fd5b60006120d084828501611cbd565b91505092915050565b60008060e083850312156120ec57600080fd5b60006120fa85828601611cbd565b92505060c061210b85828601611acc565b9150509250929050565b60006020828403121561212757600080fd5b600082013567ffffffffffffffff81111561214157600080fd5b61214d84828501611d59565b91505092915050565b60006020828403121561216857600080fd5b600061217684828501611d75565b91505092915050565b6000806000806080858703121561219557600080fd5b60006121a387828801611d8a565b94505060206121b487828801611af6565b93505060406121c587828801611c1d565b92505060606121d687828801611c5c565b91505092959194509250565b600080600080600080608087890312156121fb57600080fd5b600061220989828a01611d8a565b965050602087013567ffffffffffffffff81111561222657600080fd5b61223289828a01611b20565b9550955050604087013567ffffffffffffffff81111561225157600080fd5b61225d89828a01611b94565b9350935050606061227089828a01611bf3565b9150509295509295509295565b6000806040838503121561229057600080fd5b600061229e85828601611d8a565b92505060206122af85828601611c5c565b9150509250929050565b6122c281612b07565b82525050565b60006122d38261294c565b6122dd8185612973565b93506122ed818560208601612b8f565b6122f681612d2a565b840191505092915050565b600061230e603a83612962565b915061231982612d3b565b604082019050919050565b6000612331602f83612962565b915061233c82612d8a565b604082019050919050565b6000612354601c83612962565b915061235f82612dd9565b602082019050919050565b6000612377604183612962565b915061238282612e02565b606082019050919050565b600061239a603a83612962565b91506123a582612e77565b604082019050919050565b60006123bd601d83612962565b91506123c882612ec6565b602082019050919050565b60006123e0602483612962565b91506123eb82612eef565b604082019050919050565b6000612403603883612962565b915061240e82612f3e565b604082019050919050565b6000612426602583612962565b915061243182612f8d565b604082019050919050565b6000612449602183612962565b915061245482612fdc565b604082019050919050565b600061246c600083612957565b91506124778261302b565b600082019050919050565b600061248f601783612962565b915061249a8261302e565b602082019050919050565b60006124b2601183612962565b91506124bd82613057565b602082019050919050565b60006124d5601b83612962565b91506124e082613080565b602082019050919050565b60006124f8601c83612962565b9150612503826130a9565b602082019050919050565b600061251b601883612962565b9150612526826130d2565b602082019050919050565b61253a81612b69565b82525050565b61254981612b69565b82525050565b600061255a8261245f565b9150819050919050565b600060208201905061257960008301846122b9565b92915050565b6000602082019050818103600083015261259981846122c8565b905092915050565b600060208201905081810360008301526125ba81612301565b9050919050565b600060208201905081810360008301526125da81612324565b9050919050565b600060208201905081810360008301526125fa81612347565b9050919050565b6000602082019050818103600083015261261a8161236a565b9050919050565b6000602082019050818103600083015261263a8161238d565b9050919050565b6000602082019050818103600083015261265a816123b0565b9050919050565b6000602082019050818103600083015261267a816123d3565b9050919050565b6000602082019050818103600083015261269a816123f6565b9050919050565b600060208201905081810360008301526126ba81612419565b9050919050565b600060208201905081810360008301526126da8161243c565b9050919050565b600060208201905081810360008301526126fa81612482565b9050919050565b6000602082019050818103600083015261271a816124a5565b9050919050565b6000602082019050818103600083015261273a816124c8565b9050919050565b6000602082019050818103600083015261275a816124eb565b9050919050565b6000602082019050818103600083015261277a8161250e565b9050919050565b60006020820190506127966000830184612531565b92915050565b60006040820190506127b16000830185612540565b6127be6020830184612540565b9392505050565b600080833560016020038436030381126127de57600080fd5b80840192508235915067ffffffffffffffff8211156127fc57600080fd5b60208301925060208202360383131561281457600080fd5b509250929050565b6000808335600160200384360303811261283557600080fd5b80840192508235915067ffffffffffffffff82111561285357600080fd5b60208301925060208202360383131561286b57600080fd5b509250929050565b6000808335600160200384360303811261288c57600080fd5b80840192508235915067ffffffffffffffff8211156128aa57600080fd5b6020830192506001820236038313156128c257600080fd5b509250929050565b60006128d46128e5565b90506128e08282612bf4565b919050565b6000604051905090565b600067ffffffffffffffff82111561290a57612909612cfb565b5b602082029050602081019050919050565b600067ffffffffffffffff82111561293657612935612cfb565b5b61293f82612d2a565b9050602081019050919050565b600081519050919050565b600081905092915050565b600082825260208201905092915050565b600082825260208201905092915050565b600061298f82612b3b565b915061299a83612b3b565b92508261ffff038211156129b1576129b0612c6e565b5b828201905092915050565b60006129c782612b69565b91506129d283612b69565b9250826129e2576129e1612c9d565b5b828204905092915050565b60006129f882612b69565b9150612a0383612b69565b9250817fffffffffffffffffffffffffffffffffffffffffffffffffffffffffffffffff0483118215151615612a3c57612a3b612c6e565b5b828202905092915050565b6000612a5282612b3b565b9150612a5d83612b3b565b925082821015612a7057612a6f612c6e565b5b828203905092915050565b6000612a8682612b69565b9150612a9183612b69565b925082821015612aa457612aa3612c6e565b5b828203905092915050565b6000612aba82612b73565b9150612ac583612b73565b925082821015612ad857612ad7612c6e565b5b828203905092915050565b6000612aee82612b49565b9050919050565b6000612b0082612b49565b9050919050565b60008115159050919050565b6000819050919050565b6000819050919050565b6000819050919050565b6000819050919050565b600061ffff82169050919050565b600073ffffffffffffffffffffffffffffffffffffffff82169050919050565b6000819050919050565b600060ff82169050919050565b82818337600083830152505050565b60005b83811015612bad578082015181840152602081019050612b92565b83811115612bbc576000848401525b50505050565b60006002820490506001821680612bda57607f821691505b60208210811415612bee57612bed612ccc565b5b50919050565b612bfd82612d2a565b810181811067ffffffffffffffff82111715612c1c57612c1b612cfb565b5b80604052505050565b6000612c3082612b69565b91507fffffffffffffffffffffffffffffffffffffffffffffffffffffffffffffffff821415612c6357612c62612c6e565b5b600182019050919050565b7f4e487b7100000000000000000000000000000000000000000000000000000000600052601160045260246000fd5b7f4e487b7100000000000000000000000000000000000000000000000000000000600052601260045260246000fd5b7f4e487b7100000000000000000000000000000000000000000000000000000000600052602260045260246000fd5b7f4e487b7100000000000000000000000000000000000000000000000000000000600052604160045260246000fd5b6000601f19601f8301169050919050565b7f726573616c65526f79616c747950657263656e74616765206d7573742062652060008201527f67726561746572207468616e206f7220657175616c20746f2030000000000000602082015250565b7f4c69624d7573697876657273653a204f6e6c792063616c6c61626c65206f6e2060008201527f756e6c6f636b656420746f6b656e730000000000000000000000000000000000602082015250565b7f546f6b656e206e6f7420617661696c61626c6520666f722073616c6500000000600082015250565b7f636f6c6c61626f7261746f727320616e642070657263656e74616765436f6e7460008201527f7269627574696f6e73206d757374206265207468652073616d65206c656e677460208201527f6800000000000000000000000000000000000000000000000000000000000000604082015250565b7f416464726573733a20756e61626c6520746f2073656e642076616c75652c207260008201527f6563697069656e74206d61792068617665207265766572746564000000000000602082015250565b7f416464726573733a20696e73756666696369656e742062616c616e6365000000600082015250565b7f4e6f7420656e6f7567682076616c756520666f7220746865207472616e73616360008201527f74696f6e00000000000000000000000000000000000000000000000000000000602082015250565b7f4c69624d7573697876657273653a204d75737420626520746f6b656e206f776e60008201527f657220746f2063616c6c20746869732066756e6374696f6e0000000000000000602082015250565b7f526f79616c74792070657263656e746167652073686f756c6420626520706f7360008201527f6974697665000000000000000000000000000000000000000000000000000000602082015250565b7f596f752063616e6e6f7420707572636861736520796f7572206f776e20736f6e60008201527f6700000000000000000000000000000000000000000000000000000000000000602082015250565b50565b7f55524948617368206d7573742062652070726573656e74000000000000000000600082015250565b7f4e6f20746f6b656e7320746f206d696e74000000000000000000000000000000600082015250565b7f526563697069656e742073686f756c642062652070726573656e740000000000600082015250565b7f5072696365206d7573742062652067726561746572207468616e203000000000600082015250565b7f4c69624d7573697876657273653a20546f6b656e20444e450000000000000000600082015250565b61310481612ae3565b811461310f57600080fd5b50565b61311b81612af5565b811461312657600080fd5b50565b61313281612b07565b811461313d57600080fd5b50565b61314981612b13565b811461315457600080fd5b50565b61316081612b1d565b811461316b57600080fd5b50565b61317781612b27565b811461318257600080fd5b50565b61318e81612b31565b811461319957600080fd5b50565b6131a581612b3b565b81146131b057600080fd5b50565b6131bc81612b69565b81146131c757600080fd5b5056fea264697066735822122008bddd46ecb8e188bef0ce15f8068166e2194eff254a85d489f2843287d0752764736f6c63430008040033",
  "linkReferences": {},
  "deployedLinkReferences": {}
}