{
  "_format": "hh-sol-artifact-1",
  "contractName": "MusixverseSettersFacet",
  "sourceName": "contracts/Musixverse/facets/MusixverseSettersFacet.sol",
  "abi": [
    {
      "anonymous": false,
      "inputs": [
        {
          "indexed": false,
          "internalType": "address",
          "name": "creator",
          "type": "address"
        },
        {
          "indexed": false,
          "internalType": "uint256",
          "name": "trackId",
          "type": "uint256"
        },
        {
          "indexed": false,
          "internalType": "uint256",
          "name": "tokenId",
          "type": "uint256"
        },
        {
          "indexed": false,
          "internalType": "uint256",
          "name": "price",
          "type": "uint256"
        },
        {
          "indexed": false,
          "internalType": "uint256",
          "name": "localTokenId",
          "type": "uint256"
        }
      ],
      "name": "TokenCreated",
      "type": "event"
    },
    {
      "anonymous": false,
      "inputs": [
        {
          "indexed": false,
          "internalType": "address",
          "name": "caller",
          "type": "address"
        },
        {
          "indexed": false,
          "internalType": "uint256",
          "name": "tokenId",
          "type": "uint256"
        },
        {
          "indexed": false,
          "internalType": "bool",
          "name": "onSale",
          "type": "bool"
        }
      ],
      "name": "TokenOnSaleUpdated",
      "type": "event"
    },
    {
      "anonymous": false,
      "inputs": [
        {
          "indexed": false,
          "internalType": "address",
          "name": "caller",
          "type": "address"
        },
        {
          "indexed": false,
          "internalType": "uint256",
          "name": "tokenId",
          "type": "uint256"
        },
        {
          "indexed": false,
          "internalType": "uint256",
          "name": "oldPrice",
          "type": "uint256"
        },
        {
          "indexed": false,
          "internalType": "uint256",
          "name": "newPrice",
          "type": "uint256"
        }
      ],
      "name": "TokenPriceUpdated",
      "type": "event"
    },
    {
      "anonymous": false,
      "inputs": [
        {
          "indexed": false,
          "internalType": "uint256",
          "name": "tokenId",
          "type": "uint256"
        },
        {
          "indexed": false,
          "internalType": "address",
          "name": "referrer",
          "type": "address"
        },
        {
          "indexed": false,
          "internalType": "address",
          "name": "previousOwner",
          "type": "address"
        },
        {
          "indexed": false,
          "internalType": "address",
          "name": "newOwner",
          "type": "address"
        },
        {
          "indexed": false,
          "internalType": "uint256",
          "name": "price",
          "type": "uint256"
        }
      ],
      "name": "TokenPurchased",
      "type": "event"
    },
    {
      "anonymous": false,
      "inputs": [
        {
          "indexed": false,
          "internalType": "address",
          "name": "creator",
          "type": "address"
        },
        {
          "indexed": false,
          "internalType": "uint256",
          "name": "trackId",
          "type": "uint256"
        },
        {
          "indexed": false,
          "internalType": "uint256",
          "name": "maxTokenId",
          "type": "uint256"
        },
        {
          "indexed": false,
          "internalType": "uint256",
          "name": "price",
          "type": "uint256"
        },
        {
          "indexed": false,
          "internalType": "string",
          "name": "URIHash",
          "type": "string"
        }
      ],
      "name": "TrackMinted",
      "type": "event"
    },
    {
      "inputs": [
        {
          "internalType": "string",
          "name": "newURI",
          "type": "string"
        }
      ],
      "name": "updateBaseURI",
      "outputs": [],
      "stateMutability": "nonpayable",
      "type": "function"
    },
    {
      "inputs": [
        {
          "internalType": "string",
          "name": "newURI",
          "type": "string"
        }
      ],
      "name": "updateContractURI",
      "outputs": [],
      "stateMutability": "nonpayable",
      "type": "function"
    },
    {
      "inputs": [
        {
          "internalType": "string",
          "name": "newName",
          "type": "string"
        }
      ],
      "name": "updateName",
      "outputs": [],
      "stateMutability": "nonpayable",
      "type": "function"
    },
    {
      "inputs": [
        {
          "internalType": "uint8",
          "name": "newPlatformFeePercentage",
          "type": "uint8"
        }
      ],
      "name": "updatePlatformFeePercentage",
      "outputs": [],
      "stateMutability": "nonpayable",
      "type": "function"
    },
    {
      "inputs": [
        {
          "internalType": "string",
          "name": "newSymbol",
          "type": "string"
        }
      ],
      "name": "updateSymbol",
      "outputs": [],
      "stateMutability": "nonpayable",
      "type": "function"
    }
  ],
  "bytecode": "0x608060405234801561001057600080fd5b5061062a806100206000396000f3fe608060405234801561001057600080fd5b50600436106100575760003560e01c8063537f53121461005c5780637e5b1e241461007857806384da92a714610094578063931688cb146100b0578063a0b873f2146100cc575b600080fd5b6100766004803603810190610071919061038c565b6100e8565b005b610092600480360381019061008d919061038c565b61010d565b005b6100ae60048036038101906100a9919061038c565b610132565b005b6100ca60048036038101906100c5919061038c565b610156565b005b6100e660048036038101906100e191906103cd565b61017b565b005b6100f06101a4565b806000600101908051906020019061010992919061026c565b5050565b6101156101a4565b806000600201908051906020019061012e92919061026c565b5050565b61013a6101a4565b8060008001908051906020019061015292919061026c565b5050565b61015e6101a4565b806000600301908051906020019061017792919061026c565b5050565b6101836101a4565b80600060040160006101000a81548160ff021916908360ff16021790555050565b6101ac61023f565b60040160009054906101000a900473ffffffffffffffffffffffffffffffffffffffff1673ffffffffffffffffffffffffffffffffffffffff163373ffffffffffffffffffffffffffffffffffffffff161461023d576040517f08c379a000000000000000000000000000000000000000000000000000000000815260040161023490610419565b60405180910390fd5b565b6000807f7ebe20acead178826e523aa23b9f2d4ec9903a0a82ea2ad143a2aab72ae49df190508091505090565b828054610278906104bc565b90600052602060002090601f01602090048101928261029a57600085556102e1565b82601f106102b357805160ff19168380011785556102e1565b828001600101855582156102e1579182015b828111156102e05782518255916020019190600101906102c5565b5b5090506102ee91906102f2565b5090565b5b8082111561030b5760008160009055506001016102f3565b5090565b600061032261031d8461045e565b610439565b90508281526020810184848401111561033a57600080fd5b6103458482856104ad565b509392505050565b600082601f83011261035e57600080fd5b813561036e84826020860161030f565b91505092915050565b600081359050610386816105dd565b92915050565b60006020828403121561039e57600080fd5b600082013567ffffffffffffffff8111156103b857600080fd5b6103c48482850161034d565b91505092915050565b6000602082840312156103df57600080fd5b60006103ed84828501610377565b91505092915050565b600061040360228361048f565b915061040e8261058e565b604082019050919050565b60006020820190508181036000830152610432816103f6565b9050919050565b6000610443610454565b905061044f82826104ee565b919050565b6000604051905090565b600067ffffffffffffffff8211156104795761047861054e565b5b6104828261057d565b9050602081019050919050565b600082825260208201905092915050565b600060ff82169050919050565b82818337600083830152505050565b600060028204905060018216806104d457607f821691505b602082108114156104e8576104e761051f565b5b50919050565b6104f78261057d565b810181811067ffffffffffffffff821117156105165761051561054e565b5b80604052505050565b7f4e487b7100000000000000000000000000000000000000000000000000000000600052602260045260246000fd5b7f4e487b7100000000000000000000000000000000000000000000000000000000600052604160045260246000fd5b6000601f19601f8301169050919050565b7f4c69624469616d6f6e643a204d75737420626520636f6e7472616374206f776e60008201527f6572000000000000000000000000000000000000000000000000000000000000602082015250565b6105e6816104a0565b81146105f157600080fd5b5056fea2646970667358221220776d8001e8f2e6c5928809d30caf9faafe9d8673d315c88b541f919a85db541664736f6c63430008040033",
  "linkReferences": {},
  "deployedLinkReferences": {}
}