{
  "_format": "hh-sol-artifact-1",
  "contractName": "MusixverseSettersFacet",
  "sourceName": "contracts/Musixverse/facets/MusixverseSettersFacet.sol",
  "abi": [
    {
      "anonymous": false,
      "inputs": [
        {
          "indexed": false,
          "internalType": "address",
          "name": "caller",
          "type": "address"
        },
        {
          "indexed": false,
          "internalType": "uint256",
          "name": "tokenId",
          "type": "uint256"
        },
        {
          "indexed": false,
          "internalType": "string",
          "name": "previousComment",
          "type": "string"
        },
        {
          "indexed": false,
          "internalType": "string",
          "name": "newComment",
          "type": "string"
        }
      ],
      "name": "TokenCommentUpdated",
      "type": "event"
    },
    {
      "anonymous": false,
      "inputs": [
        {
          "indexed": false,
          "internalType": "address",
          "name": "creator",
          "type": "address"
        },
        {
          "indexed": false,
          "internalType": "uint256",
          "name": "trackId",
          "type": "uint256"
        },
        {
          "indexed": false,
          "internalType": "uint256",
          "name": "tokenId",
          "type": "uint256"
        },
        {
          "indexed": false,
          "internalType": "uint256",
          "name": "price",
          "type": "uint256"
        },
        {
          "indexed": false,
          "internalType": "uint256",
          "name": "localTokenId",
          "type": "uint256"
        }
      ],
      "name": "TokenCreated",
      "type": "event"
    },
    {
      "anonymous": false,
      "inputs": [
        {
          "indexed": false,
          "internalType": "address",
          "name": "caller",
          "type": "address"
        },
        {
          "indexed": false,
          "internalType": "uint256",
          "name": "tokenId",
          "type": "uint256"
        },
        {
          "indexed": false,
          "internalType": "bool",
          "name": "onSale",
          "type": "bool"
        }
      ],
      "name": "TokenOnSaleUpdated",
      "type": "event"
    },
    {
      "anonymous": false,
      "inputs": [
        {
          "indexed": false,
          "internalType": "address",
          "name": "caller",
          "type": "address"
        },
        {
          "indexed": false,
          "internalType": "uint256",
          "name": "tokenId",
          "type": "uint256"
        },
        {
          "indexed": false,
          "internalType": "uint256",
          "name": "oldPrice",
          "type": "uint256"
        },
        {
          "indexed": false,
          "internalType": "uint256",
          "name": "newPrice",
          "type": "uint256"
        }
      ],
      "name": "TokenPriceUpdated",
      "type": "event"
    },
    {
      "anonymous": false,
      "inputs": [
        {
          "indexed": false,
          "internalType": "uint256",
          "name": "tokenId",
          "type": "uint256"
        },
        {
          "indexed": false,
          "internalType": "address",
          "name": "referrer",
          "type": "address"
        },
        {
          "indexed": false,
          "internalType": "address",
          "name": "previousOwner",
          "type": "address"
        },
        {
          "indexed": false,
          "internalType": "address",
          "name": "newOwner",
          "type": "address"
        },
        {
          "indexed": false,
          "internalType": "uint256",
          "name": "price",
          "type": "uint256"
        }
      ],
      "name": "TokenPurchased",
      "type": "event"
    },
    {
      "anonymous": false,
      "inputs": [
        {
          "indexed": false,
          "internalType": "address",
          "name": "creator",
          "type": "address"
        },
        {
          "indexed": false,
          "internalType": "uint256",
          "name": "trackId",
          "type": "uint256"
        },
        {
          "indexed": false,
          "internalType": "uint256",
          "name": "maxTokenId",
          "type": "uint256"
        },
        {
          "indexed": false,
          "internalType": "uint256",
          "name": "price",
          "type": "uint256"
        },
        {
          "indexed": false,
          "internalType": "string",
          "name": "URIHash",
          "type": "string"
        }
      ],
      "name": "TrackMinted",
      "type": "event"
    },
    {
      "inputs": [
        {
          "internalType": "string",
          "name": "newURI",
          "type": "string"
        }
      ],
      "name": "updateBaseURI",
      "outputs": [],
      "stateMutability": "nonpayable",
      "type": "function"
    },
    {
      "inputs": [
        {
          "internalType": "string",
          "name": "newURI",
          "type": "string"
        }
      ],
      "name": "updateContractURI",
      "outputs": [],
      "stateMutability": "nonpayable",
      "type": "function"
    },
    {
      "inputs": [
        {
          "internalType": "string",
          "name": "newName",
          "type": "string"
        }
      ],
      "name": "updateName",
      "outputs": [],
      "stateMutability": "nonpayable",
      "type": "function"
    },
    {
      "inputs": [
        {
          "internalType": "uint8",
          "name": "newPlatformFeePercentage",
          "type": "uint8"
        }
      ],
      "name": "updatePlatformFeePercentage",
      "outputs": [],
      "stateMutability": "nonpayable",
      "type": "function"
    },
    {
      "inputs": [
        {
          "internalType": "uint8",
          "name": "newReferralCutPercentage",
          "type": "uint8"
        }
      ],
      "name": "updateReferralCutPercentage",
      "outputs": [],
      "stateMutability": "nonpayable",
      "type": "function"
    },
    {
      "inputs": [
        {
          "internalType": "string",
          "name": "newSymbol",
          "type": "string"
        }
      ],
      "name": "updateSymbol",
      "outputs": [],
      "stateMutability": "nonpayable",
      "type": "function"
    }
  ],
  "bytecode": "0x608060405234801561001057600080fd5b5061067a806100206000396000f3fe608060405234801561001057600080fd5b50600436106100625760003560e01c8063217cdd6d14610067578063537f5312146100835780637e5b1e241461009f57806384da92a7146100bb578063931688cb146100d7578063a0b873f2146100f3575b600080fd5b610081600480360381019061007c919061041d565b61010f565b005b61009d600480360381019061009891906103dc565b610138565b005b6100b960048036038101906100b491906103dc565b61015d565b005b6100d560048036038101906100d091906103dc565b610182565b005b6100f160048036038101906100ec91906103dc565b6101a6565b005b61010d6004803603810190610108919061041d565b6101cb565b005b6101176101f4565b80600060040160156101000a81548160ff021916908360ff16021790555050565b6101406101f4565b80600060010190805190602001906101599291906102bc565b5050565b6101656101f4565b806000600201908051906020019061017e9291906102bc565b5050565b61018a6101f4565b806000800190805190602001906101a29291906102bc565b5050565b6101ae6101f4565b80600060030190805190602001906101c79291906102bc565b5050565b6101d36101f4565b80600060040160006101000a81548160ff021916908360ff16021790555050565b6101fc61028f565b60040160009054906101000a900473ffffffffffffffffffffffffffffffffffffffff1673ffffffffffffffffffffffffffffffffffffffff163373ffffffffffffffffffffffffffffffffffffffff161461028d576040517f08c379a000000000000000000000000000000000000000000000000000000000815260040161028490610469565b60405180910390fd5b565b6000807f7ebe20acead178826e523aa23b9f2d4ec9903a0a82ea2ad143a2aab72ae49df190508091505090565b8280546102c89061050c565b90600052602060002090601f0160209004810192826102ea5760008555610331565b82601f1061030357805160ff1916838001178555610331565b82800160010185558215610331579182015b82811115610330578251825591602001919060010190610315565b5b50905061033e9190610342565b5090565b5b8082111561035b576000816000905550600101610343565b5090565b600061037261036d846104ae565b610489565b90508281526020810184848401111561038a57600080fd5b6103958482856104fd565b509392505050565b600082601f8301126103ae57600080fd5b81356103be84826020860161035f565b91505092915050565b6000813590506103d68161062d565b92915050565b6000602082840312156103ee57600080fd5b600082013567ffffffffffffffff81111561040857600080fd5b6104148482850161039d565b91505092915050565b60006020828403121561042f57600080fd5b600061043d848285016103c7565b91505092915050565b60006104536022836104df565b915061045e826105de565b604082019050919050565b6000602082019050818103600083015261048281610446565b9050919050565b60006104936104a4565b905061049f828261053e565b919050565b6000604051905090565b600067ffffffffffffffff8211156104c9576104c861059e565b5b6104d2826105cd565b9050602081019050919050565b600082825260208201905092915050565b600060ff82169050919050565b82818337600083830152505050565b6000600282049050600182168061052457607f821691505b602082108114156105385761053761056f565b5b50919050565b610547826105cd565b810181811067ffffffffffffffff821117156105665761056561059e565b5b80604052505050565b7f4e487b7100000000000000000000000000000000000000000000000000000000600052602260045260246000fd5b7f4e487b7100000000000000000000000000000000000000000000000000000000600052604160045260246000fd5b6000601f19601f8301169050919050565b7f4c69624469616d6f6e643a204d75737420626520636f6e7472616374206f776e60008201527f6572000000000000000000000000000000000000000000000000000000000000602082015250565b610636816104f0565b811461064157600080fd5b5056fea2646970667358221220a075d9f70137505391c290a01c174521f722f846f5943b80d2041b98b807a89e64736f6c63430008040033",
  "linkReferences": {},
  "deployedLinkReferences": {}
}