{
  "_format": "hh-sol-artifact-1",
  "contractName": "MusixverseGettersFacet",
  "sourceName": "contracts/Musixverse/facets/MusixverseGettersFacet.sol",
  "abi": [
    {
      "inputs": [],
      "name": "PLATFORM_ADDRESS",
      "outputs": [
        {
          "internalType": "address",
          "name": "",
          "type": "address"
        }
      ],
      "stateMutability": "view",
      "type": "function"
    },
    {
      "inputs": [],
      "name": "PLATFORM_FEE_PERCENTAGE",
      "outputs": [
        {
          "internalType": "uint8",
          "name": "",
          "type": "uint8"
        }
      ],
      "stateMutability": "view",
      "type": "function"
    },
    {
      "inputs": [],
      "name": "baseURI",
      "outputs": [
        {
          "internalType": "string",
          "name": "",
          "type": "string"
        }
      ],
      "stateMutability": "view",
      "type": "function"
    },
    {
      "inputs": [],
      "name": "contractURI",
      "outputs": [
        {
          "internalType": "string",
          "name": "",
          "type": "string"
        }
      ],
      "stateMutability": "view",
      "type": "function"
    },
    {
      "inputs": [],
      "name": "mxvLatestTokenId",
      "outputs": [
        {
          "components": [
            {
              "internalType": "uint256",
              "name": "_value",
              "type": "uint256"
            }
          ],
          "internalType": "struct Counters.Counter",
          "name": "",
          "type": "tuple"
        }
      ],
      "stateMutability": "view",
      "type": "function"
    },
    {
      "inputs": [],
      "name": "name",
      "outputs": [
        {
          "internalType": "string",
          "name": "",
          "type": "string"
        }
      ],
      "stateMutability": "view",
      "type": "function"
    },
    {
      "inputs": [
        {
          "internalType": "uint256",
          "name": "tokenId",
          "type": "uint256"
        }
      ],
      "name": "royalties",
      "outputs": [
        {
          "components": [
            {
              "internalType": "address payable",
              "name": "recipient",
              "type": "address"
            },
            {
              "internalType": "uint256",
              "name": "percentage",
              "type": "uint256"
            }
          ],
          "internalType": "struct RoyaltyInfo[]",
          "name": "",
          "type": "tuple[]"
        }
      ],
      "stateMutability": "view",
      "type": "function"
    },
    {
      "inputs": [],
      "name": "symbol",
      "outputs": [
        {
          "internalType": "string",
          "name": "",
          "type": "string"
        }
      ],
      "stateMutability": "view",
      "type": "function"
    },
    {
      "inputs": [],
      "name": "totalTracks",
      "outputs": [
        {
          "components": [
            {
              "internalType": "uint256",
              "name": "_value",
              "type": "uint256"
            }
          ],
          "internalType": "struct Counters.Counter",
          "name": "",
          "type": "tuple"
        }
      ],
      "stateMutability": "view",
      "type": "function"
    },
    {
      "inputs": [
        {
          "internalType": "uint256",
          "name": "tokenId",
          "type": "uint256"
        }
      ],
      "name": "trackNFTs",
      "outputs": [
        {
          "components": [
            {
              "internalType": "uint256",
              "name": "price",
              "type": "uint256"
            },
            {
              "internalType": "address",
              "name": "artistAddress",
              "type": "address"
            },
            {
              "internalType": "uint16",
              "name": "resaleRoyaltyPercentage",
              "type": "uint16"
            },
            {
              "internalType": "bool",
              "name": "onSale",
              "type": "bool"
            },
            {
              "internalType": "bool",
              "name": "soldOnce",
              "type": "bool"
            },
            {
              "internalType": "uint256",
              "name": "unlockTimestamp",
              "type": "uint256"
            }
          ],
          "internalType": "struct TrackNFT",
          "name": "",
          "type": "tuple"
        }
      ],
      "stateMutability": "view",
      "type": "function"
    }
  ],
  "bytecode": "0x608060405234801561001057600080fd5b50610b8d806100206000396000f3fe608060405234801561001057600080fd5b506004361061009e5760003560e01c8063831744ca11610066578063831744ca1461014b57806395d89b411461017b578063bbc2848914610199578063e8a3d485146101b7578063ef3c6106146101d55761009e565b806306fdde03146100a357806315548232146100c157806340dee0b5146100df5780636c0360eb146100fd5780637f77f5741461011b575b600080fd5b6100ab6101f3565b6040516100b8919061095e565b60405180910390f35b6100c9610287565b6040516100d691906109b6565b60405180910390f35b6100e76102a0565b6040516100f49190610980565b60405180910390f35b6101056102c7565b604051610112919061095e565b60405180910390f35b6101356004803603810190610130919061071a565b61035c565b604051610142919061093c565b60405180910390f35b6101656004803603810190610160919061071a565b610431565b604051610172919061099b565b60405180910390f35b610183610521565b604051610190919061095e565b60405180910390f35b6101a16105b6565b6040516101ae9190610921565b60405180910390f35b6101bf6105e2565b6040516101cc919061095e565b60405180910390f35b6101dd610677565b6040516101ea9190610980565b60405180910390f35b606060008001805461020490610ace565b80601f016020809104026020016040519081016040528092919081815260200182805461023090610ace565b801561027d5780601f106102525761010080835404028352916020019161027d565b820191906000526020600020905b81548152906001019060200180831161026057829003601f168201915b5050505050905090565b60008060040160009054906101000a900460ff16905090565b6102a861069e565b6000600601604051806020016040529081600082015481525050905090565b6060600060030180546102d990610ace565b80601f016020809104026020016040519081016040528092919081815260200182805461030590610ace565b80156103525780601f1061032757610100808354040283529160200191610352565b820191906000526020600020905b81548152906001019060200180831161033557829003601f168201915b5050505050905090565b60606000600a016000838152602001908152602001600020805480602002602001604051908101604052809291908181526020016000905b8282101561042657838290600052602060002090600202016040518060400160405290816000820160009054906101000a900473ffffffffffffffffffffffffffffffffffffffff1673ffffffffffffffffffffffffffffffffffffffff1673ffffffffffffffffffffffffffffffffffffffff16815260200160018201548152505081526020019060010190610394565b505050509050919050565b6104396106b1565b600060090160008381526020019081526020016000206040518060c0016040529081600082015481526020016001820160009054906101000a900473ffffffffffffffffffffffffffffffffffffffff1673ffffffffffffffffffffffffffffffffffffffff1673ffffffffffffffffffffffffffffffffffffffff1681526020016001820160149054906101000a900461ffff1661ffff1661ffff1681526020016001820160169054906101000a900460ff161515151581526020016001820160179054906101000a900460ff161515151581526020016002820154815250509050919050565b60606000600101805461053390610ace565b80601f016020809104026020016040519081016040528092919081815260200182805461055f90610ace565b80156105ac5780601f10610581576101008083540402835291602001916105ac565b820191906000526020600020905b81548152906001019060200180831161058f57829003601f168201915b5050505050905090565b60008060040160019054906101000a900473ffffffffffffffffffffffffffffffffffffffff16905090565b6060600060020180546105f490610ace565b80601f016020809104026020016040519081016040528092919081815260200182805461062090610ace565b801561066d5780601f106106425761010080835404028352916020019161066d565b820191906000526020600020905b81548152906001019060200180831161065057829003601f168201915b5050505050905090565b61067f61069e565b6000600501604051806020016040529081600082015481525050905090565b6040518060200160405280600081525090565b6040518060c0016040528060008152602001600073ffffffffffffffffffffffffffffffffffffffff168152602001600061ffff168152602001600015158152602001600015158152602001600081525090565b60008135905061071481610b40565b92915050565b60006020828403121561072c57600080fd5b600061073a84828501610705565b91505092915050565b600061074f838361084a565b60408301905092915050565b61076481610a38565b82525050565b61077381610a26565b82525050565b61078281610a26565b82525050565b6000610793826109e1565b61079d8185610a04565b93506107a8836109d1565b8060005b838110156107d95781516107c08882610743565b97506107cb836109f7565b9250506001810190506107ac565b5085935050505092915050565b6107ef81610a4a565b82525050565b6000610800826109ec565b61080a8185610a15565b935061081a818560208601610a9b565b61082381610b2f565b840191505092915050565b6020820160008201516108446000850182610903565b50505050565b604082016000820151610860600085018261075b565b5060208201516108736020850182610903565b50505050565b60c08201600082015161088f6000850182610903565b5060208201516108a2602085018261076a565b5060408201516108b560408501826108f4565b5060608201516108c860608501826107e6565b5060808201516108db60808501826107e6565b5060a08201516108ee60a0850182610903565b50505050565b6108fd81610a56565b82525050565b61090c81610a84565b82525050565b61091b81610a8e565b82525050565b60006020820190506109366000830184610779565b92915050565b600060208201905081810360008301526109568184610788565b905092915050565b6000602082019050818103600083015261097881846107f5565b905092915050565b6000602082019050610995600083018461082e565b92915050565b600060c0820190506109b06000830184610879565b92915050565b60006020820190506109cb6000830184610912565b92915050565b6000819050602082019050919050565b600081519050919050565b600081519050919050565b6000602082019050919050565b600082825260208201905092915050565b600082825260208201905092915050565b6000610a3182610a64565b9050919050565b6000610a4382610a64565b9050919050565b60008115159050919050565b600061ffff82169050919050565b600073ffffffffffffffffffffffffffffffffffffffff82169050919050565b6000819050919050565b600060ff82169050919050565b60005b83811015610ab9578082015181840152602081019050610a9e565b83811115610ac8576000848401525b50505050565b60006002820490506001821680610ae657607f821691505b60208210811415610afa57610af9610b00565b5b50919050565b7f4e487b7100000000000000000000000000000000000000000000000000000000600052602260045260246000fd5b6000601f19601f8301169050919050565b610b4981610a84565b8114610b5457600080fd5b5056fea2646970667358221220fa653b77dd27034f0f0f4095ff60a1f2fa51844c6c6b600af01ec1307c36987464736f6c63430008040033",
  "linkReferences": {},
  "deployedLinkReferences": {}
}