{
  "_format": "hh-sol-artifact-1",
  "contractName": "MusixverseGettersFacet",
  "sourceName": "contracts/Musixverse/facets/MusixverseGettersFacet.sol",
  "abi": [
    {
      "inputs": [],
      "name": "PLATFORM_ADDRESS",
      "outputs": [
        {
          "internalType": "address",
          "name": "",
          "type": "address"
        }
      ],
      "stateMutability": "view",
      "type": "function"
    },
    {
      "inputs": [],
      "name": "PLATFORM_FEE_PERCENTAGE",
      "outputs": [
        {
          "internalType": "uint8",
          "name": "",
          "type": "uint8"
        }
      ],
      "stateMutability": "view",
      "type": "function"
    },
    {
      "inputs": [],
      "name": "baseURI",
      "outputs": [
        {
          "internalType": "string",
          "name": "",
          "type": "string"
        }
      ],
      "stateMutability": "view",
      "type": "function"
    },
    {
      "inputs": [],
      "name": "contractURI",
      "outputs": [
        {
          "internalType": "string",
          "name": "",
          "type": "string"
        }
      ],
      "stateMutability": "view",
      "type": "function"
    },
    {
      "inputs": [
        {
          "internalType": "uint256",
          "name": "tokenId",
          "type": "uint256"
        }
      ],
      "name": "getCommentOnToken",
      "outputs": [
        {
          "internalType": "string",
          "name": "",
          "type": "string"
        }
      ],
      "stateMutability": "view",
      "type": "function"
    },
    {
      "inputs": [],
      "name": "mxvLatestTokenId",
      "outputs": [
        {
          "components": [
            {
              "internalType": "uint256",
              "name": "_value",
              "type": "uint256"
            }
          ],
          "internalType": "struct Counters.Counter",
          "name": "",
          "type": "tuple"
        }
      ],
      "stateMutability": "view",
      "type": "function"
    },
    {
      "inputs": [],
      "name": "name",
      "outputs": [
        {
          "internalType": "string",
          "name": "",
          "type": "string"
        }
      ],
      "stateMutability": "view",
      "type": "function"
    },
    {
      "inputs": [
        {
          "internalType": "uint256",
          "name": "tokenId",
          "type": "uint256"
        }
      ],
      "name": "royalties",
      "outputs": [
        {
          "components": [
            {
              "internalType": "address payable",
              "name": "recipient",
              "type": "address"
            },
            {
              "internalType": "uint256",
              "name": "percentage",
              "type": "uint256"
            }
          ],
          "internalType": "struct RoyaltyInfo[]",
          "name": "",
          "type": "tuple[]"
        }
      ],
      "stateMutability": "view",
      "type": "function"
    },
    {
      "inputs": [],
      "name": "symbol",
      "outputs": [
        {
          "internalType": "string",
          "name": "",
          "type": "string"
        }
      ],
      "stateMutability": "view",
      "type": "function"
    },
    {
      "inputs": [],
      "name": "totalTracks",
      "outputs": [
        {
          "components": [
            {
              "internalType": "uint256",
              "name": "_value",
              "type": "uint256"
            }
          ],
          "internalType": "struct Counters.Counter",
          "name": "",
          "type": "tuple"
        }
      ],
      "stateMutability": "view",
      "type": "function"
    },
    {
      "inputs": [
        {
          "internalType": "uint256",
          "name": "tokenId",
          "type": "uint256"
        }
      ],
      "name": "trackNFTs",
      "outputs": [
        {
          "components": [
            {
              "internalType": "uint256",
              "name": "price",
              "type": "uint256"
            },
            {
              "internalType": "address",
              "name": "artistAddress",
              "type": "address"
            },
            {
              "internalType": "uint16",
              "name": "resaleRoyaltyPercentage",
              "type": "uint16"
            },
            {
              "internalType": "bool",
              "name": "onSale",
              "type": "bool"
            },
            {
              "internalType": "bool",
              "name": "soldOnce",
              "type": "bool"
            },
            {
              "internalType": "uint256",
              "name": "unlockTimestamp",
              "type": "uint256"
            }
          ],
          "internalType": "struct TrackNFT",
          "name": "",
          "type": "tuple"
        }
      ],
      "stateMutability": "view",
      "type": "function"
    }
  ],
  "bytecode": "0x608060405234801561001057600080fd5b50610dfb806100206000396000f3fe608060405234801561001057600080fd5b50600436106100a95760003560e01c8063831744ca11610071578063831744ca1461015657806395d89b4114610186578063afb4b540146101a4578063bbc28489146101d4578063e8a3d485146101f2578063ef3c610614610210576100a9565b806306fdde03146100ae57806315548232146100cc57806340dee0b5146100ea5780636c0360eb146101085780637f77f57414610126575b600080fd5b6100b661022e565b6040516100c39190610b83565b60405180910390f35b6100d46102c2565b6040516100e19190610bfb565b60405180910390f35b6100f26102db565b6040516100ff9190610bc5565b60405180910390f35b610110610302565b60405161011d9190610b83565b60405180910390f35b610140600480360381019061013b919061091c565b610397565b60405161014d9190610b61565b60405180910390f35b610170600480360381019061016b919061091c565b6104c7565b60405161017d9190610be0565b60405180910390f35b61018e610612565b60405161019b9190610b83565b60405180910390f35b6101be60048036038101906101b9919061091c565b6106a7565b6040516101cb9190610b83565b60405180910390f35b6101dc6107aa565b6040516101e99190610b46565b60405180910390f35b6101fa6107d6565b6040516102079190610b83565b60405180910390f35b61021861086b565b6040516102259190610bc5565b60405180910390f35b606060008001805461023f90610d13565b80601f016020809104026020016040519081016040528092919081815260200182805461026b90610d13565b80156102b85780601f1061028d576101008083540402835291602001916102b8565b820191906000526020600020905b81548152906001019060200180831161029b57829003601f168201915b5050505050905090565b60008060040160009054906101000a900460ff16905090565b6102e36108a0565b6000600601604051806020016040529081600082015481525050905090565b60606000600301805461031490610d13565b80601f016020809104026020016040519081016040528092919081815260200182805461034090610d13565b801561038d5780601f106103625761010080835404028352916020019161038d565b820191906000526020600020905b81548152906001019060200180831161037057829003601f168201915b5050505050905090565b60606000821180156103b557506103b16000600501610892565b8211155b6103f4576040517f08c379a00000000000000000000000000000000000000000000000000000000081526004016103eb90610ba5565b60405180910390fd5b6000600c016000838152602001908152602001600020805480602002602001604051908101604052809291908181526020016000905b828210156104bc57838290600052602060002090600202016040518060400160405290816000820160009054906101000a900473ffffffffffffffffffffffffffffffffffffffff1673ffffffffffffffffffffffffffffffffffffffff1673ffffffffffffffffffffffffffffffffffffffff1681526020016001820154815250508152602001906001019061042a565b505050509050919050565b6104cf6108b3565b6000821180156104eb57506104e76000600501610892565b8211155b61052a576040517f08c379a000000000000000000000000000000000000000000000000000000000815260040161052190610ba5565b60405180910390fd5b6000600b0160008381526020019081526020016000206040518060c0016040529081600082015481526020016001820160009054906101000a900473ffffffffffffffffffffffffffffffffffffffff1673ffffffffffffffffffffffffffffffffffffffff1673ffffffffffffffffffffffffffffffffffffffff1681526020016001820160149054906101000a900461ffff1661ffff1661ffff1681526020016001820160169054906101000a900460ff161515151581526020016001820160179054906101000a900460ff161515151581526020016002820154815250509050919050565b60606000600101805461062490610d13565b80601f016020809104026020016040519081016040528092919081815260200182805461065090610d13565b801561069d5780601f106106725761010080835404028352916020019161069d565b820191906000526020600020905b81548152906001019060200180831161068057829003601f168201915b5050505050905090565b60606000821180156106c557506106c16000600501610892565b8211155b610704576040517f08c379a00000000000000000000000000000000000000000000000000000000081526004016106fb90610ba5565b60405180910390fd5b60006009016000838152602001908152602001600020805461072590610d13565b80601f016020809104026020016040519081016040528092919081815260200182805461075190610d13565b801561079e5780601f106107735761010080835404028352916020019161079e565b820191906000526020600020905b81548152906001019060200180831161078157829003601f168201915b50505050509050919050565b60008060040160019054906101000a900473ffffffffffffffffffffffffffffffffffffffff16905090565b6060600060020180546107e890610d13565b80601f016020809104026020016040519081016040528092919081815260200182805461081490610d13565b80156108615780601f1061083657610100808354040283529160200191610861565b820191906000526020600020905b81548152906001019060200180831161084457829003601f168201915b5050505050905090565b6108736108a0565b6000600501604051806020016040529081600082015481525050905090565b600081600001549050919050565b6040518060200160405280600081525090565b6040518060c0016040528060008152602001600073ffffffffffffffffffffffffffffffffffffffff168152602001600061ffff168152602001600015158152602001600015158152602001600081525090565b60008135905061091681610dae565b92915050565b60006020828403121561092e57600080fd5b600061093c84828501610907565b91505092915050565b60006109518383610a6f565b60408301905092915050565b61096681610c7d565b82525050565b61097581610c6b565b82525050565b61098481610c6b565b82525050565b600061099582610c26565b61099f8185610c49565b93506109aa83610c16565b8060005b838110156109db5781516109c28882610945565b97506109cd83610c3c565b9250506001810190506109ae565b5085935050505092915050565b6109f181610c8f565b82525050565b6000610a0282610c31565b610a0c8185610c5a565b9350610a1c818560208601610ce0565b610a2581610d74565b840191505092915050565b6000610a3d600983610c5a565b9150610a4882610d85565b602082019050919050565b602082016000820151610a696000850182610b28565b50505050565b604082016000820151610a85600085018261095d565b506020820151610a986020850182610b28565b50505050565b60c082016000820151610ab46000850182610b28565b506020820151610ac7602085018261096c565b506040820151610ada6040850182610b19565b506060820151610aed60608501826109e8565b506080820151610b0060808501826109e8565b5060a0820151610b1360a0850182610b28565b50505050565b610b2281610c9b565b82525050565b610b3181610cc9565b82525050565b610b4081610cd3565b82525050565b6000602082019050610b5b600083018461097b565b92915050565b60006020820190508181036000830152610b7b818461098a565b905092915050565b60006020820190508181036000830152610b9d81846109f7565b905092915050565b60006020820190508181036000830152610bbe81610a30565b9050919050565b6000602082019050610bda6000830184610a53565b92915050565b600060c082019050610bf56000830184610a9e565b92915050565b6000602082019050610c106000830184610b37565b92915050565b6000819050602082019050919050565b600081519050919050565b600081519050919050565b6000602082019050919050565b600082825260208201905092915050565b600082825260208201905092915050565b6000610c7682610ca9565b9050919050565b6000610c8882610ca9565b9050919050565b60008115159050919050565b600061ffff82169050919050565b600073ffffffffffffffffffffffffffffffffffffffff82169050919050565b6000819050919050565b600060ff82169050919050565b60005b83811015610cfe578082015181840152602081019050610ce3565b83811115610d0d576000848401525b50505050565b60006002820490506001821680610d2b57607f821691505b60208210811415610d3f57610d3e610d45565b5b50919050565b7f4e487b7100000000000000000000000000000000000000000000000000000000600052602260045260246000fd5b6000601f19601f8301169050919050565b7f546f6b656e20444e450000000000000000000000000000000000000000000000600082015250565b610db781610cc9565b8114610dc257600080fd5b5056fea2646970667358221220d912c84e9659914bdd108a164d862c2279bcefdea5d52f67b8d63c870334799964736f6c63430008040033",
  "linkReferences": {},
  "deployedLinkReferences": {}
}