{
  "_format": "hh-sol-artifact-1",
  "contractName": "MusixverseV1",
  "sourceName": "contracts/v1/MusixverseV1.sol",
  "abi": [
    {
      "anonymous": false,
      "inputs": [
        {
          "indexed": true,
          "internalType": "address",
          "name": "account",
          "type": "address"
        },
        {
          "indexed": true,
          "internalType": "address",
          "name": "operator",
          "type": "address"
        },
        {
          "indexed": false,
          "internalType": "bool",
          "name": "approved",
          "type": "bool"
        }
      ],
      "name": "ApprovalForAll",
      "type": "event"
    },
    {
      "anonymous": false,
      "inputs": [
        {
          "indexed": true,
          "internalType": "address",
          "name": "previousOwner",
          "type": "address"
        },
        {
          "indexed": true,
          "internalType": "address",
          "name": "newOwner",
          "type": "address"
        }
      ],
      "name": "OwnershipTransferred",
      "type": "event"
    },
    {
      "anonymous": false,
      "inputs": [
        {
          "indexed": false,
          "internalType": "address",
          "name": "account",
          "type": "address"
        }
      ],
      "name": "Paused",
      "type": "event"
    },
    {
      "anonymous": false,
      "inputs": [
        {
          "indexed": false,
          "internalType": "address",
          "name": "",
          "type": "address"
        },
        {
          "indexed": false,
          "internalType": "uint256",
          "name": "",
          "type": "uint256"
        }
      ],
      "name": "Received",
      "type": "event"
    },
    {
      "anonymous": false,
      "inputs": [
        {
          "indexed": false,
          "internalType": "uint256",
          "name": "trackId",
          "type": "uint256"
        },
        {
          "indexed": false,
          "internalType": "uint256",
          "name": "tokenId",
          "type": "uint256"
        },
        {
          "indexed": false,
          "internalType": "uint256",
          "name": "price",
          "type": "uint256"
        },
        {
          "indexed": false,
          "internalType": "uint256",
          "name": "localTokenId",
          "type": "uint256"
        }
      ],
      "name": "TokenCreated",
      "type": "event"
    },
    {
      "anonymous": false,
      "inputs": [
        {
          "indexed": false,
          "internalType": "uint256",
          "name": "tokenId",
          "type": "uint256"
        },
        {
          "indexed": false,
          "internalType": "bool",
          "name": "onSale",
          "type": "bool"
        }
      ],
      "name": "TokenOnSaleUpdated",
      "type": "event"
    },
    {
      "anonymous": false,
      "inputs": [
        {
          "indexed": false,
          "internalType": "uint256",
          "name": "tokenId",
          "type": "uint256"
        },
        {
          "indexed": false,
          "internalType": "uint256",
          "name": "oldPrice",
          "type": "uint256"
        },
        {
          "indexed": false,
          "internalType": "uint256",
          "name": "newPrice",
          "type": "uint256"
        }
      ],
      "name": "TokenPriceUpdated",
      "type": "event"
    },
    {
      "anonymous": false,
      "inputs": [
        {
          "indexed": false,
          "internalType": "uint256",
          "name": "tokenId",
          "type": "uint256"
        },
        {
          "indexed": false,
          "internalType": "address",
          "name": "previousOwner",
          "type": "address"
        },
        {
          "indexed": false,
          "internalType": "address",
          "name": "newOwner",
          "type": "address"
        },
        {
          "indexed": false,
          "internalType": "uint256",
          "name": "price",
          "type": "uint256"
        }
      ],
      "name": "TokenPurchased",
      "type": "event"
    },
    {
      "anonymous": false,
      "inputs": [
        {
          "indexed": false,
          "internalType": "uint256",
          "name": "trackId",
          "type": "uint256"
        },
        {
          "indexed": false,
          "internalType": "uint256",
          "name": "price",
          "type": "uint256"
        },
        {
          "indexed": false,
          "internalType": "string",
          "name": "URIHash",
          "type": "string"
        }
      ],
      "name": "TrackMinted",
      "type": "event"
    },
    {
      "anonymous": false,
      "inputs": [
        {
          "indexed": true,
          "internalType": "address",
          "name": "operator",
          "type": "address"
        },
        {
          "indexed": true,
          "internalType": "address",
          "name": "from",
          "type": "address"
        },
        {
          "indexed": true,
          "internalType": "address",
          "name": "to",
          "type": "address"
        },
        {
          "indexed": false,
          "internalType": "uint256[]",
          "name": "ids",
          "type": "uint256[]"
        },
        {
          "indexed": false,
          "internalType": "uint256[]",
          "name": "values",
          "type": "uint256[]"
        }
      ],
      "name": "TransferBatch",
      "type": "event"
    },
    {
      "anonymous": false,
      "inputs": [
        {
          "indexed": true,
          "internalType": "address",
          "name": "operator",
          "type": "address"
        },
        {
          "indexed": true,
          "internalType": "address",
          "name": "from",
          "type": "address"
        },
        {
          "indexed": true,
          "internalType": "address",
          "name": "to",
          "type": "address"
        },
        {
          "indexed": false,
          "internalType": "uint256",
          "name": "id",
          "type": "uint256"
        },
        {
          "indexed": false,
          "internalType": "uint256",
          "name": "value",
          "type": "uint256"
        }
      ],
      "name": "TransferSingle",
      "type": "event"
    },
    {
      "anonymous": false,
      "inputs": [
        {
          "indexed": false,
          "internalType": "string",
          "name": "value",
          "type": "string"
        },
        {
          "indexed": true,
          "internalType": "uint256",
          "name": "id",
          "type": "uint256"
        }
      ],
      "name": "URI",
      "type": "event"
    },
    {
      "anonymous": false,
      "inputs": [
        {
          "indexed": false,
          "internalType": "address",
          "name": "account",
          "type": "address"
        }
      ],
      "name": "Unpaused",
      "type": "event"
    },
    {
      "inputs": [
        {
          "internalType": "address",
          "name": "account",
          "type": "address"
        },
        {
          "internalType": "uint256",
          "name": "id",
          "type": "uint256"
        }
      ],
      "name": "balanceOf",
      "outputs": [
        {
          "internalType": "uint256",
          "name": "",
          "type": "uint256"
        }
      ],
      "stateMutability": "view",
      "type": "function"
    },
    {
      "inputs": [
        {
          "internalType": "address[]",
          "name": "accounts",
          "type": "address[]"
        },
        {
          "internalType": "uint256[]",
          "name": "ids",
          "type": "uint256[]"
        }
      ],
      "name": "balanceOfBatch",
      "outputs": [
        {
          "internalType": "uint256[]",
          "name": "",
          "type": "uint256[]"
        }
      ],
      "stateMutability": "view",
      "type": "function"
    },
    {
      "inputs": [],
      "name": "baseURI",
      "outputs": [
        {
          "internalType": "string",
          "name": "",
          "type": "string"
        }
      ],
      "stateMutability": "view",
      "type": "function"
    },
    {
      "inputs": [],
      "name": "contractURI",
      "outputs": [
        {
          "internalType": "string",
          "name": "",
          "type": "string"
        }
      ],
      "stateMutability": "view",
      "type": "function"
    },
    {
      "inputs": [
        {
          "internalType": "uint256",
          "name": "tokenId",
          "type": "uint256"
        }
      ],
      "name": "getRoyaltyInfo",
      "outputs": [
        {
          "components": [
            {
              "internalType": "address payable",
              "name": "recipient",
              "type": "address"
            },
            {
              "internalType": "uint256",
              "name": "percentage",
              "type": "uint256"
            }
          ],
          "internalType": "struct MusixverseEternalStorage.RoyaltyInfo[]",
          "name": "",
          "type": "tuple[]"
        }
      ],
      "stateMutability": "view",
      "type": "function"
    },
    {
      "inputs": [
        {
          "internalType": "string",
          "name": "tokenMetadataURI",
          "type": "string"
        },
        {
          "internalType": "string",
          "name": "contractMetadataURI",
          "type": "string"
        }
      ],
      "name": "initialize",
      "outputs": [],
      "stateMutability": "nonpayable",
      "type": "function"
    },
    {
      "inputs": [
        {
          "internalType": "address",
          "name": "account",
          "type": "address"
        },
        {
          "internalType": "address",
          "name": "operator",
          "type": "address"
        }
      ],
      "name": "isApprovedForAll",
      "outputs": [
        {
          "internalType": "bool",
          "name": "",
          "type": "bool"
        }
      ],
      "stateMutability": "view",
      "type": "function"
    },
    {
      "inputs": [
        {
          "internalType": "uint16",
          "name": "amount",
          "type": "uint16"
        },
        {
          "internalType": "uint256",
          "name": "price",
          "type": "uint256"
        },
        {
          "internalType": "string",
          "name": "URIHash",
          "type": "string"
        },
        {
          "internalType": "address[]",
          "name": "collaborators",
          "type": "address[]"
        },
        {
          "internalType": "uint16[]",
          "name": "percentageContributions",
          "type": "uint16[]"
        },
        {
          "internalType": "uint16",
          "name": "resaleRoyaltyPercentage",
          "type": "uint16"
        },
        {
          "internalType": "bool",
          "name": "onSale",
          "type": "bool"
        },
        {
          "internalType": "uint256",
          "name": "unlockTimestamp",
          "type": "uint256"
        }
      ],
      "name": "mintTrackNFT",
      "outputs": [],
      "stateMutability": "nonpayable",
      "type": "function"
    },
    {
      "inputs": [],
      "name": "mxvLatestTokenId",
      "outputs": [
        {
          "internalType": "uint256",
          "name": "_value",
          "type": "uint256"
        }
      ],
      "stateMutability": "view",
      "type": "function"
    },
    {
      "inputs": [],
      "name": "name",
      "outputs": [
        {
          "internalType": "string",
          "name": "",
          "type": "string"
        }
      ],
      "stateMutability": "view",
      "type": "function"
    },
    {
      "inputs": [],
      "name": "owner",
      "outputs": [
        {
          "internalType": "address",
          "name": "",
          "type": "address"
        }
      ],
      "stateMutability": "view",
      "type": "function"
    },
    {
      "inputs": [
        {
          "internalType": "uint256",
          "name": "tokenId",
          "type": "uint256"
        }
      ],
      "name": "ownerOf",
      "outputs": [
        {
          "internalType": "address",
          "name": "",
          "type": "address"
        }
      ],
      "stateMutability": "view",
      "type": "function"
    },
    {
      "inputs": [],
      "name": "pause",
      "outputs": [],
      "stateMutability": "nonpayable",
      "type": "function"
    },
    {
      "inputs": [],
      "name": "paused",
      "outputs": [
        {
          "internalType": "bool",
          "name": "",
          "type": "bool"
        }
      ],
      "stateMutability": "view",
      "type": "function"
    },
    {
      "inputs": [
        {
          "internalType": "uint256",
          "name": "tokenId",
          "type": "uint256"
        }
      ],
      "name": "purchaseTrackNFT",
      "outputs": [],
      "stateMutability": "payable",
      "type": "function"
    },
    {
      "inputs": [],
      "name": "renounceOwnership",
      "outputs": [],
      "stateMutability": "nonpayable",
      "type": "function"
    },
    {
      "inputs": [
        {
          "internalType": "uint256",
          "name": "",
          "type": "uint256"
        },
        {
          "internalType": "uint256",
          "name": "",
          "type": "uint256"
        }
      ],
      "name": "royalties",
      "outputs": [
        {
          "internalType": "address payable",
          "name": "recipient",
          "type": "address"
        },
        {
          "internalType": "uint256",
          "name": "percentage",
          "type": "uint256"
        }
      ],
      "stateMutability": "view",
      "type": "function"
    },
    {
      "inputs": [
        {
          "internalType": "address",
          "name": "from",
          "type": "address"
        },
        {
          "internalType": "address",
          "name": "to",
          "type": "address"
        },
        {
          "internalType": "uint256[]",
          "name": "ids",
          "type": "uint256[]"
        },
        {
          "internalType": "uint256[]",
          "name": "amounts",
          "type": "uint256[]"
        },
        {
          "internalType": "bytes",
          "name": "data",
          "type": "bytes"
        }
      ],
      "name": "safeBatchTransferFrom",
      "outputs": [],
      "stateMutability": "nonpayable",
      "type": "function"
    },
    {
      "inputs": [
        {
          "internalType": "address",
          "name": "from",
          "type": "address"
        },
        {
          "internalType": "address",
          "name": "to",
          "type": "address"
        },
        {
          "internalType": "uint256",
          "name": "id",
          "type": "uint256"
        },
        {
          "internalType": "uint256",
          "name": "amount",
          "type": "uint256"
        },
        {
          "internalType": "bytes",
          "name": "data",
          "type": "bytes"
        }
      ],
      "name": "safeTransferFrom",
      "outputs": [],
      "stateMutability": "nonpayable",
      "type": "function"
    },
    {
      "inputs": [
        {
          "internalType": "address",
          "name": "operator",
          "type": "address"
        },
        {
          "internalType": "bool",
          "name": "approved",
          "type": "bool"
        }
      ],
      "name": "setApprovalForAll",
      "outputs": [],
      "stateMutability": "nonpayable",
      "type": "function"
    },
    {
      "inputs": [
        {
          "internalType": "bytes4",
          "name": "interfaceId",
          "type": "bytes4"
        }
      ],
      "name": "supportsInterface",
      "outputs": [
        {
          "internalType": "bool",
          "name": "",
          "type": "bool"
        }
      ],
      "stateMutability": "view",
      "type": "function"
    },
    {
      "inputs": [],
      "name": "symbol",
      "outputs": [
        {
          "internalType": "string",
          "name": "",
          "type": "string"
        }
      ],
      "stateMutability": "view",
      "type": "function"
    },
    {
      "inputs": [
        {
          "internalType": "uint256",
          "name": "tokenId",
          "type": "uint256"
        }
      ],
      "name": "toggleOnSale",
      "outputs": [],
      "stateMutability": "nonpayable",
      "type": "function"
    },
    {
      "inputs": [],
      "name": "totalTracks",
      "outputs": [
        {
          "internalType": "uint256",
          "name": "_value",
          "type": "uint256"
        }
      ],
      "stateMutability": "view",
      "type": "function"
    },
    {
      "inputs": [
        {
          "internalType": "uint256",
          "name": "",
          "type": "uint256"
        }
      ],
      "name": "trackNFTs",
      "outputs": [
        {
          "internalType": "uint256",
          "name": "price",
          "type": "uint256"
        },
        {
          "internalType": "address",
          "name": "artistAddress",
          "type": "address"
        },
        {
          "internalType": "uint16",
          "name": "resaleRoyaltyPercentage",
          "type": "uint16"
        },
        {
          "internalType": "bool",
          "name": "onSale",
          "type": "bool"
        },
        {
          "internalType": "bool",
          "name": "soldOnce",
          "type": "bool"
        },
        {
          "internalType": "uint256",
          "name": "unlockTimestamp",
          "type": "uint256"
        }
      ],
      "stateMutability": "view",
      "type": "function"
    },
    {
      "inputs": [
        {
          "internalType": "address",
          "name": "newOwner",
          "type": "address"
        }
      ],
      "name": "transferOwnership",
      "outputs": [],
      "stateMutability": "nonpayable",
      "type": "function"
    },
    {
      "inputs": [],
      "name": "unpause",
      "outputs": [],
      "stateMutability": "nonpayable",
      "type": "function"
    },
    {
      "inputs": [
        {
          "internalType": "string",
          "name": "newURI",
          "type": "string"
        }
      ],
      "name": "updateBaseURI",
      "outputs": [],
      "stateMutability": "nonpayable",
      "type": "function"
    },
    {
      "inputs": [
        {
          "internalType": "string",
          "name": "newURI",
          "type": "string"
        }
      ],
      "name": "updateContractMetadataURI",
      "outputs": [],
      "stateMutability": "nonpayable",
      "type": "function"
    },
    {
      "inputs": [
        {
          "internalType": "uint256",
          "name": "tokenId",
          "type": "uint256"
        },
        {
          "internalType": "uint256",
          "name": "newPrice",
          "type": "uint256"
        }
      ],
      "name": "updatePrice",
      "outputs": [],
      "stateMutability": "nonpayable",
      "type": "function"
    },
    {
      "inputs": [
        {
          "internalType": "string",
          "name": "newURI",
          "type": "string"
        }
      ],
      "name": "updateURI",
      "outputs": [],
      "stateMutability": "nonpayable",
      "type": "function"
    },
    {
      "inputs": [
        {
          "internalType": "uint256",
          "name": "mxvTokenId",
          "type": "uint256"
        }
      ],
      "name": "uri",
      "outputs": [
        {
          "internalType": "string",
          "name": "",
          "type": "string"
        }
      ],
      "stateMutability": "view",
      "type": "function"
    },
    {
      "inputs": [],
      "name": "withdraw",
      "outputs": [],
      "stateMutability": "nonpayable",
      "type": "function"
    },
    {
      "stateMutability": "payable",
      "type": "receive"
    }
  ],
  "bytecode": "0x608060405234801561001057600080fd5b50615fe480620000216000396000f3fe6080604052600436106101f15760003560e01c80638456cb591161010d578063c30f4a5a116100a0578063ee169bd31161006f578063ee169bd314610732578063ef3c61061461075b578063f242432a14610786578063f2fde38b146107af578063fd036655146107d857610231565b8063c30f4a5a14610678578063d6e83cda146106a1578063e8a3d485146106ca578063e985e9c5146106f557610231565b806395d89b41116100dc57806395d89b41146105be5780639c17d873146105e9578063a22cb46514610612578063b76c632b1461063b57610231565b80638456cb59146105155780638924af741461052c5780638da5cb5b1461056a578063931688cb1461059557610231565b80634cd88b76116101855780636c0360eb116101545780636c0360eb14610468578063715018a61461049357806382367b2d146104aa578063831744ca146104d357610231565b80634cd88b761461039a5780634e1273f4146103c35780635c975abb146104005780636352211e1461042b57610231565b80632eb2c2d6116101c15780632eb2c2d6146103185780633ccfd60b146103415780633f4ba83a1461035857806340dee0b51461036f57610231565b8062fdd58e1461023657806301ffc9a71461027357806306fdde03146102b05780630e89341c146102db57610231565b36610231577f88a5966d370b9919b20f3e2c13ff65706f196a4e32cc2c12bf57088f885258743334604051610227929190614e86565b60405180910390a1005b600080fd5b34801561024257600080fd5b5061025d600480360381019061025891906141f2565b6107f4565b60405161026a9190615223565b60405180910390f35b34801561027f57600080fd5b5061029a600480360381019061029591906142c3565b6108be565b6040516102a79190614f2a565b60405180910390f35b3480156102bc57600080fd5b506102c56109a0565b6040516102d29190614f45565b60405180910390f35b3480156102e757600080fd5b5061030260048036038101906102fd919061450f565b610a2e565b60405161030f9190614f45565b60405180910390f35b34801561032457600080fd5b5061033f600480360381019061033a9190614068565b610ac6565b005b34801561034d57600080fd5b50610356610b67565b005b34801561036457600080fd5b5061036d610c2c565b005b34801561037b57600080fd5b50610384610cf9565b6040516103919190615223565b60405180910390f35b3480156103a657600080fd5b506103c160048036038101906103bc919061439b565b610d06565b005b3480156103cf57600080fd5b506103ea60048036038101906103e5919061422e565b610df6565b6040516103f79190614ed1565b60405180910390f35b34801561040c57600080fd5b50610415610fa7565b6040516104229190614f2a565b60405180910390f35b34801561043757600080fd5b50610452600480360381019061044d919061450f565b610fbe565b60405161045f9190614ce8565b60405180910390f35b34801561047457600080fd5b5061047d61109f565b60405161048a9190614f45565b60405180910390f35b34801561049f57600080fd5b506104a861112d565b005b3480156104b657600080fd5b506104d160048036038101906104cc9190614538565b6111b5565b005b3480156104df57600080fd5b506104fa60048036038101906104f5919061450f565b6112b0565b60405161050c96959493929190615283565b60405180910390f35b34801561052157600080fd5b5061052a611335565b005b34801561053857600080fd5b50610553600480360381019061054e9190614538565b611403565b604051610561929190614d03565b60405180910390f35b34801561057657600080fd5b5061057f611465565b60405161058c9190614ce8565b60405180910390f35b3480156105a157600080fd5b506105bc60048036038101906105b7919061435a565b61148f565b005b3480156105ca57600080fd5b506105d3611525565b6040516105e09190614f45565b60405180910390f35b3480156105f557600080fd5b50610610600480360381019061060b9190614407565b6115b3565b005b34801561061e57600080fd5b50610639600480360381019061063491906141b6565b611bb4565b005b34801561064757600080fd5b50610662600480360381019061065d919061450f565b611bca565b60405161066f9190614eaf565b60405180910390f35b34801561068457600080fd5b5061069f600480360381019061069a9190614315565b611c9d565b005b3480156106ad57600080fd5b506106c860048036038101906106c3919061435a565b611d6a565b005b3480156106d657600080fd5b506106df611e00565b6040516106ec9190614f45565b60405180910390f35b34801561070157600080fd5b5061071c6004803603810190610717919061402c565b611e8e565b6040516107299190614f2a565b60405180910390f35b34801561073e57600080fd5b506107596004803603810190610754919061450f565b611f22565b005b34801561076757600080fd5b50610770612016565b60405161077d9190615223565b60405180910390f35b34801561079257600080fd5b506107ad60048036038101906107a89190614127565b612023565b005b3480156107bb57600080fd5b506107d660048036038101906107d19190614003565b6120c4565b005b6107f260048036038101906107ed919061450f565b6121bc565b005b60008073ffffffffffffffffffffffffffffffffffffffff168373ffffffffffffffffffffffffffffffffffffffff161415610865576040517f08c379a000000000000000000000000000000000000000000000000000000000815260040161085c90614fc7565b60405180910390fd5b6065600083815260200190815260200160002060008473ffffffffffffffffffffffffffffffffffffffff1673ffffffffffffffffffffffffffffffffffffffff16815260200190815260200160002054905092915050565b60007fd9b67a26000000000000000000000000000000000000000000000000000000007bffffffffffffffffffffffffffffffffffffffffffffffffffffffff1916827bffffffffffffffffffffffffffffffffffffffffffffffffffffffff1916148061098957507f0e89341c000000000000000000000000000000000000000000000000000000007bffffffffffffffffffffffffffffffffffffffffffffffffffffffff1916827bffffffffffffffffffffffffffffffffffffffffffffffffffffffff1916145b80610999575061099882612366565b5b9050919050565b60fb80546109ad9061580d565b80601f01602080910402602001604051908101604052809291908181526020018280546109d99061580d565b8015610a265780601f106109fb57610100808354040283529160200191610a26565b820191906000526020600020905b815481529060010190602001808311610a0957829003601f168201915b505050505081565b6060600082118015610a4a5750610a466101006123d0565b8211155b610a89576040517f08c379a0000000000000000000000000000000000000000000000000000000008152600401610a80906150e7565b60405180910390fd5b60fe6101026000848152602001908152602001600020604051602001610ab0929190614cc4565b6040516020818303038152906040529050919050565b610ace6123de565b73ffffffffffffffffffffffffffffffffffffffff168573ffffffffffffffffffffffffffffffffffffffff161480610b145750610b1385610b0e6123de565b611e8e565b5b610b53576040517f08c379a0000000000000000000000000000000000000000000000000000000008152600401610b4a90615067565b60405180910390fd5b610b6085858585856123e6565b5050505050565b610b6f6123de565b73ffffffffffffffffffffffffffffffffffffffff16610b8d611465565b73ffffffffffffffffffffffffffffffffffffffff1614610be3576040517f08c379a0000000000000000000000000000000000000000000000000000000008152600401610bda906150c7565b60405180910390fd5b3373ffffffffffffffffffffffffffffffffffffffff166108fc479081150290604051600060405180830381858888f19350505050158015610c29573d6000803e3d6000fd5b50565b610c34610fa7565b610c73576040517f08c379a0000000000000000000000000000000000000000000000000000000008152600401610c6a90614fa7565b60405180910390fd5b610c7b6123de565b73ffffffffffffffffffffffffffffffffffffffff16610c99611465565b73ffffffffffffffffffffffffffffffffffffffff1614610cef576040517f08c379a0000000000000000000000000000000000000000000000000000000008152600401610ce6906150c7565b60405180910390fd5b610cf7612749565b565b6101018060000154905081565b600060019054906101000a900460ff16610d2e5760008054906101000a900460ff1615610d37565b610d366127eb565b5b610d76576040517f08c379a0000000000000000000000000000000000000000000000000000000008152600401610d6d90615087565b60405180910390fd5b60008060019054906101000a900460ff161590508015610dc6576001600060016101000a81548160ff02191690831515021790555060016000806101000a81548160ff0219169083151502179055505b610dd083836127fc565b8015610df15760008060016101000a81548160ff0219169083151502179055505b505050565b60608151835114610e3c576040517f08c379a0000000000000000000000000000000000000000000000000000000008152600401610e3390615147565b60405180910390fd5b6000835167ffffffffffffffff811115610e7f577f4e487b7100000000000000000000000000000000000000000000000000000000600052604160045260246000fd5b604051908082528060200260200182016040528015610ead5781602001602082028036833780820191505090505b50905060005b8451811015610f9c57610f46858281518110610ef8577f4e487b7100000000000000000000000000000000000000000000000000000000600052603260045260246000fd5b6020026020010151858381518110610f39577f4e487b7100000000000000000000000000000000000000000000000000000000600052603260045260246000fd5b60200260200101516107f4565b828281518110610f7f577f4e487b7100000000000000000000000000000000000000000000000000000000600052603260045260246000fd5b60200260200101818152505080610f9590615870565b9050610eb3565b508091505092915050565b6000609760009054906101000a900460ff16905090565b60008073ffffffffffffffffffffffffffffffffffffffff16610103600084815260200190815260200160002060009054906101000a900473ffffffffffffffffffffffffffffffffffffffff1673ffffffffffffffffffffffffffffffffffffffff161415611063576040517f08c379a000000000000000000000000000000000000000000000000000000000815260040161105a906150e7565b60405180910390fd5b610103600083815260200190815260200160002060009054906101000a900473ffffffffffffffffffffffffffffffffffffffff169050919050565b60fe80546110ac9061580d565b80601f01602080910402602001604051908101604052809291908181526020018280546110d89061580d565b80156111255780601f106110fa57610100808354040283529160200191611125565b820191906000526020600020905b81548152906001019060200180831161110857829003601f168201915b505050505081565b6111356123de565b73ffffffffffffffffffffffffffffffffffffffff16611153611465565b73ffffffffffffffffffffffffffffffffffffffff16146111a9576040517f08c379a00000000000000000000000000000000000000000000000000000000081526004016111a0906150c7565b60405180910390fd5b6111b36000612a35565b565b60008073__$466d0af6b863105b2d93eed45cf7a289fc$__6308363d7f60ff60019054906101000a900473ffffffffffffffffffffffffffffffffffffffff1686610104876101006040518663ffffffff1660e01b815260040161121d959493929190614d71565b604080518083038186803b15801561123457600080fd5b505af4158015611248573d6000803e3d6000fd5b505050506040513d601f19601f8201168201806040525081019061126c9190614574565b915091507ed4fe314618b73a96886b87817a53a5ed51433b0234c85a5e9dafe2cb7b88428483836040516112a293929190615420565b60405180910390a150505050565b6101046020528060005260406000206000915090508060000154908060010160009054906101000a900473ffffffffffffffffffffffffffffffffffffffff16908060010160149054906101000a900461ffff16908060010160169054906101000a900460ff16908060010160179054906101000a900460ff16908060020154905086565b61133d610fa7565b1561137d576040517f08c379a000000000000000000000000000000000000000000000000000000000815260040161137490615027565b60405180910390fd5b6113856123de565b73ffffffffffffffffffffffffffffffffffffffff166113a3611465565b73ffffffffffffffffffffffffffffffffffffffff16146113f9576040517f08c379a00000000000000000000000000000000000000000000000000000000081526004016113f0906150c7565b60405180910390fd5b611401612afb565b565b610105602052816000526040600020818154811061142057600080fd5b9060005260206000209060020201600091509150508060000160009054906101000a900473ffffffffffffffffffffffffffffffffffffffff16908060010154905082565b600060c960009054906101000a900473ffffffffffffffffffffffffffffffffffffffff16905090565b6114976123de565b73ffffffffffffffffffffffffffffffffffffffff166114b5611465565b73ffffffffffffffffffffffffffffffffffffffff161461150b576040517f08c379a0000000000000000000000000000000000000000000000000000000008152600401611502906150c7565b60405180910390fd5b8060fe9080519060200190611521929190613bde565b5050565b60fc80546115329061580d565b80601f016020809104026020016040519081016040528092919081815260200182805461155e9061580d565b80156115ab5780601f10611580576101008083540402835291602001916115ab565b820191906000526020600020905b81548152906001019060200180831161158e57829003601f168201915b505050505081565b6115bb610fa7565b156115fb576040517f08c379a00000000000000000000000000000000000000000000000000000000081526004016115f290615027565b60405180910390fd5b73__$466d0af6b863105b2d93eed45cf7a289fc$__633fe56e118c8c8c8c8c8c8c8c8c6040518a63ffffffff1660e01b8152600401611642999897969594939291906151a7565b60006040518083038186803b15801561165a57600080fd5b505af415801561166e573d6000803e3d6000fd5b5050505060008b61ffff1667ffffffffffffffff8111156116b8577f4e487b7100000000000000000000000000000000000000000000000000000000600052604160045260246000fd5b6040519080825280602002602001820160405280156116e65781602001602082028036833780820191505090505b50905060008c61ffff1667ffffffffffffffff81111561172f577f4e487b7100000000000000000000000000000000000000000000000000000000600052604160045260246000fd5b60405190808252806020026020018201604052801561175d5781602001602082028036833780820191505090505b50905060005b8d61ffff16811015611a815761177a610100612b9e565b6117856101006123d0565b8382815181106117be577f4e487b7100000000000000000000000000000000000000000000000000000000600052603260045260246000fd5b6020026020010181815250506001828281518110611805577f4e487b7100000000000000000000000000000000000000000000000000000000600052603260045260246000fd5b60200260200101818152505061186961181f6101006123d0565b8d8d8080601f016020809104026020016040519081016040528093929190818152602001838380828437600081840152601f19601f82011690508083019250505050505050612bb4565b73__$466d0af6b863105b2d93eed45cf7a289fc$__631d5492e461188e6101006123d0565b8c8c8c8c6101056040518763ffffffff1660e01b81526004016118b6969594939291906152e4565b60006040518083038186803b1580156118ce57600080fd5b505af41580156118e2573d6000803e3d6000fd5b505050503361010360006118f76101006123d0565b815260200190815260200160002060006101000a81548173ffffffffffffffffffffffffffffffffffffffff021916908373ffffffffffffffffffffffffffffffffffffffff1602179055506040518060c001604052808e81526020013373ffffffffffffffffffffffffffffffffffffffff1681526020018761ffff168152602001861515815260200160001515815260200185815250610104600061199f6101006123d0565b81526020019081526020016000206000820151816000015560208201518160010160006101000a81548173ffffffffffffffffffffffffffffffffffffffff021916908373ffffffffffffffffffffffffffffffffffffffff16021790555060408201518160010160146101000a81548161ffff021916908361ffff16021790555060608201518160010160166101000a81548160ff02191690831515021790555060808201518160010160176101000a81548160ff02191690831515021790555060a082015181600201559050508080611a7990615870565b915050611763565b50611a9d33838360405180602001604052806000815250612be1565b611aa8610101612b9e565b60005b8d61ffff16811015611b5d577fedf3220df5906e023bb771b36cc21f0d9bdfb70dba1e1e587ef47b24822aa64d611ae36101016123d0565b848381518110611b1c577f4e487b7100000000000000000000000000000000000000000000000000000000600052603260045260246000fd5b60200260200101518f600185611b3291906156d4565b604051611b429493929190615457565b60405180910390a18080611b5590615870565b915050611aab565b507fb01722acfeb1ad178a44fb9bffc321658114da75ef684220505cbfcdd9af7f36611b8a6101016123d0565b8d8d8d604051611b9d94939291906153e0565b60405180910390a150505050505050505050505050565b611bc6611bbf6123de565b8383612e4c565b5050565b60606101056000838152602001908152602001600020805480602002602001604051908101604052809291908181526020016000905b82821015611c9257838290600052602060002090600202016040518060400160405290816000820160009054906101000a900473ffffffffffffffffffffffffffffffffffffffff1673ffffffffffffffffffffffffffffffffffffffff1673ffffffffffffffffffffffffffffffffffffffff16815260200160018201548152505081526020019060010190611c00565b505050509050919050565b611ca56123de565b73ffffffffffffffffffffffffffffffffffffffff16611cc3611465565b73ffffffffffffffffffffffffffffffffffffffff1614611d19576040517f08c379a0000000000000000000000000000000000000000000000000000000008152600401611d10906150c7565b60405180910390fd5b611d6682828080601f016020809104026020016040519081016040528093929190818152602001838380828437600081840152601f19601f82011690508083019250505050505050612fb9565b5050565b611d726123de565b73ffffffffffffffffffffffffffffffffffffffff16611d90611465565b73ffffffffffffffffffffffffffffffffffffffff1614611de6576040517f08c379a0000000000000000000000000000000000000000000000000000000008152600401611ddd906150c7565b60405180910390fd5b8060fd9080519060200190611dfc929190613bde565b5050565b60fd8054611e0d9061580d565b80601f0160208091040260200160405190810160405280929190818152602001828054611e399061580d565b8015611e865780601f10611e5b57610100808354040283529160200191611e86565b820191906000526020600020905b815481529060010190602001808311611e6957829003601f168201915b505050505081565b6000606660008473ffffffffffffffffffffffffffffffffffffffff1673ffffffffffffffffffffffffffffffffffffffff16815260200190815260200160002060008373ffffffffffffffffffffffffffffffffffffffff1673ffffffffffffffffffffffffffffffffffffffff16815260200190815260200160002060009054906101000a900460ff16905092915050565b600073__$466d0af6b863105b2d93eed45cf7a289fc$__63497a033a60ff60019054906101000a900473ffffffffffffffffffffffffffffffffffffffff16846101046101006040518563ffffffff1660e01b8152600401611f879493929190614d2c565b60206040518083038186803b158015611f9f57600080fd5b505af4158015611fb3573d6000803e3d6000fd5b505050506040513d601f19601f82011682018060405250810190611fd7919061429a565b90507fb512b84d0e52781a8716f3c1904d0b1ee361197325a97e356d10b9f4d2c5d05a828260405161200a92919061533b565b60405180910390a15050565b6101008060000154905081565b61202b6123de565b73ffffffffffffffffffffffffffffffffffffffff168573ffffffffffffffffffffffffffffffffffffffff16148061207157506120708561206b6123de565b611e8e565b5b6120b0576040517f08c379a00000000000000000000000000000000000000000000000000000000081526004016120a790615007565b60405180910390fd5b6120bd8585858585612fd3565b5050505050565b6120cc6123de565b73ffffffffffffffffffffffffffffffffffffffff166120ea611465565b73ffffffffffffffffffffffffffffffffffffffff1614612140576040517f08c379a0000000000000000000000000000000000000000000000000000000008152600401612137906150c7565b60405180910390fd5b600073ffffffffffffffffffffffffffffffffffffffff168173ffffffffffffffffffffffffffffffffffffffff1614156121b0576040517f08c379a00000000000000000000000000000000000000000000000000000000081526004016121a790614fe7565b60405180910390fd5b6121b981612a35565b50565b6121c4610fa7565b15612204576040517f08c379a00000000000000000000000000000000000000000000000000000000081526004016121fb90615027565b60405180910390fd5b600061220f82610fbe565b905073__$466d0af6b863105b2d93eed45cf7a289fc$__63224c025e8361010460ff60019054906101000a900473ffffffffffffffffffffffffffffffffffffffff1660ff60009054906101000a900460ff166101006040518663ffffffff1660e01b8152600401612285959493929190615364565b60006040518083038186803b15801561229d57600080fd5b505af41580156122b1573d6000803e3d6000fd5b505050506122d2813384600160405180602001604052806000815250612fd3565b33610103600084815260200190815260200160002060006101000a81548173ffffffffffffffffffffffffffffffffffffffff021916908373ffffffffffffffffffffffffffffffffffffffff1602179055507f704cf6cb1221490022185412a0f82fd80ca9ccf7b5f84482727d0f6924265bd88282333460405161235a949392919061523e565b60405180910390a15050565b60007f01ffc9a7000000000000000000000000000000000000000000000000000000007bffffffffffffffffffffffffffffffffffffffffffffffffffffffff1916827bffffffffffffffffffffffffffffffffffffffffffffffffffffffff1916149050919050565b600081600001549050919050565b600033905090565b815183511461242a576040517f08c379a000000000000000000000000000000000000000000000000000000000815260040161242190615167565b60405180910390fd5b600073ffffffffffffffffffffffffffffffffffffffff168473ffffffffffffffffffffffffffffffffffffffff16141561249a576040517f08c379a000000000000000000000000000000000000000000000000000000000815260040161249190615047565b60405180910390fd5b60006124a46123de565b90506124b4818787878787613258565b60005b84518110156126b45760008582815181106124fb577f4e487b7100000000000000000000000000000000000000000000000000000000600052603260045260246000fd5b602002602001015190506000858381518110612540577f4e487b7100000000000000000000000000000000000000000000000000000000600052603260045260246000fd5b6020026020010151905060006065600084815260200190815260200160002060008b73ffffffffffffffffffffffffffffffffffffffff1673ffffffffffffffffffffffffffffffffffffffff168152602001908152602001600020549050818110156125e2576040517f08c379a00000000000000000000000000000000000000000000000000000000081526004016125d9906150a7565b60405180910390fd5b8181036065600085815260200190815260200160002060008c73ffffffffffffffffffffffffffffffffffffffff1673ffffffffffffffffffffffffffffffffffffffff16815260200190815260200160002081905550816065600085815260200190815260200160002060008b73ffffffffffffffffffffffffffffffffffffffff1673ffffffffffffffffffffffffffffffffffffffff168152602001908152602001600020600082825461269991906156d4565b92505081905550505050806126ad90615870565b90506124b7565b508473ffffffffffffffffffffffffffffffffffffffff168673ffffffffffffffffffffffffffffffffffffffff168273ffffffffffffffffffffffffffffffffffffffff167f4a39dc06d4c0dbc64b70af90fd698a233a518aa5d07e595d983b8c0526c8f7fb878760405161272b929190614ef3565b60405180910390a4612741818787878787613260565b505050505050565b612751610fa7565b612790576040517f08c379a000000000000000000000000000000000000000000000000000000000815260040161278790614fa7565b60405180910390fd5b6000609760006101000a81548160ff0219169083151502179055507f5db9ee0a495bf2e6ff9c91a7834c1ba4fdd244a5e8aa4e537bd38aeae4b073aa6127d46123de565b6040516127e19190614ce8565b60405180910390a1565b60006127f630613447565b15905090565b600060019054906101000a900460ff166128245760008054906101000a900460ff161561282d565b61282c6127eb565b5b61286c576040517f08c379a000000000000000000000000000000000000000000000000000000000815260040161286390615087565b60405180910390fd5b60008060019054906101000a900460ff1615905080156128bc576001600060016101000a81548160ff02191690831515021790555060016000806101000a81548160ff0219169083151502179055505b6128c461345a565b6128ec836040516020016128d89190614ca2565b604051602081830303815290604052613546565b6040518060400160405280600a81526020017f4d7573697876657273650000000000000000000000000000000000000000000081525060fb9080519060200190612937929190613bde565b506040518060400160405280600381526020017f4d5856000000000000000000000000000000000000000000000000000000000081525060fc9080519060200190612983929190613bde565b508160fd908051906020019061299a929190613bde565b508260fe90805190602001906129b1929190613bde565b50600260ff60006101000a81548160ff021916908360ff1602179055503060ff60016101000a81548173ffffffffffffffffffffffffffffffffffffffff021916908373ffffffffffffffffffffffffffffffffffffffff1602179055508015612a305760008060016101000a81548160ff0219169083151502179055505b505050565b600060c960009054906101000a900473ffffffffffffffffffffffffffffffffffffffff1690508160c960006101000a81548173ffffffffffffffffffffffffffffffffffffffff021916908373ffffffffffffffffffffffffffffffffffffffff1602179055508173ffffffffffffffffffffffffffffffffffffffff168173ffffffffffffffffffffffffffffffffffffffff167f8be0079c531659141344cd1fd0a4f28419497f9722a3daafe3b4186f6b6457e060405160405180910390a35050565b612b03610fa7565b15612b43576040517f08c379a0000000000000000000000000000000000000000000000000000000008152600401612b3a90615027565b60405180910390fd5b6001609760006101000a81548160ff0219169083151502179055507f62e78cea01bee320cd4e420270b5ea74000d11b0c9f74754ebdbfc544b05a258612b876123de565b604051612b949190614ce8565b60405180910390a1565b6001816000016000828254019250508190555050565b8061010260008481526020019081526020016000209080519060200190612bdc929190613bde565b505050565b600073ffffffffffffffffffffffffffffffffffffffff168473ffffffffffffffffffffffffffffffffffffffff161415612c51576040517f08c379a0000000000000000000000000000000000000000000000000000000008152600401612c4890615187565b60405180910390fd5b8151835114612c95576040517f08c379a0000000000000000000000000000000000000000000000000000000008152600401612c8c90615167565b60405180910390fd5b6000612c9f6123de565b9050612cb081600087878787613258565b60005b8451811015612db657838181518110612cf5577f4e487b7100000000000000000000000000000000000000000000000000000000600052603260045260246000fd5b602002602001015160656000878481518110612d3a577f4e487b7100000000000000000000000000000000000000000000000000000000600052603260045260246000fd5b6020026020010151815260200190815260200160002060008873ffffffffffffffffffffffffffffffffffffffff1673ffffffffffffffffffffffffffffffffffffffff1681526020019081526020016000206000828254612d9c91906156d4565b925050819055508080612dae90615870565b915050612cb3565b508473ffffffffffffffffffffffffffffffffffffffff16600073ffffffffffffffffffffffffffffffffffffffff168273ffffffffffffffffffffffffffffffffffffffff167f4a39dc06d4c0dbc64b70af90fd698a233a518aa5d07e595d983b8c0526c8f7fb8787604051612e2e929190614ef3565b60405180910390a4612e4581600087878787613260565b5050505050565b8173ffffffffffffffffffffffffffffffffffffffff168373ffffffffffffffffffffffffffffffffffffffff161415612ebb576040517f08c379a0000000000000000000000000000000000000000000000000000000008152600401612eb290615127565b60405180910390fd5b80606660008573ffffffffffffffffffffffffffffffffffffffff1673ffffffffffffffffffffffffffffffffffffffff16815260200190815260200160002060008473ffffffffffffffffffffffffffffffffffffffff1673ffffffffffffffffffffffffffffffffffffffff16815260200190815260200160002060006101000a81548160ff0219169083151502179055508173ffffffffffffffffffffffffffffffffffffffff168373ffffffffffffffffffffffffffffffffffffffff167f17307eab39ab6107e8899845ad3d59bd9653f200f220920489ca2b5937696c3183604051612fac9190614f2a565b60405180910390a3505050565b8060679080519060200190612fcf929190613bde565b5050565b600073ffffffffffffffffffffffffffffffffffffffff168473ffffffffffffffffffffffffffffffffffffffff161415613043576040517f08c379a000000000000000000000000000000000000000000000000000000000815260040161303a90615047565b60405180910390fd5b600061304d6123de565b905061306d81878761305e886135b1565b613067886135b1565b87613258565b60006065600086815260200190815260200160002060008873ffffffffffffffffffffffffffffffffffffffff1673ffffffffffffffffffffffffffffffffffffffff16815260200190815260200160002054905083811015613105576040517f08c379a00000000000000000000000000000000000000000000000000000000081526004016130fc906150a7565b60405180910390fd5b8381036065600087815260200190815260200160002060008973ffffffffffffffffffffffffffffffffffffffff1673ffffffffffffffffffffffffffffffffffffffff16815260200190815260200160002081905550836065600087815260200190815260200160002060008873ffffffffffffffffffffffffffffffffffffffff1673ffffffffffffffffffffffffffffffffffffffff16815260200190815260200160002060008282546131bc91906156d4565b925050819055508573ffffffffffffffffffffffffffffffffffffffff168773ffffffffffffffffffffffffffffffffffffffff168373ffffffffffffffffffffffffffffffffffffffff167fc3d58168c5ae7397731d063d5bbf3d657854427343f4c083240f7aacaa2d0f6288886040516132399291906153b7565b60405180910390a461324f828888888888613677565b50505050505050565b505050505050565b61327f8473ffffffffffffffffffffffffffffffffffffffff16613447565b1561343f578373ffffffffffffffffffffffffffffffffffffffff1663bc197c8187878686866040518663ffffffff1660e01b81526004016132c5959493929190614dc4565b602060405180830381600087803b1580156132df57600080fd5b505af192505050801561331057506040513d601f19601f8201168201806040525081019061330d91906142ec565b60015b6133b65761331c615946565b806308c379a014156133795750613331615ea5565b8061333c575061337b565b806040517f08c379a00000000000000000000000000000000000000000000000000000000081526004016133709190614f45565b60405180910390fd5b505b6040517f08c379a00000000000000000000000000000000000000000000000000000000081526004016133ad90614f67565b60405180910390fd5b63bc197c8160e01b7bffffffffffffffffffffffffffffffffffffffffffffffffffffffff1916817bffffffffffffffffffffffffffffffffffffffffffffffffffffffff19161461343d576040517f08c379a000000000000000000000000000000000000000000000000000000000815260040161343490614f87565b60405180910390fd5b505b505050505050565b600080823b905060008111915050919050565b600060019054906101000a900460ff166134825760008054906101000a900460ff161561348b565b61348a6127eb565b5b6134ca576040517f08c379a00000000000000000000000000000000000000000000000000000000081526004016134c190615087565b60405180910390fd5b60008060019054906101000a900460ff16159050801561351a576001600060016101000a81548160ff02191690831515021790555060016000806101000a81548160ff0219169083151502179055505b61352261385e565b80156135435760008060016101000a81548160ff0219169083151502179055505b50565b600060019054906101000a900460ff16613595576040517f08c379a000000000000000000000000000000000000000000000000000000000815260040161358c90615107565b60405180910390fd5b61359d613952565b6135a56139a3565b6135ae816139f4565b50565b60606000600167ffffffffffffffff8111156135f6577f4e487b7100000000000000000000000000000000000000000000000000000000600052604160045260246000fd5b6040519080825280602002602001820160405280156136245781602001602082028036833780820191505090505b5090508281600081518110613662577f4e487b7100000000000000000000000000000000000000000000000000000000600052603260045260246000fd5b60200260200101818152505080915050919050565b6136968473ffffffffffffffffffffffffffffffffffffffff16613447565b15613856578373ffffffffffffffffffffffffffffffffffffffff1663f23a6e6187878686866040518663ffffffff1660e01b81526004016136dc959493929190614e2c565b602060405180830381600087803b1580156136f657600080fd5b505af192505050801561372757506040513d601f19601f8201168201806040525081019061372491906142ec565b60015b6137cd57613733615946565b806308c379a014156137905750613748615ea5565b806137535750613792565b806040517f08c379a00000000000000000000000000000000000000000000000000000000081526004016137879190614f45565b60405180910390fd5b505b6040517f08c379a00000000000000000000000000000000000000000000000000000000081526004016137c490614f67565b60405180910390fd5b63f23a6e6160e01b7bffffffffffffffffffffffffffffffffffffffffffffffffffffffff1916817bffffffffffffffffffffffffffffffffffffffffffffffffffffffff191614613854576040517f08c379a000000000000000000000000000000000000000000000000000000000815260040161384b90614f87565b60405180910390fd5b505b505050505050565b600060019054906101000a900460ff166138865760008054906101000a900460ff161561388f565b61388e6127eb565b5b6138ce576040517f08c379a00000000000000000000000000000000000000000000000000000000081526004016138c590615087565b60405180910390fd5b60008060019054906101000a900460ff16159050801561391e576001600060016101000a81548160ff02191690831515021790555060016000806101000a81548160ff0219169083151502179055505b613926613a4f565b61392e613ab0565b801561394f5760008060016101000a81548160ff0219169083151502179055505b50565b600060019054906101000a900460ff166139a1576040517f08c379a000000000000000000000000000000000000000000000000000000000815260040161399890615107565b60405180910390fd5b565b600060019054906101000a900460ff166139f2576040517f08c379a00000000000000000000000000000000000000000000000000000000081526004016139e990615107565b60405180910390fd5b565b600060019054906101000a900460ff16613a43576040517f08c379a0000000000000000000000000000000000000000000000000000000008152600401613a3a90615107565b60405180910390fd5b613a4c81612fb9565b50565b600060019054906101000a900460ff16613a9e576040517f08c379a0000000000000000000000000000000000000000000000000000000008152600401613a9590615107565b60405180910390fd5b613aa6613952565b613aae613b11565b565b600060019054906101000a900460ff16613aff576040517f08c379a0000000000000000000000000000000000000000000000000000000008152600401613af690615107565b60405180910390fd5b613b07613952565b613b0f613b7d565b565b600060019054906101000a900460ff16613b60576040517f08c379a0000000000000000000000000000000000000000000000000000000008152600401613b5790615107565b60405180910390fd5b6000609760006101000a81548160ff021916908315150217905550565b600060019054906101000a900460ff16613bcc576040517f08c379a0000000000000000000000000000000000000000000000000000000008152600401613bc390615107565b60405180910390fd5b613bdc613bd76123de565b612a35565b565b828054613bea9061580d565b90600052602060002090601f016020900481019282613c0c5760008555613c53565b82601f10613c2557805160ff1916838001178555613c53565b82800160010185558215613c53579182015b82811115613c52578251825591602001919060010190613c37565b5b509050613c609190613c64565b5090565b5b80821115613c7d576000816000905550600101613c65565b5090565b6000613c94613c8f846154c1565b61549c565b90508083825260208201905082856020860282011115613cb357600080fd5b60005b85811015613ce35781613cc98882613dd5565b845260208401935060208301925050600181019050613cb6565b5050509392505050565b6000613d00613cfb846154ed565b61549c565b90508083825260208201905082856020860282011115613d1f57600080fd5b60005b85811015613d4f5781613d358882613fd9565b845260208401935060208301925050600181019050613d22565b5050509392505050565b6000613d6c613d6784615519565b61549c565b905082815260208101848484011115613d8457600080fd5b613d8f8482856157cb565b509392505050565b6000613daa613da58461554a565b61549c565b905082815260208101848484011115613dc257600080fd5b613dcd8482856157cb565b509392505050565b600081359050613de481615f3b565b92915050565b60008083601f840112613dfc57600080fd5b8235905067ffffffffffffffff811115613e1557600080fd5b602083019150836020820283011115613e2d57600080fd5b9250929050565b600082601f830112613e4557600080fd5b8135613e55848260208601613c81565b91505092915050565b60008083601f840112613e7057600080fd5b8235905067ffffffffffffffff811115613e8957600080fd5b602083019150836020820283011115613ea157600080fd5b9250929050565b600082601f830112613eb957600080fd5b8135613ec9848260208601613ced565b91505092915050565b600081359050613ee181615f52565b92915050565b600081519050613ef681615f52565b92915050565b600081359050613f0b81615f69565b92915050565b600081519050613f2081615f69565b92915050565b600082601f830112613f3757600080fd5b8135613f47848260208601613d59565b91505092915050565b60008083601f840112613f6257600080fd5b8235905067ffffffffffffffff811115613f7b57600080fd5b602083019150836001820283011115613f9357600080fd5b9250929050565b600082601f830112613fab57600080fd5b8135613fbb848260208601613d97565b91505092915050565b600081359050613fd381615f80565b92915050565b600081359050613fe881615f97565b92915050565b600081519050613ffd81615f97565b92915050565b60006020828403121561401557600080fd5b600061402384828501613dd5565b91505092915050565b6000806040838503121561403f57600080fd5b600061404d85828601613dd5565b925050602061405e85828601613dd5565b9150509250929050565b600080600080600060a0868803121561408057600080fd5b600061408e88828901613dd5565b955050602061409f88828901613dd5565b945050604086013567ffffffffffffffff8111156140bc57600080fd5b6140c888828901613ea8565b935050606086013567ffffffffffffffff8111156140e557600080fd5b6140f188828901613ea8565b925050608086013567ffffffffffffffff81111561410e57600080fd5b61411a88828901613f26565b9150509295509295909350565b600080600080600060a0868803121561413f57600080fd5b600061414d88828901613dd5565b955050602061415e88828901613dd5565b945050604061416f88828901613fd9565b935050606061418088828901613fd9565b925050608086013567ffffffffffffffff81111561419d57600080fd5b6141a988828901613f26565b9150509295509295909350565b600080604083850312156141c957600080fd5b60006141d785828601613dd5565b92505060206141e885828601613ed2565b9150509250929050565b6000806040838503121561420557600080fd5b600061421385828601613dd5565b925050602061422485828601613fd9565b9150509250929050565b6000806040838503121561424157600080fd5b600083013567ffffffffffffffff81111561425b57600080fd5b61426785828601613e34565b925050602083013567ffffffffffffffff81111561428457600080fd5b61429085828601613ea8565b9150509250929050565b6000602082840312156142ac57600080fd5b60006142ba84828501613ee7565b91505092915050565b6000602082840312156142d557600080fd5b60006142e384828501613efc565b91505092915050565b6000602082840312156142fe57600080fd5b600061430c84828501613f11565b91505092915050565b6000806020838503121561432857600080fd5b600083013567ffffffffffffffff81111561434257600080fd5b61434e85828601613f50565b92509250509250929050565b60006020828403121561436c57600080fd5b600082013567ffffffffffffffff81111561438657600080fd5b61439284828501613f9a565b91505092915050565b600080604083850312156143ae57600080fd5b600083013567ffffffffffffffff8111156143c857600080fd5b6143d485828601613f9a565b925050602083013567ffffffffffffffff8111156143f157600080fd5b6143fd85828601613f9a565b9150509250929050565b60008060008060008060008060008060006101008c8e03121561442957600080fd5b60006144378e828f01613fc4565b9b505060206144488e828f01613fd9565b9a505060408c013567ffffffffffffffff81111561446557600080fd5b6144718e828f01613f50565b995099505060608c013567ffffffffffffffff81111561449057600080fd5b61449c8e828f01613dea565b975097505060808c013567ffffffffffffffff8111156144bb57600080fd5b6144c78e828f01613e5e565b955095505060a06144da8e828f01613fc4565b93505060c06144eb8e828f01613ed2565b92505060e06144fc8e828f01613fd9565b9150509295989b509295989b9093969950565b60006020828403121561452157600080fd5b600061452f84828501613fd9565b91505092915050565b6000806040838503121561454b57600080fd5b600061455985828601613fd9565b925050602061456a85828601613fd9565b9150509250929050565b6000806040838503121561458757600080fd5b600061459585828601613fee565b92505060206145a685828601613fee565b9150509250929050565b60006145bc838361464c565b60208301905092915050565b60006145d48383614c0a565b60408301905092915050565b60006145ec8383614c57565b60208301905092915050565b60006146048383614c66565b60208301905092915050565b6146198161573c565b82525050565b6146288161573c565b82525050565b6146378161573c565b82525050565b6146468161572a565b82525050565b6146558161572a565b82525050565b60006146678385615624565b93506146728261557b565b8060005b858110156146ab5761468882846156a6565b61469288826145b0565b975061469d836155f0565b925050600181019050614676565b5085925050509392505050565b60006146c3826155c4565b6146cd8185615635565b93506146d883615585565b8060005b838110156147095781516146f088826145c8565b97506146fb836155fd565b9250506001810190506146dc565b5085935050505092915050565b60006147228385615646565b935061472d82615595565b8060005b858110156147665761474382846156bd565b61474d88826145e0565b97506147588361560a565b925050600181019050614731565b5085925050509392505050565b600061477e826155cf565b6147888185615657565b93506147938361559f565b8060005b838110156147c45781516147ab88826145f8565b97506147b683615617565b925050600181019050614797565b5085935050505092915050565b6147da8161574e565b82525050565b60006147eb826155da565b6147f58185615668565b93506148058185602086016157da565b61480e81615968565b840191505092915050565b8082525050565b8082525050565b60006148338385615679565b93506148408385846157cb565b61484983615968565b840190509392505050565b6000614860838561568a565b935061486d8385846157cb565b61487683615968565b840190509392505050565b600061488c826155e5565b6148968185615679565b93506148a68185602086016157da565b6148af81615968565b840191505092915050565b60006148c5826155e5565b6148cf818561569b565b93506148df8185602086016157da565b80840191505092915050565b600081546148f88161580d565b614902818661569b565b9450600182166000811461491d576001811461492e57614961565b60ff19831686528186019350614961565b614937856155af565b60005b838110156149595781548189015260018201915060208101905061493a565b838801955050505b50505092915050565b6000614977603483615679565b915061498282615986565b604082019050919050565b600061499a602883615679565b91506149a5826159d5565b604082019050919050565b60006149bd601483615679565b91506149c882615a24565b602082019050919050565b60006149e0602b83615679565b91506149eb82615a4d565b604082019050919050565b6000614a03602683615679565b9150614a0e82615a9c565b604082019050919050565b6000614a26602983615679565b9150614a3182615aeb565b604082019050919050565b6000614a49601083615679565b9150614a5482615b3a565b602082019050919050565b6000614a6c602583615679565b9150614a7782615b63565b604082019050919050565b6000614a8f603283615679565b9150614a9a82615bb2565b604082019050919050565b6000614ab2602e83615679565b9150614abd82615c01565b604082019050919050565b6000614ad5602a83615679565b9150614ae082615c50565b604082019050919050565b6000614af8602083615679565b9150614b0382615c9f565b602082019050919050565b6000614b1b600983615679565b9150614b2682615cc8565b602082019050919050565b6000614b3e602b83615679565b9150614b4982615cf1565b604082019050919050565b6000614b6160048361569b565b9150614b6c82615d40565b600482019050919050565b6000614b84602983615679565b9150614b8f82615d69565b604082019050919050565b6000614ba7602983615679565b9150614bb282615db8565b604082019050919050565b6000614bca602883615679565b9150614bd582615e07565b604082019050919050565b6000614bed602183615679565b9150614bf882615e56565b604082019050919050565b8082525050565b604082016000820151614c206000850182614610565b506020820151614c336020850182614c66565b50505050565b614c4281615786565b82525050565b614c5181615786565b82525050565b614c6081615786565b82525050565b614c6f816157b4565b82525050565b614c7e816157b4565b82525050565b614c8d816157b4565b82525050565b614c9c816157be565b82525050565b6000614cae82846148ba565b9150614cb982614b54565b915081905092915050565b6000614cd082856148eb565b9150614cdc82846148eb565b91508190509392505050565b6000602082019050614cfd600083018461463d565b92915050565b6000604082019050614d18600083018561461f565b614d256020830184614c75565b9392505050565b6000608082019050614d41600083018761462e565b614d4e6020830186614c84565b614d5b6040830185614820565b614d686060830184614c03565b95945050505050565b600060a082019050614d86600083018861462e565b614d936020830187614c84565b614da06040830186614820565b614dad6060830185614c84565b614dba6080830184614c03565b9695505050505050565b600060a082019050614dd9600083018861463d565b614de6602083018761463d565b8181036040830152614df88186614773565b90508181036060830152614e0c8185614773565b90508181036080830152614e2081846147e0565b90509695505050505050565b600060a082019050614e41600083018861463d565b614e4e602083018761463d565b614e5b6040830186614c75565b614e686060830185614c75565b8181036080830152614e7a81846147e0565b90509695505050505050565b6000604082019050614e9b600083018561463d565b614ea86020830184614c75565b9392505050565b60006020820190508181036000830152614ec981846146b8565b905092915050565b60006020820190508181036000830152614eeb8184614773565b905092915050565b60006040820190508181036000830152614f0d8185614773565b90508181036020830152614f218184614773565b90509392505050565b6000602082019050614f3f60008301846147d1565b92915050565b60006020820190508181036000830152614f5f8184614881565b905092915050565b60006020820190508181036000830152614f808161496a565b9050919050565b60006020820190508181036000830152614fa08161498d565b9050919050565b60006020820190508181036000830152614fc0816149b0565b9050919050565b60006020820190508181036000830152614fe0816149d3565b9050919050565b60006020820190508181036000830152615000816149f6565b9050919050565b6000602082019050818103600083015261502081614a19565b9050919050565b6000602082019050818103600083015261504081614a3c565b9050919050565b6000602082019050818103600083015261506081614a5f565b9050919050565b6000602082019050818103600083015261508081614a82565b9050919050565b600060208201905081810360008301526150a081614aa5565b9050919050565b600060208201905081810360008301526150c081614ac8565b9050919050565b600060208201905081810360008301526150e081614aeb565b9050919050565b6000602082019050818103600083015261510081614b0e565b9050919050565b6000602082019050818103600083015261512081614b31565b9050919050565b6000602082019050818103600083015261514081614b77565b9050919050565b6000602082019050818103600083015261516081614b9a565b9050919050565b6000602082019050818103600083015261518081614bbd565b9050919050565b600060208201905081810360008301526151a081614be0565b9050919050565b600060c0820190506151bc600083018c614c48565b6151c9602083018b614c84565b81810360408301526151dc81898b614854565b905081810360608301526151f181878961465b565b90508181036080830152615206818587614716565b905061521560a0830184614c48565b9a9950505050505050505050565b60006020820190506152386000830184614c75565b92915050565b60006080820190506152536000830187614c75565b615260602083018661463d565b61526d604083018561463d565b61527a6060830184614c75565b95945050505050565b600060c0820190506152986000830189614c75565b6152a5602083018861463d565b6152b26040830187614c39565b6152bf60608301866147d1565b6152cc60808301856147d1565b6152d960a0830184614c75565b979650505050505050565b60006080820190506152f96000830189614c84565b818103602083015261530c81878961465b565b90508181036040830152615321818587614716565b90506153306060830184614819565b979650505050505050565b60006040820190506153506000830185614c75565b61535d60208301846147d1565b9392505050565b600060a0820190506153796000830188614c84565b6153866020830187614820565b615393604083018661462e565b6153a06060830185614c93565b6153ad6080830184614c03565b9695505050505050565b60006040820190506153cc6000830185614c75565b6153d96020830184614c75565b9392505050565b60006060820190506153f56000830187614c75565b6154026020830186614c75565b8181036040830152615415818486614827565b905095945050505050565b60006060820190506154356000830186614c75565b6154426020830185614c75565b61544f6040830184614c75565b949350505050565b600060808201905061546c6000830187614c75565b6154796020830186614c75565b6154866040830185614c75565b6154936060830184614c75565b95945050505050565b60006154a66154b7565b90506154b2828261583f565b919050565b6000604051905090565b600067ffffffffffffffff8211156154dc576154db615917565b5b602082029050602081019050919050565b600067ffffffffffffffff82111561550857615507615917565b5b602082029050602081019050919050565b600067ffffffffffffffff82111561553457615533615917565b5b61553d82615968565b9050602081019050919050565b600067ffffffffffffffff82111561556557615564615917565b5b61556e82615968565b9050602081019050919050565b6000819050919050565b6000819050602082019050919050565b6000819050919050565b6000819050602082019050919050565b60008190508160005260206000209050919050565b600081519050919050565b600081519050919050565b600081519050919050565b600081519050919050565b6000602082019050919050565b6000602082019050919050565b6000602082019050919050565b6000602082019050919050565b600082825260208201905092915050565b600082825260208201905092915050565b600082825260208201905092915050565b600082825260208201905092915050565b600082825260208201905092915050565b600082825260208201905092915050565b600082825260208201905092915050565b600081905092915050565b60006156b56020840184613dd5565b905092915050565b60006156cc6020840184613fc4565b905092915050565b60006156df826157b4565b91506156ea836157b4565b9250827fffffffffffffffffffffffffffffffffffffffffffffffffffffffffffffffff0382111561571f5761571e6158b9565b5b828201905092915050565b600061573582615794565b9050919050565b600061574782615794565b9050919050565b60008115159050919050565b60007fffffffff0000000000000000000000000000000000000000000000000000000082169050919050565b600061ffff82169050919050565b600073ffffffffffffffffffffffffffffffffffffffff82169050919050565b6000819050919050565b600060ff82169050919050565b82818337600083830152505050565b60005b838110156157f85780820151818401526020810190506157dd565b83811115615807576000848401525b50505050565b6000600282049050600182168061582557607f821691505b60208210811415615839576158386158e8565b5b50919050565b61584882615968565b810181811067ffffffffffffffff8211171561586757615866615917565b5b80604052505050565b600061587b826157b4565b91507fffffffffffffffffffffffffffffffffffffffffffffffffffffffffffffffff8214156158ae576158ad6158b9565b5b600182019050919050565b7f4e487b7100000000000000000000000000000000000000000000000000000000600052601160045260246000fd5b7f4e487b7100000000000000000000000000000000000000000000000000000000600052602260045260246000fd5b7f4e487b7100000000000000000000000000000000000000000000000000000000600052604160045260246000fd5b600060033d11156159655760046000803e615962600051615979565b90505b90565b6000601f19601f8301169050919050565b60008160e01c9050919050565b7f455243313135353a207472616e7366657220746f206e6f6e204552433131353560008201527f526563656976657220696d706c656d656e746572000000000000000000000000602082015250565b7f455243313135353a204552433131353552656365697665722072656a6563746560008201527f6420746f6b656e73000000000000000000000000000000000000000000000000602082015250565b7f5061757361626c653a206e6f7420706175736564000000000000000000000000600082015250565b7f455243313135353a2062616c616e636520717565727920666f7220746865207a60008201527f65726f2061646472657373000000000000000000000000000000000000000000602082015250565b7f4f776e61626c653a206e6577206f776e657220697320746865207a65726f206160008201527f6464726573730000000000000000000000000000000000000000000000000000602082015250565b7f455243313135353a2063616c6c6572206973206e6f74206f776e6572206e6f7260008201527f20617070726f7665640000000000000000000000000000000000000000000000602082015250565b7f5061757361626c653a2070617573656400000000000000000000000000000000600082015250565b7f455243313135353a207472616e7366657220746f20746865207a65726f20616460008201527f6472657373000000000000000000000000000000000000000000000000000000602082015250565b7f455243313135353a207472616e736665722063616c6c6572206973206e6f742060008201527f6f776e6572206e6f7220617070726f7665640000000000000000000000000000602082015250565b7f496e697469616c697a61626c653a20636f6e747261637420697320616c72656160008201527f647920696e697469616c697a6564000000000000000000000000000000000000602082015250565b7f455243313135353a20696e73756666696369656e742062616c616e636520666f60008201527f72207472616e7366657200000000000000000000000000000000000000000000602082015250565b7f4f776e61626c653a2063616c6c6572206973206e6f7420746865206f776e6572600082015250565b7f546f6b656e20444e450000000000000000000000000000000000000000000000600082015250565b7f496e697469616c697a61626c653a20636f6e7472616374206973206e6f74206960008201527f6e697469616c697a696e67000000000000000000000000000000000000000000602082015250565b7f7b69647d00000000000000000000000000000000000000000000000000000000600082015250565b7f455243313135353a2073657474696e6720617070726f76616c2073746174757360008201527f20666f722073656c660000000000000000000000000000000000000000000000602082015250565b7f455243313135353a206163636f756e747320616e6420696473206c656e67746860008201527f206d69736d617463680000000000000000000000000000000000000000000000602082015250565b7f455243313135353a2069647320616e6420616d6f756e7473206c656e6774682060008201527f6d69736d61746368000000000000000000000000000000000000000000000000602082015250565b7f455243313135353a206d696e7420746f20746865207a65726f2061646472657360008201527f7300000000000000000000000000000000000000000000000000000000000000602082015250565b600060443d1015615eb557615f38565b615ebd6154b7565b60043d036004823e80513d602482011167ffffffffffffffff82111715615ee5575050615f38565b808201805167ffffffffffffffff811115615f035750505050615f38565b80602083010160043d038501811115615f20575050505050615f38565b615f2f8260200185018661583f565b82955050505050505b90565b615f448161572a565b8114615f4f57600080fd5b50565b615f5b8161574e565b8114615f6657600080fd5b50565b615f728161575a565b8114615f7d57600080fd5b50565b615f8981615786565b8114615f9457600080fd5b50565b615fa0816157b4565b8114615fab57600080fd5b5056fea2646970667358221220c335af18aee0bd48cb4884bfb87543e378a19c0a74c176f9c12f64a62a1eafde64736f6c63430008040033",
  "linkReferences": {
    "contracts/v1/lib/MusixverseLib.sol": {
      "MusixverseLib": [
        {
          "length": 20,
          "start": 4571
        },
        {
          "length": 20,
          "start": 5662
        },
        {
          "length": 20,
          "start": 6284
        },
        {
          "length": 20,
          "start": 8007
        },
        {
          "length": 20,
          "start": 8756
        }
      ]
    }
  },
  "deployedLinkReferences": {
    "contracts/v1/lib/MusixverseLib.sol": {
      "MusixverseLib": [
        {
          "length": 20,
          "start": 4538
        },
        {
          "length": 20,
          "start": 5629
        },
        {
          "length": 20,
          "start": 6251
        },
        {
          "length": 20,
          "start": 7974
        },
        {
          "length": 20,
          "start": 8723
        }
      ]
    }
  }
}