{
  "_format": "hh-sol-artifact-1",
  "contractName": "MusixverseV1",
  "sourceName": "contracts/v1/MusixverseV1.sol",
  "abi": [
    {
      "anonymous": false,
      "inputs": [
        {
          "indexed": true,
          "internalType": "address",
          "name": "account",
          "type": "address"
        },
        {
          "indexed": true,
          "internalType": "address",
          "name": "operator",
          "type": "address"
        },
        {
          "indexed": false,
          "internalType": "bool",
          "name": "approved",
          "type": "bool"
        }
      ],
      "name": "ApprovalForAll",
      "type": "event"
    },
    {
      "anonymous": false,
      "inputs": [
        {
          "indexed": false,
          "internalType": "uint256",
          "name": "tokenId",
          "type": "uint256"
        },
        {
          "indexed": false,
          "internalType": "uint256",
          "name": "price",
          "type": "uint256"
        },
        {
          "indexed": false,
          "internalType": "uint256",
          "name": "createTime",
          "type": "uint256"
        },
        {
          "indexed": false,
          "internalType": "bool",
          "name": "onSale",
          "type": "bool"
        }
      ],
      "name": "MusicNFTCreated",
      "type": "event"
    },
    {
      "anonymous": false,
      "inputs": [
        {
          "indexed": false,
          "internalType": "uint256",
          "name": "tokenId",
          "type": "uint256"
        },
        {
          "indexed": false,
          "internalType": "bool",
          "name": "onSale",
          "type": "bool"
        }
      ],
      "name": "OnSaleUpdated",
      "type": "event"
    },
    {
      "anonymous": false,
      "inputs": [
        {
          "indexed": true,
          "internalType": "address",
          "name": "previousOwner",
          "type": "address"
        },
        {
          "indexed": true,
          "internalType": "address",
          "name": "newOwner",
          "type": "address"
        }
      ],
      "name": "OwnershipTransferred",
      "type": "event"
    },
    {
      "anonymous": false,
      "inputs": [
        {
          "indexed": false,
          "internalType": "address",
          "name": "account",
          "type": "address"
        }
      ],
      "name": "Paused",
      "type": "event"
    },
    {
      "anonymous": false,
      "inputs": [
        {
          "indexed": false,
          "internalType": "uint256",
          "name": "tokenId",
          "type": "uint256"
        },
        {
          "indexed": false,
          "internalType": "uint256",
          "name": "price",
          "type": "uint256"
        }
      ],
      "name": "PriceUpdated",
      "type": "event"
    },
    {
      "anonymous": false,
      "inputs": [
        {
          "indexed": false,
          "internalType": "address",
          "name": "",
          "type": "address"
        },
        {
          "indexed": false,
          "internalType": "uint256",
          "name": "",
          "type": "uint256"
        }
      ],
      "name": "Received",
      "type": "event"
    },
    {
      "anonymous": false,
      "inputs": [
        {
          "indexed": false,
          "internalType": "uint256",
          "name": "tokenId",
          "type": "uint256"
        },
        {
          "indexed": false,
          "internalType": "address",
          "name": "previousOwner",
          "type": "address"
        },
        {
          "indexed": false,
          "internalType": "uint256",
          "name": "price",
          "type": "uint256"
        },
        {
          "indexed": false,
          "internalType": "address",
          "name": "newOwner",
          "type": "address"
        }
      ],
      "name": "Sale",
      "type": "event"
    },
    {
      "anonymous": false,
      "inputs": [
        {
          "indexed": true,
          "internalType": "address",
          "name": "operator",
          "type": "address"
        },
        {
          "indexed": true,
          "internalType": "address",
          "name": "from",
          "type": "address"
        },
        {
          "indexed": true,
          "internalType": "address",
          "name": "to",
          "type": "address"
        },
        {
          "indexed": false,
          "internalType": "uint256[]",
          "name": "ids",
          "type": "uint256[]"
        },
        {
          "indexed": false,
          "internalType": "uint256[]",
          "name": "values",
          "type": "uint256[]"
        }
      ],
      "name": "TransferBatch",
      "type": "event"
    },
    {
      "anonymous": false,
      "inputs": [
        {
          "indexed": true,
          "internalType": "address",
          "name": "operator",
          "type": "address"
        },
        {
          "indexed": true,
          "internalType": "address",
          "name": "from",
          "type": "address"
        },
        {
          "indexed": true,
          "internalType": "address",
          "name": "to",
          "type": "address"
        },
        {
          "indexed": false,
          "internalType": "uint256",
          "name": "id",
          "type": "uint256"
        },
        {
          "indexed": false,
          "internalType": "uint256",
          "name": "value",
          "type": "uint256"
        }
      ],
      "name": "TransferSingle",
      "type": "event"
    },
    {
      "anonymous": false,
      "inputs": [
        {
          "indexed": false,
          "internalType": "string",
          "name": "value",
          "type": "string"
        },
        {
          "indexed": true,
          "internalType": "uint256",
          "name": "id",
          "type": "uint256"
        }
      ],
      "name": "URI",
      "type": "event"
    },
    {
      "anonymous": false,
      "inputs": [
        {
          "indexed": false,
          "internalType": "address",
          "name": "account",
          "type": "address"
        }
      ],
      "name": "Unpaused",
      "type": "event"
    },
    {
      "inputs": [
        {
          "internalType": "address",
          "name": "account",
          "type": "address"
        },
        {
          "internalType": "uint256",
          "name": "id",
          "type": "uint256"
        }
      ],
      "name": "balanceOf",
      "outputs": [
        {
          "internalType": "uint256",
          "name": "",
          "type": "uint256"
        }
      ],
      "stateMutability": "view",
      "type": "function"
    },
    {
      "inputs": [
        {
          "internalType": "address[]",
          "name": "accounts",
          "type": "address[]"
        },
        {
          "internalType": "uint256[]",
          "name": "ids",
          "type": "uint256[]"
        }
      ],
      "name": "balanceOfBatch",
      "outputs": [
        {
          "internalType": "uint256[]",
          "name": "",
          "type": "uint256[]"
        }
      ],
      "stateMutability": "view",
      "type": "function"
    },
    {
      "inputs": [],
      "name": "baseURI",
      "outputs": [
        {
          "internalType": "string",
          "name": "",
          "type": "string"
        }
      ],
      "stateMutability": "view",
      "type": "function"
    },
    {
      "inputs": [],
      "name": "contractURI",
      "outputs": [
        {
          "internalType": "string",
          "name": "",
          "type": "string"
        }
      ],
      "stateMutability": "view",
      "type": "function"
    },
    {
      "inputs": [
        {
          "internalType": "uint256",
          "name": "tokenId",
          "type": "uint256"
        }
      ],
      "name": "getRoyaltyInfo",
      "outputs": [
        {
          "components": [
            {
              "internalType": "address payable",
              "name": "recipient",
              "type": "address"
            },
            {
              "internalType": "uint256",
              "name": "percentage",
              "type": "uint256"
            }
          ],
          "internalType": "struct MusixverseEternalStorage.RoyaltyInfo[]",
          "name": "",
          "type": "tuple[]"
        }
      ],
      "stateMutability": "view",
      "type": "function"
    },
    {
      "inputs": [
        {
          "internalType": "string",
          "name": "tokenMetadataURI",
          "type": "string"
        },
        {
          "internalType": "string",
          "name": "contractMetadataURI",
          "type": "string"
        }
      ],
      "name": "initialize",
      "outputs": [],
      "stateMutability": "nonpayable",
      "type": "function"
    },
    {
      "inputs": [
        {
          "internalType": "address",
          "name": "account",
          "type": "address"
        },
        {
          "internalType": "address",
          "name": "operator",
          "type": "address"
        }
      ],
      "name": "isApprovedForAll",
      "outputs": [
        {
          "internalType": "bool",
          "name": "",
          "type": "bool"
        }
      ],
      "stateMutability": "view",
      "type": "function"
    },
    {
      "inputs": [
        {
          "internalType": "uint16",
          "name": "amount",
          "type": "uint16"
        },
        {
          "internalType": "uint256",
          "name": "price",
          "type": "uint256"
        },
        {
          "internalType": "string[]",
          "name": "URIHashes",
          "type": "string[]"
        },
        {
          "internalType": "address[]",
          "name": "contributors",
          "type": "address[]"
        },
        {
          "internalType": "uint16[]",
          "name": "percentageContributions",
          "type": "uint16[]"
        },
        {
          "internalType": "uint16",
          "name": "resaleRoyaltyPercentage",
          "type": "uint16"
        },
        {
          "internalType": "bool",
          "name": "onSale",
          "type": "bool"
        }
      ],
      "name": "mintTrackNFT",
      "outputs": [],
      "stateMutability": "nonpayable",
      "type": "function"
    },
    {
      "inputs": [
        {
          "internalType": "uint256",
          "name": "",
          "type": "uint256"
        }
      ],
      "name": "musicNFTs",
      "outputs": [
        {
          "internalType": "uint256",
          "name": "price",
          "type": "uint256"
        },
        {
          "internalType": "address",
          "name": "artistAddress",
          "type": "address"
        },
        {
          "internalType": "uint16",
          "name": "resaleRoyaltyPercentage",
          "type": "uint16"
        },
        {
          "internalType": "bool",
          "name": "onSale",
          "type": "bool"
        },
        {
          "internalType": "bool",
          "name": "soldOnce",
          "type": "bool"
        }
      ],
      "stateMutability": "view",
      "type": "function"
    },
    {
      "inputs": [],
      "name": "mxvLatestTokenID",
      "outputs": [
        {
          "internalType": "uint256",
          "name": "_value",
          "type": "uint256"
        }
      ],
      "stateMutability": "view",
      "type": "function"
    },
    {
      "inputs": [],
      "name": "name",
      "outputs": [
        {
          "internalType": "string",
          "name": "",
          "type": "string"
        }
      ],
      "stateMutability": "view",
      "type": "function"
    },
    {
      "inputs": [],
      "name": "owner",
      "outputs": [
        {
          "internalType": "address",
          "name": "",
          "type": "address"
        }
      ],
      "stateMutability": "view",
      "type": "function"
    },
    {
      "inputs": [
        {
          "internalType": "uint256",
          "name": "tokenId",
          "type": "uint256"
        }
      ],
      "name": "ownerOf",
      "outputs": [
        {
          "internalType": "address",
          "name": "",
          "type": "address"
        }
      ],
      "stateMutability": "view",
      "type": "function"
    },
    {
      "inputs": [],
      "name": "pause",
      "outputs": [],
      "stateMutability": "nonpayable",
      "type": "function"
    },
    {
      "inputs": [],
      "name": "paused",
      "outputs": [
        {
          "internalType": "bool",
          "name": "",
          "type": "bool"
        }
      ],
      "stateMutability": "view",
      "type": "function"
    },
    {
      "inputs": [
        {
          "internalType": "uint256",
          "name": "tokenId",
          "type": "uint256"
        }
      ],
      "name": "purchaseMusicNFT",
      "outputs": [],
      "stateMutability": "payable",
      "type": "function"
    },
    {
      "inputs": [],
      "name": "renounceOwnership",
      "outputs": [],
      "stateMutability": "nonpayable",
      "type": "function"
    },
    {
      "inputs": [
        {
          "internalType": "uint256",
          "name": "",
          "type": "uint256"
        },
        {
          "internalType": "uint256",
          "name": "",
          "type": "uint256"
        }
      ],
      "name": "royalties",
      "outputs": [
        {
          "internalType": "address payable",
          "name": "recipient",
          "type": "address"
        },
        {
          "internalType": "uint256",
          "name": "percentage",
          "type": "uint256"
        }
      ],
      "stateMutability": "view",
      "type": "function"
    },
    {
      "inputs": [
        {
          "internalType": "address",
          "name": "from",
          "type": "address"
        },
        {
          "internalType": "address",
          "name": "to",
          "type": "address"
        },
        {
          "internalType": "uint256[]",
          "name": "ids",
          "type": "uint256[]"
        },
        {
          "internalType": "uint256[]",
          "name": "amounts",
          "type": "uint256[]"
        },
        {
          "internalType": "bytes",
          "name": "data",
          "type": "bytes"
        }
      ],
      "name": "safeBatchTransferFrom",
      "outputs": [],
      "stateMutability": "nonpayable",
      "type": "function"
    },
    {
      "inputs": [
        {
          "internalType": "address",
          "name": "from",
          "type": "address"
        },
        {
          "internalType": "address",
          "name": "to",
          "type": "address"
        },
        {
          "internalType": "uint256",
          "name": "id",
          "type": "uint256"
        },
        {
          "internalType": "uint256",
          "name": "amount",
          "type": "uint256"
        },
        {
          "internalType": "bytes",
          "name": "data",
          "type": "bytes"
        }
      ],
      "name": "safeTransferFrom",
      "outputs": [],
      "stateMutability": "nonpayable",
      "type": "function"
    },
    {
      "inputs": [
        {
          "internalType": "address",
          "name": "operator",
          "type": "address"
        },
        {
          "internalType": "bool",
          "name": "approved",
          "type": "bool"
        }
      ],
      "name": "setApprovalForAll",
      "outputs": [],
      "stateMutability": "nonpayable",
      "type": "function"
    },
    {
      "inputs": [
        {
          "internalType": "bytes4",
          "name": "interfaceId",
          "type": "bytes4"
        }
      ],
      "name": "supportsInterface",
      "outputs": [
        {
          "internalType": "bool",
          "name": "",
          "type": "bool"
        }
      ],
      "stateMutability": "view",
      "type": "function"
    },
    {
      "inputs": [],
      "name": "symbol",
      "outputs": [
        {
          "internalType": "string",
          "name": "",
          "type": "string"
        }
      ],
      "stateMutability": "view",
      "type": "function"
    },
    {
      "inputs": [
        {
          "internalType": "uint256",
          "name": "tokenId",
          "type": "uint256"
        }
      ],
      "name": "toggleOnSale",
      "outputs": [],
      "stateMutability": "nonpayable",
      "type": "function"
    },
    {
      "inputs": [
        {
          "internalType": "address",
          "name": "newOwner",
          "type": "address"
        }
      ],
      "name": "transferOwnership",
      "outputs": [],
      "stateMutability": "nonpayable",
      "type": "function"
    },
    {
      "inputs": [],
      "name": "unpause",
      "outputs": [],
      "stateMutability": "nonpayable",
      "type": "function"
    },
    {
      "inputs": [
        {
          "internalType": "string",
          "name": "newURI",
          "type": "string"
        }
      ],
      "name": "updateBaseURI",
      "outputs": [],
      "stateMutability": "nonpayable",
      "type": "function"
    },
    {
      "inputs": [
        {
          "internalType": "string",
          "name": "newURI",
          "type": "string"
        }
      ],
      "name": "updateContractMetadataURI",
      "outputs": [],
      "stateMutability": "nonpayable",
      "type": "function"
    },
    {
      "inputs": [
        {
          "internalType": "uint256",
          "name": "tokenId",
          "type": "uint256"
        },
        {
          "internalType": "uint256",
          "name": "newPrice",
          "type": "uint256"
        }
      ],
      "name": "updatePrice",
      "outputs": [],
      "stateMutability": "nonpayable",
      "type": "function"
    },
    {
      "inputs": [
        {
          "internalType": "string",
          "name": "newURI",
          "type": "string"
        }
      ],
      "name": "updateURI",
      "outputs": [],
      "stateMutability": "nonpayable",
      "type": "function"
    },
    {
      "inputs": [
        {
          "internalType": "uint256",
          "name": "mxvTokenId",
          "type": "uint256"
        }
      ],
      "name": "uri",
      "outputs": [
        {
          "internalType": "string",
          "name": "",
          "type": "string"
        }
      ],
      "stateMutability": "view",
      "type": "function"
    },
    {
      "inputs": [],
      "name": "withdraw",
      "outputs": [],
      "stateMutability": "nonpayable",
      "type": "function"
    },
    {
      "stateMutability": "payable",
      "type": "receive"
    }
  ],
  "bytecode": "0x608060405234801561001057600080fd5b50615fdf80620000216000396000f3fe6080604052600436106101e65760003560e01c80638456cb5911610102578063c30f4a5a11610095578063e985e9c511610064578063e985e9c514610705578063ee169bd314610742578063f242432a1461076b578063f2fde38b1461079457610226565b8063c30f4a5a1461065d578063d272389414610686578063d6e83cda146106b1578063e8a3d485146106da57610226565b806395d89b41116100d157806395d89b41146105a3578063a1619e44146105ce578063a22cb465146105f7578063b76c632b1461062057610226565b80638456cb59146104fa5780638924af74146105115780638da5cb5b1461054f578063931688cb1461057a57610226565b80634cd88b761161017a5780636352211e116101495780636352211e146104525780636c0360eb1461048f578063715018a6146104ba57806382367b2d146104d157610226565b80634cd88b76146103805780634e1273f4146103a95780635c975abb146103e65780635d2691381461041157610226565b80632eb2c2d6116101b65780632eb2c2d61461030d5780633ccfd60b146103365780633e7cf28d1461034d5780633f4ba83a1461036957610226565b8062fdd58e1461022b57806301ffc9a71461026857806306fdde03146102a55780630e89341c146102d057610226565b36610226577f88a5966d370b9919b20f3e2c13ff65706f196a4e32cc2c12bf57088f88525874333460405161021c929190614e30565b60405180910390a1005b600080fd5b34801561023757600080fd5b50610252600480360381019061024d9190614165565b6107bd565b60405161025f91906151cd565b60405180910390f35b34801561027457600080fd5b5061028f600480360381019061028a9190614236565b610887565b60405161029c9190614ed4565b60405180910390f35b3480156102b157600080fd5b506102ba610969565b6040516102c79190614eef565b60405180910390f35b3480156102dc57600080fd5b506102f760048036038101906102f2919061446d565b6109f7565b6040516103049190614eef565b60405180910390f35b34801561031957600080fd5b50610334600480360381019061032f9190613fdb565b610a36565b005b34801561034257600080fd5b5061034b610ad7565b005b6103676004803603810190610362919061446d565b610b9c565b005b34801561037557600080fd5b5061037e610d46565b005b34801561038c57600080fd5b506103a760048036038101906103a2919061430e565b610e13565b005b3480156103b557600080fd5b506103d060048036038101906103cb91906141a1565b610f03565b6040516103dd9190614e7b565b60405180910390f35b3480156103f257600080fd5b506103fb6110b4565b6040516104089190614ed4565b60405180910390f35b34801561041d57600080fd5b506104386004803603810190610433919061446d565b6110cb565b6040516104499594939291906151e8565b60405180910390f35b34801561045e57600080fd5b506104796004803603810190610474919061446d565b61114a565b6040516104869190614c92565b60405180910390f35b34801561049b57600080fd5b506104a461122b565b6040516104b19190614eef565b60405180910390f35b3480156104c657600080fd5b506104cf6112b9565b005b3480156104dd57600080fd5b506104f860048036038101906104f391906144bf565b611341565b005b34801561050657600080fd5b5061050f611438565b005b34801561051d57600080fd5b50610538600480360381019061053391906144bf565b611506565b604051610546929190614cad565b60405180910390f35b34801561055b57600080fd5b50610564611568565b6040516105719190614c92565b60405180910390f35b34801561058657600080fd5b506105a1600480360381019061059c91906142cd565b611592565b005b3480156105af57600080fd5b506105b8611628565b6040516105c59190614eef565b60405180910390f35b3480156105da57600080fd5b506105f560048036038101906105f0919061437a565b6116b6565b005b34801561060357600080fd5b5061061e60048036038101906106199190614129565b611c87565b005b34801561062c57600080fd5b506106476004803603810190610642919061446d565b611c9d565b6040516106549190614e59565b60405180910390f35b34801561066957600080fd5b50610684600480360381019061067f9190614288565b611d70565b005b34801561069257600080fd5b5061069b611e3d565b6040516106a891906151cd565b60405180910390f35b3480156106bd57600080fd5b506106d860048036038101906106d391906142cd565b611e4a565b005b3480156106e657600080fd5b506106ef611ee0565b6040516106fc9190614eef565b60405180910390f35b34801561071157600080fd5b5061072c60048036038101906107279190613f9f565b611f6e565b6040516107399190614ed4565b60405180910390f35b34801561074e57600080fd5b506107696004803603810190610764919061446d565b612002565b005b34801561077757600080fd5b50610792600480360381019061078d919061409a565b6120f6565b005b3480156107a057600080fd5b506107bb60048036038101906107b69190613f76565b612197565b005b60008073ffffffffffffffffffffffffffffffffffffffff168373ffffffffffffffffffffffffffffffffffffffff16141561082e576040517f08c379a000000000000000000000000000000000000000000000000000000000815260040161082590614f71565b60405180910390fd5b6065600083815260200190815260200160002060008473ffffffffffffffffffffffffffffffffffffffff1673ffffffffffffffffffffffffffffffffffffffff16815260200190815260200160002054905092915050565b60007fd9b67a26000000000000000000000000000000000000000000000000000000007bffffffffffffffffffffffffffffffffffffffffffffffffffffffff1916827bffffffffffffffffffffffffffffffffffffffffffffffffffffffff1916148061095257507f0e89341c000000000000000000000000000000000000000000000000000000007bffffffffffffffffffffffffffffffffffffffffffffffffffffffff1916827bffffffffffffffffffffffffffffffffffffffffffffffffffffffff1916145b8061096257506109618261228f565b5b9050919050565b60fb805461097690615808565b80601f01602080910402602001604051908101604052809291908181526020018280546109a290615808565b80156109ef5780601f106109c4576101008083540402835291602001916109ef565b820191906000526020600020905b8154815290600101906020018083116109d257829003601f168201915b505050505081565b606060fe6101016000848152602001908152602001600020604051602001610a20929190614c6e565b6040516020818303038152906040529050919050565b610a3e6122f9565b73ffffffffffffffffffffffffffffffffffffffff168573ffffffffffffffffffffffffffffffffffffffff161480610a845750610a8385610a7e6122f9565b611f6e565b5b610ac3576040517f08c379a0000000000000000000000000000000000000000000000000000000008152600401610aba90615011565b60405180910390fd5b610ad08585858585612301565b5050505050565b610adf6122f9565b73ffffffffffffffffffffffffffffffffffffffff16610afd611568565b73ffffffffffffffffffffffffffffffffffffffff1614610b53576040517f08c379a0000000000000000000000000000000000000000000000000000000008152600401610b4a90615071565b60405180910390fd5b3373ffffffffffffffffffffffffffffffffffffffff166108fc479081150290604051600060405180830381858888f19350505050158015610b99573d6000803e3d6000fd5b50565b610ba46110b4565b15610be4576040517f08c379a0000000000000000000000000000000000000000000000000000000008152600401610bdb90614fd1565b60405180910390fd5b6000610bef8261114a565b905073__$466d0af6b863105b2d93eed45cf7a289fc$__63e6485f608361010360ff60019054906101000a900473ffffffffffffffffffffffffffffffffffffffff1660ff60009054906101000a900460ff166101006040518663ffffffff1660e01b8152600401610c65959493929190615300565b60006040518083038186803b158015610c7d57600080fd5b505af4158015610c91573d6000803e3d6000fd5b50505050610cb2813384600160405180602001604052806000815250612664565b33610102600084815260200190815260200160002060006101000a81548173ffffffffffffffffffffffffffffffffffffffff021916908373ffffffffffffffffffffffffffffffffffffffff1602179055507f32f7b044435b2d94e8c17f628139122168d1865cdb7db2c415954204211d40e182823433604051610d3a949392919061523b565b60405180910390a15050565b610d4e6110b4565b610d8d576040517f08c379a0000000000000000000000000000000000000000000000000000000008152600401610d8490614f51565b60405180910390fd5b610d956122f9565b73ffffffffffffffffffffffffffffffffffffffff16610db3611568565b73ffffffffffffffffffffffffffffffffffffffff1614610e09576040517f08c379a0000000000000000000000000000000000000000000000000000000008152600401610e0090615071565b60405180910390fd5b610e116128e9565b565b600060019054906101000a900460ff16610e3b5760008054906101000a900460ff1615610e44565b610e4361298b565b5b610e83576040517f08c379a0000000000000000000000000000000000000000000000000000000008152600401610e7a90615031565b60405180910390fd5b60008060019054906101000a900460ff161590508015610ed3576001600060016101000a81548160ff02191690831515021790555060016000806101000a81548160ff0219169083151502179055505b610edd838361299c565b8015610efe5760008060016101000a81548160ff0219169083151502179055505b505050565b60608151835114610f49576040517f08c379a0000000000000000000000000000000000000000000000000000000008152600401610f40906150f1565b60405180910390fd5b6000835167ffffffffffffffff811115610f8c577f4e487b7100000000000000000000000000000000000000000000000000000000600052604160045260246000fd5b604051908082528060200260200182016040528015610fba5781602001602082028036833780820191505090505b50905060005b84518110156110a957611053858281518110611005577f4e487b7100000000000000000000000000000000000000000000000000000000600052603260045260246000fd5b6020026020010151858381518110611046577f4e487b7100000000000000000000000000000000000000000000000000000000600052603260045260246000fd5b60200260200101516107bd565b82828151811061108c577f4e487b7100000000000000000000000000000000000000000000000000000000600052603260045260246000fd5b602002602001018181525050806110a29061586b565b9050610fc0565b508091505092915050565b6000609760009054906101000a900460ff16905090565b6101036020528060005260406000206000915090508060000154908060010160009054906101000a900473ffffffffffffffffffffffffffffffffffffffff16908060010160149054906101000a900461ffff16908060010160169054906101000a900460ff16908060010160179054906101000a900460ff16905085565b60008073ffffffffffffffffffffffffffffffffffffffff16610102600084815260200190815260200160002060009054906101000a900473ffffffffffffffffffffffffffffffffffffffff1673ffffffffffffffffffffffffffffffffffffffff1614156111ef576040517f08c379a00000000000000000000000000000000000000000000000000000000081526004016111e690615091565b60405180910390fd5b610102600083815260200190815260200160002060009054906101000a900473ffffffffffffffffffffffffffffffffffffffff169050919050565b60fe805461123890615808565b80601f016020809104026020016040519081016040528092919081815260200182805461126490615808565b80156112b15780601f10611286576101008083540402835291602001916112b1565b820191906000526020600020905b81548152906001019060200180831161129457829003601f168201915b505050505081565b6112c16122f9565b73ffffffffffffffffffffffffffffffffffffffff166112df611568565b73ffffffffffffffffffffffffffffffffffffffff1614611335576040517f08c379a000000000000000000000000000000000000000000000000000000000815260040161132c90615071565b60405180910390fd5b61133f6000612bd5565b565b600073__$466d0af6b863105b2d93eed45cf7a289fc$__63d68d51c360ff60019054906101000a900473ffffffffffffffffffffffffffffffffffffffff1685610103866101006040518663ffffffff1660e01b81526004016113a8959493929190614d1b565b60206040518083038186803b1580156113c057600080fd5b505af41580156113d4573d6000803e3d6000fd5b505050506040513d601f19601f820116820180604052508101906113f89190614496565b90507f945c1c4e99aa89f648fbfe3df471b916f719e16d960fcec0737d4d56bd696838838260405161142b929190615353565b60405180910390a1505050565b6114406110b4565b15611480576040517f08c379a000000000000000000000000000000000000000000000000000000000815260040161147790614fd1565b60405180910390fd5b6114886122f9565b73ffffffffffffffffffffffffffffffffffffffff166114a6611568565b73ffffffffffffffffffffffffffffffffffffffff16146114fc576040517f08c379a00000000000000000000000000000000000000000000000000000000081526004016114f390615071565b60405180910390fd5b611504612c9b565b565b610104602052816000526040600020818154811061152357600080fd5b9060005260206000209060020201600091509150508060000160009054906101000a900473ffffffffffffffffffffffffffffffffffffffff16908060010154905082565b600060c960009054906101000a900473ffffffffffffffffffffffffffffffffffffffff16905090565b61159a6122f9565b73ffffffffffffffffffffffffffffffffffffffff166115b8611568565b73ffffffffffffffffffffffffffffffffffffffff161461160e576040517f08c379a000000000000000000000000000000000000000000000000000000000815260040161160590615071565b60405180910390fd5b8060fe9080519060200190611624929190613b07565b5050565b60fc805461163590615808565b80601f016020809104026020016040519081016040528092919081815260200182805461166190615808565b80156116ae5780601f10611683576101008083540402835291602001916116ae565b820191906000526020600020905b81548152906001019060200180831161169157829003601f168201915b505050505081565b6116be6110b4565b156116fe576040517f08c379a00000000000000000000000000000000000000000000000000000000081526004016116f590614fd1565b60405180910390fd5b73__$466d0af6b863105b2d93eed45cf7a289fc$__632072854d8b8b8b8b8b8b8b8b8b6040518a63ffffffff1660e01b815260040161174599989796959493929190615151565b60006040518083038186803b15801561175d57600080fd5b505af4158015611771573d6000803e3d6000fd5b5050505060008a61ffff1667ffffffffffffffff8111156117bb577f4e487b7100000000000000000000000000000000000000000000000000000000600052604160045260246000fd5b6040519080825280602002602001820160405280156117e95781602001602082028036833780820191505090505b50905060008b61ffff1667ffffffffffffffff811115611832577f4e487b7100000000000000000000000000000000000000000000000000000000600052604160045260246000fd5b6040519080825280602002602001820160405280156118605781602001602082028036833780820191505090505b50905060005b8c61ffff16811015611bbd5761187d610100612d3e565b611888610100612d54565b8382815181106118c1577f4e487b7100000000000000000000000000000000000000000000000000000000600052603260045260246000fd5b6020026020010181815250506001828281518110611908577f4e487b7100000000000000000000000000000000000000000000000000000000600052603260045260246000fd5b6020026020010181815250506119b5611922610100612d54565b8c8c8481811061195b577f4e487b7100000000000000000000000000000000000000000000000000000000600052603260045260246000fd5b905060200281019061196d91906153c1565b8080601f016020809104026020016040519081016040528093929190818152602001838380828437600081840152601f19601f82011690508083019250505050505050612d62565b73__$466d0af6b863105b2d93eed45cf7a289fc$__631d5492e46119da610100612d54565b8b8b8b8b6101046040518763ffffffff1660e01b8152600401611a0296959493929190615280565b60006040518083038186803b158015611a1a57600080fd5b505af4158015611a2e573d6000803e3d6000fd5b50505050336101026000611a43610100612d54565b815260200190815260200160002060006101000a81548173ffffffffffffffffffffffffffffffffffffffff021916908373ffffffffffffffffffffffffffffffffffffffff1602179055506040518060a001604052808d81526020013373ffffffffffffffffffffffffffffffffffffffff1681526020018661ffff1681526020018515158152602001600015158152506101036000611ae5610100612d54565b81526020019081526020016000206000820151816000015560208201518160010160006101000a81548173ffffffffffffffffffffffffffffffffffffffff021916908373ffffffffffffffffffffffffffffffffffffffff16021790555060408201518160010160146101000a81548161ffff021916908361ffff16021790555060608201518160010160166101000a81548160ff02191690831515021790555060808201518160010160176101000a81548160ff0219169083151502179055509050508080611bb59061586b565b915050611866565b50611bd933838360405180602001604052806000815250612d8f565b60005b8c61ffff16811015611c78577f3169d8b49c43433e554c148d8b56700bd8773310a0a964f0ace67fe714b8e974838281518110611c42577f4e487b7100000000000000000000000000000000000000000000000000000000600052603260045260246000fd5b60200260200101518d4287604051611c5d949392919061537c565b60405180910390a18080611c709061586b565b915050611bdc565b50505050505050505050505050565b611c99611c926122f9565b8383612ffa565b5050565b60606101046000838152602001908152602001600020805480602002602001604051908101604052809291908181526020016000905b82821015611d6557838290600052602060002090600202016040518060400160405290816000820160009054906101000a900473ffffffffffffffffffffffffffffffffffffffff1673ffffffffffffffffffffffffffffffffffffffff1673ffffffffffffffffffffffffffffffffffffffff16815260200160018201548152505081526020019060010190611cd3565b505050509050919050565b611d786122f9565b73ffffffffffffffffffffffffffffffffffffffff16611d96611568565b73ffffffffffffffffffffffffffffffffffffffff1614611dec576040517f08c379a0000000000000000000000000000000000000000000000000000000008152600401611de390615071565b60405180910390fd5b611e3982828080601f016020809104026020016040519081016040528093929190818152602001838380828437600081840152601f19601f82011690508083019250505050505050613167565b5050565b6101008060000154905081565b611e526122f9565b73ffffffffffffffffffffffffffffffffffffffff16611e70611568565b73ffffffffffffffffffffffffffffffffffffffff1614611ec6576040517f08c379a0000000000000000000000000000000000000000000000000000000008152600401611ebd90615071565b60405180910390fd5b8060fd9080519060200190611edc929190613b07565b5050565b60fd8054611eed90615808565b80601f0160208091040260200160405190810160405280929190818152602001828054611f1990615808565b8015611f665780601f10611f3b57610100808354040283529160200191611f66565b820191906000526020600020905b815481529060010190602001808311611f4957829003601f168201915b505050505081565b6000606660008473ffffffffffffffffffffffffffffffffffffffff1673ffffffffffffffffffffffffffffffffffffffff16815260200190815260200160002060008373ffffffffffffffffffffffffffffffffffffffff1673ffffffffffffffffffffffffffffffffffffffff16815260200190815260200160002060009054906101000a900460ff16905092915050565b600073__$466d0af6b863105b2d93eed45cf7a289fc$__6323bfc32060ff60019054906101000a900473ffffffffffffffffffffffffffffffffffffffff16846101036101006040518563ffffffff1660e01b81526004016120679493929190614cd6565b60206040518083038186803b15801561207f57600080fd5b505af4158015612093573d6000803e3d6000fd5b505050506040513d601f19601f820116820180604052508101906120b7919061420d565b90507fdc21ed91f0a9dd4b8d6d124da7b76e9d4321e24d73620fd1d246ec85b712aae382826040516120ea9291906152d7565b60405180910390a15050565b6120fe6122f9565b73ffffffffffffffffffffffffffffffffffffffff168573ffffffffffffffffffffffffffffffffffffffff16148061214457506121438561213e6122f9565b611f6e565b5b612183576040517f08c379a000000000000000000000000000000000000000000000000000000000815260040161217a90614fb1565b60405180910390fd5b6121908585858585612664565b5050505050565b61219f6122f9565b73ffffffffffffffffffffffffffffffffffffffff166121bd611568565b73ffffffffffffffffffffffffffffffffffffffff1614612213576040517f08c379a000000000000000000000000000000000000000000000000000000000815260040161220a90615071565b60405180910390fd5b600073ffffffffffffffffffffffffffffffffffffffff168173ffffffffffffffffffffffffffffffffffffffff161415612283576040517f08c379a000000000000000000000000000000000000000000000000000000000815260040161227a90614f91565b60405180910390fd5b61228c81612bd5565b50565b60007f01ffc9a7000000000000000000000000000000000000000000000000000000007bffffffffffffffffffffffffffffffffffffffffffffffffffffffff1916827bffffffffffffffffffffffffffffffffffffffffffffffffffffffff1916149050919050565b600033905090565b8151835114612345576040517f08c379a000000000000000000000000000000000000000000000000000000000815260040161233c90615111565b60405180910390fd5b600073ffffffffffffffffffffffffffffffffffffffff168473ffffffffffffffffffffffffffffffffffffffff1614156123b5576040517f08c379a00000000000000000000000000000000000000000000000000000000081526004016123ac90614ff1565b60405180910390fd5b60006123bf6122f9565b90506123cf818787878787613181565b60005b84518110156125cf576000858281518110612416577f4e487b7100000000000000000000000000000000000000000000000000000000600052603260045260246000fd5b60200260200101519050600085838151811061245b577f4e487b7100000000000000000000000000000000000000000000000000000000600052603260045260246000fd5b6020026020010151905060006065600084815260200190815260200160002060008b73ffffffffffffffffffffffffffffffffffffffff1673ffffffffffffffffffffffffffffffffffffffff168152602001908152602001600020549050818110156124fd576040517f08c379a00000000000000000000000000000000000000000000000000000000081526004016124f490615051565b60405180910390fd5b8181036065600085815260200190815260200160002060008c73ffffffffffffffffffffffffffffffffffffffff1673ffffffffffffffffffffffffffffffffffffffff16815260200190815260200160002081905550816065600085815260200190815260200160002060008b73ffffffffffffffffffffffffffffffffffffffff1673ffffffffffffffffffffffffffffffffffffffff16815260200190815260200160002060008282546125b491906156cf565b92505081905550505050806125c89061586b565b90506123d2565b508473ffffffffffffffffffffffffffffffffffffffff168673ffffffffffffffffffffffffffffffffffffffff168273ffffffffffffffffffffffffffffffffffffffff167f4a39dc06d4c0dbc64b70af90fd698a233a518aa5d07e595d983b8c0526c8f7fb8787604051612646929190614e9d565b60405180910390a461265c818787878787613189565b505050505050565b600073ffffffffffffffffffffffffffffffffffffffff168473ffffffffffffffffffffffffffffffffffffffff1614156126d4576040517f08c379a00000000000000000000000000000000000000000000000000000000081526004016126cb90614ff1565b60405180910390fd5b60006126de6122f9565b90506126fe8187876126ef88613370565b6126f888613370565b87613181565b60006065600086815260200190815260200160002060008873ffffffffffffffffffffffffffffffffffffffff1673ffffffffffffffffffffffffffffffffffffffff16815260200190815260200160002054905083811015612796576040517f08c379a000000000000000000000000000000000000000000000000000000000815260040161278d90615051565b60405180910390fd5b8381036065600087815260200190815260200160002060008973ffffffffffffffffffffffffffffffffffffffff1673ffffffffffffffffffffffffffffffffffffffff16815260200190815260200160002081905550836065600087815260200190815260200160002060008873ffffffffffffffffffffffffffffffffffffffff1673ffffffffffffffffffffffffffffffffffffffff168152602001908152602001600020600082825461284d91906156cf565b925050819055508573ffffffffffffffffffffffffffffffffffffffff168773ffffffffffffffffffffffffffffffffffffffff168373ffffffffffffffffffffffffffffffffffffffff167fc3d58168c5ae7397731d063d5bbf3d657854427343f4c083240f7aacaa2d0f6288886040516128ca929190615353565b60405180910390a46128e0828888888888613436565b50505050505050565b6128f16110b4565b612930576040517f08c379a000000000000000000000000000000000000000000000000000000000815260040161292790614f51565b60405180910390fd5b6000609760006101000a81548160ff0219169083151502179055507f5db9ee0a495bf2e6ff9c91a7834c1ba4fdd244a5e8aa4e537bd38aeae4b073aa6129746122f9565b6040516129819190614c92565b60405180910390a1565b60006129963061361d565b15905090565b600060019054906101000a900460ff166129c45760008054906101000a900460ff16156129cd565b6129cc61298b565b5b612a0c576040517f08c379a0000000000000000000000000000000000000000000000000000000008152600401612a0390615031565b60405180910390fd5b60008060019054906101000a900460ff161590508015612a5c576001600060016101000a81548160ff02191690831515021790555060016000806101000a81548160ff0219169083151502179055505b612a64613630565b612a8c83604051602001612a789190614c4c565b60405160208183030381529060405261371c565b6040518060400160405280600a81526020017f4d7573697876657273650000000000000000000000000000000000000000000081525060fb9080519060200190612ad7929190613b07565b506040518060400160405280600381526020017f4d5856000000000000000000000000000000000000000000000000000000000081525060fc9080519060200190612b23929190613b07565b508160fd9080519060200190612b3a929190613b07565b508260fe9080519060200190612b51929190613b07565b50600260ff60006101000a81548160ff021916908360ff1602179055503060ff60016101000a81548173ffffffffffffffffffffffffffffffffffffffff021916908373ffffffffffffffffffffffffffffffffffffffff1602179055508015612bd05760008060016101000a81548160ff0219169083151502179055505b505050565b600060c960009054906101000a900473ffffffffffffffffffffffffffffffffffffffff1690508160c960006101000a81548173ffffffffffffffffffffffffffffffffffffffff021916908373ffffffffffffffffffffffffffffffffffffffff1602179055508173ffffffffffffffffffffffffffffffffffffffff168173ffffffffffffffffffffffffffffffffffffffff167f8be0079c531659141344cd1fd0a4f28419497f9722a3daafe3b4186f6b6457e060405160405180910390a35050565b612ca36110b4565b15612ce3576040517f08c379a0000000000000000000000000000000000000000000000000000000008152600401612cda90614fd1565b60405180910390fd5b6001609760006101000a81548160ff0219169083151502179055507f62e78cea01bee320cd4e420270b5ea74000d11b0c9f74754ebdbfc544b05a258612d276122f9565b604051612d349190614c92565b60405180910390a1565b6001816000016000828254019250508190555050565b600081600001549050919050565b8061010160008481526020019081526020016000209080519060200190612d8a929190613b07565b505050565b600073ffffffffffffffffffffffffffffffffffffffff168473ffffffffffffffffffffffffffffffffffffffff161415612dff576040517f08c379a0000000000000000000000000000000000000000000000000000000008152600401612df690615131565b60405180910390fd5b8151835114612e43576040517f08c379a0000000000000000000000000000000000000000000000000000000008152600401612e3a90615111565b60405180910390fd5b6000612e4d6122f9565b9050612e5e81600087878787613181565b60005b8451811015612f6457838181518110612ea3577f4e487b7100000000000000000000000000000000000000000000000000000000600052603260045260246000fd5b602002602001015160656000878481518110612ee8577f4e487b7100000000000000000000000000000000000000000000000000000000600052603260045260246000fd5b6020026020010151815260200190815260200160002060008873ffffffffffffffffffffffffffffffffffffffff1673ffffffffffffffffffffffffffffffffffffffff1681526020019081526020016000206000828254612f4a91906156cf565b925050819055508080612f5c9061586b565b915050612e61565b508473ffffffffffffffffffffffffffffffffffffffff16600073ffffffffffffffffffffffffffffffffffffffff168273ffffffffffffffffffffffffffffffffffffffff167f4a39dc06d4c0dbc64b70af90fd698a233a518aa5d07e595d983b8c0526c8f7fb8787604051612fdc929190614e9d565b60405180910390a4612ff381600087878787613189565b5050505050565b8173ffffffffffffffffffffffffffffffffffffffff168373ffffffffffffffffffffffffffffffffffffffff161415613069576040517f08c379a0000000000000000000000000000000000000000000000000000000008152600401613060906150d1565b60405180910390fd5b80606660008573ffffffffffffffffffffffffffffffffffffffff1673ffffffffffffffffffffffffffffffffffffffff16815260200190815260200160002060008473ffffffffffffffffffffffffffffffffffffffff1673ffffffffffffffffffffffffffffffffffffffff16815260200190815260200160002060006101000a81548160ff0219169083151502179055508173ffffffffffffffffffffffffffffffffffffffff168373ffffffffffffffffffffffffffffffffffffffff167f17307eab39ab6107e8899845ad3d59bd9653f200f220920489ca2b5937696c318360405161315a9190614ed4565b60405180910390a3505050565b806067908051906020019061317d929190613b07565b5050565b505050505050565b6131a88473ffffffffffffffffffffffffffffffffffffffff1661361d565b15613368578373ffffffffffffffffffffffffffffffffffffffff1663bc197c8187878686866040518663ffffffff1660e01b81526004016131ee959493929190614d6e565b602060405180830381600087803b15801561320857600080fd5b505af192505050801561323957506040513d601f19601f82011682018060405250810190613236919061425f565b60015b6132df57613245615941565b806308c379a014156132a2575061325a615ea0565b8061326557506132a4565b806040517f08c379a00000000000000000000000000000000000000000000000000000000081526004016132999190614eef565b60405180910390fd5b505b6040517f08c379a00000000000000000000000000000000000000000000000000000000081526004016132d690614f11565b60405180910390fd5b63bc197c8160e01b7bffffffffffffffffffffffffffffffffffffffffffffffffffffffff1916817bffffffffffffffffffffffffffffffffffffffffffffffffffffffff191614613366576040517f08c379a000000000000000000000000000000000000000000000000000000000815260040161335d90614f31565b60405180910390fd5b505b505050505050565b60606000600167ffffffffffffffff8111156133b5577f4e487b7100000000000000000000000000000000000000000000000000000000600052604160045260246000fd5b6040519080825280602002602001820160405280156133e35781602001602082028036833780820191505090505b5090508281600081518110613421577f4e487b7100000000000000000000000000000000000000000000000000000000600052603260045260246000fd5b60200260200101818152505080915050919050565b6134558473ffffffffffffffffffffffffffffffffffffffff1661361d565b15613615578373ffffffffffffffffffffffffffffffffffffffff1663f23a6e6187878686866040518663ffffffff1660e01b815260040161349b959493929190614dd6565b602060405180830381600087803b1580156134b557600080fd5b505af19250505080156134e657506040513d601f19601f820116820180604052508101906134e3919061425f565b60015b61358c576134f2615941565b806308c379a0141561354f5750613507615ea0565b806135125750613551565b806040517f08c379a00000000000000000000000000000000000000000000000000000000081526004016135469190614eef565b60405180910390fd5b505b6040517f08c379a000000000000000000000000000000000000000000000000000000000815260040161358390614f11565b60405180910390fd5b63f23a6e6160e01b7bffffffffffffffffffffffffffffffffffffffffffffffffffffffff1916817bffffffffffffffffffffffffffffffffffffffffffffffffffffffff191614613613576040517f08c379a000000000000000000000000000000000000000000000000000000000815260040161360a90614f31565b60405180910390fd5b505b505050505050565b600080823b905060008111915050919050565b600060019054906101000a900460ff166136585760008054906101000a900460ff1615613661565b61366061298b565b5b6136a0576040517f08c379a000000000000000000000000000000000000000000000000000000000815260040161369790615031565b60405180910390fd5b60008060019054906101000a900460ff1615905080156136f0576001600060016101000a81548160ff02191690831515021790555060016000806101000a81548160ff0219169083151502179055505b6136f8613787565b80156137195760008060016101000a81548160ff0219169083151502179055505b50565b600060019054906101000a900460ff1661376b576040517f08c379a0000000000000000000000000000000000000000000000000000000008152600401613762906150b1565b60405180910390fd5b61377361387b565b61377b6138cc565b6137848161391d565b50565b600060019054906101000a900460ff166137af5760008054906101000a900460ff16156137b8565b6137b761298b565b5b6137f7576040517f08c379a00000000000000000000000000000000000000000000000000000000081526004016137ee90615031565b60405180910390fd5b60008060019054906101000a900460ff161590508015613847576001600060016101000a81548160ff02191690831515021790555060016000806101000a81548160ff0219169083151502179055505b61384f613978565b6138576139d9565b80156138785760008060016101000a81548160ff0219169083151502179055505b50565b600060019054906101000a900460ff166138ca576040517f08c379a00000000000000000000000000000000000000000000000000000000081526004016138c1906150b1565b60405180910390fd5b565b600060019054906101000a900460ff1661391b576040517f08c379a0000000000000000000000000000000000000000000000000000000008152600401613912906150b1565b60405180910390fd5b565b600060019054906101000a900460ff1661396c576040517f08c379a0000000000000000000000000000000000000000000000000000000008152600401613963906150b1565b60405180910390fd5b61397581613167565b50565b600060019054906101000a900460ff166139c7576040517f08c379a00000000000000000000000000000000000000000000000000000000081526004016139be906150b1565b60405180910390fd5b6139cf61387b565b6139d7613a3a565b565b600060019054906101000a900460ff16613a28576040517f08c379a0000000000000000000000000000000000000000000000000000000008152600401613a1f906150b1565b60405180910390fd5b613a3061387b565b613a38613aa6565b565b600060019054906101000a900460ff16613a89576040517f08c379a0000000000000000000000000000000000000000000000000000000008152600401613a80906150b1565b60405180910390fd5b6000609760006101000a81548160ff021916908315150217905550565b600060019054906101000a900460ff16613af5576040517f08c379a0000000000000000000000000000000000000000000000000000000008152600401613aec906150b1565b60405180910390fd5b613b05613b006122f9565b612bd5565b565b828054613b1390615808565b90600052602060002090601f016020900481019282613b355760008555613b7c565b82601f10613b4e57805160ff1916838001178555613b7c565b82800160010185558215613b7c579182015b82811115613b7b578251825591602001919060010190613b60565b5b509050613b899190613b8d565b5090565b5b80821115613ba6576000816000905550600101613b8e565b5090565b6000613bbd613bb88461543d565b615418565b90508083825260208201905082856020860282011115613bdc57600080fd5b60005b85811015613c0c5781613bf28882613cfe565b845260208401935060208301925050600181019050613bdf565b5050509392505050565b6000613c29613c2484615469565b615418565b90508083825260208201905082856020860282011115613c4857600080fd5b60005b85811015613c785781613c5e8882613f4c565b845260208401935060208301925050600181019050613c4b565b5050509392505050565b6000613c95613c9084615495565b615418565b905082815260208101848484011115613cad57600080fd5b613cb88482856157c6565b509392505050565b6000613cd3613cce846154c6565b615418565b905082815260208101848484011115613ceb57600080fd5b613cf68482856157c6565b509392505050565b600081359050613d0d81615f36565b92915050565b60008083601f840112613d2557600080fd5b8235905067ffffffffffffffff811115613d3e57600080fd5b602083019150836020820283011115613d5657600080fd5b9250929050565b600082601f830112613d6e57600080fd5b8135613d7e848260208601613baa565b91505092915050565b60008083601f840112613d9957600080fd5b8235905067ffffffffffffffff811115613db257600080fd5b602083019150836020820283011115613dca57600080fd5b9250929050565b60008083601f840112613de357600080fd5b8235905067ffffffffffffffff811115613dfc57600080fd5b602083019150836020820283011115613e1457600080fd5b9250929050565b600082601f830112613e2c57600080fd5b8135613e3c848260208601613c16565b91505092915050565b600081359050613e5481615f4d565b92915050565b600081519050613e6981615f4d565b92915050565b600081359050613e7e81615f64565b92915050565b600081519050613e9381615f64565b92915050565b600082601f830112613eaa57600080fd5b8135613eba848260208601613c82565b91505092915050565b60008083601f840112613ed557600080fd5b8235905067ffffffffffffffff811115613eee57600080fd5b602083019150836001820283011115613f0657600080fd5b9250929050565b600082601f830112613f1e57600080fd5b8135613f2e848260208601613cc0565b91505092915050565b600081359050613f4681615f7b565b92915050565b600081359050613f5b81615f92565b92915050565b600081519050613f7081615f92565b92915050565b600060208284031215613f8857600080fd5b6000613f9684828501613cfe565b91505092915050565b60008060408385031215613fb257600080fd5b6000613fc085828601613cfe565b9250506020613fd185828601613cfe565b9150509250929050565b600080600080600060a08688031215613ff357600080fd5b600061400188828901613cfe565b955050602061401288828901613cfe565b945050604086013567ffffffffffffffff81111561402f57600080fd5b61403b88828901613e1b565b935050606086013567ffffffffffffffff81111561405857600080fd5b61406488828901613e1b565b925050608086013567ffffffffffffffff81111561408157600080fd5b61408d88828901613e99565b9150509295509295909350565b600080600080600060a086880312156140b257600080fd5b60006140c088828901613cfe565b95505060206140d188828901613cfe565b94505060406140e288828901613f4c565b93505060606140f388828901613f4c565b925050608086013567ffffffffffffffff81111561411057600080fd5b61411c88828901613e99565b9150509295509295909350565b6000806040838503121561413c57600080fd5b600061414a85828601613cfe565b925050602061415b85828601613e45565b9150509250929050565b6000806040838503121561417857600080fd5b600061418685828601613cfe565b925050602061419785828601613f4c565b9150509250929050565b600080604083850312156141b457600080fd5b600083013567ffffffffffffffff8111156141ce57600080fd5b6141da85828601613d5d565b925050602083013567ffffffffffffffff8111156141f757600080fd5b61420385828601613e1b565b9150509250929050565b60006020828403121561421f57600080fd5b600061422d84828501613e5a565b91505092915050565b60006020828403121561424857600080fd5b600061425684828501613e6f565b91505092915050565b60006020828403121561427157600080fd5b600061427f84828501613e84565b91505092915050565b6000806020838503121561429b57600080fd5b600083013567ffffffffffffffff8111156142b557600080fd5b6142c185828601613ec3565b92509250509250929050565b6000602082840312156142df57600080fd5b600082013567ffffffffffffffff8111156142f957600080fd5b61430584828501613f0d565b91505092915050565b6000806040838503121561432157600080fd5b600083013567ffffffffffffffff81111561433b57600080fd5b61434785828601613f0d565b925050602083013567ffffffffffffffff81111561436457600080fd5b61437085828601613f0d565b9150509250929050565b60008060008060008060008060008060e08b8d03121561439957600080fd5b60006143a78d828e01613f37565b9a505060206143b88d828e01613f4c565b99505060408b013567ffffffffffffffff8111156143d557600080fd5b6143e18d828e01613d87565b985098505060608b013567ffffffffffffffff81111561440057600080fd5b61440c8d828e01613d13565b965096505060808b013567ffffffffffffffff81111561442b57600080fd5b6144378d828e01613dd1565b945094505060a061444a8d828e01613f37565b92505060c061445b8d828e01613e45565b9150509295989b9194979a5092959850565b60006020828403121561447f57600080fd5b600061448d84828501613f4c565b91505092915050565b6000602082840312156144a857600080fd5b60006144b684828501613f61565b91505092915050565b600080604083850312156144d257600080fd5b60006144e085828601613f4c565b92505060206144f185828601613f4c565b9150509250929050565b600061450783836145ad565b60208301905092915050565b60006145208484846147fe565b90509392505050565b60006145358383614bb4565b60408301905092915050565b600061454d8383614c01565b60208301905092915050565b60006145658383614c10565b60208301905092915050565b61457a81615737565b82525050565b61458981615737565b82525050565b61459881615737565b82525050565b6145a781615725565b82525050565b6145b681615725565b82525050565b60006145c883856155b7565b93506145d3826154f7565b8060005b8581101561460c576145e9828461564a565b6145f388826144fb565b97506145fe83615576565b9250506001810190506145d7565b5085925050509392505050565b600061462583856155c8565b93508360208402850161463784615501565b8060005b8781101561467d5784840389526146528284615661565b61465d868284614513565b955061466884615583565b935060208b019a50505060018101905061463b565b50829750879450505050509392505050565b600061469a8261554a565b6146a481856155d9565b93506146af8361550b565b8060005b838110156146e05781516146c78882614529565b97506146d283615590565b9250506001810190506146b3565b5085935050505092915050565b60006146f983856155ea565b93506147048261551b565b8060005b8581101561473d5761471a82846156b8565b6147248882614541565b975061472f8361559d565b925050600181019050614708565b5085925050509392505050565b600061475582615555565b61475f81856155fb565b935061476a83615525565b8060005b8381101561479b5781516147828882614559565b975061478d836155aa565b92505060018101905061476e565b5085935050505092915050565b6147b181615749565b82525050565b60006147c282615560565b6147cc818561560c565b93506147dc8185602086016157d5565b6147e581615963565b840191505092915050565b8082525050565b8082525050565b600061480a838561562e565b93506148178385846157c6565b61482083615963565b840190509392505050565b60006148368261556b565b614840818561561d565b93506148508185602086016157d5565b61485981615963565b840191505092915050565b600061486f8261556b565b614879818561563f565b93506148898185602086016157d5565b80840191505092915050565b600081546148a281615808565b6148ac818661563f565b945060018216600081146148c757600181146148d85761490b565b60ff1983168652818601935061490b565b6148e185615535565b60005b83811015614903578154818901526001820191506020810190506148e4565b838801955050505b50505092915050565b600061492160348361561d565b915061492c82615981565b604082019050919050565b600061494460288361561d565b915061494f826159d0565b604082019050919050565b600061496760148361561d565b915061497282615a1f565b602082019050919050565b600061498a602b8361561d565b915061499582615a48565b604082019050919050565b60006149ad60268361561d565b91506149b882615a97565b604082019050919050565b60006149d060298361561d565b91506149db82615ae6565b604082019050919050565b60006149f360108361561d565b91506149fe82615b35565b602082019050919050565b6000614a1660258361561d565b9150614a2182615b5e565b604082019050919050565b6000614a3960328361561d565b9150614a4482615bad565b604082019050919050565b6000614a5c602e8361561d565b9150614a6782615bfc565b604082019050919050565b6000614a7f602a8361561d565b9150614a8a82615c4b565b604082019050919050565b6000614aa260208361561d565b9150614aad82615c9a565b602082019050919050565b6000614ac560098361561d565b9150614ad082615cc3565b602082019050919050565b6000614ae8602b8361561d565b9150614af382615cec565b604082019050919050565b6000614b0b60048361563f565b9150614b1682615d3b565b600482019050919050565b6000614b2e60298361561d565b9150614b3982615d64565b604082019050919050565b6000614b5160298361561d565b9150614b5c82615db3565b604082019050919050565b6000614b7460288361561d565b9150614b7f82615e02565b604082019050919050565b6000614b9760218361561d565b9150614ba282615e51565b604082019050919050565b8082525050565b604082016000820151614bca6000850182614571565b506020820151614bdd6020850182614c10565b50505050565b614bec81615781565b82525050565b614bfb81615781565b82525050565b614c0a81615781565b82525050565b614c19816157af565b82525050565b614c28816157af565b82525050565b614c37816157af565b82525050565b614c46816157b9565b82525050565b6000614c588284614864565b9150614c6382614afe565b915081905092915050565b6000614c7a8285614895565b9150614c868284614895565b91508190509392505050565b6000602082019050614ca7600083018461459e565b92915050565b6000604082019050614cc26000830185614580565b614ccf6020830184614c1f565b9392505050565b6000608082019050614ceb600083018761458f565b614cf86020830186614c2e565b614d0560408301856147f7565b614d126060830184614bad565b95945050505050565b600060a082019050614d30600083018861458f565b614d3d6020830187614c2e565b614d4a60408301866147f7565b614d576060830185614c2e565b614d646080830184614bad565b9695505050505050565b600060a082019050614d83600083018861459e565b614d90602083018761459e565b8181036040830152614da2818661474a565b90508181036060830152614db6818561474a565b90508181036080830152614dca81846147b7565b90509695505050505050565b600060a082019050614deb600083018861459e565b614df8602083018761459e565b614e056040830186614c1f565b614e126060830185614c1f565b8181036080830152614e2481846147b7565b90509695505050505050565b6000604082019050614e45600083018561459e565b614e526020830184614c1f565b9392505050565b60006020820190508181036000830152614e73818461468f565b905092915050565b60006020820190508181036000830152614e95818461474a565b905092915050565b60006040820190508181036000830152614eb7818561474a565b90508181036020830152614ecb818461474a565b90509392505050565b6000602082019050614ee960008301846147a8565b92915050565b60006020820190508181036000830152614f09818461482b565b905092915050565b60006020820190508181036000830152614f2a81614914565b9050919050565b60006020820190508181036000830152614f4a81614937565b9050919050565b60006020820190508181036000830152614f6a8161495a565b9050919050565b60006020820190508181036000830152614f8a8161497d565b9050919050565b60006020820190508181036000830152614faa816149a0565b9050919050565b60006020820190508181036000830152614fca816149c3565b9050919050565b60006020820190508181036000830152614fea816149e6565b9050919050565b6000602082019050818103600083015261500a81614a09565b9050919050565b6000602082019050818103600083015261502a81614a2c565b9050919050565b6000602082019050818103600083015261504a81614a4f565b9050919050565b6000602082019050818103600083015261506a81614a72565b9050919050565b6000602082019050818103600083015261508a81614a95565b9050919050565b600060208201905081810360008301526150aa81614ab8565b9050919050565b600060208201905081810360008301526150ca81614adb565b9050919050565b600060208201905081810360008301526150ea81614b21565b9050919050565b6000602082019050818103600083015261510a81614b44565b9050919050565b6000602082019050818103600083015261512a81614b67565b9050919050565b6000602082019050818103600083015261514a81614b8a565b9050919050565b600060c082019050615166600083018c614bf2565b615173602083018b614c2e565b818103604083015261518681898b614619565b9050818103606083015261519b8187896145bc565b905081810360808301526151b08185876146ed565b90506151bf60a0830184614bf2565b9a9950505050505050505050565b60006020820190506151e26000830184614c1f565b92915050565b600060a0820190506151fd6000830188614c1f565b61520a602083018761459e565b6152176040830186614be3565b61522460608301856147a8565b61523160808301846147a8565b9695505050505050565b60006080820190506152506000830187614c1f565b61525d602083018661459e565b61526a6040830185614c1f565b615277606083018461459e565b95945050505050565b60006080820190506152956000830189614c2e565b81810360208301526152a88187896145bc565b905081810360408301526152bd8185876146ed565b90506152cc60608301846147f0565b979650505050505050565b60006040820190506152ec6000830185614c1f565b6152f960208301846147a8565b9392505050565b600060a0820190506153156000830188614c2e565b61532260208301876147f7565b61532f604083018661458f565b61533c6060830185614c3d565b6153496080830184614bad565b9695505050505050565b60006040820190506153686000830185614c1f565b6153756020830184614c1f565b9392505050565b60006080820190506153916000830187614c1f565b61539e6020830186614c1f565b6153ab6040830185614c1f565b6153b860608301846147a8565b95945050505050565b600080833560016020038436030381126153da57600080fd5b80840192508235915067ffffffffffffffff8211156153f857600080fd5b60208301925060018202360383131561541057600080fd5b509250929050565b6000615422615433565b905061542e828261583a565b919050565b6000604051905090565b600067ffffffffffffffff82111561545857615457615912565b5b602082029050602081019050919050565b600067ffffffffffffffff82111561548457615483615912565b5b602082029050602081019050919050565b600067ffffffffffffffff8211156154b0576154af615912565b5b6154b982615963565b9050602081019050919050565b600067ffffffffffffffff8211156154e1576154e0615912565b5b6154ea82615963565b9050602081019050919050565b6000819050919050565b6000819050919050565b6000819050602082019050919050565b6000819050919050565b6000819050602082019050919050565b60008190508160005260206000209050919050565b600081519050919050565b600081519050919050565b600081519050919050565b600081519050919050565b6000602082019050919050565b6000602082019050919050565b6000602082019050919050565b6000602082019050919050565b6000602082019050919050565b600082825260208201905092915050565b600082825260208201905092915050565b600082825260208201905092915050565b600082825260208201905092915050565b600082825260208201905092915050565b600082825260208201905092915050565b600082825260208201905092915050565b600082825260208201905092915050565b600081905092915050565b60006156596020840184613cfe565b905092915050565b6000808335600160200384360303811261567a57600080fd5b83810192508235915060208301925067ffffffffffffffff82111561569e57600080fd5b6001820236038413156156b057600080fd5b509250929050565b60006156c76020840184613f37565b905092915050565b60006156da826157af565b91506156e5836157af565b9250827fffffffffffffffffffffffffffffffffffffffffffffffffffffffffffffffff0382111561571a576157196158b4565b5b828201905092915050565b60006157308261578f565b9050919050565b60006157428261578f565b9050919050565b60008115159050919050565b60007fffffffff0000000000000000000000000000000000000000000000000000000082169050919050565b600061ffff82169050919050565b600073ffffffffffffffffffffffffffffffffffffffff82169050919050565b6000819050919050565b600060ff82169050919050565b82818337600083830152505050565b60005b838110156157f35780820151818401526020810190506157d8565b83811115615802576000848401525b50505050565b6000600282049050600182168061582057607f821691505b60208210811415615834576158336158e3565b5b50919050565b61584382615963565b810181811067ffffffffffffffff8211171561586257615861615912565b5b80604052505050565b6000615876826157af565b91507fffffffffffffffffffffffffffffffffffffffffffffffffffffffffffffffff8214156158a9576158a86158b4565b5b600182019050919050565b7f4e487b7100000000000000000000000000000000000000000000000000000000600052601160045260246000fd5b7f4e487b7100000000000000000000000000000000000000000000000000000000600052602260045260246000fd5b7f4e487b7100000000000000000000000000000000000000000000000000000000600052604160045260246000fd5b600060033d11156159605760046000803e61595d600051615974565b90505b90565b6000601f19601f8301169050919050565b60008160e01c9050919050565b7f455243313135353a207472616e7366657220746f206e6f6e204552433131353560008201527f526563656976657220696d706c656d656e746572000000000000000000000000602082015250565b7f455243313135353a204552433131353552656365697665722072656a6563746560008201527f6420746f6b656e73000000000000000000000000000000000000000000000000602082015250565b7f5061757361626c653a206e6f7420706175736564000000000000000000000000600082015250565b7f455243313135353a2062616c616e636520717565727920666f7220746865207a60008201527f65726f2061646472657373000000000000000000000000000000000000000000602082015250565b7f4f776e61626c653a206e6577206f776e657220697320746865207a65726f206160008201527f6464726573730000000000000000000000000000000000000000000000000000602082015250565b7f455243313135353a2063616c6c6572206973206e6f74206f776e6572206e6f7260008201527f20617070726f7665640000000000000000000000000000000000000000000000602082015250565b7f5061757361626c653a2070617573656400000000000000000000000000000000600082015250565b7f455243313135353a207472616e7366657220746f20746865207a65726f20616460008201527f6472657373000000000000000000000000000000000000000000000000000000602082015250565b7f455243313135353a207472616e736665722063616c6c6572206973206e6f742060008201527f6f776e6572206e6f7220617070726f7665640000000000000000000000000000602082015250565b7f496e697469616c697a61626c653a20636f6e747261637420697320616c72656160008201527f647920696e697469616c697a6564000000000000000000000000000000000000602082015250565b7f455243313135353a20696e73756666696369656e742062616c616e636520666f60008201527f72207472616e7366657200000000000000000000000000000000000000000000602082015250565b7f4f776e61626c653a2063616c6c6572206973206e6f7420746865206f776e6572600082015250565b7f546f6b656e20444e450000000000000000000000000000000000000000000000600082015250565b7f496e697469616c697a61626c653a20636f6e7472616374206973206e6f74206960008201527f6e697469616c697a696e67000000000000000000000000000000000000000000602082015250565b7f7b69647d00000000000000000000000000000000000000000000000000000000600082015250565b7f455243313135353a2073657474696e6720617070726f76616c2073746174757360008201527f20666f722073656c660000000000000000000000000000000000000000000000602082015250565b7f455243313135353a206163636f756e747320616e6420696473206c656e67746860008201527f206d69736d617463680000000000000000000000000000000000000000000000602082015250565b7f455243313135353a2069647320616e6420616d6f756e7473206c656e6774682060008201527f6d69736d61746368000000000000000000000000000000000000000000000000602082015250565b7f455243313135353a206d696e7420746f20746865207a65726f2061646472657360008201527f7300000000000000000000000000000000000000000000000000000000000000602082015250565b600060443d1015615eb057615f33565b615eb8615433565b60043d036004823e80513d602482011167ffffffffffffffff82111715615ee0575050615f33565b808201805167ffffffffffffffff811115615efe5750505050615f33565b80602083010160043d038501811115615f1b575050505050615f33565b615f2a8260200185018661583a565b82955050505050505b90565b615f3f81615725565b8114615f4a57600080fd5b50565b615f5681615749565b8114615f6157600080fd5b50565b615f6d81615755565b8114615f7857600080fd5b50565b615f8481615781565b8114615f8f57600080fd5b50565b615f9b816157af565b8114615fa657600080fd5b5056fea2646970667358221220948a6446cbfbd20b2d7f851d6817f919159ef5c7c80c281d73b21016750f394564736f6c63430008040033",
  "linkReferences": {
    "contracts/v1/lib/MusixverseLib.sol": {
      "MusixverseLib": [
        {
          "length": 20,
          "start": 3092
        },
        {
          "length": 20,
          "start": 4966
        },
        {
          "length": 20,
          "start": 5921
        },
        {
          "length": 20,
          "start": 6616
        },
        {
          "length": 20,
          "start": 8231
        }
      ]
    }
  },
  "deployedLinkReferences": {
    "contracts/v1/lib/MusixverseLib.sol": {
      "MusixverseLib": [
        {
          "length": 20,
          "start": 3059
        },
        {
          "length": 20,
          "start": 4933
        },
        {
          "length": 20,
          "start": 5888
        },
        {
          "length": 20,
          "start": 6583
        },
        {
          "length": 20,
          "start": 8198
        }
      ]
    }
  }
}