{
  "_format": "hh-sol-artifact-1",
  "contractName": "MusixverseV1",
  "sourceName": "contracts/v1/MusixverseV1.sol",
  "abi": [
    {
      "anonymous": false,
      "inputs": [
        {
          "indexed": true,
          "internalType": "address",
          "name": "account",
          "type": "address"
        },
        {
          "indexed": true,
          "internalType": "address",
          "name": "operator",
          "type": "address"
        },
        {
          "indexed": false,
          "internalType": "bool",
          "name": "approved",
          "type": "bool"
        }
      ],
      "name": "ApprovalForAll",
      "type": "event"
    },
    {
      "anonymous": false,
      "inputs": [
        {
          "indexed": true,
          "internalType": "address",
          "name": "previousOwner",
          "type": "address"
        },
        {
          "indexed": true,
          "internalType": "address",
          "name": "newOwner",
          "type": "address"
        }
      ],
      "name": "OwnershipTransferred",
      "type": "event"
    },
    {
      "anonymous": false,
      "inputs": [
        {
          "indexed": false,
          "internalType": "address",
          "name": "account",
          "type": "address"
        }
      ],
      "name": "Paused",
      "type": "event"
    },
    {
      "anonymous": false,
      "inputs": [
        {
          "indexed": false,
          "internalType": "address",
          "name": "",
          "type": "address"
        },
        {
          "indexed": false,
          "internalType": "uint256",
          "name": "",
          "type": "uint256"
        }
      ],
      "name": "Received",
      "type": "event"
    },
    {
      "anonymous": false,
      "inputs": [
        {
          "indexed": false,
          "internalType": "uint256",
          "name": "tokenId",
          "type": "uint256"
        },
        {
          "indexed": false,
          "internalType": "uint256",
          "name": "price",
          "type": "uint256"
        },
        {
          "indexed": false,
          "internalType": "uint256",
          "name": "localTokenId",
          "type": "uint256"
        }
      ],
      "name": "TokenCreated",
      "type": "event"
    },
    {
      "anonymous": false,
      "inputs": [
        {
          "indexed": false,
          "internalType": "uint256",
          "name": "tokenId",
          "type": "uint256"
        },
        {
          "indexed": false,
          "internalType": "bool",
          "name": "onSale",
          "type": "bool"
        }
      ],
      "name": "TokenOnSaleUpdated",
      "type": "event"
    },
    {
      "anonymous": false,
      "inputs": [
        {
          "indexed": false,
          "internalType": "uint256",
          "name": "tokenId",
          "type": "uint256"
        },
        {
          "indexed": false,
          "internalType": "uint256",
          "name": "oldPrice",
          "type": "uint256"
        },
        {
          "indexed": false,
          "internalType": "uint256",
          "name": "newPrice",
          "type": "uint256"
        }
      ],
      "name": "TokenPriceUpdated",
      "type": "event"
    },
    {
      "anonymous": false,
      "inputs": [
        {
          "indexed": false,
          "internalType": "uint256",
          "name": "tokenId",
          "type": "uint256"
        },
        {
          "indexed": false,
          "internalType": "address",
          "name": "previousOwner",
          "type": "address"
        },
        {
          "indexed": false,
          "internalType": "address",
          "name": "newOwner",
          "type": "address"
        },
        {
          "indexed": false,
          "internalType": "uint256",
          "name": "price",
          "type": "uint256"
        }
      ],
      "name": "TokenPurchased",
      "type": "event"
    },
    {
      "anonymous": false,
      "inputs": [
        {
          "indexed": true,
          "internalType": "address",
          "name": "operator",
          "type": "address"
        },
        {
          "indexed": true,
          "internalType": "address",
          "name": "from",
          "type": "address"
        },
        {
          "indexed": true,
          "internalType": "address",
          "name": "to",
          "type": "address"
        },
        {
          "indexed": false,
          "internalType": "uint256[]",
          "name": "ids",
          "type": "uint256[]"
        },
        {
          "indexed": false,
          "internalType": "uint256[]",
          "name": "values",
          "type": "uint256[]"
        }
      ],
      "name": "TransferBatch",
      "type": "event"
    },
    {
      "anonymous": false,
      "inputs": [
        {
          "indexed": true,
          "internalType": "address",
          "name": "operator",
          "type": "address"
        },
        {
          "indexed": true,
          "internalType": "address",
          "name": "from",
          "type": "address"
        },
        {
          "indexed": true,
          "internalType": "address",
          "name": "to",
          "type": "address"
        },
        {
          "indexed": false,
          "internalType": "uint256",
          "name": "id",
          "type": "uint256"
        },
        {
          "indexed": false,
          "internalType": "uint256",
          "name": "value",
          "type": "uint256"
        }
      ],
      "name": "TransferSingle",
      "type": "event"
    },
    {
      "anonymous": false,
      "inputs": [
        {
          "indexed": false,
          "internalType": "string",
          "name": "value",
          "type": "string"
        },
        {
          "indexed": true,
          "internalType": "uint256",
          "name": "id",
          "type": "uint256"
        }
      ],
      "name": "URI",
      "type": "event"
    },
    {
      "anonymous": false,
      "inputs": [
        {
          "indexed": false,
          "internalType": "address",
          "name": "account",
          "type": "address"
        }
      ],
      "name": "Unpaused",
      "type": "event"
    },
    {
      "inputs": [
        {
          "internalType": "address",
          "name": "account",
          "type": "address"
        },
        {
          "internalType": "uint256",
          "name": "id",
          "type": "uint256"
        }
      ],
      "name": "balanceOf",
      "outputs": [
        {
          "internalType": "uint256",
          "name": "",
          "type": "uint256"
        }
      ],
      "stateMutability": "view",
      "type": "function"
    },
    {
      "inputs": [
        {
          "internalType": "address[]",
          "name": "accounts",
          "type": "address[]"
        },
        {
          "internalType": "uint256[]",
          "name": "ids",
          "type": "uint256[]"
        }
      ],
      "name": "balanceOfBatch",
      "outputs": [
        {
          "internalType": "uint256[]",
          "name": "",
          "type": "uint256[]"
        }
      ],
      "stateMutability": "view",
      "type": "function"
    },
    {
      "inputs": [],
      "name": "baseURI",
      "outputs": [
        {
          "internalType": "string",
          "name": "",
          "type": "string"
        }
      ],
      "stateMutability": "view",
      "type": "function"
    },
    {
      "inputs": [],
      "name": "contractURI",
      "outputs": [
        {
          "internalType": "string",
          "name": "",
          "type": "string"
        }
      ],
      "stateMutability": "view",
      "type": "function"
    },
    {
      "inputs": [
        {
          "internalType": "uint256",
          "name": "tokenId",
          "type": "uint256"
        }
      ],
      "name": "getRoyaltyInfo",
      "outputs": [
        {
          "components": [
            {
              "internalType": "address payable",
              "name": "recipient",
              "type": "address"
            },
            {
              "internalType": "uint256",
              "name": "percentage",
              "type": "uint256"
            }
          ],
          "internalType": "struct MusixverseEternalStorage.RoyaltyInfo[]",
          "name": "",
          "type": "tuple[]"
        }
      ],
      "stateMutability": "view",
      "type": "function"
    },
    {
      "inputs": [
        {
          "internalType": "string",
          "name": "tokenMetadataURI",
          "type": "string"
        },
        {
          "internalType": "string",
          "name": "contractMetadataURI",
          "type": "string"
        }
      ],
      "name": "initialize",
      "outputs": [],
      "stateMutability": "nonpayable",
      "type": "function"
    },
    {
      "inputs": [
        {
          "internalType": "address",
          "name": "account",
          "type": "address"
        },
        {
          "internalType": "address",
          "name": "operator",
          "type": "address"
        }
      ],
      "name": "isApprovedForAll",
      "outputs": [
        {
          "internalType": "bool",
          "name": "",
          "type": "bool"
        }
      ],
      "stateMutability": "view",
      "type": "function"
    },
    {
      "inputs": [
        {
          "internalType": "uint16",
          "name": "amount",
          "type": "uint16"
        },
        {
          "internalType": "uint256",
          "name": "price",
          "type": "uint256"
        },
        {
          "internalType": "string",
          "name": "URIHash",
          "type": "string"
        },
        {
          "internalType": "address[]",
          "name": "collaborators",
          "type": "address[]"
        },
        {
          "internalType": "uint16[]",
          "name": "percentageContributions",
          "type": "uint16[]"
        },
        {
          "internalType": "uint16",
          "name": "resaleRoyaltyPercentage",
          "type": "uint16"
        },
        {
          "internalType": "bool",
          "name": "onSale",
          "type": "bool"
        },
        {
          "internalType": "uint256",
          "name": "unlockTimestamp",
          "type": "uint256"
        }
      ],
      "name": "mintTrackNFT",
      "outputs": [],
      "stateMutability": "nonpayable",
      "type": "function"
    },
    {
      "inputs": [
        {
          "internalType": "uint256",
          "name": "",
          "type": "uint256"
        }
      ],
      "name": "musicNFTs",
      "outputs": [
        {
          "internalType": "uint256",
          "name": "price",
          "type": "uint256"
        },
        {
          "internalType": "address",
          "name": "artistAddress",
          "type": "address"
        },
        {
          "internalType": "uint16",
          "name": "resaleRoyaltyPercentage",
          "type": "uint16"
        },
        {
          "internalType": "bool",
          "name": "onSale",
          "type": "bool"
        },
        {
          "internalType": "bool",
          "name": "soldOnce",
          "type": "bool"
        },
        {
          "internalType": "uint256",
          "name": "unlockTimestamp",
          "type": "uint256"
        }
      ],
      "stateMutability": "view",
      "type": "function"
    },
    {
      "inputs": [],
      "name": "mxvLatestTokenID",
      "outputs": [
        {
          "internalType": "uint256",
          "name": "_value",
          "type": "uint256"
        }
      ],
      "stateMutability": "view",
      "type": "function"
    },
    {
      "inputs": [],
      "name": "name",
      "outputs": [
        {
          "internalType": "string",
          "name": "",
          "type": "string"
        }
      ],
      "stateMutability": "view",
      "type": "function"
    },
    {
      "inputs": [],
      "name": "owner",
      "outputs": [
        {
          "internalType": "address",
          "name": "",
          "type": "address"
        }
      ],
      "stateMutability": "view",
      "type": "function"
    },
    {
      "inputs": [
        {
          "internalType": "uint256",
          "name": "tokenId",
          "type": "uint256"
        }
      ],
      "name": "ownerOf",
      "outputs": [
        {
          "internalType": "address",
          "name": "",
          "type": "address"
        }
      ],
      "stateMutability": "view",
      "type": "function"
    },
    {
      "inputs": [],
      "name": "pause",
      "outputs": [],
      "stateMutability": "nonpayable",
      "type": "function"
    },
    {
      "inputs": [],
      "name": "paused",
      "outputs": [
        {
          "internalType": "bool",
          "name": "",
          "type": "bool"
        }
      ],
      "stateMutability": "view",
      "type": "function"
    },
    {
      "inputs": [
        {
          "internalType": "uint256",
          "name": "tokenId",
          "type": "uint256"
        }
      ],
      "name": "purchaseTrackNFT",
      "outputs": [],
      "stateMutability": "payable",
      "type": "function"
    },
    {
      "inputs": [],
      "name": "renounceOwnership",
      "outputs": [],
      "stateMutability": "nonpayable",
      "type": "function"
    },
    {
      "inputs": [
        {
          "internalType": "uint256",
          "name": "",
          "type": "uint256"
        },
        {
          "internalType": "uint256",
          "name": "",
          "type": "uint256"
        }
      ],
      "name": "royalties",
      "outputs": [
        {
          "internalType": "address payable",
          "name": "recipient",
          "type": "address"
        },
        {
          "internalType": "uint256",
          "name": "percentage",
          "type": "uint256"
        }
      ],
      "stateMutability": "view",
      "type": "function"
    },
    {
      "inputs": [
        {
          "internalType": "address",
          "name": "from",
          "type": "address"
        },
        {
          "internalType": "address",
          "name": "to",
          "type": "address"
        },
        {
          "internalType": "uint256[]",
          "name": "ids",
          "type": "uint256[]"
        },
        {
          "internalType": "uint256[]",
          "name": "amounts",
          "type": "uint256[]"
        },
        {
          "internalType": "bytes",
          "name": "data",
          "type": "bytes"
        }
      ],
      "name": "safeBatchTransferFrom",
      "outputs": [],
      "stateMutability": "nonpayable",
      "type": "function"
    },
    {
      "inputs": [
        {
          "internalType": "address",
          "name": "from",
          "type": "address"
        },
        {
          "internalType": "address",
          "name": "to",
          "type": "address"
        },
        {
          "internalType": "uint256",
          "name": "id",
          "type": "uint256"
        },
        {
          "internalType": "uint256",
          "name": "amount",
          "type": "uint256"
        },
        {
          "internalType": "bytes",
          "name": "data",
          "type": "bytes"
        }
      ],
      "name": "safeTransferFrom",
      "outputs": [],
      "stateMutability": "nonpayable",
      "type": "function"
    },
    {
      "inputs": [
        {
          "internalType": "address",
          "name": "operator",
          "type": "address"
        },
        {
          "internalType": "bool",
          "name": "approved",
          "type": "bool"
        }
      ],
      "name": "setApprovalForAll",
      "outputs": [],
      "stateMutability": "nonpayable",
      "type": "function"
    },
    {
      "inputs": [
        {
          "internalType": "bytes4",
          "name": "interfaceId",
          "type": "bytes4"
        }
      ],
      "name": "supportsInterface",
      "outputs": [
        {
          "internalType": "bool",
          "name": "",
          "type": "bool"
        }
      ],
      "stateMutability": "view",
      "type": "function"
    },
    {
      "inputs": [],
      "name": "symbol",
      "outputs": [
        {
          "internalType": "string",
          "name": "",
          "type": "string"
        }
      ],
      "stateMutability": "view",
      "type": "function"
    },
    {
      "inputs": [
        {
          "internalType": "uint256",
          "name": "tokenId",
          "type": "uint256"
        }
      ],
      "name": "toggleOnSale",
      "outputs": [],
      "stateMutability": "nonpayable",
      "type": "function"
    },
    {
      "inputs": [
        {
          "internalType": "address",
          "name": "newOwner",
          "type": "address"
        }
      ],
      "name": "transferOwnership",
      "outputs": [],
      "stateMutability": "nonpayable",
      "type": "function"
    },
    {
      "inputs": [],
      "name": "unpause",
      "outputs": [],
      "stateMutability": "nonpayable",
      "type": "function"
    },
    {
      "inputs": [
        {
          "internalType": "string",
          "name": "newURI",
          "type": "string"
        }
      ],
      "name": "updateBaseURI",
      "outputs": [],
      "stateMutability": "nonpayable",
      "type": "function"
    },
    {
      "inputs": [
        {
          "internalType": "string",
          "name": "newURI",
          "type": "string"
        }
      ],
      "name": "updateContractMetadataURI",
      "outputs": [],
      "stateMutability": "nonpayable",
      "type": "function"
    },
    {
      "inputs": [
        {
          "internalType": "uint256",
          "name": "tokenId",
          "type": "uint256"
        },
        {
          "internalType": "uint256",
          "name": "newPrice",
          "type": "uint256"
        }
      ],
      "name": "updatePrice",
      "outputs": [],
      "stateMutability": "nonpayable",
      "type": "function"
    },
    {
      "inputs": [
        {
          "internalType": "string",
          "name": "newURI",
          "type": "string"
        }
      ],
      "name": "updateURI",
      "outputs": [],
      "stateMutability": "nonpayable",
      "type": "function"
    },
    {
      "inputs": [
        {
          "internalType": "uint256",
          "name": "mxvTokenId",
          "type": "uint256"
        }
      ],
      "name": "uri",
      "outputs": [
        {
          "internalType": "string",
          "name": "",
          "type": "string"
        }
      ],
      "stateMutability": "view",
      "type": "function"
    },
    {
      "inputs": [],
      "name": "withdraw",
      "outputs": [],
      "stateMutability": "nonpayable",
      "type": "function"
    },
    {
      "stateMutability": "payable",
      "type": "receive"
    }
  ],
  "bytecode": "0x608060405234801561001057600080fd5b50615e9180620000216000396000f3fe6080604052600436106101e65760003560e01c80638924af7411610102578063d272389411610095578063ee169bd311610064578063ee169bd314610727578063f242432a14610750578063f2fde38b14610779578063fd036655146107a257610226565b8063d27238941461066b578063d6e83cda14610696578063e8a3d485146106bf578063e985e9c5146106ea57610226565b80639c17d873116100d15780639c17d873146105b3578063a22cb465146105dc578063b76c632b14610605578063c30f4a5a1461064257610226565b80638924af74146104f65780638da5cb5b14610534578063931688cb1461055f57806395d89b411461058857610226565b80634e1273f41161017a5780636c0360eb116101495780636c0360eb14610474578063715018a61461049f57806382367b2d146104b65780638456cb59146104df57610226565b80634e1273f41461038d5780635c975abb146103ca5780635d269138146103f55780636352211e1461043757610226565b80632eb2c2d6116101b65780632eb2c2d61461030d5780633ccfd60b146103365780633f4ba83a1461034d5780634cd88b761461036457610226565b8062fdd58e1461022b57806301ffc9a71461026857806306fdde03146102a55780630e89341c146102d057610226565b36610226577f88a5966d370b9919b20f3e2c13ff65706f196a4e32cc2c12bf57088f88525874333460405161021c929190614db8565b60405180910390a1005b600080fd5b34801561023757600080fd5b50610252600480360381019061024d9190614151565b6107be565b60405161025f9190615155565b60405180910390f35b34801561027457600080fd5b5061028f600480360381019061028a9190614222565b610888565b60405161029c9190614e5c565b60405180910390f35b3480156102b157600080fd5b506102ba61096a565b6040516102c79190614e77565b60405180910390f35b3480156102dc57600080fd5b506102f760048036038101906102f2919061446e565b6109f8565b6040516103049190614e77565b60405180910390f35b34801561031957600080fd5b50610334600480360381019061032f9190613fc7565b610a90565b005b34801561034257600080fd5b5061034b610b31565b005b34801561035957600080fd5b50610362610bf6565b005b34801561037057600080fd5b5061038b600480360381019061038691906142fa565b610cc3565b005b34801561039957600080fd5b506103b460048036038101906103af919061418d565b610db3565b6040516103c19190614e03565b60405180910390f35b3480156103d657600080fd5b506103df610f64565b6040516103ec9190614e5c565b60405180910390f35b34801561040157600080fd5b5061041c6004803603810190610417919061446e565b610f7b565b60405161042e969594939291906151b5565b60405180910390f35b34801561044357600080fd5b5061045e6004803603810190610459919061446e565b611000565b60405161046b9190614c1a565b60405180910390f35b34801561048057600080fd5b506104896110e1565b6040516104969190614e77565b60405180910390f35b3480156104ab57600080fd5b506104b461116f565b005b3480156104c257600080fd5b506104dd60048036038101906104d89190614497565b6111f7565b005b3480156104eb57600080fd5b506104f46112f2565b005b34801561050257600080fd5b5061051d60048036038101906105189190614497565b6113c0565b60405161052b929190614c35565b60405180910390f35b34801561054057600080fd5b50610549611422565b6040516105569190614c1a565b60405180910390f35b34801561056b57600080fd5b50610586600480360381019061058191906142b9565b61144c565b005b34801561059457600080fd5b5061059d6114e2565b6040516105aa9190614e77565b60405180910390f35b3480156105bf57600080fd5b506105da60048036038101906105d59190614366565b611570565b005b3480156105e857600080fd5b5061060360048036038101906105fe9190614115565b611b13565b005b34801561061157600080fd5b5061062c6004803603810190610627919061446e565b611b29565b6040516106399190614de1565b60405180910390f35b34801561064e57600080fd5b5061066960048036038101906106649190614274565b611bfc565b005b34801561067757600080fd5b50610680611cc9565b60405161068d9190615155565b60405180910390f35b3480156106a257600080fd5b506106bd60048036038101906106b891906142b9565b611cd6565b005b3480156106cb57600080fd5b506106d4611d6c565b6040516106e19190614e77565b60405180910390f35b3480156106f657600080fd5b50610711600480360381019061070c9190613f8b565b611dfa565b60405161071e9190614e5c565b60405180910390f35b34801561073357600080fd5b5061074e6004803603810190610749919061446e565b611e8e565b005b34801561075c57600080fd5b5061077760048036038101906107729190614086565b611f82565b005b34801561078557600080fd5b506107a0600480360381019061079b9190613f62565b612023565b005b6107bc60048036038101906107b7919061446e565b61211b565b005b60008073ffffffffffffffffffffffffffffffffffffffff168373ffffffffffffffffffffffffffffffffffffffff16141561082f576040517f08c379a000000000000000000000000000000000000000000000000000000000815260040161082690614ef9565b60405180910390fd5b6065600083815260200190815260200160002060008473ffffffffffffffffffffffffffffffffffffffff1673ffffffffffffffffffffffffffffffffffffffff16815260200190815260200160002054905092915050565b60007fd9b67a26000000000000000000000000000000000000000000000000000000007bffffffffffffffffffffffffffffffffffffffffffffffffffffffff1916827bffffffffffffffffffffffffffffffffffffffffffffffffffffffff1916148061095357507f0e89341c000000000000000000000000000000000000000000000000000000007bffffffffffffffffffffffffffffffffffffffffffffffffffffffff1916827bffffffffffffffffffffffffffffffffffffffffffffffffffffffff1916145b806109635750610962826122c5565b5b9050919050565b60fb8054610977906156ba565b80601f01602080910402602001604051908101604052809291908181526020018280546109a3906156ba565b80156109f05780601f106109c5576101008083540402835291602001916109f0565b820191906000526020600020905b8154815290600101906020018083116109d357829003601f168201915b505050505081565b6060600082118015610a145750610a1061010061232f565b8211155b610a53576040517f08c379a0000000000000000000000000000000000000000000000000000000008152600401610a4a90615019565b60405180910390fd5b60fe6101016000848152602001908152602001600020604051602001610a7a929190614bf6565b6040516020818303038152906040529050919050565b610a9861233d565b73ffffffffffffffffffffffffffffffffffffffff168573ffffffffffffffffffffffffffffffffffffffff161480610ade5750610add85610ad861233d565b611dfa565b5b610b1d576040517f08c379a0000000000000000000000000000000000000000000000000000000008152600401610b1490614f99565b60405180910390fd5b610b2a8585858585612345565b5050505050565b610b3961233d565b73ffffffffffffffffffffffffffffffffffffffff16610b57611422565b73ffffffffffffffffffffffffffffffffffffffff1614610bad576040517f08c379a0000000000000000000000000000000000000000000000000000000008152600401610ba490614ff9565b60405180910390fd5b3373ffffffffffffffffffffffffffffffffffffffff166108fc479081150290604051600060405180830381858888f19350505050158015610bf3573d6000803e3d6000fd5b50565b610bfe610f64565b610c3d576040517f08c379a0000000000000000000000000000000000000000000000000000000008152600401610c3490614ed9565b60405180910390fd5b610c4561233d565b73ffffffffffffffffffffffffffffffffffffffff16610c63611422565b73ffffffffffffffffffffffffffffffffffffffff1614610cb9576040517f08c379a0000000000000000000000000000000000000000000000000000000008152600401610cb090614ff9565b60405180910390fd5b610cc16126a8565b565b600060019054906101000a900460ff16610ceb5760008054906101000a900460ff1615610cf4565b610cf361274a565b5b610d33576040517f08c379a0000000000000000000000000000000000000000000000000000000008152600401610d2a90614fb9565b60405180910390fd5b60008060019054906101000a900460ff161590508015610d83576001600060016101000a81548160ff02191690831515021790555060016000806101000a81548160ff0219169083151502179055505b610d8d838361275b565b8015610dae5760008060016101000a81548160ff0219169083151502179055505b505050565b60608151835114610df9576040517f08c379a0000000000000000000000000000000000000000000000000000000008152600401610df090615079565b60405180910390fd5b6000835167ffffffffffffffff811115610e3c577f4e487b7100000000000000000000000000000000000000000000000000000000600052604160045260246000fd5b604051908082528060200260200182016040528015610e6a5781602001602082028036833780820191505090505b50905060005b8451811015610f5957610f03858281518110610eb5577f4e487b7100000000000000000000000000000000000000000000000000000000600052603260045260246000fd5b6020026020010151858381518110610ef6577f4e487b7100000000000000000000000000000000000000000000000000000000600052603260045260246000fd5b60200260200101516107be565b828281518110610f3c577f4e487b7100000000000000000000000000000000000000000000000000000000600052603260045260246000fd5b60200260200101818152505080610f529061571d565b9050610e70565b508091505092915050565b6000609760009054906101000a900460ff16905090565b6101036020528060005260406000206000915090508060000154908060010160009054906101000a900473ffffffffffffffffffffffffffffffffffffffff16908060010160149054906101000a900461ffff16908060010160169054906101000a900460ff16908060010160179054906101000a900460ff16908060020154905086565b60008073ffffffffffffffffffffffffffffffffffffffff16610102600084815260200190815260200160002060009054906101000a900473ffffffffffffffffffffffffffffffffffffffff1673ffffffffffffffffffffffffffffffffffffffff1614156110a5576040517f08c379a000000000000000000000000000000000000000000000000000000000815260040161109c90615019565b60405180910390fd5b610102600083815260200190815260200160002060009054906101000a900473ffffffffffffffffffffffffffffffffffffffff169050919050565b60fe80546110ee906156ba565b80601f016020809104026020016040519081016040528092919081815260200182805461111a906156ba565b80156111675780601f1061113c57610100808354040283529160200191611167565b820191906000526020600020905b81548152906001019060200180831161114a57829003601f168201915b505050505081565b61117761233d565b73ffffffffffffffffffffffffffffffffffffffff16611195611422565b73ffffffffffffffffffffffffffffffffffffffff16146111eb576040517f08c379a00000000000000000000000000000000000000000000000000000000081526004016111e290614ff9565b60405180910390fd5b6111f56000612994565b565b60008073__$466d0af6b863105b2d93eed45cf7a289fc$__63d68d51c360ff60019054906101000a900473ffffffffffffffffffffffffffffffffffffffff1686610103876101006040518663ffffffff1660e01b815260040161125f959493929190614ca3565b604080518083038186803b15801561127657600080fd5b505af415801561128a573d6000803e3d6000fd5b505050506040513d601f19601f820116820180604052508101906112ae91906144d3565b915091507ed4fe314618b73a96886b87817a53a5ed51433b0234c85a5e9dafe2cb7b88428483836040516112e493929190615312565b60405180910390a150505050565b6112fa610f64565b1561133a576040517f08c379a000000000000000000000000000000000000000000000000000000000815260040161133190614f59565b60405180910390fd5b61134261233d565b73ffffffffffffffffffffffffffffffffffffffff16611360611422565b73ffffffffffffffffffffffffffffffffffffffff16146113b6576040517f08c379a00000000000000000000000000000000000000000000000000000000081526004016113ad90614ff9565b60405180910390fd5b6113be612a5a565b565b61010460205281600052604060002081815481106113dd57600080fd5b9060005260206000209060020201600091509150508060000160009054906101000a900473ffffffffffffffffffffffffffffffffffffffff16908060010154905082565b600060c960009054906101000a900473ffffffffffffffffffffffffffffffffffffffff16905090565b61145461233d565b73ffffffffffffffffffffffffffffffffffffffff16611472611422565b73ffffffffffffffffffffffffffffffffffffffff16146114c8576040517f08c379a00000000000000000000000000000000000000000000000000000000081526004016114bf90614ff9565b60405180910390fd5b8060fe90805190602001906114de929190613b3d565b5050565b60fc80546114ef906156ba565b80601f016020809104026020016040519081016040528092919081815260200182805461151b906156ba565b80156115685780601f1061153d57610100808354040283529160200191611568565b820191906000526020600020905b81548152906001019060200180831161154b57829003601f168201915b505050505081565b611578610f64565b156115b8576040517f08c379a00000000000000000000000000000000000000000000000000000000081526004016115af90614f59565b60405180910390fd5b73__$466d0af6b863105b2d93eed45cf7a289fc$__633fe56e118c8c8c8c8c8c8c8c8c6040518a63ffffffff1660e01b81526004016115ff999897969594939291906150d9565b60006040518083038186803b15801561161757600080fd5b505af415801561162b573d6000803e3d6000fd5b5050505060008b61ffff1667ffffffffffffffff811115611675577f4e487b7100000000000000000000000000000000000000000000000000000000600052604160045260246000fd5b6040519080825280602002602001820160405280156116a35781602001602082028036833780820191505090505b50905060008c61ffff1667ffffffffffffffff8111156116ec577f4e487b7100000000000000000000000000000000000000000000000000000000600052604160045260246000fd5b60405190808252806020026020018201604052801561171a5781602001602082028036833780820191505090505b50905060005b8d61ffff16811015611a3e57611737610100612afd565b61174261010061232f565b83828151811061177b577f4e487b7100000000000000000000000000000000000000000000000000000000600052603260045260246000fd5b60200260200101818152505060018282815181106117c2577f4e487b7100000000000000000000000000000000000000000000000000000000600052603260045260246000fd5b6020026020010181815250506118266117dc61010061232f565b8d8d8080601f016020809104026020016040519081016040528093929190818152602001838380828437600081840152601f19601f82011690508083019250505050505050612b13565b73__$466d0af6b863105b2d93eed45cf7a289fc$__631d5492e461184b61010061232f565b8c8c8c8c6101046040518763ffffffff1660e01b815260040161187396959493929190615216565b60006040518083038186803b15801561188b57600080fd5b505af415801561189f573d6000803e3d6000fd5b505050503361010260006118b461010061232f565b815260200190815260200160002060006101000a81548173ffffffffffffffffffffffffffffffffffffffff021916908373ffffffffffffffffffffffffffffffffffffffff1602179055506040518060c001604052808e81526020013373ffffffffffffffffffffffffffffffffffffffff1681526020018761ffff168152602001861515815260200160001515815260200185815250610103600061195c61010061232f565b81526020019081526020016000206000820151816000015560208201518160010160006101000a81548173ffffffffffffffffffffffffffffffffffffffff021916908373ffffffffffffffffffffffffffffffffffffffff16021790555060408201518160010160146101000a81548161ffff021916908361ffff16021790555060608201518160010160166101000a81548160ff02191690831515021790555060808201518160010160176101000a81548160ff02191690831515021790555060a082015181600201559050508080611a369061571d565b915050611720565b50611a5a33838360405180602001604052806000815250612b40565b60005b8d61ffff16811015611b03577f333d440968f88ae0a41cb37e6163a30ad479e67f9dd29d1d934331316ba0fe57838281518110611ac3577f4e487b7100000000000000000000000000000000000000000000000000000000600052603260045260246000fd5b60200260200101518e600184611ad99190615581565b604051611ae893929190615312565b60405180910390a18080611afb9061571d565b915050611a5d565b5050505050505050505050505050565b611b25611b1e61233d565b8383612dab565b5050565b60606101046000838152602001908152602001600020805480602002602001604051908101604052809291908181526020016000905b82821015611bf157838290600052602060002090600202016040518060400160405290816000820160009054906101000a900473ffffffffffffffffffffffffffffffffffffffff1673ffffffffffffffffffffffffffffffffffffffff1673ffffffffffffffffffffffffffffffffffffffff16815260200160018201548152505081526020019060010190611b5f565b505050509050919050565b611c0461233d565b73ffffffffffffffffffffffffffffffffffffffff16611c22611422565b73ffffffffffffffffffffffffffffffffffffffff1614611c78576040517f08c379a0000000000000000000000000000000000000000000000000000000008152600401611c6f90614ff9565b60405180910390fd5b611cc582828080601f016020809104026020016040519081016040528093929190818152602001838380828437600081840152601f19601f82011690508083019250505050505050612f18565b5050565b6101008060000154905081565b611cde61233d565b73ffffffffffffffffffffffffffffffffffffffff16611cfc611422565b73ffffffffffffffffffffffffffffffffffffffff1614611d52576040517f08c379a0000000000000000000000000000000000000000000000000000000008152600401611d4990614ff9565b60405180910390fd5b8060fd9080519060200190611d68929190613b3d565b5050565b60fd8054611d79906156ba565b80601f0160208091040260200160405190810160405280929190818152602001828054611da5906156ba565b8015611df25780601f10611dc757610100808354040283529160200191611df2565b820191906000526020600020905b815481529060010190602001808311611dd557829003601f168201915b505050505081565b6000606660008473ffffffffffffffffffffffffffffffffffffffff1673ffffffffffffffffffffffffffffffffffffffff16815260200190815260200160002060008373ffffffffffffffffffffffffffffffffffffffff1673ffffffffffffffffffffffffffffffffffffffff16815260200190815260200160002060009054906101000a900460ff16905092915050565b600073__$466d0af6b863105b2d93eed45cf7a289fc$__6323bfc32060ff60019054906101000a900473ffffffffffffffffffffffffffffffffffffffff16846101036101006040518563ffffffff1660e01b8152600401611ef39493929190614c5e565b60206040518083038186803b158015611f0b57600080fd5b505af4158015611f1f573d6000803e3d6000fd5b505050506040513d601f19601f82011682018060405250810190611f4391906141f9565b90507fb512b84d0e52781a8716f3c1904d0b1ee361197325a97e356d10b9f4d2c5d05a8282604051611f7692919061526d565b60405180910390a15050565b611f8a61233d565b73ffffffffffffffffffffffffffffffffffffffff168573ffffffffffffffffffffffffffffffffffffffff161480611fd05750611fcf85611fca61233d565b611dfa565b5b61200f576040517f08c379a000000000000000000000000000000000000000000000000000000000815260040161200690614f39565b60405180910390fd5b61201c8585858585612f32565b5050505050565b61202b61233d565b73ffffffffffffffffffffffffffffffffffffffff16612049611422565b73ffffffffffffffffffffffffffffffffffffffff161461209f576040517f08c379a000000000000000000000000000000000000000000000000000000000815260040161209690614ff9565b60405180910390fd5b600073ffffffffffffffffffffffffffffffffffffffff168173ffffffffffffffffffffffffffffffffffffffff16141561210f576040517f08c379a000000000000000000000000000000000000000000000000000000000815260040161210690614f19565b60405180910390fd5b61211881612994565b50565b612123610f64565b15612163576040517f08c379a000000000000000000000000000000000000000000000000000000000815260040161215a90614f59565b60405180910390fd5b600061216e82611000565b905073__$466d0af6b863105b2d93eed45cf7a289fc$__63e6485f608361010360ff60019054906101000a900473ffffffffffffffffffffffffffffffffffffffff1660ff60009054906101000a900460ff166101006040518663ffffffff1660e01b81526004016121e4959493929190615296565b60006040518083038186803b1580156121fc57600080fd5b505af4158015612210573d6000803e3d6000fd5b50505050612231813384600160405180602001604052806000815250612f32565b33610102600084815260200190815260200160002060006101000a81548173ffffffffffffffffffffffffffffffffffffffff021916908373ffffffffffffffffffffffffffffffffffffffff1602179055507f704cf6cb1221490022185412a0f82fd80ca9ccf7b5f84482727d0f6924265bd8828233346040516122b99493929190615170565b60405180910390a15050565b60007f01ffc9a7000000000000000000000000000000000000000000000000000000007bffffffffffffffffffffffffffffffffffffffffffffffffffffffff1916827bffffffffffffffffffffffffffffffffffffffffffffffffffffffff1916149050919050565b600081600001549050919050565b600033905090565b8151835114612389576040517f08c379a000000000000000000000000000000000000000000000000000000000815260040161238090615099565b60405180910390fd5b600073ffffffffffffffffffffffffffffffffffffffff168473ffffffffffffffffffffffffffffffffffffffff1614156123f9576040517f08c379a00000000000000000000000000000000000000000000000000000000081526004016123f090614f79565b60405180910390fd5b600061240361233d565b90506124138187878787876131b7565b60005b845181101561261357600085828151811061245a577f4e487b7100000000000000000000000000000000000000000000000000000000600052603260045260246000fd5b60200260200101519050600085838151811061249f577f4e487b7100000000000000000000000000000000000000000000000000000000600052603260045260246000fd5b6020026020010151905060006065600084815260200190815260200160002060008b73ffffffffffffffffffffffffffffffffffffffff1673ffffffffffffffffffffffffffffffffffffffff16815260200190815260200160002054905081811015612541576040517f08c379a000000000000000000000000000000000000000000000000000000000815260040161253890614fd9565b60405180910390fd5b8181036065600085815260200190815260200160002060008c73ffffffffffffffffffffffffffffffffffffffff1673ffffffffffffffffffffffffffffffffffffffff16815260200190815260200160002081905550816065600085815260200190815260200160002060008b73ffffffffffffffffffffffffffffffffffffffff1673ffffffffffffffffffffffffffffffffffffffff16815260200190815260200160002060008282546125f89190615581565b925050819055505050508061260c9061571d565b9050612416565b508473ffffffffffffffffffffffffffffffffffffffff168673ffffffffffffffffffffffffffffffffffffffff168273ffffffffffffffffffffffffffffffffffffffff167f4a39dc06d4c0dbc64b70af90fd698a233a518aa5d07e595d983b8c0526c8f7fb878760405161268a929190614e25565b60405180910390a46126a08187878787876131bf565b505050505050565b6126b0610f64565b6126ef576040517f08c379a00000000000000000000000000000000000000000000000000000000081526004016126e690614ed9565b60405180910390fd5b6000609760006101000a81548160ff0219169083151502179055507f5db9ee0a495bf2e6ff9c91a7834c1ba4fdd244a5e8aa4e537bd38aeae4b073aa61273361233d565b6040516127409190614c1a565b60405180910390a1565b6000612755306133a6565b15905090565b600060019054906101000a900460ff166127835760008054906101000a900460ff161561278c565b61278b61274a565b5b6127cb576040517f08c379a00000000000000000000000000000000000000000000000000000000081526004016127c290614fb9565b60405180910390fd5b60008060019054906101000a900460ff16159050801561281b576001600060016101000a81548160ff02191690831515021790555060016000806101000a81548160ff0219169083151502179055505b6128236133b9565b61284b836040516020016128379190614bd4565b6040516020818303038152906040526134a5565b6040518060400160405280600a81526020017f4d7573697876657273650000000000000000000000000000000000000000000081525060fb9080519060200190612896929190613b3d565b506040518060400160405280600381526020017f4d5856000000000000000000000000000000000000000000000000000000000081525060fc90805190602001906128e2929190613b3d565b508160fd90805190602001906128f9929190613b3d565b508260fe9080519060200190612910929190613b3d565b50600260ff60006101000a81548160ff021916908360ff1602179055503060ff60016101000a81548173ffffffffffffffffffffffffffffffffffffffff021916908373ffffffffffffffffffffffffffffffffffffffff160217905550801561298f5760008060016101000a81548160ff0219169083151502179055505b505050565b600060c960009054906101000a900473ffffffffffffffffffffffffffffffffffffffff1690508160c960006101000a81548173ffffffffffffffffffffffffffffffffffffffff021916908373ffffffffffffffffffffffffffffffffffffffff1602179055508173ffffffffffffffffffffffffffffffffffffffff168173ffffffffffffffffffffffffffffffffffffffff167f8be0079c531659141344cd1fd0a4f28419497f9722a3daafe3b4186f6b6457e060405160405180910390a35050565b612a62610f64565b15612aa2576040517f08c379a0000000000000000000000000000000000000000000000000000000008152600401612a9990614f59565b60405180910390fd5b6001609760006101000a81548160ff0219169083151502179055507f62e78cea01bee320cd4e420270b5ea74000d11b0c9f74754ebdbfc544b05a258612ae661233d565b604051612af39190614c1a565b60405180910390a1565b6001816000016000828254019250508190555050565b8061010160008481526020019081526020016000209080519060200190612b3b929190613b3d565b505050565b600073ffffffffffffffffffffffffffffffffffffffff168473ffffffffffffffffffffffffffffffffffffffff161415612bb0576040517f08c379a0000000000000000000000000000000000000000000000000000000008152600401612ba7906150b9565b60405180910390fd5b8151835114612bf4576040517f08c379a0000000000000000000000000000000000000000000000000000000008152600401612beb90615099565b60405180910390fd5b6000612bfe61233d565b9050612c0f816000878787876131b7565b60005b8451811015612d1557838181518110612c54577f4e487b7100000000000000000000000000000000000000000000000000000000600052603260045260246000fd5b602002602001015160656000878481518110612c99577f4e487b7100000000000000000000000000000000000000000000000000000000600052603260045260246000fd5b6020026020010151815260200190815260200160002060008873ffffffffffffffffffffffffffffffffffffffff1673ffffffffffffffffffffffffffffffffffffffff1681526020019081526020016000206000828254612cfb9190615581565b925050819055508080612d0d9061571d565b915050612c12565b508473ffffffffffffffffffffffffffffffffffffffff16600073ffffffffffffffffffffffffffffffffffffffff168273ffffffffffffffffffffffffffffffffffffffff167f4a39dc06d4c0dbc64b70af90fd698a233a518aa5d07e595d983b8c0526c8f7fb8787604051612d8d929190614e25565b60405180910390a4612da4816000878787876131bf565b5050505050565b8173ffffffffffffffffffffffffffffffffffffffff168373ffffffffffffffffffffffffffffffffffffffff161415612e1a576040517f08c379a0000000000000000000000000000000000000000000000000000000008152600401612e1190615059565b60405180910390fd5b80606660008573ffffffffffffffffffffffffffffffffffffffff1673ffffffffffffffffffffffffffffffffffffffff16815260200190815260200160002060008473ffffffffffffffffffffffffffffffffffffffff1673ffffffffffffffffffffffffffffffffffffffff16815260200190815260200160002060006101000a81548160ff0219169083151502179055508173ffffffffffffffffffffffffffffffffffffffff168373ffffffffffffffffffffffffffffffffffffffff167f17307eab39ab6107e8899845ad3d59bd9653f200f220920489ca2b5937696c3183604051612f0b9190614e5c565b60405180910390a3505050565b8060679080519060200190612f2e929190613b3d565b5050565b600073ffffffffffffffffffffffffffffffffffffffff168473ffffffffffffffffffffffffffffffffffffffff161415612fa2576040517f08c379a0000000000000000000000000000000000000000000000000000000008152600401612f9990614f79565b60405180910390fd5b6000612fac61233d565b9050612fcc818787612fbd88613510565b612fc688613510565b876131b7565b60006065600086815260200190815260200160002060008873ffffffffffffffffffffffffffffffffffffffff1673ffffffffffffffffffffffffffffffffffffffff16815260200190815260200160002054905083811015613064576040517f08c379a000000000000000000000000000000000000000000000000000000000815260040161305b90614fd9565b60405180910390fd5b8381036065600087815260200190815260200160002060008973ffffffffffffffffffffffffffffffffffffffff1673ffffffffffffffffffffffffffffffffffffffff16815260200190815260200160002081905550836065600087815260200190815260200160002060008873ffffffffffffffffffffffffffffffffffffffff1673ffffffffffffffffffffffffffffffffffffffff168152602001908152602001600020600082825461311b9190615581565b925050819055508573ffffffffffffffffffffffffffffffffffffffff168773ffffffffffffffffffffffffffffffffffffffff168373ffffffffffffffffffffffffffffffffffffffff167fc3d58168c5ae7397731d063d5bbf3d657854427343f4c083240f7aacaa2d0f6288886040516131989291906152e9565b60405180910390a46131ae8288888888886135d6565b50505050505050565b505050505050565b6131de8473ffffffffffffffffffffffffffffffffffffffff166133a6565b1561339e578373ffffffffffffffffffffffffffffffffffffffff1663bc197c8187878686866040518663ffffffff1660e01b8152600401613224959493929190614cf6565b602060405180830381600087803b15801561323e57600080fd5b505af192505050801561326f57506040513d601f19601f8201168201806040525081019061326c919061424b565b60015b6133155761327b6157f3565b806308c379a014156132d85750613290615d52565b8061329b57506132da565b806040517f08c379a00000000000000000000000000000000000000000000000000000000081526004016132cf9190614e77565b60405180910390fd5b505b6040517f08c379a000000000000000000000000000000000000000000000000000000000815260040161330c90614e99565b60405180910390fd5b63bc197c8160e01b7bffffffffffffffffffffffffffffffffffffffffffffffffffffffff1916817bffffffffffffffffffffffffffffffffffffffffffffffffffffffff19161461339c576040517f08c379a000000000000000000000000000000000000000000000000000000000815260040161339390614eb9565b60405180910390fd5b505b505050505050565b600080823b905060008111915050919050565b600060019054906101000a900460ff166133e15760008054906101000a900460ff16156133ea565b6133e961274a565b5b613429576040517f08c379a000000000000000000000000000000000000000000000000000000000815260040161342090614fb9565b60405180910390fd5b60008060019054906101000a900460ff161590508015613479576001600060016101000a81548160ff02191690831515021790555060016000806101000a81548160ff0219169083151502179055505b6134816137bd565b80156134a25760008060016101000a81548160ff0219169083151502179055505b50565b600060019054906101000a900460ff166134f4576040517f08c379a00000000000000000000000000000000000000000000000000000000081526004016134eb90615039565b60405180910390fd5b6134fc6138b1565b613504613902565b61350d81613953565b50565b60606000600167ffffffffffffffff811115613555577f4e487b7100000000000000000000000000000000000000000000000000000000600052604160045260246000fd5b6040519080825280602002602001820160405280156135835781602001602082028036833780820191505090505b50905082816000815181106135c1577f4e487b7100000000000000000000000000000000000000000000000000000000600052603260045260246000fd5b60200260200101818152505080915050919050565b6135f58473ffffffffffffffffffffffffffffffffffffffff166133a6565b156137b5578373ffffffffffffffffffffffffffffffffffffffff1663f23a6e6187878686866040518663ffffffff1660e01b815260040161363b959493929190614d5e565b602060405180830381600087803b15801561365557600080fd5b505af192505050801561368657506040513d601f19601f82011682018060405250810190613683919061424b565b60015b61372c576136926157f3565b806308c379a014156136ef57506136a7615d52565b806136b257506136f1565b806040517f08c379a00000000000000000000000000000000000000000000000000000000081526004016136e69190614e77565b60405180910390fd5b505b6040517f08c379a000000000000000000000000000000000000000000000000000000000815260040161372390614e99565b60405180910390fd5b63f23a6e6160e01b7bffffffffffffffffffffffffffffffffffffffffffffffffffffffff1916817bffffffffffffffffffffffffffffffffffffffffffffffffffffffff1916146137b3576040517f08c379a00000000000000000000000000000000000000000000000000000000081526004016137aa90614eb9565b60405180910390fd5b505b505050505050565b600060019054906101000a900460ff166137e55760008054906101000a900460ff16156137ee565b6137ed61274a565b5b61382d576040517f08c379a000000000000000000000000000000000000000000000000000000000815260040161382490614fb9565b60405180910390fd5b60008060019054906101000a900460ff16159050801561387d576001600060016101000a81548160ff02191690831515021790555060016000806101000a81548160ff0219169083151502179055505b6138856139ae565b61388d613a0f565b80156138ae5760008060016101000a81548160ff0219169083151502179055505b50565b600060019054906101000a900460ff16613900576040517f08c379a00000000000000000000000000000000000000000000000000000000081526004016138f790615039565b60405180910390fd5b565b600060019054906101000a900460ff16613951576040517f08c379a000000000000000000000000000000000000000000000000000000000815260040161394890615039565b60405180910390fd5b565b600060019054906101000a900460ff166139a2576040517f08c379a000000000000000000000000000000000000000000000000000000000815260040161399990615039565b60405180910390fd5b6139ab81612f18565b50565b600060019054906101000a900460ff166139fd576040517f08c379a00000000000000000000000000000000000000000000000000000000081526004016139f490615039565b60405180910390fd5b613a056138b1565b613a0d613a70565b565b600060019054906101000a900460ff16613a5e576040517f08c379a0000000000000000000000000000000000000000000000000000000008152600401613a5590615039565b60405180910390fd5b613a666138b1565b613a6e613adc565b565b600060019054906101000a900460ff16613abf576040517f08c379a0000000000000000000000000000000000000000000000000000000008152600401613ab690615039565b60405180910390fd5b6000609760006101000a81548160ff021916908315150217905550565b600060019054906101000a900460ff16613b2b576040517f08c379a0000000000000000000000000000000000000000000000000000000008152600401613b2290615039565b60405180910390fd5b613b3b613b3661233d565b612994565b565b828054613b49906156ba565b90600052602060002090601f016020900481019282613b6b5760008555613bb2565b82601f10613b8457805160ff1916838001178555613bb2565b82800160010185558215613bb2579182015b82811115613bb1578251825591602001919060010190613b96565b5b509050613bbf9190613bc3565b5090565b5b80821115613bdc576000816000905550600101613bc4565b5090565b6000613bf3613bee8461536e565b615349565b90508083825260208201905082856020860282011115613c1257600080fd5b60005b85811015613c425781613c288882613d34565b845260208401935060208301925050600181019050613c15565b5050509392505050565b6000613c5f613c5a8461539a565b615349565b90508083825260208201905082856020860282011115613c7e57600080fd5b60005b85811015613cae5781613c948882613f38565b845260208401935060208301925050600181019050613c81565b5050509392505050565b6000613ccb613cc6846153c6565b615349565b905082815260208101848484011115613ce357600080fd5b613cee848285615678565b509392505050565b6000613d09613d04846153f7565b615349565b905082815260208101848484011115613d2157600080fd5b613d2c848285615678565b509392505050565b600081359050613d4381615de8565b92915050565b60008083601f840112613d5b57600080fd5b8235905067ffffffffffffffff811115613d7457600080fd5b602083019150836020820283011115613d8c57600080fd5b9250929050565b600082601f830112613da457600080fd5b8135613db4848260208601613be0565b91505092915050565b60008083601f840112613dcf57600080fd5b8235905067ffffffffffffffff811115613de857600080fd5b602083019150836020820283011115613e0057600080fd5b9250929050565b600082601f830112613e1857600080fd5b8135613e28848260208601613c4c565b91505092915050565b600081359050613e4081615dff565b92915050565b600081519050613e5581615dff565b92915050565b600081359050613e6a81615e16565b92915050565b600081519050613e7f81615e16565b92915050565b600082601f830112613e9657600080fd5b8135613ea6848260208601613cb8565b91505092915050565b60008083601f840112613ec157600080fd5b8235905067ffffffffffffffff811115613eda57600080fd5b602083019150836001820283011115613ef257600080fd5b9250929050565b600082601f830112613f0a57600080fd5b8135613f1a848260208601613cf6565b91505092915050565b600081359050613f3281615e2d565b92915050565b600081359050613f4781615e44565b92915050565b600081519050613f5c81615e44565b92915050565b600060208284031215613f7457600080fd5b6000613f8284828501613d34565b91505092915050565b60008060408385031215613f9e57600080fd5b6000613fac85828601613d34565b9250506020613fbd85828601613d34565b9150509250929050565b600080600080600060a08688031215613fdf57600080fd5b6000613fed88828901613d34565b9550506020613ffe88828901613d34565b945050604086013567ffffffffffffffff81111561401b57600080fd5b61402788828901613e07565b935050606086013567ffffffffffffffff81111561404457600080fd5b61405088828901613e07565b925050608086013567ffffffffffffffff81111561406d57600080fd5b61407988828901613e85565b9150509295509295909350565b600080600080600060a0868803121561409e57600080fd5b60006140ac88828901613d34565b95505060206140bd88828901613d34565b94505060406140ce88828901613f38565b93505060606140df88828901613f38565b925050608086013567ffffffffffffffff8111156140fc57600080fd5b61410888828901613e85565b9150509295509295909350565b6000806040838503121561412857600080fd5b600061413685828601613d34565b925050602061414785828601613e31565b9150509250929050565b6000806040838503121561416457600080fd5b600061417285828601613d34565b925050602061418385828601613f38565b9150509250929050565b600080604083850312156141a057600080fd5b600083013567ffffffffffffffff8111156141ba57600080fd5b6141c685828601613d93565b925050602083013567ffffffffffffffff8111156141e357600080fd5b6141ef85828601613e07565b9150509250929050565b60006020828403121561420b57600080fd5b600061421984828501613e46565b91505092915050565b60006020828403121561423457600080fd5b600061424284828501613e5b565b91505092915050565b60006020828403121561425d57600080fd5b600061426b84828501613e70565b91505092915050565b6000806020838503121561428757600080fd5b600083013567ffffffffffffffff8111156142a157600080fd5b6142ad85828601613eaf565b92509250509250929050565b6000602082840312156142cb57600080fd5b600082013567ffffffffffffffff8111156142e557600080fd5b6142f184828501613ef9565b91505092915050565b6000806040838503121561430d57600080fd5b600083013567ffffffffffffffff81111561432757600080fd5b61433385828601613ef9565b925050602083013567ffffffffffffffff81111561435057600080fd5b61435c85828601613ef9565b9150509250929050565b60008060008060008060008060008060006101008c8e03121561438857600080fd5b60006143968e828f01613f23565b9b505060206143a78e828f01613f38565b9a505060408c013567ffffffffffffffff8111156143c457600080fd5b6143d08e828f01613eaf565b995099505060608c013567ffffffffffffffff8111156143ef57600080fd5b6143fb8e828f01613d49565b975097505060808c013567ffffffffffffffff81111561441a57600080fd5b6144268e828f01613dbd565b955095505060a06144398e828f01613f23565b93505060c061444a8e828f01613e31565b92505060e061445b8e828f01613f38565b9150509295989b509295989b9093969950565b60006020828403121561448057600080fd5b600061448e84828501613f38565b91505092915050565b600080604083850312156144aa57600080fd5b60006144b885828601613f38565b92505060206144c985828601613f38565b9150509250929050565b600080604083850312156144e657600080fd5b60006144f485828601613f4d565b925050602061450585828601613f4d565b9150509250929050565b600061451b83836145ab565b60208301905092915050565b60006145338383614b3c565b60408301905092915050565b600061454b8383614b89565b60208301905092915050565b60006145638383614b98565b60208301905092915050565b614578816155e9565b82525050565b614587816155e9565b82525050565b614596816155e9565b82525050565b6145a5816155d7565b82525050565b6145b4816155d7565b82525050565b60006145c683856154d1565b93506145d182615428565b8060005b8581101561460a576145e78284615553565b6145f1888261450f565b97506145fc8361549d565b9250506001810190506145d5565b5085925050509392505050565b600061462282615471565b61462c81856154e2565b935061463783615432565b8060005b8381101561466857815161464f8882614527565b975061465a836154aa565b92505060018101905061463b565b5085935050505092915050565b600061468183856154f3565b935061468c82615442565b8060005b858110156146c5576146a2828461556a565b6146ac888261453f565b97506146b7836154b7565b925050600181019050614690565b5085925050509392505050565b60006146dd8261547c565b6146e78185615504565b93506146f28361544c565b8060005b8381101561472357815161470a8882614557565b9750614715836154c4565b9250506001810190506146f6565b5085935050505092915050565b614739816155fb565b82525050565b600061474a82615487565b6147548185615515565b9350614764818560208601615687565b61476d81615815565b840191505092915050565b8082525050565b8082525050565b60006147928385615537565b935061479f838584615678565b6147a883615815565b840190509392505050565b60006147be82615492565b6147c88185615526565b93506147d8818560208601615687565b6147e181615815565b840191505092915050565b60006147f782615492565b6148018185615548565b9350614811818560208601615687565b80840191505092915050565b6000815461482a816156ba565b6148348186615548565b9450600182166000811461484f576001811461486057614893565b60ff19831686528186019350614893565b6148698561545c565b60005b8381101561488b5781548189015260018201915060208101905061486c565b838801955050505b50505092915050565b60006148a9603483615526565b91506148b482615833565b604082019050919050565b60006148cc602883615526565b91506148d782615882565b604082019050919050565b60006148ef601483615526565b91506148fa826158d1565b602082019050919050565b6000614912602b83615526565b915061491d826158fa565b604082019050919050565b6000614935602683615526565b915061494082615949565b604082019050919050565b6000614958602983615526565b915061496382615998565b604082019050919050565b600061497b601083615526565b9150614986826159e7565b602082019050919050565b600061499e602583615526565b91506149a982615a10565b604082019050919050565b60006149c1603283615526565b91506149cc82615a5f565b604082019050919050565b60006149e4602e83615526565b91506149ef82615aae565b604082019050919050565b6000614a07602a83615526565b9150614a1282615afd565b604082019050919050565b6000614a2a602083615526565b9150614a3582615b4c565b602082019050919050565b6000614a4d600983615526565b9150614a5882615b75565b602082019050919050565b6000614a70602b83615526565b9150614a7b82615b9e565b604082019050919050565b6000614a93600483615548565b9150614a9e82615bed565b600482019050919050565b6000614ab6602983615526565b9150614ac182615c16565b604082019050919050565b6000614ad9602983615526565b9150614ae482615c65565b604082019050919050565b6000614afc602883615526565b9150614b0782615cb4565b604082019050919050565b6000614b1f602183615526565b9150614b2a82615d03565b604082019050919050565b8082525050565b604082016000820151614b52600085018261456f565b506020820151614b656020850182614b98565b50505050565b614b7481615633565b82525050565b614b8381615633565b82525050565b614b9281615633565b82525050565b614ba181615661565b82525050565b614bb081615661565b82525050565b614bbf81615661565b82525050565b614bce8161566b565b82525050565b6000614be082846147ec565b9150614beb82614a86565b915081905092915050565b6000614c02828561481d565b9150614c0e828461481d565b91508190509392505050565b6000602082019050614c2f600083018461459c565b92915050565b6000604082019050614c4a600083018561457e565b614c576020830184614ba7565b9392505050565b6000608082019050614c73600083018761458d565b614c806020830186614bb6565b614c8d604083018561477f565b614c9a6060830184614b35565b95945050505050565b600060a082019050614cb8600083018861458d565b614cc56020830187614bb6565b614cd2604083018661477f565b614cdf6060830185614bb6565b614cec6080830184614b35565b9695505050505050565b600060a082019050614d0b600083018861459c565b614d18602083018761459c565b8181036040830152614d2a81866146d2565b90508181036060830152614d3e81856146d2565b90508181036080830152614d52818461473f565b90509695505050505050565b600060a082019050614d73600083018861459c565b614d80602083018761459c565b614d8d6040830186614ba7565b614d9a6060830185614ba7565b8181036080830152614dac818461473f565b90509695505050505050565b6000604082019050614dcd600083018561459c565b614dda6020830184614ba7565b9392505050565b60006020820190508181036000830152614dfb8184614617565b905092915050565b60006020820190508181036000830152614e1d81846146d2565b905092915050565b60006040820190508181036000830152614e3f81856146d2565b90508181036020830152614e5381846146d2565b90509392505050565b6000602082019050614e716000830184614730565b92915050565b60006020820190508181036000830152614e9181846147b3565b905092915050565b60006020820190508181036000830152614eb28161489c565b9050919050565b60006020820190508181036000830152614ed2816148bf565b9050919050565b60006020820190508181036000830152614ef2816148e2565b9050919050565b60006020820190508181036000830152614f1281614905565b9050919050565b60006020820190508181036000830152614f3281614928565b9050919050565b60006020820190508181036000830152614f528161494b565b9050919050565b60006020820190508181036000830152614f728161496e565b9050919050565b60006020820190508181036000830152614f9281614991565b9050919050565b60006020820190508181036000830152614fb2816149b4565b9050919050565b60006020820190508181036000830152614fd2816149d7565b9050919050565b60006020820190508181036000830152614ff2816149fa565b9050919050565b6000602082019050818103600083015261501281614a1d565b9050919050565b6000602082019050818103600083015261503281614a40565b9050919050565b6000602082019050818103600083015261505281614a63565b9050919050565b6000602082019050818103600083015261507281614aa9565b9050919050565b6000602082019050818103600083015261509281614acc565b9050919050565b600060208201905081810360008301526150b281614aef565b9050919050565b600060208201905081810360008301526150d281614b12565b9050919050565b600060c0820190506150ee600083018c614b7a565b6150fb602083018b614bb6565b818103604083015261510e81898b614786565b905081810360608301526151238187896145ba565b90508181036080830152615138818587614675565b905061514760a0830184614b7a565b9a9950505050505050505050565b600060208201905061516a6000830184614ba7565b92915050565b60006080820190506151856000830187614ba7565b615192602083018661459c565b61519f604083018561459c565b6151ac6060830184614ba7565b95945050505050565b600060c0820190506151ca6000830189614ba7565b6151d7602083018861459c565b6151e46040830187614b6b565b6151f16060830186614730565b6151fe6080830185614730565b61520b60a0830184614ba7565b979650505050505050565b600060808201905061522b6000830189614bb6565b818103602083015261523e8187896145ba565b90508181036040830152615253818587614675565b90506152626060830184614778565b979650505050505050565b60006040820190506152826000830185614ba7565b61528f6020830184614730565b9392505050565b600060a0820190506152ab6000830188614bb6565b6152b8602083018761477f565b6152c5604083018661458d565b6152d26060830185614bc5565b6152df6080830184614b35565b9695505050505050565b60006040820190506152fe6000830185614ba7565b61530b6020830184614ba7565b9392505050565b60006060820190506153276000830186614ba7565b6153346020830185614ba7565b6153416040830184614ba7565b949350505050565b6000615353615364565b905061535f82826156ec565b919050565b6000604051905090565b600067ffffffffffffffff821115615389576153886157c4565b5b602082029050602081019050919050565b600067ffffffffffffffff8211156153b5576153b46157c4565b5b602082029050602081019050919050565b600067ffffffffffffffff8211156153e1576153e06157c4565b5b6153ea82615815565b9050602081019050919050565b600067ffffffffffffffff821115615412576154116157c4565b5b61541b82615815565b9050602081019050919050565b6000819050919050565b6000819050602082019050919050565b6000819050919050565b6000819050602082019050919050565b60008190508160005260206000209050919050565b600081519050919050565b600081519050919050565b600081519050919050565b600081519050919050565b6000602082019050919050565b6000602082019050919050565b6000602082019050919050565b6000602082019050919050565b600082825260208201905092915050565b600082825260208201905092915050565b600082825260208201905092915050565b600082825260208201905092915050565b600082825260208201905092915050565b600082825260208201905092915050565b600082825260208201905092915050565b600081905092915050565b60006155626020840184613d34565b905092915050565b60006155796020840184613f23565b905092915050565b600061558c82615661565b915061559783615661565b9250827fffffffffffffffffffffffffffffffffffffffffffffffffffffffffffffffff038211156155cc576155cb615766565b5b828201905092915050565b60006155e282615641565b9050919050565b60006155f482615641565b9050919050565b60008115159050919050565b60007fffffffff0000000000000000000000000000000000000000000000000000000082169050919050565b600061ffff82169050919050565b600073ffffffffffffffffffffffffffffffffffffffff82169050919050565b6000819050919050565b600060ff82169050919050565b82818337600083830152505050565b60005b838110156156a557808201518184015260208101905061568a565b838111156156b4576000848401525b50505050565b600060028204905060018216806156d257607f821691505b602082108114156156e6576156e5615795565b5b50919050565b6156f582615815565b810181811067ffffffffffffffff82111715615714576157136157c4565b5b80604052505050565b600061572882615661565b91507fffffffffffffffffffffffffffffffffffffffffffffffffffffffffffffffff82141561575b5761575a615766565b5b600182019050919050565b7f4e487b7100000000000000000000000000000000000000000000000000000000600052601160045260246000fd5b7f4e487b7100000000000000000000000000000000000000000000000000000000600052602260045260246000fd5b7f4e487b7100000000000000000000000000000000000000000000000000000000600052604160045260246000fd5b600060033d11156158125760046000803e61580f600051615826565b90505b90565b6000601f19601f8301169050919050565b60008160e01c9050919050565b7f455243313135353a207472616e7366657220746f206e6f6e204552433131353560008201527f526563656976657220696d706c656d656e746572000000000000000000000000602082015250565b7f455243313135353a204552433131353552656365697665722072656a6563746560008201527f6420746f6b656e73000000000000000000000000000000000000000000000000602082015250565b7f5061757361626c653a206e6f7420706175736564000000000000000000000000600082015250565b7f455243313135353a2062616c616e636520717565727920666f7220746865207a60008201527f65726f2061646472657373000000000000000000000000000000000000000000602082015250565b7f4f776e61626c653a206e6577206f776e657220697320746865207a65726f206160008201527f6464726573730000000000000000000000000000000000000000000000000000602082015250565b7f455243313135353a2063616c6c6572206973206e6f74206f776e6572206e6f7260008201527f20617070726f7665640000000000000000000000000000000000000000000000602082015250565b7f5061757361626c653a2070617573656400000000000000000000000000000000600082015250565b7f455243313135353a207472616e7366657220746f20746865207a65726f20616460008201527f6472657373000000000000000000000000000000000000000000000000000000602082015250565b7f455243313135353a207472616e736665722063616c6c6572206973206e6f742060008201527f6f776e6572206e6f7220617070726f7665640000000000000000000000000000602082015250565b7f496e697469616c697a61626c653a20636f6e747261637420697320616c72656160008201527f647920696e697469616c697a6564000000000000000000000000000000000000602082015250565b7f455243313135353a20696e73756666696369656e742062616c616e636520666f60008201527f72207472616e7366657200000000000000000000000000000000000000000000602082015250565b7f4f776e61626c653a2063616c6c6572206973206e6f7420746865206f776e6572600082015250565b7f546f6b656e20444e450000000000000000000000000000000000000000000000600082015250565b7f496e697469616c697a61626c653a20636f6e7472616374206973206e6f74206960008201527f6e697469616c697a696e67000000000000000000000000000000000000000000602082015250565b7f7b69647d00000000000000000000000000000000000000000000000000000000600082015250565b7f455243313135353a2073657474696e6720617070726f76616c2073746174757360008201527f20666f722073656c660000000000000000000000000000000000000000000000602082015250565b7f455243313135353a206163636f756e747320616e6420696473206c656e67746860008201527f206d69736d617463680000000000000000000000000000000000000000000000602082015250565b7f455243313135353a2069647320616e6420616d6f756e7473206c656e6774682060008201527f6d69736d61746368000000000000000000000000000000000000000000000000602082015250565b7f455243313135353a206d696e7420746f20746865207a65726f2061646472657360008201527f7300000000000000000000000000000000000000000000000000000000000000602082015250565b600060443d1015615d6257615de5565b615d6a615364565b60043d036004823e80513d602482011167ffffffffffffffff82111715615d92575050615de5565b808201805167ffffffffffffffff811115615db05750505050615de5565b80602083010160043d038501811115615dcd575050505050615de5565b615ddc826020018501866156ec565b82955050505050505b90565b615df1816155d7565b8114615dfc57600080fd5b50565b615e08816155fb565b8114615e1357600080fd5b50565b615e1f81615607565b8114615e2a57600080fd5b50565b615e3681615633565b8114615e4157600080fd5b50565b615e4d81615661565b8114615e5857600080fd5b5056fea2646970667358221220405da35e0a6e57f1f248fd72c55a57938a2bbad34ddbda54a4fa5fe9851216a664736f6c63430008040033",
  "linkReferences": {
    "contracts/v1/lib/MusixverseLib.sol": {
      "MusixverseLib": [
        {
          "length": 20,
          "start": 4637
        },
        {
          "length": 20,
          "start": 5595
        },
        {
          "length": 20,
          "start": 6217
        },
        {
          "length": 20,
          "start": 7859
        },
        {
          "length": 20,
          "start": 8595
        }
      ]
    }
  },
  "deployedLinkReferences": {
    "contracts/v1/lib/MusixverseLib.sol": {
      "MusixverseLib": [
        {
          "length": 20,
          "start": 4604
        },
        {
          "length": 20,
          "start": 5562
        },
        {
          "length": 20,
          "start": 6184
        },
        {
          "length": 20,
          "start": 7826
        },
        {
          "length": 20,
          "start": 8562
        }
      ]
    }
  }
}