{
  "_format": "hh-sol-artifact-1",
  "contractName": "MusixverseV1",
  "sourceName": "contracts/v1/MusixverseV1.sol",
  "abi": [
    {
      "anonymous": false,
      "inputs": [
        {
          "indexed": true,
          "internalType": "address",
          "name": "account",
          "type": "address"
        },
        {
          "indexed": true,
          "internalType": "address",
          "name": "operator",
          "type": "address"
        },
        {
          "indexed": false,
          "internalType": "bool",
          "name": "approved",
          "type": "bool"
        }
      ],
      "name": "ApprovalForAll",
      "type": "event"
    },
    {
      "anonymous": false,
      "inputs": [
        {
          "indexed": false,
          "internalType": "uint256",
          "name": "tokenId",
          "type": "uint256"
        },
        {
          "indexed": false,
          "internalType": "uint256",
          "name": "price",
          "type": "uint256"
        },
        {
          "indexed": false,
          "internalType": "uint256",
          "name": "createTime",
          "type": "uint256"
        },
        {
          "indexed": false,
          "internalType": "bool",
          "name": "onSale",
          "type": "bool"
        }
      ],
      "name": "MusicNFTCreated",
      "type": "event"
    },
    {
      "anonymous": false,
      "inputs": [
        {
          "indexed": false,
          "internalType": "uint256",
          "name": "tokenId",
          "type": "uint256"
        },
        {
          "indexed": false,
          "internalType": "bool",
          "name": "onSale",
          "type": "bool"
        }
      ],
      "name": "OnSaleUpdated",
      "type": "event"
    },
    {
      "anonymous": false,
      "inputs": [
        {
          "indexed": true,
          "internalType": "address",
          "name": "previousOwner",
          "type": "address"
        },
        {
          "indexed": true,
          "internalType": "address",
          "name": "newOwner",
          "type": "address"
        }
      ],
      "name": "OwnershipTransferred",
      "type": "event"
    },
    {
      "anonymous": false,
      "inputs": [
        {
          "indexed": false,
          "internalType": "address",
          "name": "account",
          "type": "address"
        }
      ],
      "name": "Paused",
      "type": "event"
    },
    {
      "anonymous": false,
      "inputs": [
        {
          "indexed": false,
          "internalType": "uint256",
          "name": "tokenId",
          "type": "uint256"
        },
        {
          "indexed": false,
          "internalType": "uint256",
          "name": "price",
          "type": "uint256"
        }
      ],
      "name": "PriceUpdated",
      "type": "event"
    },
    {
      "anonymous": false,
      "inputs": [
        {
          "indexed": false,
          "internalType": "address",
          "name": "",
          "type": "address"
        },
        {
          "indexed": false,
          "internalType": "uint256",
          "name": "",
          "type": "uint256"
        }
      ],
      "name": "Received",
      "type": "event"
    },
    {
      "anonymous": false,
      "inputs": [
        {
          "indexed": false,
          "internalType": "uint256",
          "name": "tokenId",
          "type": "uint256"
        },
        {
          "indexed": false,
          "internalType": "address",
          "name": "previousOwner",
          "type": "address"
        },
        {
          "indexed": false,
          "internalType": "uint256",
          "name": "price",
          "type": "uint256"
        },
        {
          "indexed": false,
          "internalType": "address",
          "name": "newOwner",
          "type": "address"
        }
      ],
      "name": "Sale",
      "type": "event"
    },
    {
      "anonymous": false,
      "inputs": [
        {
          "indexed": true,
          "internalType": "address",
          "name": "operator",
          "type": "address"
        },
        {
          "indexed": true,
          "internalType": "address",
          "name": "from",
          "type": "address"
        },
        {
          "indexed": true,
          "internalType": "address",
          "name": "to",
          "type": "address"
        },
        {
          "indexed": false,
          "internalType": "uint256[]",
          "name": "ids",
          "type": "uint256[]"
        },
        {
          "indexed": false,
          "internalType": "uint256[]",
          "name": "values",
          "type": "uint256[]"
        }
      ],
      "name": "TransferBatch",
      "type": "event"
    },
    {
      "anonymous": false,
      "inputs": [
        {
          "indexed": true,
          "internalType": "address",
          "name": "operator",
          "type": "address"
        },
        {
          "indexed": true,
          "internalType": "address",
          "name": "from",
          "type": "address"
        },
        {
          "indexed": true,
          "internalType": "address",
          "name": "to",
          "type": "address"
        },
        {
          "indexed": false,
          "internalType": "uint256",
          "name": "id",
          "type": "uint256"
        },
        {
          "indexed": false,
          "internalType": "uint256",
          "name": "value",
          "type": "uint256"
        }
      ],
      "name": "TransferSingle",
      "type": "event"
    },
    {
      "anonymous": false,
      "inputs": [
        {
          "indexed": false,
          "internalType": "string",
          "name": "value",
          "type": "string"
        },
        {
          "indexed": true,
          "internalType": "uint256",
          "name": "id",
          "type": "uint256"
        }
      ],
      "name": "URI",
      "type": "event"
    },
    {
      "anonymous": false,
      "inputs": [
        {
          "indexed": false,
          "internalType": "address",
          "name": "account",
          "type": "address"
        }
      ],
      "name": "Unpaused",
      "type": "event"
    },
    {
      "inputs": [
        {
          "internalType": "address",
          "name": "account",
          "type": "address"
        },
        {
          "internalType": "uint256",
          "name": "id",
          "type": "uint256"
        }
      ],
      "name": "balanceOf",
      "outputs": [
        {
          "internalType": "uint256",
          "name": "",
          "type": "uint256"
        }
      ],
      "stateMutability": "view",
      "type": "function"
    },
    {
      "inputs": [
        {
          "internalType": "address[]",
          "name": "accounts",
          "type": "address[]"
        },
        {
          "internalType": "uint256[]",
          "name": "ids",
          "type": "uint256[]"
        }
      ],
      "name": "balanceOfBatch",
      "outputs": [
        {
          "internalType": "uint256[]",
          "name": "",
          "type": "uint256[]"
        }
      ],
      "stateMutability": "view",
      "type": "function"
    },
    {
      "inputs": [],
      "name": "baseURI",
      "outputs": [
        {
          "internalType": "string",
          "name": "",
          "type": "string"
        }
      ],
      "stateMutability": "view",
      "type": "function"
    },
    {
      "inputs": [],
      "name": "contractURI",
      "outputs": [
        {
          "internalType": "string",
          "name": "",
          "type": "string"
        }
      ],
      "stateMutability": "view",
      "type": "function"
    },
    {
      "inputs": [
        {
          "internalType": "uint256",
          "name": "tokenId",
          "type": "uint256"
        }
      ],
      "name": "getRoyaltyInfo",
      "outputs": [
        {
          "components": [
            {
              "internalType": "address payable",
              "name": "recipient",
              "type": "address"
            },
            {
              "internalType": "uint256",
              "name": "percentage",
              "type": "uint256"
            }
          ],
          "internalType": "struct MusixverseEternalStorage.RoyaltyInfo[]",
          "name": "",
          "type": "tuple[]"
        }
      ],
      "stateMutability": "view",
      "type": "function"
    },
    {
      "inputs": [
        {
          "internalType": "string",
          "name": "tokenMetadataURI",
          "type": "string"
        },
        {
          "internalType": "string",
          "name": "contractMetadataURI",
          "type": "string"
        }
      ],
      "name": "initialize",
      "outputs": [],
      "stateMutability": "nonpayable",
      "type": "function"
    },
    {
      "inputs": [
        {
          "internalType": "address",
          "name": "account",
          "type": "address"
        },
        {
          "internalType": "address",
          "name": "operator",
          "type": "address"
        }
      ],
      "name": "isApprovedForAll",
      "outputs": [
        {
          "internalType": "bool",
          "name": "",
          "type": "bool"
        }
      ],
      "stateMutability": "view",
      "type": "function"
    },
    {
      "inputs": [
        {
          "internalType": "uint16",
          "name": "amount",
          "type": "uint16"
        },
        {
          "internalType": "uint256",
          "name": "price",
          "type": "uint256"
        },
        {
          "internalType": "string",
          "name": "URIHash",
          "type": "string"
        },
        {
          "internalType": "address[]",
          "name": "collaborators",
          "type": "address[]"
        },
        {
          "internalType": "uint16[]",
          "name": "percentageContributions",
          "type": "uint16[]"
        },
        {
          "internalType": "uint16",
          "name": "resaleRoyaltyPercentage",
          "type": "uint16"
        },
        {
          "internalType": "bool",
          "name": "onSale",
          "type": "bool"
        },
        {
          "internalType": "uint256",
          "name": "unlockTimestamp",
          "type": "uint256"
        }
      ],
      "name": "mintTrackNFT",
      "outputs": [],
      "stateMutability": "nonpayable",
      "type": "function"
    },
    {
      "inputs": [
        {
          "internalType": "uint256",
          "name": "",
          "type": "uint256"
        }
      ],
      "name": "musicNFTs",
      "outputs": [
        {
          "internalType": "uint256",
          "name": "price",
          "type": "uint256"
        },
        {
          "internalType": "address",
          "name": "artistAddress",
          "type": "address"
        },
        {
          "internalType": "uint16",
          "name": "resaleRoyaltyPercentage",
          "type": "uint16"
        },
        {
          "internalType": "bool",
          "name": "onSale",
          "type": "bool"
        },
        {
          "internalType": "bool",
          "name": "soldOnce",
          "type": "bool"
        },
        {
          "internalType": "uint256",
          "name": "unlockTimestamp",
          "type": "uint256"
        }
      ],
      "stateMutability": "view",
      "type": "function"
    },
    {
      "inputs": [],
      "name": "mxvLatestTokenID",
      "outputs": [
        {
          "internalType": "uint256",
          "name": "_value",
          "type": "uint256"
        }
      ],
      "stateMutability": "view",
      "type": "function"
    },
    {
      "inputs": [],
      "name": "name",
      "outputs": [
        {
          "internalType": "string",
          "name": "",
          "type": "string"
        }
      ],
      "stateMutability": "view",
      "type": "function"
    },
    {
      "inputs": [],
      "name": "owner",
      "outputs": [
        {
          "internalType": "address",
          "name": "",
          "type": "address"
        }
      ],
      "stateMutability": "view",
      "type": "function"
    },
    {
      "inputs": [
        {
          "internalType": "uint256",
          "name": "tokenId",
          "type": "uint256"
        }
      ],
      "name": "ownerOf",
      "outputs": [
        {
          "internalType": "address",
          "name": "",
          "type": "address"
        }
      ],
      "stateMutability": "view",
      "type": "function"
    },
    {
      "inputs": [],
      "name": "pause",
      "outputs": [],
      "stateMutability": "nonpayable",
      "type": "function"
    },
    {
      "inputs": [],
      "name": "paused",
      "outputs": [
        {
          "internalType": "bool",
          "name": "",
          "type": "bool"
        }
      ],
      "stateMutability": "view",
      "type": "function"
    },
    {
      "inputs": [
        {
          "internalType": "uint256",
          "name": "tokenId",
          "type": "uint256"
        }
      ],
      "name": "purchaseMusicNFT",
      "outputs": [],
      "stateMutability": "payable",
      "type": "function"
    },
    {
      "inputs": [],
      "name": "renounceOwnership",
      "outputs": [],
      "stateMutability": "nonpayable",
      "type": "function"
    },
    {
      "inputs": [
        {
          "internalType": "uint256",
          "name": "",
          "type": "uint256"
        },
        {
          "internalType": "uint256",
          "name": "",
          "type": "uint256"
        }
      ],
      "name": "royalties",
      "outputs": [
        {
          "internalType": "address payable",
          "name": "recipient",
          "type": "address"
        },
        {
          "internalType": "uint256",
          "name": "percentage",
          "type": "uint256"
        }
      ],
      "stateMutability": "view",
      "type": "function"
    },
    {
      "inputs": [
        {
          "internalType": "address",
          "name": "from",
          "type": "address"
        },
        {
          "internalType": "address",
          "name": "to",
          "type": "address"
        },
        {
          "internalType": "uint256[]",
          "name": "ids",
          "type": "uint256[]"
        },
        {
          "internalType": "uint256[]",
          "name": "amounts",
          "type": "uint256[]"
        },
        {
          "internalType": "bytes",
          "name": "data",
          "type": "bytes"
        }
      ],
      "name": "safeBatchTransferFrom",
      "outputs": [],
      "stateMutability": "nonpayable",
      "type": "function"
    },
    {
      "inputs": [
        {
          "internalType": "address",
          "name": "from",
          "type": "address"
        },
        {
          "internalType": "address",
          "name": "to",
          "type": "address"
        },
        {
          "internalType": "uint256",
          "name": "id",
          "type": "uint256"
        },
        {
          "internalType": "uint256",
          "name": "amount",
          "type": "uint256"
        },
        {
          "internalType": "bytes",
          "name": "data",
          "type": "bytes"
        }
      ],
      "name": "safeTransferFrom",
      "outputs": [],
      "stateMutability": "nonpayable",
      "type": "function"
    },
    {
      "inputs": [
        {
          "internalType": "address",
          "name": "operator",
          "type": "address"
        },
        {
          "internalType": "bool",
          "name": "approved",
          "type": "bool"
        }
      ],
      "name": "setApprovalForAll",
      "outputs": [],
      "stateMutability": "nonpayable",
      "type": "function"
    },
    {
      "inputs": [
        {
          "internalType": "bytes4",
          "name": "interfaceId",
          "type": "bytes4"
        }
      ],
      "name": "supportsInterface",
      "outputs": [
        {
          "internalType": "bool",
          "name": "",
          "type": "bool"
        }
      ],
      "stateMutability": "view",
      "type": "function"
    },
    {
      "inputs": [],
      "name": "symbol",
      "outputs": [
        {
          "internalType": "string",
          "name": "",
          "type": "string"
        }
      ],
      "stateMutability": "view",
      "type": "function"
    },
    {
      "inputs": [
        {
          "internalType": "uint256",
          "name": "tokenId",
          "type": "uint256"
        }
      ],
      "name": "toggleOnSale",
      "outputs": [],
      "stateMutability": "nonpayable",
      "type": "function"
    },
    {
      "inputs": [
        {
          "internalType": "address",
          "name": "newOwner",
          "type": "address"
        }
      ],
      "name": "transferOwnership",
      "outputs": [],
      "stateMutability": "nonpayable",
      "type": "function"
    },
    {
      "inputs": [],
      "name": "unpause",
      "outputs": [],
      "stateMutability": "nonpayable",
      "type": "function"
    },
    {
      "inputs": [
        {
          "internalType": "string",
          "name": "newURI",
          "type": "string"
        }
      ],
      "name": "updateBaseURI",
      "outputs": [],
      "stateMutability": "nonpayable",
      "type": "function"
    },
    {
      "inputs": [
        {
          "internalType": "string",
          "name": "newURI",
          "type": "string"
        }
      ],
      "name": "updateContractMetadataURI",
      "outputs": [],
      "stateMutability": "nonpayable",
      "type": "function"
    },
    {
      "inputs": [
        {
          "internalType": "uint256",
          "name": "tokenId",
          "type": "uint256"
        },
        {
          "internalType": "uint256",
          "name": "newPrice",
          "type": "uint256"
        }
      ],
      "name": "updatePrice",
      "outputs": [],
      "stateMutability": "nonpayable",
      "type": "function"
    },
    {
      "inputs": [
        {
          "internalType": "string",
          "name": "newURI",
          "type": "string"
        }
      ],
      "name": "updateURI",
      "outputs": [],
      "stateMutability": "nonpayable",
      "type": "function"
    },
    {
      "inputs": [
        {
          "internalType": "uint256",
          "name": "mxvTokenId",
          "type": "uint256"
        }
      ],
      "name": "uri",
      "outputs": [
        {
          "internalType": "string",
          "name": "",
          "type": "string"
        }
      ],
      "stateMutability": "view",
      "type": "function"
    },
    {
      "inputs": [],
      "name": "withdraw",
      "outputs": [],
      "stateMutability": "nonpayable",
      "type": "function"
    },
    {
      "stateMutability": "payable",
      "type": "receive"
    }
  ],
  "bytecode": "0x608060405234801561001057600080fd5b50615e7e80620000216000396000f3fe6080604052600436106101e65760003560e01c80638456cb5911610102578063c30f4a5a11610095578063e985e9c511610064578063e985e9c514610706578063ee169bd314610743578063f242432a1461076c578063f2fde38b1461079557610226565b8063c30f4a5a1461065e578063d272389414610687578063d6e83cda146106b2578063e8a3d485146106db57610226565b806395d89b41116100d157806395d89b41146105a45780639c17d873146105cf578063a22cb465146105f8578063b76c632b1461062157610226565b80638456cb59146104fb5780638924af74146105125780638da5cb5b14610550578063931688cb1461057b57610226565b80634cd88b761161017a5780636352211e116101495780636352211e146104535780636c0360eb14610490578063715018a6146104bb57806382367b2d146104d257610226565b80634cd88b76146103805780634e1273f4146103a95780635c975abb146103e65780635d2691381461041157610226565b80632eb2c2d6116101b65780632eb2c2d61461030d5780633ccfd60b146103365780633e7cf28d1461034d5780633f4ba83a1461036957610226565b8062fdd58e1461022b57806301ffc9a71461026857806306fdde03146102a55780630e89341c146102d057610226565b36610226577f88a5966d370b9919b20f3e2c13ff65706f196a4e32cc2c12bf57088f88525874333460405161021c929190614d97565b60405180910390a1005b600080fd5b34801561023757600080fd5b50610252600480360381019061024d9190614143565b6107be565b60405161025f9190615134565b60405180910390f35b34801561027457600080fd5b5061028f600480360381019061028a9190614214565b610888565b60405161029c9190614e3b565b60405180910390f35b3480156102b157600080fd5b506102ba61096a565b6040516102c79190614e56565b60405180910390f35b3480156102dc57600080fd5b506102f760048036038101906102f29190614460565b6109f8565b6040516103049190614e56565b60405180910390f35b34801561031957600080fd5b50610334600480360381019061032f9190613fb9565b610a90565b005b34801561034257600080fd5b5061034b610b31565b005b61036760048036038101906103629190614460565b610bf6565b005b34801561037557600080fd5b5061037e610da0565b005b34801561038c57600080fd5b506103a760048036038101906103a291906142ec565b610e6d565b005b3480156103b557600080fd5b506103d060048036038101906103cb919061417f565b610f5d565b6040516103dd9190614de2565b60405180910390f35b3480156103f257600080fd5b506103fb61110e565b6040516104089190614e3b565b60405180910390f35b34801561041d57600080fd5b5061043860048036038101906104339190614460565b611125565b60405161044a9695949392919061514f565b60405180910390f35b34801561045f57600080fd5b5061047a60048036038101906104759190614460565b6111aa565b6040516104879190614bf9565b60405180910390f35b34801561049c57600080fd5b506104a561128b565b6040516104b29190614e56565b60405180910390f35b3480156104c757600080fd5b506104d0611319565b005b3480156104de57600080fd5b506104f960048036038101906104f491906144b2565b6113a1565b005b34801561050757600080fd5b50610510611498565b005b34801561051e57600080fd5b50610539600480360381019061053491906144b2565b611566565b604051610547929190614c14565b60405180910390f35b34801561055c57600080fd5b506105656115c8565b6040516105729190614bf9565b60405180910390f35b34801561058757600080fd5b506105a2600480360381019061059d91906142ab565b6115f2565b005b3480156105b057600080fd5b506105b9611688565b6040516105c69190614e56565b60405180910390f35b3480156105db57600080fd5b506105f660048036038101906105f19190614358565b611716565b005b34801561060457600080fd5b5061061f600480360381019061061a9190614107565b611caf565b005b34801561062d57600080fd5b5061064860048036038101906106439190614460565b611cc5565b6040516106559190614dc0565b60405180910390f35b34801561066a57600080fd5b5061068560048036038101906106809190614266565b611d98565b005b34801561069357600080fd5b5061069c611e65565b6040516106a99190615134565b60405180910390f35b3480156106be57600080fd5b506106d960048036038101906106d491906142ab565b611e72565b005b3480156106e757600080fd5b506106f0611f08565b6040516106fd9190614e56565b60405180910390f35b34801561071257600080fd5b5061072d60048036038101906107289190613f7d565b611f96565b60405161073a9190614e3b565b60405180910390f35b34801561074f57600080fd5b5061076a60048036038101906107659190614460565b61202a565b005b34801561077857600080fd5b50610793600480360381019061078e9190614078565b61211e565b005b3480156107a157600080fd5b506107bc60048036038101906107b79190613f54565b6121bf565b005b60008073ffffffffffffffffffffffffffffffffffffffff168373ffffffffffffffffffffffffffffffffffffffff16141561082f576040517f08c379a000000000000000000000000000000000000000000000000000000000815260040161082690614ed8565b60405180910390fd5b6065600083815260200190815260200160002060008473ffffffffffffffffffffffffffffffffffffffff1673ffffffffffffffffffffffffffffffffffffffff16815260200190815260200160002054905092915050565b60007fd9b67a26000000000000000000000000000000000000000000000000000000007bffffffffffffffffffffffffffffffffffffffffffffffffffffffff1916827bffffffffffffffffffffffffffffffffffffffffffffffffffffffff1916148061095357507f0e89341c000000000000000000000000000000000000000000000000000000007bffffffffffffffffffffffffffffffffffffffffffffffffffffffff1916827bffffffffffffffffffffffffffffffffffffffffffffffffffffffff1916145b806109635750610962826122b7565b5b9050919050565b60fb8054610977906156a7565b80601f01602080910402602001604051908101604052809291908181526020018280546109a3906156a7565b80156109f05780601f106109c5576101008083540402835291602001916109f0565b820191906000526020600020905b8154815290600101906020018083116109d357829003601f168201915b505050505081565b6060600082118015610a145750610a10610100612321565b8211155b610a53576040517f08c379a0000000000000000000000000000000000000000000000000000000008152600401610a4a90614ff8565b60405180910390fd5b60fe6101016000848152602001908152602001600020604051602001610a7a929190614bd5565b6040516020818303038152906040529050919050565b610a9861232f565b73ffffffffffffffffffffffffffffffffffffffff168573ffffffffffffffffffffffffffffffffffffffff161480610ade5750610add85610ad861232f565b611f96565b5b610b1d576040517f08c379a0000000000000000000000000000000000000000000000000000000008152600401610b1490614f78565b60405180910390fd5b610b2a8585858585612337565b5050505050565b610b3961232f565b73ffffffffffffffffffffffffffffffffffffffff16610b576115c8565b73ffffffffffffffffffffffffffffffffffffffff1614610bad576040517f08c379a0000000000000000000000000000000000000000000000000000000008152600401610ba490614fd8565b60405180910390fd5b3373ffffffffffffffffffffffffffffffffffffffff166108fc479081150290604051600060405180830381858888f19350505050158015610bf3573d6000803e3d6000fd5b50565b610bfe61110e565b15610c3e576040517f08c379a0000000000000000000000000000000000000000000000000000000008152600401610c3590614f38565b60405180910390fd5b6000610c49826111aa565b905073__$466d0af6b863105b2d93eed45cf7a289fc$__63e6485f608361010360ff60019054906101000a900473ffffffffffffffffffffffffffffffffffffffff1660ff60009054906101000a900460ff166101006040518663ffffffff1660e01b8152600401610cbf959493929190615275565b60006040518083038186803b158015610cd757600080fd5b505af4158015610ceb573d6000803e3d6000fd5b50505050610d0c81338460016040518060200160405280600081525061269a565b33610102600084815260200190815260200160002060006101000a81548173ffffffffffffffffffffffffffffffffffffffff021916908373ffffffffffffffffffffffffffffffffffffffff1602179055507f32f7b044435b2d94e8c17f628139122168d1865cdb7db2c415954204211d40e182823433604051610d9494939291906151b0565b60405180910390a15050565b610da861110e565b610de7576040517f08c379a0000000000000000000000000000000000000000000000000000000008152600401610dde90614eb8565b60405180910390fd5b610def61232f565b73ffffffffffffffffffffffffffffffffffffffff16610e0d6115c8565b73ffffffffffffffffffffffffffffffffffffffff1614610e63576040517f08c379a0000000000000000000000000000000000000000000000000000000008152600401610e5a90614fd8565b60405180910390fd5b610e6b61291f565b565b600060019054906101000a900460ff16610e955760008054906101000a900460ff1615610e9e565b610e9d6129c1565b5b610edd576040517f08c379a0000000000000000000000000000000000000000000000000000000008152600401610ed490614f98565b60405180910390fd5b60008060019054906101000a900460ff161590508015610f2d576001600060016101000a81548160ff02191690831515021790555060016000806101000a81548160ff0219169083151502179055505b610f3783836129d2565b8015610f585760008060016101000a81548160ff0219169083151502179055505b505050565b60608151835114610fa3576040517f08c379a0000000000000000000000000000000000000000000000000000000008152600401610f9a90615058565b60405180910390fd5b6000835167ffffffffffffffff811115610fe6577f4e487b7100000000000000000000000000000000000000000000000000000000600052604160045260246000fd5b6040519080825280602002602001820160405280156110145781602001602082028036833780820191505090505b50905060005b8451811015611103576110ad85828151811061105f577f4e487b7100000000000000000000000000000000000000000000000000000000600052603260045260246000fd5b60200260200101518583815181106110a0577f4e487b7100000000000000000000000000000000000000000000000000000000600052603260045260246000fd5b60200260200101516107be565b8282815181106110e6577f4e487b7100000000000000000000000000000000000000000000000000000000600052603260045260246000fd5b602002602001018181525050806110fc9061570a565b905061101a565b508091505092915050565b6000609760009054906101000a900460ff16905090565b6101036020528060005260406000206000915090508060000154908060010160009054906101000a900473ffffffffffffffffffffffffffffffffffffffff16908060010160149054906101000a900461ffff16908060010160169054906101000a900460ff16908060010160179054906101000a900460ff16908060020154905086565b60008073ffffffffffffffffffffffffffffffffffffffff16610102600084815260200190815260200160002060009054906101000a900473ffffffffffffffffffffffffffffffffffffffff1673ffffffffffffffffffffffffffffffffffffffff16141561124f576040517f08c379a000000000000000000000000000000000000000000000000000000000815260040161124690614ff8565b60405180910390fd5b610102600083815260200190815260200160002060009054906101000a900473ffffffffffffffffffffffffffffffffffffffff169050919050565b60fe8054611298906156a7565b80601f01602080910402602001604051908101604052809291908181526020018280546112c4906156a7565b80156113115780601f106112e657610100808354040283529160200191611311565b820191906000526020600020905b8154815290600101906020018083116112f457829003601f168201915b505050505081565b61132161232f565b73ffffffffffffffffffffffffffffffffffffffff1661133f6115c8565b73ffffffffffffffffffffffffffffffffffffffff1614611395576040517f08c379a000000000000000000000000000000000000000000000000000000000815260040161138c90614fd8565b60405180910390fd5b61139f6000612c0b565b565b600073__$466d0af6b863105b2d93eed45cf7a289fc$__63d68d51c360ff60019054906101000a900473ffffffffffffffffffffffffffffffffffffffff1685610103866101006040518663ffffffff1660e01b8152600401611408959493929190614c82565b60206040518083038186803b15801561142057600080fd5b505af4158015611434573d6000803e3d6000fd5b505050506040513d601f19601f820116820180604052508101906114589190614489565b90507f945c1c4e99aa89f648fbfe3df471b916f719e16d960fcec0737d4d56bd696838838260405161148b9291906152c8565b60405180910390a1505050565b6114a061110e565b156114e0576040517f08c379a00000000000000000000000000000000000000000000000000000000081526004016114d790614f38565b60405180910390fd5b6114e861232f565b73ffffffffffffffffffffffffffffffffffffffff166115066115c8565b73ffffffffffffffffffffffffffffffffffffffff161461155c576040517f08c379a000000000000000000000000000000000000000000000000000000000815260040161155390614fd8565b60405180910390fd5b611564612cd1565b565b610104602052816000526040600020818154811061158357600080fd5b9060005260206000209060020201600091509150508060000160009054906101000a900473ffffffffffffffffffffffffffffffffffffffff16908060010154905082565b600060c960009054906101000a900473ffffffffffffffffffffffffffffffffffffffff16905090565b6115fa61232f565b73ffffffffffffffffffffffffffffffffffffffff166116186115c8565b73ffffffffffffffffffffffffffffffffffffffff161461166e576040517f08c379a000000000000000000000000000000000000000000000000000000000815260040161166590614fd8565b60405180910390fd5b8060fe9080519060200190611684929190613b2f565b5050565b60fc8054611695906156a7565b80601f01602080910402602001604051908101604052809291908181526020018280546116c1906156a7565b801561170e5780601f106116e35761010080835404028352916020019161170e565b820191906000526020600020905b8154815290600101906020018083116116f157829003601f168201915b505050505081565b61171e61110e565b1561175e576040517f08c379a000000000000000000000000000000000000000000000000000000000815260040161175590614f38565b60405180910390fd5b73__$466d0af6b863105b2d93eed45cf7a289fc$__633fe56e118c8c8c8c8c8c8c8c8c6040518a63ffffffff1660e01b81526004016117a5999897969594939291906150b8565b60006040518083038186803b1580156117bd57600080fd5b505af41580156117d1573d6000803e3d6000fd5b5050505060008b61ffff1667ffffffffffffffff81111561181b577f4e487b7100000000000000000000000000000000000000000000000000000000600052604160045260246000fd5b6040519080825280602002602001820160405280156118495781602001602082028036833780820191505090505b50905060008c61ffff1667ffffffffffffffff811115611892577f4e487b7100000000000000000000000000000000000000000000000000000000600052604160045260246000fd5b6040519080825280602002602001820160405280156118c05781602001602082028036833780820191505090505b50905060005b8d61ffff16811015611be4576118dd610100612d74565b6118e8610100612321565b838281518110611921577f4e487b7100000000000000000000000000000000000000000000000000000000600052603260045260246000fd5b6020026020010181815250506001828281518110611968577f4e487b7100000000000000000000000000000000000000000000000000000000600052603260045260246000fd5b6020026020010181815250506119cc611982610100612321565b8d8d8080601f016020809104026020016040519081016040528093929190818152602001838380828437600081840152601f19601f82011690508083019250505050505050612d8a565b73__$466d0af6b863105b2d93eed45cf7a289fc$__631d5492e46119f1610100612321565b8c8c8c8c6101046040518763ffffffff1660e01b8152600401611a19969594939291906151f5565b60006040518083038186803b158015611a3157600080fd5b505af4158015611a45573d6000803e3d6000fd5b50505050336101026000611a5a610100612321565b815260200190815260200160002060006101000a81548173ffffffffffffffffffffffffffffffffffffffff021916908373ffffffffffffffffffffffffffffffffffffffff1602179055506040518060c001604052808e81526020013373ffffffffffffffffffffffffffffffffffffffff1681526020018761ffff1681526020018615158152602001600015158152602001858152506101036000611b02610100612321565b81526020019081526020016000206000820151816000015560208201518160010160006101000a81548173ffffffffffffffffffffffffffffffffffffffff021916908373ffffffffffffffffffffffffffffffffffffffff16021790555060408201518160010160146101000a81548161ffff021916908361ffff16021790555060608201518160010160166101000a81548160ff02191690831515021790555060808201518160010160176101000a81548160ff02191690831515021790555060a082015181600201559050508080611bdc9061570a565b9150506118c6565b50611c0033838360405180602001604052806000815250612db7565b60005b8d61ffff16811015611c9f577f3169d8b49c43433e554c148d8b56700bd8773310a0a964f0ace67fe714b8e974838281518110611c69577f4e487b7100000000000000000000000000000000000000000000000000000000600052603260045260246000fd5b60200260200101518e4288604051611c8494939291906152f1565b60405180910390a18080611c979061570a565b915050611c03565b5050505050505050505050505050565b611cc1611cba61232f565b8383613022565b5050565b60606101046000838152602001908152602001600020805480602002602001604051908101604052809291908181526020016000905b82821015611d8d57838290600052602060002090600202016040518060400160405290816000820160009054906101000a900473ffffffffffffffffffffffffffffffffffffffff1673ffffffffffffffffffffffffffffffffffffffff1673ffffffffffffffffffffffffffffffffffffffff16815260200160018201548152505081526020019060010190611cfb565b505050509050919050565b611da061232f565b73ffffffffffffffffffffffffffffffffffffffff16611dbe6115c8565b73ffffffffffffffffffffffffffffffffffffffff1614611e14576040517f08c379a0000000000000000000000000000000000000000000000000000000008152600401611e0b90614fd8565b60405180910390fd5b611e6182828080601f016020809104026020016040519081016040528093929190818152602001838380828437600081840152601f19601f8201169050808301925050505050505061318f565b5050565b6101008060000154905081565b611e7a61232f565b73ffffffffffffffffffffffffffffffffffffffff16611e986115c8565b73ffffffffffffffffffffffffffffffffffffffff1614611eee576040517f08c379a0000000000000000000000000000000000000000000000000000000008152600401611ee590614fd8565b60405180910390fd5b8060fd9080519060200190611f04929190613b2f565b5050565b60fd8054611f15906156a7565b80601f0160208091040260200160405190810160405280929190818152602001828054611f41906156a7565b8015611f8e5780601f10611f6357610100808354040283529160200191611f8e565b820191906000526020600020905b815481529060010190602001808311611f7157829003601f168201915b505050505081565b6000606660008473ffffffffffffffffffffffffffffffffffffffff1673ffffffffffffffffffffffffffffffffffffffff16815260200190815260200160002060008373ffffffffffffffffffffffffffffffffffffffff1673ffffffffffffffffffffffffffffffffffffffff16815260200190815260200160002060009054906101000a900460ff16905092915050565b600073__$466d0af6b863105b2d93eed45cf7a289fc$__6323bfc32060ff60019054906101000a900473ffffffffffffffffffffffffffffffffffffffff16846101036101006040518563ffffffff1660e01b815260040161208f9493929190614c3d565b60206040518083038186803b1580156120a757600080fd5b505af41580156120bb573d6000803e3d6000fd5b505050506040513d601f19601f820116820180604052508101906120df91906141eb565b90507fdc21ed91f0a9dd4b8d6d124da7b76e9d4321e24d73620fd1d246ec85b712aae3828260405161211292919061524c565b60405180910390a15050565b61212661232f565b73ffffffffffffffffffffffffffffffffffffffff168573ffffffffffffffffffffffffffffffffffffffff16148061216c575061216b8561216661232f565b611f96565b5b6121ab576040517f08c379a00000000000000000000000000000000000000000000000000000000081526004016121a290614f18565b60405180910390fd5b6121b8858585858561269a565b5050505050565b6121c761232f565b73ffffffffffffffffffffffffffffffffffffffff166121e56115c8565b73ffffffffffffffffffffffffffffffffffffffff161461223b576040517f08c379a000000000000000000000000000000000000000000000000000000000815260040161223290614fd8565b60405180910390fd5b600073ffffffffffffffffffffffffffffffffffffffff168173ffffffffffffffffffffffffffffffffffffffff1614156122ab576040517f08c379a00000000000000000000000000000000000000000000000000000000081526004016122a290614ef8565b60405180910390fd5b6122b481612c0b565b50565b60007f01ffc9a7000000000000000000000000000000000000000000000000000000007bffffffffffffffffffffffffffffffffffffffffffffffffffffffff1916827bffffffffffffffffffffffffffffffffffffffffffffffffffffffff1916149050919050565b600081600001549050919050565b600033905090565b815183511461237b576040517f08c379a000000000000000000000000000000000000000000000000000000000815260040161237290615078565b60405180910390fd5b600073ffffffffffffffffffffffffffffffffffffffff168473ffffffffffffffffffffffffffffffffffffffff1614156123eb576040517f08c379a00000000000000000000000000000000000000000000000000000000081526004016123e290614f58565b60405180910390fd5b60006123f561232f565b90506124058187878787876131a9565b60005b845181101561260557600085828151811061244c577f4e487b7100000000000000000000000000000000000000000000000000000000600052603260045260246000fd5b602002602001015190506000858381518110612491577f4e487b7100000000000000000000000000000000000000000000000000000000600052603260045260246000fd5b6020026020010151905060006065600084815260200190815260200160002060008b73ffffffffffffffffffffffffffffffffffffffff1673ffffffffffffffffffffffffffffffffffffffff16815260200190815260200160002054905081811015612533576040517f08c379a000000000000000000000000000000000000000000000000000000000815260040161252a90614fb8565b60405180910390fd5b8181036065600085815260200190815260200160002060008c73ffffffffffffffffffffffffffffffffffffffff1673ffffffffffffffffffffffffffffffffffffffff16815260200190815260200160002081905550816065600085815260200190815260200160002060008b73ffffffffffffffffffffffffffffffffffffffff1673ffffffffffffffffffffffffffffffffffffffff16815260200190815260200160002060008282546125ea919061556e565b92505081905550505050806125fe9061570a565b9050612408565b508473ffffffffffffffffffffffffffffffffffffffff168673ffffffffffffffffffffffffffffffffffffffff168273ffffffffffffffffffffffffffffffffffffffff167f4a39dc06d4c0dbc64b70af90fd698a233a518aa5d07e595d983b8c0526c8f7fb878760405161267c929190614e04565b60405180910390a46126928187878787876131b1565b505050505050565b600073ffffffffffffffffffffffffffffffffffffffff168473ffffffffffffffffffffffffffffffffffffffff16141561270a576040517f08c379a000000000000000000000000000000000000000000000000000000000815260040161270190614f58565b60405180910390fd5b600061271461232f565b905061273481878761272588613398565b61272e88613398565b876131a9565b60006065600086815260200190815260200160002060008873ffffffffffffffffffffffffffffffffffffffff1673ffffffffffffffffffffffffffffffffffffffff168152602001908152602001600020549050838110156127cc576040517f08c379a00000000000000000000000000000000000000000000000000000000081526004016127c390614fb8565b60405180910390fd5b8381036065600087815260200190815260200160002060008973ffffffffffffffffffffffffffffffffffffffff1673ffffffffffffffffffffffffffffffffffffffff16815260200190815260200160002081905550836065600087815260200190815260200160002060008873ffffffffffffffffffffffffffffffffffffffff1673ffffffffffffffffffffffffffffffffffffffff1681526020019081526020016000206000828254612883919061556e565b925050819055508573ffffffffffffffffffffffffffffffffffffffff168773ffffffffffffffffffffffffffffffffffffffff168373ffffffffffffffffffffffffffffffffffffffff167fc3d58168c5ae7397731d063d5bbf3d657854427343f4c083240f7aacaa2d0f6288886040516129009291906152c8565b60405180910390a461291682888888888861345e565b50505050505050565b61292761110e565b612966576040517f08c379a000000000000000000000000000000000000000000000000000000000815260040161295d90614eb8565b60405180910390fd5b6000609760006101000a81548160ff0219169083151502179055507f5db9ee0a495bf2e6ff9c91a7834c1ba4fdd244a5e8aa4e537bd38aeae4b073aa6129aa61232f565b6040516129b79190614bf9565b60405180910390a1565b60006129cc30613645565b15905090565b600060019054906101000a900460ff166129fa5760008054906101000a900460ff1615612a03565b612a026129c1565b5b612a42576040517f08c379a0000000000000000000000000000000000000000000000000000000008152600401612a3990614f98565b60405180910390fd5b60008060019054906101000a900460ff161590508015612a92576001600060016101000a81548160ff02191690831515021790555060016000806101000a81548160ff0219169083151502179055505b612a9a613658565b612ac283604051602001612aae9190614bb3565b604051602081830303815290604052613744565b6040518060400160405280600a81526020017f4d7573697876657273650000000000000000000000000000000000000000000081525060fb9080519060200190612b0d929190613b2f565b506040518060400160405280600381526020017f4d5856000000000000000000000000000000000000000000000000000000000081525060fc9080519060200190612b59929190613b2f565b508160fd9080519060200190612b70929190613b2f565b508260fe9080519060200190612b87929190613b2f565b50600260ff60006101000a81548160ff021916908360ff1602179055503060ff60016101000a81548173ffffffffffffffffffffffffffffffffffffffff021916908373ffffffffffffffffffffffffffffffffffffffff1602179055508015612c065760008060016101000a81548160ff0219169083151502179055505b505050565b600060c960009054906101000a900473ffffffffffffffffffffffffffffffffffffffff1690508160c960006101000a81548173ffffffffffffffffffffffffffffffffffffffff021916908373ffffffffffffffffffffffffffffffffffffffff1602179055508173ffffffffffffffffffffffffffffffffffffffff168173ffffffffffffffffffffffffffffffffffffffff167f8be0079c531659141344cd1fd0a4f28419497f9722a3daafe3b4186f6b6457e060405160405180910390a35050565b612cd961110e565b15612d19576040517f08c379a0000000000000000000000000000000000000000000000000000000008152600401612d1090614f38565b60405180910390fd5b6001609760006101000a81548160ff0219169083151502179055507f62e78cea01bee320cd4e420270b5ea74000d11b0c9f74754ebdbfc544b05a258612d5d61232f565b604051612d6a9190614bf9565b60405180910390a1565b6001816000016000828254019250508190555050565b8061010160008481526020019081526020016000209080519060200190612db2929190613b2f565b505050565b600073ffffffffffffffffffffffffffffffffffffffff168473ffffffffffffffffffffffffffffffffffffffff161415612e27576040517f08c379a0000000000000000000000000000000000000000000000000000000008152600401612e1e90615098565b60405180910390fd5b8151835114612e6b576040517f08c379a0000000000000000000000000000000000000000000000000000000008152600401612e6290615078565b60405180910390fd5b6000612e7561232f565b9050612e86816000878787876131a9565b60005b8451811015612f8c57838181518110612ecb577f4e487b7100000000000000000000000000000000000000000000000000000000600052603260045260246000fd5b602002602001015160656000878481518110612f10577f4e487b7100000000000000000000000000000000000000000000000000000000600052603260045260246000fd5b6020026020010151815260200190815260200160002060008873ffffffffffffffffffffffffffffffffffffffff1673ffffffffffffffffffffffffffffffffffffffff1681526020019081526020016000206000828254612f72919061556e565b925050819055508080612f849061570a565b915050612e89565b508473ffffffffffffffffffffffffffffffffffffffff16600073ffffffffffffffffffffffffffffffffffffffff168273ffffffffffffffffffffffffffffffffffffffff167f4a39dc06d4c0dbc64b70af90fd698a233a518aa5d07e595d983b8c0526c8f7fb8787604051613004929190614e04565b60405180910390a461301b816000878787876131b1565b5050505050565b8173ffffffffffffffffffffffffffffffffffffffff168373ffffffffffffffffffffffffffffffffffffffff161415613091576040517f08c379a000000000000000000000000000000000000000000000000000000000815260040161308890615038565b60405180910390fd5b80606660008573ffffffffffffffffffffffffffffffffffffffff1673ffffffffffffffffffffffffffffffffffffffff16815260200190815260200160002060008473ffffffffffffffffffffffffffffffffffffffff1673ffffffffffffffffffffffffffffffffffffffff16815260200190815260200160002060006101000a81548160ff0219169083151502179055508173ffffffffffffffffffffffffffffffffffffffff168373ffffffffffffffffffffffffffffffffffffffff167f17307eab39ab6107e8899845ad3d59bd9653f200f220920489ca2b5937696c31836040516131829190614e3b565b60405180910390a3505050565b80606790805190602001906131a5929190613b2f565b5050565b505050505050565b6131d08473ffffffffffffffffffffffffffffffffffffffff16613645565b15613390578373ffffffffffffffffffffffffffffffffffffffff1663bc197c8187878686866040518663ffffffff1660e01b8152600401613216959493929190614cd5565b602060405180830381600087803b15801561323057600080fd5b505af192505050801561326157506040513d601f19601f8201168201806040525081019061325e919061423d565b60015b6133075761326d6157e0565b806308c379a014156132ca5750613282615d3f565b8061328d57506132cc565b806040517f08c379a00000000000000000000000000000000000000000000000000000000081526004016132c19190614e56565b60405180910390fd5b505b6040517f08c379a00000000000000000000000000000000000000000000000000000000081526004016132fe90614e78565b60405180910390fd5b63bc197c8160e01b7bffffffffffffffffffffffffffffffffffffffffffffffffffffffff1916817bffffffffffffffffffffffffffffffffffffffffffffffffffffffff19161461338e576040517f08c379a000000000000000000000000000000000000000000000000000000000815260040161338590614e98565b60405180910390fd5b505b505050505050565b60606000600167ffffffffffffffff8111156133dd577f4e487b7100000000000000000000000000000000000000000000000000000000600052604160045260246000fd5b60405190808252806020026020018201604052801561340b5781602001602082028036833780820191505090505b5090508281600081518110613449577f4e487b7100000000000000000000000000000000000000000000000000000000600052603260045260246000fd5b60200260200101818152505080915050919050565b61347d8473ffffffffffffffffffffffffffffffffffffffff16613645565b1561363d578373ffffffffffffffffffffffffffffffffffffffff1663f23a6e6187878686866040518663ffffffff1660e01b81526004016134c3959493929190614d3d565b602060405180830381600087803b1580156134dd57600080fd5b505af192505050801561350e57506040513d601f19601f8201168201806040525081019061350b919061423d565b60015b6135b45761351a6157e0565b806308c379a01415613577575061352f615d3f565b8061353a5750613579565b806040517f08c379a000000000000000000000000000000000000000000000000000000000815260040161356e9190614e56565b60405180910390fd5b505b6040517f08c379a00000000000000000000000000000000000000000000000000000000081526004016135ab90614e78565b60405180910390fd5b63f23a6e6160e01b7bffffffffffffffffffffffffffffffffffffffffffffffffffffffff1916817bffffffffffffffffffffffffffffffffffffffffffffffffffffffff19161461363b576040517f08c379a000000000000000000000000000000000000000000000000000000000815260040161363290614e98565b60405180910390fd5b505b505050505050565b600080823b905060008111915050919050565b600060019054906101000a900460ff166136805760008054906101000a900460ff1615613689565b6136886129c1565b5b6136c8576040517f08c379a00000000000000000000000000000000000000000000000000000000081526004016136bf90614f98565b60405180910390fd5b60008060019054906101000a900460ff161590508015613718576001600060016101000a81548160ff02191690831515021790555060016000806101000a81548160ff0219169083151502179055505b6137206137af565b80156137415760008060016101000a81548160ff0219169083151502179055505b50565b600060019054906101000a900460ff16613793576040517f08c379a000000000000000000000000000000000000000000000000000000000815260040161378a90615018565b60405180910390fd5b61379b6138a3565b6137a36138f4565b6137ac81613945565b50565b600060019054906101000a900460ff166137d75760008054906101000a900460ff16156137e0565b6137df6129c1565b5b61381f576040517f08c379a000000000000000000000000000000000000000000000000000000000815260040161381690614f98565b60405180910390fd5b60008060019054906101000a900460ff16159050801561386f576001600060016101000a81548160ff02191690831515021790555060016000806101000a81548160ff0219169083151502179055505b6138776139a0565b61387f613a01565b80156138a05760008060016101000a81548160ff0219169083151502179055505b50565b600060019054906101000a900460ff166138f2576040517f08c379a00000000000000000000000000000000000000000000000000000000081526004016138e990615018565b60405180910390fd5b565b600060019054906101000a900460ff16613943576040517f08c379a000000000000000000000000000000000000000000000000000000000815260040161393a90615018565b60405180910390fd5b565b600060019054906101000a900460ff16613994576040517f08c379a000000000000000000000000000000000000000000000000000000000815260040161398b90615018565b60405180910390fd5b61399d8161318f565b50565b600060019054906101000a900460ff166139ef576040517f08c379a00000000000000000000000000000000000000000000000000000000081526004016139e690615018565b60405180910390fd5b6139f76138a3565b6139ff613a62565b565b600060019054906101000a900460ff16613a50576040517f08c379a0000000000000000000000000000000000000000000000000000000008152600401613a4790615018565b60405180910390fd5b613a586138a3565b613a60613ace565b565b600060019054906101000a900460ff16613ab1576040517f08c379a0000000000000000000000000000000000000000000000000000000008152600401613aa890615018565b60405180910390fd5b6000609760006101000a81548160ff021916908315150217905550565b600060019054906101000a900460ff16613b1d576040517f08c379a0000000000000000000000000000000000000000000000000000000008152600401613b1490615018565b60405180910390fd5b613b2d613b2861232f565b612c0b565b565b828054613b3b906156a7565b90600052602060002090601f016020900481019282613b5d5760008555613ba4565b82601f10613b7657805160ff1916838001178555613ba4565b82800160010185558215613ba4579182015b82811115613ba3578251825591602001919060010190613b88565b5b509050613bb19190613bb5565b5090565b5b80821115613bce576000816000905550600101613bb6565b5090565b6000613be5613be08461535b565b615336565b90508083825260208201905082856020860282011115613c0457600080fd5b60005b85811015613c345781613c1a8882613d26565b845260208401935060208301925050600181019050613c07565b5050509392505050565b6000613c51613c4c84615387565b615336565b90508083825260208201905082856020860282011115613c7057600080fd5b60005b85811015613ca05781613c868882613f2a565b845260208401935060208301925050600181019050613c73565b5050509392505050565b6000613cbd613cb8846153b3565b615336565b905082815260208101848484011115613cd557600080fd5b613ce0848285615665565b509392505050565b6000613cfb613cf6846153e4565b615336565b905082815260208101848484011115613d1357600080fd5b613d1e848285615665565b509392505050565b600081359050613d3581615dd5565b92915050565b60008083601f840112613d4d57600080fd5b8235905067ffffffffffffffff811115613d6657600080fd5b602083019150836020820283011115613d7e57600080fd5b9250929050565b600082601f830112613d9657600080fd5b8135613da6848260208601613bd2565b91505092915050565b60008083601f840112613dc157600080fd5b8235905067ffffffffffffffff811115613dda57600080fd5b602083019150836020820283011115613df257600080fd5b9250929050565b600082601f830112613e0a57600080fd5b8135613e1a848260208601613c3e565b91505092915050565b600081359050613e3281615dec565b92915050565b600081519050613e4781615dec565b92915050565b600081359050613e5c81615e03565b92915050565b600081519050613e7181615e03565b92915050565b600082601f830112613e8857600080fd5b8135613e98848260208601613caa565b91505092915050565b60008083601f840112613eb357600080fd5b8235905067ffffffffffffffff811115613ecc57600080fd5b602083019150836001820283011115613ee457600080fd5b9250929050565b600082601f830112613efc57600080fd5b8135613f0c848260208601613ce8565b91505092915050565b600081359050613f2481615e1a565b92915050565b600081359050613f3981615e31565b92915050565b600081519050613f4e81615e31565b92915050565b600060208284031215613f6657600080fd5b6000613f7484828501613d26565b91505092915050565b60008060408385031215613f9057600080fd5b6000613f9e85828601613d26565b9250506020613faf85828601613d26565b9150509250929050565b600080600080600060a08688031215613fd157600080fd5b6000613fdf88828901613d26565b9550506020613ff088828901613d26565b945050604086013567ffffffffffffffff81111561400d57600080fd5b61401988828901613df9565b935050606086013567ffffffffffffffff81111561403657600080fd5b61404288828901613df9565b925050608086013567ffffffffffffffff81111561405f57600080fd5b61406b88828901613e77565b9150509295509295909350565b600080600080600060a0868803121561409057600080fd5b600061409e88828901613d26565b95505060206140af88828901613d26565b94505060406140c088828901613f2a565b93505060606140d188828901613f2a565b925050608086013567ffffffffffffffff8111156140ee57600080fd5b6140fa88828901613e77565b9150509295509295909350565b6000806040838503121561411a57600080fd5b600061412885828601613d26565b925050602061413985828601613e23565b9150509250929050565b6000806040838503121561415657600080fd5b600061416485828601613d26565b925050602061417585828601613f2a565b9150509250929050565b6000806040838503121561419257600080fd5b600083013567ffffffffffffffff8111156141ac57600080fd5b6141b885828601613d85565b925050602083013567ffffffffffffffff8111156141d557600080fd5b6141e185828601613df9565b9150509250929050565b6000602082840312156141fd57600080fd5b600061420b84828501613e38565b91505092915050565b60006020828403121561422657600080fd5b600061423484828501613e4d565b91505092915050565b60006020828403121561424f57600080fd5b600061425d84828501613e62565b91505092915050565b6000806020838503121561427957600080fd5b600083013567ffffffffffffffff81111561429357600080fd5b61429f85828601613ea1565b92509250509250929050565b6000602082840312156142bd57600080fd5b600082013567ffffffffffffffff8111156142d757600080fd5b6142e384828501613eeb565b91505092915050565b600080604083850312156142ff57600080fd5b600083013567ffffffffffffffff81111561431957600080fd5b61432585828601613eeb565b925050602083013567ffffffffffffffff81111561434257600080fd5b61434e85828601613eeb565b9150509250929050565b60008060008060008060008060008060006101008c8e03121561437a57600080fd5b60006143888e828f01613f15565b9b505060206143998e828f01613f2a565b9a505060408c013567ffffffffffffffff8111156143b657600080fd5b6143c28e828f01613ea1565b995099505060608c013567ffffffffffffffff8111156143e157600080fd5b6143ed8e828f01613d3b565b975097505060808c013567ffffffffffffffff81111561440c57600080fd5b6144188e828f01613daf565b955095505060a061442b8e828f01613f15565b93505060c061443c8e828f01613e23565b92505060e061444d8e828f01613f2a565b9150509295989b509295989b9093969950565b60006020828403121561447257600080fd5b600061448084828501613f2a565b91505092915050565b60006020828403121561449b57600080fd5b60006144a984828501613f3f565b91505092915050565b600080604083850312156144c557600080fd5b60006144d385828601613f2a565b92505060206144e485828601613f2a565b9150509250929050565b60006144fa838361458a565b60208301905092915050565b60006145128383614b1b565b60408301905092915050565b600061452a8383614b68565b60208301905092915050565b60006145428383614b77565b60208301905092915050565b614557816155d6565b82525050565b614566816155d6565b82525050565b614575816155d6565b82525050565b614584816155c4565b82525050565b614593816155c4565b82525050565b60006145a583856154be565b93506145b082615415565b8060005b858110156145e9576145c68284615540565b6145d088826144ee565b97506145db8361548a565b9250506001810190506145b4565b5085925050509392505050565b60006146018261545e565b61460b81856154cf565b93506146168361541f565b8060005b8381101561464757815161462e8882614506565b975061463983615497565b92505060018101905061461a565b5085935050505092915050565b600061466083856154e0565b935061466b8261542f565b8060005b858110156146a4576146818284615557565b61468b888261451e565b9750614696836154a4565b92505060018101905061466f565b5085925050509392505050565b60006146bc82615469565b6146c681856154f1565b93506146d183615439565b8060005b838110156147025781516146e98882614536565b97506146f4836154b1565b9250506001810190506146d5565b5085935050505092915050565b614718816155e8565b82525050565b600061472982615474565b6147338185615502565b9350614743818560208601615674565b61474c81615802565b840191505092915050565b8082525050565b8082525050565b60006147718385615524565b935061477e838584615665565b61478783615802565b840190509392505050565b600061479d8261547f565b6147a78185615513565b93506147b7818560208601615674565b6147c081615802565b840191505092915050565b60006147d68261547f565b6147e08185615535565b93506147f0818560208601615674565b80840191505092915050565b60008154614809816156a7565b6148138186615535565b9450600182166000811461482e576001811461483f57614872565b60ff19831686528186019350614872565b61484885615449565b60005b8381101561486a5781548189015260018201915060208101905061484b565b838801955050505b50505092915050565b6000614888603483615513565b915061489382615820565b604082019050919050565b60006148ab602883615513565b91506148b68261586f565b604082019050919050565b60006148ce601483615513565b91506148d9826158be565b602082019050919050565b60006148f1602b83615513565b91506148fc826158e7565b604082019050919050565b6000614914602683615513565b915061491f82615936565b604082019050919050565b6000614937602983615513565b915061494282615985565b604082019050919050565b600061495a601083615513565b9150614965826159d4565b602082019050919050565b600061497d602583615513565b9150614988826159fd565b604082019050919050565b60006149a0603283615513565b91506149ab82615a4c565b604082019050919050565b60006149c3602e83615513565b91506149ce82615a9b565b604082019050919050565b60006149e6602a83615513565b91506149f182615aea565b604082019050919050565b6000614a09602083615513565b9150614a1482615b39565b602082019050919050565b6000614a2c600983615513565b9150614a3782615b62565b602082019050919050565b6000614a4f602b83615513565b9150614a5a82615b8b565b604082019050919050565b6000614a72600483615535565b9150614a7d82615bda565b600482019050919050565b6000614a95602983615513565b9150614aa082615c03565b604082019050919050565b6000614ab8602983615513565b9150614ac382615c52565b604082019050919050565b6000614adb602883615513565b9150614ae682615ca1565b604082019050919050565b6000614afe602183615513565b9150614b0982615cf0565b604082019050919050565b8082525050565b604082016000820151614b31600085018261454e565b506020820151614b446020850182614b77565b50505050565b614b5381615620565b82525050565b614b6281615620565b82525050565b614b7181615620565b82525050565b614b808161564e565b82525050565b614b8f8161564e565b82525050565b614b9e8161564e565b82525050565b614bad81615658565b82525050565b6000614bbf82846147cb565b9150614bca82614a65565b915081905092915050565b6000614be182856147fc565b9150614bed82846147fc565b91508190509392505050565b6000602082019050614c0e600083018461457b565b92915050565b6000604082019050614c29600083018561455d565b614c366020830184614b86565b9392505050565b6000608082019050614c52600083018761456c565b614c5f6020830186614b95565b614c6c604083018561475e565b614c796060830184614b14565b95945050505050565b600060a082019050614c97600083018861456c565b614ca46020830187614b95565b614cb1604083018661475e565b614cbe6060830185614b95565b614ccb6080830184614b14565b9695505050505050565b600060a082019050614cea600083018861457b565b614cf7602083018761457b565b8181036040830152614d0981866146b1565b90508181036060830152614d1d81856146b1565b90508181036080830152614d31818461471e565b90509695505050505050565b600060a082019050614d52600083018861457b565b614d5f602083018761457b565b614d6c6040830186614b86565b614d796060830185614b86565b8181036080830152614d8b818461471e565b90509695505050505050565b6000604082019050614dac600083018561457b565b614db96020830184614b86565b9392505050565b60006020820190508181036000830152614dda81846145f6565b905092915050565b60006020820190508181036000830152614dfc81846146b1565b905092915050565b60006040820190508181036000830152614e1e81856146b1565b90508181036020830152614e3281846146b1565b90509392505050565b6000602082019050614e50600083018461470f565b92915050565b60006020820190508181036000830152614e708184614792565b905092915050565b60006020820190508181036000830152614e918161487b565b9050919050565b60006020820190508181036000830152614eb18161489e565b9050919050565b60006020820190508181036000830152614ed1816148c1565b9050919050565b60006020820190508181036000830152614ef1816148e4565b9050919050565b60006020820190508181036000830152614f1181614907565b9050919050565b60006020820190508181036000830152614f318161492a565b9050919050565b60006020820190508181036000830152614f518161494d565b9050919050565b60006020820190508181036000830152614f7181614970565b9050919050565b60006020820190508181036000830152614f9181614993565b9050919050565b60006020820190508181036000830152614fb1816149b6565b9050919050565b60006020820190508181036000830152614fd1816149d9565b9050919050565b60006020820190508181036000830152614ff1816149fc565b9050919050565b6000602082019050818103600083015261501181614a1f565b9050919050565b6000602082019050818103600083015261503181614a42565b9050919050565b6000602082019050818103600083015261505181614a88565b9050919050565b6000602082019050818103600083015261507181614aab565b9050919050565b6000602082019050818103600083015261509181614ace565b9050919050565b600060208201905081810360008301526150b181614af1565b9050919050565b600060c0820190506150cd600083018c614b59565b6150da602083018b614b95565b81810360408301526150ed81898b614765565b90508181036060830152615102818789614599565b90508181036080830152615117818587614654565b905061512660a0830184614b59565b9a9950505050505050505050565b60006020820190506151496000830184614b86565b92915050565b600060c0820190506151646000830189614b86565b615171602083018861457b565b61517e6040830187614b4a565b61518b606083018661470f565b615198608083018561470f565b6151a560a0830184614b86565b979650505050505050565b60006080820190506151c56000830187614b86565b6151d2602083018661457b565b6151df6040830185614b86565b6151ec606083018461457b565b95945050505050565b600060808201905061520a6000830189614b95565b818103602083015261521d818789614599565b90508181036040830152615232818587614654565b90506152416060830184614757565b979650505050505050565b60006040820190506152616000830185614b86565b61526e602083018461470f565b9392505050565b600060a08201905061528a6000830188614b95565b615297602083018761475e565b6152a4604083018661456c565b6152b16060830185614ba4565b6152be6080830184614b14565b9695505050505050565b60006040820190506152dd6000830185614b86565b6152ea6020830184614b86565b9392505050565b60006080820190506153066000830187614b86565b6153136020830186614b86565b6153206040830185614b86565b61532d606083018461470f565b95945050505050565b6000615340615351565b905061534c82826156d9565b919050565b6000604051905090565b600067ffffffffffffffff821115615376576153756157b1565b5b602082029050602081019050919050565b600067ffffffffffffffff8211156153a2576153a16157b1565b5b602082029050602081019050919050565b600067ffffffffffffffff8211156153ce576153cd6157b1565b5b6153d782615802565b9050602081019050919050565b600067ffffffffffffffff8211156153ff576153fe6157b1565b5b61540882615802565b9050602081019050919050565b6000819050919050565b6000819050602082019050919050565b6000819050919050565b6000819050602082019050919050565b60008190508160005260206000209050919050565b600081519050919050565b600081519050919050565b600081519050919050565b600081519050919050565b6000602082019050919050565b6000602082019050919050565b6000602082019050919050565b6000602082019050919050565b600082825260208201905092915050565b600082825260208201905092915050565b600082825260208201905092915050565b600082825260208201905092915050565b600082825260208201905092915050565b600082825260208201905092915050565b600082825260208201905092915050565b600081905092915050565b600061554f6020840184613d26565b905092915050565b60006155666020840184613f15565b905092915050565b60006155798261564e565b91506155848361564e565b9250827fffffffffffffffffffffffffffffffffffffffffffffffffffffffffffffffff038211156155b9576155b8615753565b5b828201905092915050565b60006155cf8261562e565b9050919050565b60006155e18261562e565b9050919050565b60008115159050919050565b60007fffffffff0000000000000000000000000000000000000000000000000000000082169050919050565b600061ffff82169050919050565b600073ffffffffffffffffffffffffffffffffffffffff82169050919050565b6000819050919050565b600060ff82169050919050565b82818337600083830152505050565b60005b83811015615692578082015181840152602081019050615677565b838111156156a1576000848401525b50505050565b600060028204905060018216806156bf57607f821691505b602082108114156156d3576156d2615782565b5b50919050565b6156e282615802565b810181811067ffffffffffffffff82111715615701576157006157b1565b5b80604052505050565b60006157158261564e565b91507fffffffffffffffffffffffffffffffffffffffffffffffffffffffffffffffff82141561574857615747615753565b5b600182019050919050565b7f4e487b7100000000000000000000000000000000000000000000000000000000600052601160045260246000fd5b7f4e487b7100000000000000000000000000000000000000000000000000000000600052602260045260246000fd5b7f4e487b7100000000000000000000000000000000000000000000000000000000600052604160045260246000fd5b600060033d11156157ff5760046000803e6157fc600051615813565b90505b90565b6000601f19601f8301169050919050565b60008160e01c9050919050565b7f455243313135353a207472616e7366657220746f206e6f6e204552433131353560008201527f526563656976657220696d706c656d656e746572000000000000000000000000602082015250565b7f455243313135353a204552433131353552656365697665722072656a6563746560008201527f6420746f6b656e73000000000000000000000000000000000000000000000000602082015250565b7f5061757361626c653a206e6f7420706175736564000000000000000000000000600082015250565b7f455243313135353a2062616c616e636520717565727920666f7220746865207a60008201527f65726f2061646472657373000000000000000000000000000000000000000000602082015250565b7f4f776e61626c653a206e6577206f776e657220697320746865207a65726f206160008201527f6464726573730000000000000000000000000000000000000000000000000000602082015250565b7f455243313135353a2063616c6c6572206973206e6f74206f776e6572206e6f7260008201527f20617070726f7665640000000000000000000000000000000000000000000000602082015250565b7f5061757361626c653a2070617573656400000000000000000000000000000000600082015250565b7f455243313135353a207472616e7366657220746f20746865207a65726f20616460008201527f6472657373000000000000000000000000000000000000000000000000000000602082015250565b7f455243313135353a207472616e736665722063616c6c6572206973206e6f742060008201527f6f776e6572206e6f7220617070726f7665640000000000000000000000000000602082015250565b7f496e697469616c697a61626c653a20636f6e747261637420697320616c72656160008201527f647920696e697469616c697a6564000000000000000000000000000000000000602082015250565b7f455243313135353a20696e73756666696369656e742062616c616e636520666f60008201527f72207472616e7366657200000000000000000000000000000000000000000000602082015250565b7f4f776e61626c653a2063616c6c6572206973206e6f7420746865206f776e6572600082015250565b7f546f6b656e20444e450000000000000000000000000000000000000000000000600082015250565b7f496e697469616c697a61626c653a20636f6e7472616374206973206e6f74206960008201527f6e697469616c697a696e67000000000000000000000000000000000000000000602082015250565b7f7b69647d00000000000000000000000000000000000000000000000000000000600082015250565b7f455243313135353a2073657474696e6720617070726f76616c2073746174757360008201527f20666f722073656c660000000000000000000000000000000000000000000000602082015250565b7f455243313135353a206163636f756e747320616e6420696473206c656e67746860008201527f206d69736d617463680000000000000000000000000000000000000000000000602082015250565b7f455243313135353a2069647320616e6420616d6f756e7473206c656e6774682060008201527f6d69736d61746368000000000000000000000000000000000000000000000000602082015250565b7f455243313135353a206d696e7420746f20746865207a65726f2061646472657360008201527f7300000000000000000000000000000000000000000000000000000000000000602082015250565b600060443d1015615d4f57615dd2565b615d57615351565b60043d036004823e80513d602482011167ffffffffffffffff82111715615d7f575050615dd2565b808201805167ffffffffffffffff811115615d9d5750505050615dd2565b80602083010160043d038501811115615dba575050505050615dd2565b615dc9826020018501866156d9565b82955050505050505b90565b615dde816155c4565b8114615de957600080fd5b50565b615df5816155e8565b8114615e0057600080fd5b50565b615e0c816155f4565b8114615e1757600080fd5b50565b615e2381615620565b8114615e2e57600080fd5b50565b615e3a8161564e565b8114615e4557600080fd5b5056fea26469706673582212200331393b4f7b209f7ada16fdcf0546d795563b78dcc2956093a94d419c22529564736f6c63430008040033",
  "linkReferences": {
    "contracts/v1/lib/MusixverseLib.sol": {
      "MusixverseLib": [
        {
          "length": 20,
          "start": 3182
        },
        {
          "length": 20,
          "start": 5062
        },
        {
          "length": 20,
          "start": 6017
        },
        {
          "length": 20,
          "start": 6639
        },
        {
          "length": 20,
          "start": 8271
        }
      ]
    }
  },
  "deployedLinkReferences": {
    "contracts/v1/lib/MusixverseLib.sol": {
      "MusixverseLib": [
        {
          "length": 20,
          "start": 3149
        },
        {
          "length": 20,
          "start": 5029
        },
        {
          "length": 20,
          "start": 5984
        },
        {
          "length": 20,
          "start": 6606
        },
        {
          "length": 20,
          "start": 8238
        }
      ]
    }
  }
}