{
  "_format": "hh-sol-artifact-1",
  "contractName": "MusixverseV1",
  "sourceName": "contracts/v1/MusixverseV1.sol",
  "abi": [
    {
      "anonymous": false,
      "inputs": [
        {
          "indexed": true,
          "internalType": "address",
          "name": "account",
          "type": "address"
        },
        {
          "indexed": true,
          "internalType": "address",
          "name": "operator",
          "type": "address"
        },
        {
          "indexed": false,
          "internalType": "bool",
          "name": "approved",
          "type": "bool"
        }
      ],
      "name": "ApprovalForAll",
      "type": "event"
    },
    {
      "anonymous": false,
      "inputs": [
        {
          "indexed": true,
          "internalType": "address",
          "name": "previousOwner",
          "type": "address"
        },
        {
          "indexed": true,
          "internalType": "address",
          "name": "newOwner",
          "type": "address"
        }
      ],
      "name": "OwnershipTransferred",
      "type": "event"
    },
    {
      "anonymous": false,
      "inputs": [
        {
          "indexed": false,
          "internalType": "address",
          "name": "account",
          "type": "address"
        }
      ],
      "name": "Paused",
      "type": "event"
    },
    {
      "anonymous": false,
      "inputs": [
        {
          "indexed": false,
          "internalType": "address",
          "name": "",
          "type": "address"
        },
        {
          "indexed": false,
          "internalType": "uint256",
          "name": "",
          "type": "uint256"
        }
      ],
      "name": "Received",
      "type": "event"
    },
    {
      "anonymous": false,
      "inputs": [
        {
          "indexed": false,
          "internalType": "uint256",
          "name": "trackId",
          "type": "uint256"
        },
        {
          "indexed": false,
          "internalType": "uint256",
          "name": "tokenId",
          "type": "uint256"
        },
        {
          "indexed": false,
          "internalType": "uint256",
          "name": "price",
          "type": "uint256"
        },
        {
          "indexed": false,
          "internalType": "uint256",
          "name": "localTokenId",
          "type": "uint256"
        }
      ],
      "name": "TokenCreated",
      "type": "event"
    },
    {
      "anonymous": false,
      "inputs": [
        {
          "indexed": false,
          "internalType": "uint256",
          "name": "tokenId",
          "type": "uint256"
        },
        {
          "indexed": false,
          "internalType": "bool",
          "name": "onSale",
          "type": "bool"
        }
      ],
      "name": "TokenOnSaleUpdated",
      "type": "event"
    },
    {
      "anonymous": false,
      "inputs": [
        {
          "indexed": false,
          "internalType": "uint256",
          "name": "tokenId",
          "type": "uint256"
        },
        {
          "indexed": false,
          "internalType": "uint256",
          "name": "oldPrice",
          "type": "uint256"
        },
        {
          "indexed": false,
          "internalType": "uint256",
          "name": "newPrice",
          "type": "uint256"
        }
      ],
      "name": "TokenPriceUpdated",
      "type": "event"
    },
    {
      "anonymous": false,
      "inputs": [
        {
          "indexed": false,
          "internalType": "uint256",
          "name": "tokenId",
          "type": "uint256"
        },
        {
          "indexed": false,
          "internalType": "address",
          "name": "previousOwner",
          "type": "address"
        },
        {
          "indexed": false,
          "internalType": "address",
          "name": "newOwner",
          "type": "address"
        },
        {
          "indexed": false,
          "internalType": "uint256",
          "name": "price",
          "type": "uint256"
        }
      ],
      "name": "TokenPurchased",
      "type": "event"
    },
    {
      "anonymous": false,
      "inputs": [
        {
          "indexed": false,
          "internalType": "uint256",
          "name": "trackId",
          "type": "uint256"
        },
        {
          "indexed": false,
          "internalType": "uint256",
          "name": "maxTokenId",
          "type": "uint256"
        },
        {
          "indexed": false,
          "internalType": "uint256",
          "name": "price",
          "type": "uint256"
        },
        {
          "indexed": false,
          "internalType": "string",
          "name": "URIHash",
          "type": "string"
        }
      ],
      "name": "TrackMinted",
      "type": "event"
    },
    {
      "anonymous": false,
      "inputs": [
        {
          "indexed": true,
          "internalType": "address",
          "name": "operator",
          "type": "address"
        },
        {
          "indexed": true,
          "internalType": "address",
          "name": "from",
          "type": "address"
        },
        {
          "indexed": true,
          "internalType": "address",
          "name": "to",
          "type": "address"
        },
        {
          "indexed": false,
          "internalType": "uint256[]",
          "name": "ids",
          "type": "uint256[]"
        },
        {
          "indexed": false,
          "internalType": "uint256[]",
          "name": "values",
          "type": "uint256[]"
        }
      ],
      "name": "TransferBatch",
      "type": "event"
    },
    {
      "anonymous": false,
      "inputs": [
        {
          "indexed": true,
          "internalType": "address",
          "name": "operator",
          "type": "address"
        },
        {
          "indexed": true,
          "internalType": "address",
          "name": "from",
          "type": "address"
        },
        {
          "indexed": true,
          "internalType": "address",
          "name": "to",
          "type": "address"
        },
        {
          "indexed": false,
          "internalType": "uint256",
          "name": "id",
          "type": "uint256"
        },
        {
          "indexed": false,
          "internalType": "uint256",
          "name": "value",
          "type": "uint256"
        }
      ],
      "name": "TransferSingle",
      "type": "event"
    },
    {
      "anonymous": false,
      "inputs": [
        {
          "indexed": false,
          "internalType": "string",
          "name": "value",
          "type": "string"
        },
        {
          "indexed": true,
          "internalType": "uint256",
          "name": "id",
          "type": "uint256"
        }
      ],
      "name": "URI",
      "type": "event"
    },
    {
      "anonymous": false,
      "inputs": [
        {
          "indexed": false,
          "internalType": "address",
          "name": "account",
          "type": "address"
        }
      ],
      "name": "Unpaused",
      "type": "event"
    },
    {
      "inputs": [
        {
          "internalType": "address",
          "name": "account",
          "type": "address"
        },
        {
          "internalType": "uint256",
          "name": "id",
          "type": "uint256"
        }
      ],
      "name": "balanceOf",
      "outputs": [
        {
          "internalType": "uint256",
          "name": "",
          "type": "uint256"
        }
      ],
      "stateMutability": "view",
      "type": "function"
    },
    {
      "inputs": [
        {
          "internalType": "address[]",
          "name": "accounts",
          "type": "address[]"
        },
        {
          "internalType": "uint256[]",
          "name": "ids",
          "type": "uint256[]"
        }
      ],
      "name": "balanceOfBatch",
      "outputs": [
        {
          "internalType": "uint256[]",
          "name": "",
          "type": "uint256[]"
        }
      ],
      "stateMutability": "view",
      "type": "function"
    },
    {
      "inputs": [],
      "name": "baseURI",
      "outputs": [
        {
          "internalType": "string",
          "name": "",
          "type": "string"
        }
      ],
      "stateMutability": "view",
      "type": "function"
    },
    {
      "inputs": [],
      "name": "contractURI",
      "outputs": [
        {
          "internalType": "string",
          "name": "",
          "type": "string"
        }
      ],
      "stateMutability": "view",
      "type": "function"
    },
    {
      "inputs": [
        {
          "internalType": "uint256",
          "name": "tokenId",
          "type": "uint256"
        }
      ],
      "name": "getRoyaltyInfo",
      "outputs": [
        {
          "components": [
            {
              "internalType": "address payable",
              "name": "recipient",
              "type": "address"
            },
            {
              "internalType": "uint256",
              "name": "percentage",
              "type": "uint256"
            }
          ],
          "internalType": "struct MusixverseEternalStorage.RoyaltyInfo[]",
          "name": "",
          "type": "tuple[]"
        }
      ],
      "stateMutability": "view",
      "type": "function"
    },
    {
      "inputs": [
        {
          "internalType": "string",
          "name": "tokenMetadataURI",
          "type": "string"
        },
        {
          "internalType": "string",
          "name": "contractMetadataURI",
          "type": "string"
        }
      ],
      "name": "initialize",
      "outputs": [],
      "stateMutability": "nonpayable",
      "type": "function"
    },
    {
      "inputs": [
        {
          "internalType": "address",
          "name": "account",
          "type": "address"
        },
        {
          "internalType": "address",
          "name": "operator",
          "type": "address"
        }
      ],
      "name": "isApprovedForAll",
      "outputs": [
        {
          "internalType": "bool",
          "name": "",
          "type": "bool"
        }
      ],
      "stateMutability": "view",
      "type": "function"
    },
    {
      "inputs": [
        {
          "internalType": "uint16",
          "name": "amount",
          "type": "uint16"
        },
        {
          "internalType": "uint256",
          "name": "price",
          "type": "uint256"
        },
        {
          "internalType": "string",
          "name": "URIHash",
          "type": "string"
        },
        {
          "internalType": "address[]",
          "name": "collaborators",
          "type": "address[]"
        },
        {
          "internalType": "uint16[]",
          "name": "percentageContributions",
          "type": "uint16[]"
        },
        {
          "internalType": "uint16",
          "name": "resaleRoyaltyPercentage",
          "type": "uint16"
        },
        {
          "internalType": "bool",
          "name": "onSale",
          "type": "bool"
        },
        {
          "internalType": "uint256",
          "name": "unlockTimestamp",
          "type": "uint256"
        }
      ],
      "name": "mintTrackNFT",
      "outputs": [],
      "stateMutability": "nonpayable",
      "type": "function"
    },
    {
      "inputs": [],
      "name": "mxvLatestTokenId",
      "outputs": [
        {
          "internalType": "uint256",
          "name": "_value",
          "type": "uint256"
        }
      ],
      "stateMutability": "view",
      "type": "function"
    },
    {
      "inputs": [],
      "name": "name",
      "outputs": [
        {
          "internalType": "string",
          "name": "",
          "type": "string"
        }
      ],
      "stateMutability": "view",
      "type": "function"
    },
    {
      "inputs": [],
      "name": "owner",
      "outputs": [
        {
          "internalType": "address",
          "name": "",
          "type": "address"
        }
      ],
      "stateMutability": "view",
      "type": "function"
    },
    {
      "inputs": [
        {
          "internalType": "uint256",
          "name": "tokenId",
          "type": "uint256"
        }
      ],
      "name": "ownerOf",
      "outputs": [
        {
          "internalType": "address",
          "name": "",
          "type": "address"
        }
      ],
      "stateMutability": "view",
      "type": "function"
    },
    {
      "inputs": [],
      "name": "pause",
      "outputs": [],
      "stateMutability": "nonpayable",
      "type": "function"
    },
    {
      "inputs": [],
      "name": "paused",
      "outputs": [
        {
          "internalType": "bool",
          "name": "",
          "type": "bool"
        }
      ],
      "stateMutability": "view",
      "type": "function"
    },
    {
      "inputs": [
        {
          "internalType": "uint256",
          "name": "tokenId",
          "type": "uint256"
        }
      ],
      "name": "purchaseTrackNFT",
      "outputs": [],
      "stateMutability": "payable",
      "type": "function"
    },
    {
      "inputs": [],
      "name": "renounceOwnership",
      "outputs": [],
      "stateMutability": "nonpayable",
      "type": "function"
    },
    {
      "inputs": [
        {
          "internalType": "uint256",
          "name": "",
          "type": "uint256"
        },
        {
          "internalType": "uint256",
          "name": "",
          "type": "uint256"
        }
      ],
      "name": "royalties",
      "outputs": [
        {
          "internalType": "address payable",
          "name": "recipient",
          "type": "address"
        },
        {
          "internalType": "uint256",
          "name": "percentage",
          "type": "uint256"
        }
      ],
      "stateMutability": "view",
      "type": "function"
    },
    {
      "inputs": [
        {
          "internalType": "address",
          "name": "from",
          "type": "address"
        },
        {
          "internalType": "address",
          "name": "to",
          "type": "address"
        },
        {
          "internalType": "uint256[]",
          "name": "ids",
          "type": "uint256[]"
        },
        {
          "internalType": "uint256[]",
          "name": "amounts",
          "type": "uint256[]"
        },
        {
          "internalType": "bytes",
          "name": "data",
          "type": "bytes"
        }
      ],
      "name": "safeBatchTransferFrom",
      "outputs": [],
      "stateMutability": "nonpayable",
      "type": "function"
    },
    {
      "inputs": [
        {
          "internalType": "address",
          "name": "from",
          "type": "address"
        },
        {
          "internalType": "address",
          "name": "to",
          "type": "address"
        },
        {
          "internalType": "uint256",
          "name": "id",
          "type": "uint256"
        },
        {
          "internalType": "uint256",
          "name": "amount",
          "type": "uint256"
        },
        {
          "internalType": "bytes",
          "name": "data",
          "type": "bytes"
        }
      ],
      "name": "safeTransferFrom",
      "outputs": [],
      "stateMutability": "nonpayable",
      "type": "function"
    },
    {
      "inputs": [
        {
          "internalType": "address",
          "name": "operator",
          "type": "address"
        },
        {
          "internalType": "bool",
          "name": "approved",
          "type": "bool"
        }
      ],
      "name": "setApprovalForAll",
      "outputs": [],
      "stateMutability": "nonpayable",
      "type": "function"
    },
    {
      "inputs": [
        {
          "internalType": "bytes4",
          "name": "interfaceId",
          "type": "bytes4"
        }
      ],
      "name": "supportsInterface",
      "outputs": [
        {
          "internalType": "bool",
          "name": "",
          "type": "bool"
        }
      ],
      "stateMutability": "view",
      "type": "function"
    },
    {
      "inputs": [],
      "name": "symbol",
      "outputs": [
        {
          "internalType": "string",
          "name": "",
          "type": "string"
        }
      ],
      "stateMutability": "view",
      "type": "function"
    },
    {
      "inputs": [
        {
          "internalType": "uint256",
          "name": "tokenId",
          "type": "uint256"
        }
      ],
      "name": "toggleOnSale",
      "outputs": [],
      "stateMutability": "nonpayable",
      "type": "function"
    },
    {
      "inputs": [],
      "name": "totalTracks",
      "outputs": [
        {
          "internalType": "uint256",
          "name": "_value",
          "type": "uint256"
        }
      ],
      "stateMutability": "view",
      "type": "function"
    },
    {
      "inputs": [
        {
          "internalType": "uint256",
          "name": "",
          "type": "uint256"
        }
      ],
      "name": "trackNFTs",
      "outputs": [
        {
          "internalType": "uint256",
          "name": "price",
          "type": "uint256"
        },
        {
          "internalType": "address",
          "name": "artistAddress",
          "type": "address"
        },
        {
          "internalType": "uint16",
          "name": "resaleRoyaltyPercentage",
          "type": "uint16"
        },
        {
          "internalType": "bool",
          "name": "onSale",
          "type": "bool"
        },
        {
          "internalType": "bool",
          "name": "soldOnce",
          "type": "bool"
        },
        {
          "internalType": "uint256",
          "name": "unlockTimestamp",
          "type": "uint256"
        }
      ],
      "stateMutability": "view",
      "type": "function"
    },
    {
      "inputs": [
        {
          "internalType": "address",
          "name": "newOwner",
          "type": "address"
        }
      ],
      "name": "transferOwnership",
      "outputs": [],
      "stateMutability": "nonpayable",
      "type": "function"
    },
    {
      "inputs": [],
      "name": "unpause",
      "outputs": [],
      "stateMutability": "nonpayable",
      "type": "function"
    },
    {
      "inputs": [
        {
          "internalType": "string",
          "name": "newURI",
          "type": "string"
        }
      ],
      "name": "updateBaseURI",
      "outputs": [],
      "stateMutability": "nonpayable",
      "type": "function"
    },
    {
      "inputs": [
        {
          "internalType": "string",
          "name": "newURI",
          "type": "string"
        }
      ],
      "name": "updateContractMetadataURI",
      "outputs": [],
      "stateMutability": "nonpayable",
      "type": "function"
    },
    {
      "inputs": [
        {
          "internalType": "uint256",
          "name": "tokenId",
          "type": "uint256"
        },
        {
          "internalType": "uint256",
          "name": "newPrice",
          "type": "uint256"
        }
      ],
      "name": "updatePrice",
      "outputs": [],
      "stateMutability": "nonpayable",
      "type": "function"
    },
    {
      "inputs": [
        {
          "internalType": "string",
          "name": "newURI",
          "type": "string"
        }
      ],
      "name": "updateURI",
      "outputs": [],
      "stateMutability": "nonpayable",
      "type": "function"
    },
    {
      "inputs": [
        {
          "internalType": "uint256",
          "name": "mxvTokenId",
          "type": "uint256"
        }
      ],
      "name": "uri",
      "outputs": [
        {
          "internalType": "string",
          "name": "",
          "type": "string"
        }
      ],
      "stateMutability": "view",
      "type": "function"
    },
    {
      "inputs": [],
      "name": "withdraw",
      "outputs": [],
      "stateMutability": "nonpayable",
      "type": "function"
    },
    {
      "stateMutability": "payable",
      "type": "receive"
    }
  ],
  "bytecode": "0x608060405234801561001057600080fd5b50615ffe80620000216000396000f3fe6080604052600436106101f15760003560e01c80638456cb591161010d578063c30f4a5a116100a0578063ee169bd31161006f578063ee169bd314610732578063ef3c61061461075b578063f242432a14610786578063f2fde38b146107af578063fd036655146107d857610231565b8063c30f4a5a14610678578063d6e83cda146106a1578063e8a3d485146106ca578063e985e9c5146106f557610231565b806395d89b41116100dc57806395d89b41146105be5780639c17d873146105e9578063a22cb46514610612578063b76c632b1461063b57610231565b80638456cb59146105155780638924af741461052c5780638da5cb5b1461056a578063931688cb1461059557610231565b80634cd88b76116101855780636c0360eb116101545780636c0360eb14610468578063715018a61461049357806382367b2d146104aa578063831744ca146104d357610231565b80634cd88b761461039a5780634e1273f4146103c35780635c975abb146104005780636352211e1461042b57610231565b80632eb2c2d6116101c15780632eb2c2d6146103185780633ccfd60b146103415780633f4ba83a1461035857806340dee0b51461036f57610231565b8062fdd58e1461023657806301ffc9a71461027357806306fdde03146102b05780630e89341c146102db57610231565b36610231577f88a5966d370b9919b20f3e2c13ff65706f196a4e32cc2c12bf57088f885258743334604051610227929190614e92565b60405180910390a1005b600080fd5b34801561024257600080fd5b5061025d600480360381019061025891906141fe565b6107f4565b60405161026a919061522f565b60405180910390f35b34801561027f57600080fd5b5061029a600480360381019061029591906142cf565b6108be565b6040516102a79190614f36565b60405180910390f35b3480156102bc57600080fd5b506102c56109a0565b6040516102d29190614f51565b60405180910390f35b3480156102e757600080fd5b5061030260048036038101906102fd919061451b565b610a2e565b60405161030f9190614f51565b60405180910390f35b34801561032457600080fd5b5061033f600480360381019061033a9190614074565b610ac6565b005b34801561034d57600080fd5b50610356610b67565b005b34801561036457600080fd5b5061036d610c2c565b005b34801561037b57600080fd5b50610384610cf9565b604051610391919061522f565b60405180910390f35b3480156103a657600080fd5b506103c160048036038101906103bc91906143a7565b610d06565b005b3480156103cf57600080fd5b506103ea60048036038101906103e5919061423a565b610df6565b6040516103f79190614edd565b60405180910390f35b34801561040c57600080fd5b50610415610fa7565b6040516104229190614f36565b60405180910390f35b34801561043757600080fd5b50610452600480360381019061044d919061451b565b610fbe565b60405161045f9190614cf4565b60405180910390f35b34801561047457600080fd5b5061047d61109f565b60405161048a9190614f51565b60405180910390f35b34801561049f57600080fd5b506104a861112d565b005b3480156104b657600080fd5b506104d160048036038101906104cc9190614544565b6111b5565b005b3480156104df57600080fd5b506104fa60048036038101906104f5919061451b565b6112b0565b60405161050c9695949392919061528f565b60405180910390f35b34801561052157600080fd5b5061052a611335565b005b34801561053857600080fd5b50610553600480360381019061054e9190614544565b611403565b604051610561929190614d0f565b60405180910390f35b34801561057657600080fd5b5061057f611465565b60405161058c9190614cf4565b60405180910390f35b3480156105a157600080fd5b506105bc60048036038101906105b79190614366565b61148f565b005b3480156105ca57600080fd5b506105d3611525565b6040516105e09190614f51565b60405180910390f35b3480156105f557600080fd5b50610610600480360381019061060b9190614413565b6115b3565b005b34801561061e57600080fd5b50610639600480360381019061063491906141c2565b611bc0565b005b34801561064757600080fd5b50610662600480360381019061065d919061451b565b611bd6565b60405161066f9190614ebb565b60405180910390f35b34801561068457600080fd5b5061069f600480360381019061069a9190614321565b611ca9565b005b3480156106ad57600080fd5b506106c860048036038101906106c39190614366565b611d76565b005b3480156106d657600080fd5b506106df611e0c565b6040516106ec9190614f51565b60405180910390f35b34801561070157600080fd5b5061071c60048036038101906107179190614038565b611e9a565b6040516107299190614f36565b60405180910390f35b34801561073e57600080fd5b506107596004803603810190610754919061451b565b611f2e565b005b34801561076757600080fd5b50610770612022565b60405161077d919061522f565b60405180910390f35b34801561079257600080fd5b506107ad60048036038101906107a89190614133565b61202f565b005b3480156107bb57600080fd5b506107d660048036038101906107d1919061400f565b6120d0565b005b6107f260048036038101906107ed919061451b565b6121c8565b005b60008073ffffffffffffffffffffffffffffffffffffffff168373ffffffffffffffffffffffffffffffffffffffff161415610865576040517f08c379a000000000000000000000000000000000000000000000000000000000815260040161085c90614fd3565b60405180910390fd5b6065600083815260200190815260200160002060008473ffffffffffffffffffffffffffffffffffffffff1673ffffffffffffffffffffffffffffffffffffffff16815260200190815260200160002054905092915050565b60007fd9b67a26000000000000000000000000000000000000000000000000000000007bffffffffffffffffffffffffffffffffffffffffffffffffffffffff1916827bffffffffffffffffffffffffffffffffffffffffffffffffffffffff1916148061098957507f0e89341c000000000000000000000000000000000000000000000000000000007bffffffffffffffffffffffffffffffffffffffffffffffffffffffff1916827bffffffffffffffffffffffffffffffffffffffffffffffffffffffff1916145b80610999575061099882612372565b5b9050919050565b60fb80546109ad90615827565b80601f01602080910402602001604051908101604052809291908181526020018280546109d990615827565b8015610a265780601f106109fb57610100808354040283529160200191610a26565b820191906000526020600020905b815481529060010190602001808311610a0957829003601f168201915b505050505081565b6060600082118015610a4a5750610a466101006123dc565b8211155b610a89576040517f08c379a0000000000000000000000000000000000000000000000000000000008152600401610a80906150f3565b60405180910390fd5b60fe6101026000848152602001908152602001600020604051602001610ab0929190614cd0565b6040516020818303038152906040529050919050565b610ace6123ea565b73ffffffffffffffffffffffffffffffffffffffff168573ffffffffffffffffffffffffffffffffffffffff161480610b145750610b1385610b0e6123ea565b611e9a565b5b610b53576040517f08c379a0000000000000000000000000000000000000000000000000000000008152600401610b4a90615073565b60405180910390fd5b610b6085858585856123f2565b5050505050565b610b6f6123ea565b73ffffffffffffffffffffffffffffffffffffffff16610b8d611465565b73ffffffffffffffffffffffffffffffffffffffff1614610be3576040517f08c379a0000000000000000000000000000000000000000000000000000000008152600401610bda906150d3565b60405180910390fd5b3373ffffffffffffffffffffffffffffffffffffffff166108fc479081150290604051600060405180830381858888f19350505050158015610c29573d6000803e3d6000fd5b50565b610c34610fa7565b610c73576040517f08c379a0000000000000000000000000000000000000000000000000000000008152600401610c6a90614fb3565b60405180910390fd5b610c7b6123ea565b73ffffffffffffffffffffffffffffffffffffffff16610c99611465565b73ffffffffffffffffffffffffffffffffffffffff1614610cef576040517f08c379a0000000000000000000000000000000000000000000000000000000008152600401610ce6906150d3565b60405180910390fd5b610cf7612755565b565b6101018060000154905081565b600060019054906101000a900460ff16610d2e5760008054906101000a900460ff1615610d37565b610d366127f7565b5b610d76576040517f08c379a0000000000000000000000000000000000000000000000000000000008152600401610d6d90615093565b60405180910390fd5b60008060019054906101000a900460ff161590508015610dc6576001600060016101000a81548160ff02191690831515021790555060016000806101000a81548160ff0219169083151502179055505b610dd08383612808565b8015610df15760008060016101000a81548160ff0219169083151502179055505b505050565b60608151835114610e3c576040517f08c379a0000000000000000000000000000000000000000000000000000000008152600401610e3390615153565b60405180910390fd5b6000835167ffffffffffffffff811115610e7f577f4e487b7100000000000000000000000000000000000000000000000000000000600052604160045260246000fd5b604051908082528060200260200182016040528015610ead5781602001602082028036833780820191505090505b50905060005b8451811015610f9c57610f46858281518110610ef8577f4e487b7100000000000000000000000000000000000000000000000000000000600052603260045260246000fd5b6020026020010151858381518110610f39577f4e487b7100000000000000000000000000000000000000000000000000000000600052603260045260246000fd5b60200260200101516107f4565b828281518110610f7f577f4e487b7100000000000000000000000000000000000000000000000000000000600052603260045260246000fd5b60200260200101818152505080610f959061588a565b9050610eb3565b508091505092915050565b6000609760009054906101000a900460ff16905090565b60008073ffffffffffffffffffffffffffffffffffffffff16610103600084815260200190815260200160002060009054906101000a900473ffffffffffffffffffffffffffffffffffffffff1673ffffffffffffffffffffffffffffffffffffffff161415611063576040517f08c379a000000000000000000000000000000000000000000000000000000000815260040161105a906150f3565b60405180910390fd5b610103600083815260200190815260200160002060009054906101000a900473ffffffffffffffffffffffffffffffffffffffff169050919050565b60fe80546110ac90615827565b80601f01602080910402602001604051908101604052809291908181526020018280546110d890615827565b80156111255780601f106110fa57610100808354040283529160200191611125565b820191906000526020600020905b81548152906001019060200180831161110857829003601f168201915b505050505081565b6111356123ea565b73ffffffffffffffffffffffffffffffffffffffff16611153611465565b73ffffffffffffffffffffffffffffffffffffffff16146111a9576040517f08c379a00000000000000000000000000000000000000000000000000000000081526004016111a0906150d3565b60405180910390fd5b6111b36000612a41565b565b60008073__$466d0af6b863105b2d93eed45cf7a289fc$__6308363d7f60ff60019054906101000a900473ffffffffffffffffffffffffffffffffffffffff1686610104876101006040518663ffffffff1660e01b815260040161121d959493929190614d7d565b604080518083038186803b15801561123457600080fd5b505af4158015611248573d6000803e3d6000fd5b505050506040513d601f19601f8201168201806040525081019061126c9190614580565b915091507ed4fe314618b73a96886b87817a53a5ed51433b0234c85a5e9dafe2cb7b88428483836040516112a2939291906153ec565b60405180910390a150505050565b6101046020528060005260406000206000915090508060000154908060010160009054906101000a900473ffffffffffffffffffffffffffffffffffffffff16908060010160149054906101000a900461ffff16908060010160169054906101000a900460ff16908060010160179054906101000a900460ff16908060020154905086565b61133d610fa7565b1561137d576040517f08c379a000000000000000000000000000000000000000000000000000000000815260040161137490615033565b60405180910390fd5b6113856123ea565b73ffffffffffffffffffffffffffffffffffffffff166113a3611465565b73ffffffffffffffffffffffffffffffffffffffff16146113f9576040517f08c379a00000000000000000000000000000000000000000000000000000000081526004016113f0906150d3565b60405180910390fd5b611401612b07565b565b610105602052816000526040600020818154811061142057600080fd5b9060005260206000209060020201600091509150508060000160009054906101000a900473ffffffffffffffffffffffffffffffffffffffff16908060010154905082565b600060c960009054906101000a900473ffffffffffffffffffffffffffffffffffffffff16905090565b6114976123ea565b73ffffffffffffffffffffffffffffffffffffffff166114b5611465565b73ffffffffffffffffffffffffffffffffffffffff161461150b576040517f08c379a0000000000000000000000000000000000000000000000000000000008152600401611502906150d3565b60405180910390fd5b8060fe9080519060200190611521929190613bea565b5050565b60fc805461153290615827565b80601f016020809104026020016040519081016040528092919081815260200182805461155e90615827565b80156115ab5780601f10611580576101008083540402835291602001916115ab565b820191906000526020600020905b81548152906001019060200180831161158e57829003601f168201915b505050505081565b6115bb610fa7565b156115fb576040517f08c379a00000000000000000000000000000000000000000000000000000000081526004016115f290615033565b60405180910390fd5b73__$466d0af6b863105b2d93eed45cf7a289fc$__633fe56e118c8c8c8c8c8c8c8c8c6040518a63ffffffff1660e01b8152600401611642999897969594939291906151b3565b60006040518083038186803b15801561165a57600080fd5b505af415801561166e573d6000803e3d6000fd5b5050505060008b61ffff1667ffffffffffffffff8111156116b8577f4e487b7100000000000000000000000000000000000000000000000000000000600052604160045260246000fd5b6040519080825280602002602001820160405280156116e65781602001602082028036833780820191505090505b50905060008c61ffff1667ffffffffffffffff81111561172f577f4e487b7100000000000000000000000000000000000000000000000000000000600052604160045260246000fd5b60405190808252806020026020018201604052801561175d5781602001602082028036833780820191505090505b50905060005b8d61ffff16811015611a815761177a610100612baa565b6117856101006123dc565b8382815181106117be577f4e487b7100000000000000000000000000000000000000000000000000000000600052603260045260246000fd5b6020026020010181815250506001828281518110611805577f4e487b7100000000000000000000000000000000000000000000000000000000600052603260045260246000fd5b60200260200101818152505061186961181f6101006123dc565b8d8d8080601f016020809104026020016040519081016040528093929190818152602001838380828437600081840152601f19601f82011690508083019250505050505050612bc0565b73__$466d0af6b863105b2d93eed45cf7a289fc$__631d5492e461188e6101006123dc565b8c8c8c8c6101056040518763ffffffff1660e01b81526004016118b6969594939291906152f0565b60006040518083038186803b1580156118ce57600080fd5b505af41580156118e2573d6000803e3d6000fd5b505050503361010360006118f76101006123dc565b815260200190815260200160002060006101000a81548173ffffffffffffffffffffffffffffffffffffffff021916908373ffffffffffffffffffffffffffffffffffffffff1602179055506040518060c001604052808e81526020013373ffffffffffffffffffffffffffffffffffffffff1681526020018761ffff168152602001861515815260200160001515815260200185815250610104600061199f6101006123dc565b81526020019081526020016000206000820151816000015560208201518160010160006101000a81548173ffffffffffffffffffffffffffffffffffffffff021916908373ffffffffffffffffffffffffffffffffffffffff16021790555060408201518160010160146101000a81548161ffff021916908361ffff16021790555060608201518160010160166101000a81548160ff02191690831515021790555060808201518160010160176101000a81548160ff02191690831515021790555060a082015181600201559050508080611a799061588a565b915050611763565b50611a9d33838360405180602001604052806000815250612bed565b611aa8610101612baa565b60005b8d61ffff16811015611b5d577fedf3220df5906e023bb771b36cc21f0d9bdfb70dba1e1e587ef47b24822aa64d611ae36101016123dc565b848381518110611b1c577f4e487b7100000000000000000000000000000000000000000000000000000000600052603260045260246000fd5b60200260200101518f600185611b3291906156ee565b604051611b429493929190615471565b60405180910390a18080611b559061588a565b915050611aab565b507fbb9e5dbfdfe84b24476e0dfce752840b95c7518aaaae5836c409af1629ae2f9c611b8a6101016123dc565b611b956101006123dc565b8e8e8e604051611ba9959493929190615423565b60405180910390a150505050505050505050505050565b611bd2611bcb6123ea565b8383612e58565b5050565b60606101056000838152602001908152602001600020805480602002602001604051908101604052809291908181526020016000905b82821015611c9e57838290600052602060002090600202016040518060400160405290816000820160009054906101000a900473ffffffffffffffffffffffffffffffffffffffff1673ffffffffffffffffffffffffffffffffffffffff1673ffffffffffffffffffffffffffffffffffffffff16815260200160018201548152505081526020019060010190611c0c565b505050509050919050565b611cb16123ea565b73ffffffffffffffffffffffffffffffffffffffff16611ccf611465565b73ffffffffffffffffffffffffffffffffffffffff1614611d25576040517f08c379a0000000000000000000000000000000000000000000000000000000008152600401611d1c906150d3565b60405180910390fd5b611d7282828080601f016020809104026020016040519081016040528093929190818152602001838380828437600081840152601f19601f82011690508083019250505050505050612fc5565b5050565b611d7e6123ea565b73ffffffffffffffffffffffffffffffffffffffff16611d9c611465565b73ffffffffffffffffffffffffffffffffffffffff1614611df2576040517f08c379a0000000000000000000000000000000000000000000000000000000008152600401611de9906150d3565b60405180910390fd5b8060fd9080519060200190611e08929190613bea565b5050565b60fd8054611e1990615827565b80601f0160208091040260200160405190810160405280929190818152602001828054611e4590615827565b8015611e925780601f10611e6757610100808354040283529160200191611e92565b820191906000526020600020905b815481529060010190602001808311611e7557829003601f168201915b505050505081565b6000606660008473ffffffffffffffffffffffffffffffffffffffff1673ffffffffffffffffffffffffffffffffffffffff16815260200190815260200160002060008373ffffffffffffffffffffffffffffffffffffffff1673ffffffffffffffffffffffffffffffffffffffff16815260200190815260200160002060009054906101000a900460ff16905092915050565b600073__$466d0af6b863105b2d93eed45cf7a289fc$__63497a033a60ff60019054906101000a900473ffffffffffffffffffffffffffffffffffffffff16846101046101006040518563ffffffff1660e01b8152600401611f939493929190614d38565b60206040518083038186803b158015611fab57600080fd5b505af4158015611fbf573d6000803e3d6000fd5b505050506040513d601f19601f82011682018060405250810190611fe391906142a6565b90507fb512b84d0e52781a8716f3c1904d0b1ee361197325a97e356d10b9f4d2c5d05a8282604051612016929190615347565b60405180910390a15050565b6101008060000154905081565b6120376123ea565b73ffffffffffffffffffffffffffffffffffffffff168573ffffffffffffffffffffffffffffffffffffffff16148061207d575061207c856120776123ea565b611e9a565b5b6120bc576040517f08c379a00000000000000000000000000000000000000000000000000000000081526004016120b390615013565b60405180910390fd5b6120c98585858585612fdf565b5050505050565b6120d86123ea565b73ffffffffffffffffffffffffffffffffffffffff166120f6611465565b73ffffffffffffffffffffffffffffffffffffffff161461214c576040517f08c379a0000000000000000000000000000000000000000000000000000000008152600401612143906150d3565b60405180910390fd5b600073ffffffffffffffffffffffffffffffffffffffff168173ffffffffffffffffffffffffffffffffffffffff1614156121bc576040517f08c379a00000000000000000000000000000000000000000000000000000000081526004016121b390614ff3565b60405180910390fd5b6121c581612a41565b50565b6121d0610fa7565b15612210576040517f08c379a000000000000000000000000000000000000000000000000000000000815260040161220790615033565b60405180910390fd5b600061221b82610fbe565b905073__$466d0af6b863105b2d93eed45cf7a289fc$__63224c025e8361010460ff60019054906101000a900473ffffffffffffffffffffffffffffffffffffffff1660ff60009054906101000a900460ff166101006040518663ffffffff1660e01b8152600401612291959493929190615370565b60006040518083038186803b1580156122a957600080fd5b505af41580156122bd573d6000803e3d6000fd5b505050506122de813384600160405180602001604052806000815250612fdf565b33610103600084815260200190815260200160002060006101000a81548173ffffffffffffffffffffffffffffffffffffffff021916908373ffffffffffffffffffffffffffffffffffffffff1602179055507f704cf6cb1221490022185412a0f82fd80ca9ccf7b5f84482727d0f6924265bd882823334604051612366949392919061524a565b60405180910390a15050565b60007f01ffc9a7000000000000000000000000000000000000000000000000000000007bffffffffffffffffffffffffffffffffffffffffffffffffffffffff1916827bffffffffffffffffffffffffffffffffffffffffffffffffffffffff1916149050919050565b600081600001549050919050565b600033905090565b8151835114612436576040517f08c379a000000000000000000000000000000000000000000000000000000000815260040161242d90615173565b60405180910390fd5b600073ffffffffffffffffffffffffffffffffffffffff168473ffffffffffffffffffffffffffffffffffffffff1614156124a6576040517f08c379a000000000000000000000000000000000000000000000000000000000815260040161249d90615053565b60405180910390fd5b60006124b06123ea565b90506124c0818787878787613264565b60005b84518110156126c0576000858281518110612507577f4e487b7100000000000000000000000000000000000000000000000000000000600052603260045260246000fd5b60200260200101519050600085838151811061254c577f4e487b7100000000000000000000000000000000000000000000000000000000600052603260045260246000fd5b6020026020010151905060006065600084815260200190815260200160002060008b73ffffffffffffffffffffffffffffffffffffffff1673ffffffffffffffffffffffffffffffffffffffff168152602001908152602001600020549050818110156125ee576040517f08c379a00000000000000000000000000000000000000000000000000000000081526004016125e5906150b3565b60405180910390fd5b8181036065600085815260200190815260200160002060008c73ffffffffffffffffffffffffffffffffffffffff1673ffffffffffffffffffffffffffffffffffffffff16815260200190815260200160002081905550816065600085815260200190815260200160002060008b73ffffffffffffffffffffffffffffffffffffffff1673ffffffffffffffffffffffffffffffffffffffff16815260200190815260200160002060008282546126a591906156ee565b92505081905550505050806126b99061588a565b90506124c3565b508473ffffffffffffffffffffffffffffffffffffffff168673ffffffffffffffffffffffffffffffffffffffff168273ffffffffffffffffffffffffffffffffffffffff167f4a39dc06d4c0dbc64b70af90fd698a233a518aa5d07e595d983b8c0526c8f7fb8787604051612737929190614eff565b60405180910390a461274d81878787878761326c565b505050505050565b61275d610fa7565b61279c576040517f08c379a000000000000000000000000000000000000000000000000000000000815260040161279390614fb3565b60405180910390fd5b6000609760006101000a81548160ff0219169083151502179055507f5db9ee0a495bf2e6ff9c91a7834c1ba4fdd244a5e8aa4e537bd38aeae4b073aa6127e06123ea565b6040516127ed9190614cf4565b60405180910390a1565b600061280230613453565b15905090565b600060019054906101000a900460ff166128305760008054906101000a900460ff1615612839565b6128386127f7565b5b612878576040517f08c379a000000000000000000000000000000000000000000000000000000000815260040161286f90615093565b60405180910390fd5b60008060019054906101000a900460ff1615905080156128c8576001600060016101000a81548160ff02191690831515021790555060016000806101000a81548160ff0219169083151502179055505b6128d0613466565b6128f8836040516020016128e49190614cae565b604051602081830303815290604052613552565b6040518060400160405280600a81526020017f4d7573697876657273650000000000000000000000000000000000000000000081525060fb9080519060200190612943929190613bea565b506040518060400160405280600381526020017f4d5856000000000000000000000000000000000000000000000000000000000081525060fc908051906020019061298f929190613bea565b508160fd90805190602001906129a6929190613bea565b508260fe90805190602001906129bd929190613bea565b50600260ff60006101000a81548160ff021916908360ff1602179055503060ff60016101000a81548173ffffffffffffffffffffffffffffffffffffffff021916908373ffffffffffffffffffffffffffffffffffffffff1602179055508015612a3c5760008060016101000a81548160ff0219169083151502179055505b505050565b600060c960009054906101000a900473ffffffffffffffffffffffffffffffffffffffff1690508160c960006101000a81548173ffffffffffffffffffffffffffffffffffffffff021916908373ffffffffffffffffffffffffffffffffffffffff1602179055508173ffffffffffffffffffffffffffffffffffffffff168173ffffffffffffffffffffffffffffffffffffffff167f8be0079c531659141344cd1fd0a4f28419497f9722a3daafe3b4186f6b6457e060405160405180910390a35050565b612b0f610fa7565b15612b4f576040517f08c379a0000000000000000000000000000000000000000000000000000000008152600401612b4690615033565b60405180910390fd5b6001609760006101000a81548160ff0219169083151502179055507f62e78cea01bee320cd4e420270b5ea74000d11b0c9f74754ebdbfc544b05a258612b936123ea565b604051612ba09190614cf4565b60405180910390a1565b6001816000016000828254019250508190555050565b8061010260008481526020019081526020016000209080519060200190612be8929190613bea565b505050565b600073ffffffffffffffffffffffffffffffffffffffff168473ffffffffffffffffffffffffffffffffffffffff161415612c5d576040517f08c379a0000000000000000000000000000000000000000000000000000000008152600401612c5490615193565b60405180910390fd5b8151835114612ca1576040517f08c379a0000000000000000000000000000000000000000000000000000000008152600401612c9890615173565b60405180910390fd5b6000612cab6123ea565b9050612cbc81600087878787613264565b60005b8451811015612dc257838181518110612d01577f4e487b7100000000000000000000000000000000000000000000000000000000600052603260045260246000fd5b602002602001015160656000878481518110612d46577f4e487b7100000000000000000000000000000000000000000000000000000000600052603260045260246000fd5b6020026020010151815260200190815260200160002060008873ffffffffffffffffffffffffffffffffffffffff1673ffffffffffffffffffffffffffffffffffffffff1681526020019081526020016000206000828254612da891906156ee565b925050819055508080612dba9061588a565b915050612cbf565b508473ffffffffffffffffffffffffffffffffffffffff16600073ffffffffffffffffffffffffffffffffffffffff168273ffffffffffffffffffffffffffffffffffffffff167f4a39dc06d4c0dbc64b70af90fd698a233a518aa5d07e595d983b8c0526c8f7fb8787604051612e3a929190614eff565b60405180910390a4612e518160008787878761326c565b5050505050565b8173ffffffffffffffffffffffffffffffffffffffff168373ffffffffffffffffffffffffffffffffffffffff161415612ec7576040517f08c379a0000000000000000000000000000000000000000000000000000000008152600401612ebe90615133565b60405180910390fd5b80606660008573ffffffffffffffffffffffffffffffffffffffff1673ffffffffffffffffffffffffffffffffffffffff16815260200190815260200160002060008473ffffffffffffffffffffffffffffffffffffffff1673ffffffffffffffffffffffffffffffffffffffff16815260200190815260200160002060006101000a81548160ff0219169083151502179055508173ffffffffffffffffffffffffffffffffffffffff168373ffffffffffffffffffffffffffffffffffffffff167f17307eab39ab6107e8899845ad3d59bd9653f200f220920489ca2b5937696c3183604051612fb89190614f36565b60405180910390a3505050565b8060679080519060200190612fdb929190613bea565b5050565b600073ffffffffffffffffffffffffffffffffffffffff168473ffffffffffffffffffffffffffffffffffffffff16141561304f576040517f08c379a000000000000000000000000000000000000000000000000000000000815260040161304690615053565b60405180910390fd5b60006130596123ea565b905061307981878761306a886135bd565b613073886135bd565b87613264565b60006065600086815260200190815260200160002060008873ffffffffffffffffffffffffffffffffffffffff1673ffffffffffffffffffffffffffffffffffffffff16815260200190815260200160002054905083811015613111576040517f08c379a0000000000000000000000000000000000000000000000000000000008152600401613108906150b3565b60405180910390fd5b8381036065600087815260200190815260200160002060008973ffffffffffffffffffffffffffffffffffffffff1673ffffffffffffffffffffffffffffffffffffffff16815260200190815260200160002081905550836065600087815260200190815260200160002060008873ffffffffffffffffffffffffffffffffffffffff1673ffffffffffffffffffffffffffffffffffffffff16815260200190815260200160002060008282546131c891906156ee565b925050819055508573ffffffffffffffffffffffffffffffffffffffff168773ffffffffffffffffffffffffffffffffffffffff168373ffffffffffffffffffffffffffffffffffffffff167fc3d58168c5ae7397731d063d5bbf3d657854427343f4c083240f7aacaa2d0f6288886040516132459291906153c3565b60405180910390a461325b828888888888613683565b50505050505050565b505050505050565b61328b8473ffffffffffffffffffffffffffffffffffffffff16613453565b1561344b578373ffffffffffffffffffffffffffffffffffffffff1663bc197c8187878686866040518663ffffffff1660e01b81526004016132d1959493929190614dd0565b602060405180830381600087803b1580156132eb57600080fd5b505af192505050801561331c57506040513d601f19601f8201168201806040525081019061331991906142f8565b60015b6133c257613328615960565b806308c379a01415613385575061333d615ebf565b806133485750613387565b806040517f08c379a000000000000000000000000000000000000000000000000000000000815260040161337c9190614f51565b60405180910390fd5b505b6040517f08c379a00000000000000000000000000000000000000000000000000000000081526004016133b990614f73565b60405180910390fd5b63bc197c8160e01b7bffffffffffffffffffffffffffffffffffffffffffffffffffffffff1916817bffffffffffffffffffffffffffffffffffffffffffffffffffffffff191614613449576040517f08c379a000000000000000000000000000000000000000000000000000000000815260040161344090614f93565b60405180910390fd5b505b505050505050565b600080823b905060008111915050919050565b600060019054906101000a900460ff1661348e5760008054906101000a900460ff1615613497565b6134966127f7565b5b6134d6576040517f08c379a00000000000000000000000000000000000000000000000000000000081526004016134cd90615093565b60405180910390fd5b60008060019054906101000a900460ff161590508015613526576001600060016101000a81548160ff02191690831515021790555060016000806101000a81548160ff0219169083151502179055505b61352e61386a565b801561354f5760008060016101000a81548160ff0219169083151502179055505b50565b600060019054906101000a900460ff166135a1576040517f08c379a000000000000000000000000000000000000000000000000000000000815260040161359890615113565b60405180910390fd5b6135a961395e565b6135b16139af565b6135ba81613a00565b50565b60606000600167ffffffffffffffff811115613602577f4e487b7100000000000000000000000000000000000000000000000000000000600052604160045260246000fd5b6040519080825280602002602001820160405280156136305781602001602082028036833780820191505090505b509050828160008151811061366e577f4e487b7100000000000000000000000000000000000000000000000000000000600052603260045260246000fd5b60200260200101818152505080915050919050565b6136a28473ffffffffffffffffffffffffffffffffffffffff16613453565b15613862578373ffffffffffffffffffffffffffffffffffffffff1663f23a6e6187878686866040518663ffffffff1660e01b81526004016136e8959493929190614e38565b602060405180830381600087803b15801561370257600080fd5b505af192505050801561373357506040513d601f19601f8201168201806040525081019061373091906142f8565b60015b6137d95761373f615960565b806308c379a0141561379c5750613754615ebf565b8061375f575061379e565b806040517f08c379a00000000000000000000000000000000000000000000000000000000081526004016137939190614f51565b60405180910390fd5b505b6040517f08c379a00000000000000000000000000000000000000000000000000000000081526004016137d090614f73565b60405180910390fd5b63f23a6e6160e01b7bffffffffffffffffffffffffffffffffffffffffffffffffffffffff1916817bffffffffffffffffffffffffffffffffffffffffffffffffffffffff191614613860576040517f08c379a000000000000000000000000000000000000000000000000000000000815260040161385790614f93565b60405180910390fd5b505b505050505050565b600060019054906101000a900460ff166138925760008054906101000a900460ff161561389b565b61389a6127f7565b5b6138da576040517f08c379a00000000000000000000000000000000000000000000000000000000081526004016138d190615093565b60405180910390fd5b60008060019054906101000a900460ff16159050801561392a576001600060016101000a81548160ff02191690831515021790555060016000806101000a81548160ff0219169083151502179055505b613932613a5b565b61393a613abc565b801561395b5760008060016101000a81548160ff0219169083151502179055505b50565b600060019054906101000a900460ff166139ad576040517f08c379a00000000000000000000000000000000000000000000000000000000081526004016139a490615113565b60405180910390fd5b565b600060019054906101000a900460ff166139fe576040517f08c379a00000000000000000000000000000000000000000000000000000000081526004016139f590615113565b60405180910390fd5b565b600060019054906101000a900460ff16613a4f576040517f08c379a0000000000000000000000000000000000000000000000000000000008152600401613a4690615113565b60405180910390fd5b613a5881612fc5565b50565b600060019054906101000a900460ff16613aaa576040517f08c379a0000000000000000000000000000000000000000000000000000000008152600401613aa190615113565b60405180910390fd5b613ab261395e565b613aba613b1d565b565b600060019054906101000a900460ff16613b0b576040517f08c379a0000000000000000000000000000000000000000000000000000000008152600401613b0290615113565b60405180910390fd5b613b1361395e565b613b1b613b89565b565b600060019054906101000a900460ff16613b6c576040517f08c379a0000000000000000000000000000000000000000000000000000000008152600401613b6390615113565b60405180910390fd5b6000609760006101000a81548160ff021916908315150217905550565b600060019054906101000a900460ff16613bd8576040517f08c379a0000000000000000000000000000000000000000000000000000000008152600401613bcf90615113565b60405180910390fd5b613be8613be36123ea565b612a41565b565b828054613bf690615827565b90600052602060002090601f016020900481019282613c185760008555613c5f565b82601f10613c3157805160ff1916838001178555613c5f565b82800160010185558215613c5f579182015b82811115613c5e578251825591602001919060010190613c43565b5b509050613c6c9190613c70565b5090565b5b80821115613c89576000816000905550600101613c71565b5090565b6000613ca0613c9b846154db565b6154b6565b90508083825260208201905082856020860282011115613cbf57600080fd5b60005b85811015613cef5781613cd58882613de1565b845260208401935060208301925050600181019050613cc2565b5050509392505050565b6000613d0c613d0784615507565b6154b6565b90508083825260208201905082856020860282011115613d2b57600080fd5b60005b85811015613d5b5781613d418882613fe5565b845260208401935060208301925050600181019050613d2e565b5050509392505050565b6000613d78613d7384615533565b6154b6565b905082815260208101848484011115613d9057600080fd5b613d9b8482856157e5565b509392505050565b6000613db6613db184615564565b6154b6565b905082815260208101848484011115613dce57600080fd5b613dd98482856157e5565b509392505050565b600081359050613df081615f55565b92915050565b60008083601f840112613e0857600080fd5b8235905067ffffffffffffffff811115613e2157600080fd5b602083019150836020820283011115613e3957600080fd5b9250929050565b600082601f830112613e5157600080fd5b8135613e61848260208601613c8d565b91505092915050565b60008083601f840112613e7c57600080fd5b8235905067ffffffffffffffff811115613e9557600080fd5b602083019150836020820283011115613ead57600080fd5b9250929050565b600082601f830112613ec557600080fd5b8135613ed5848260208601613cf9565b91505092915050565b600081359050613eed81615f6c565b92915050565b600081519050613f0281615f6c565b92915050565b600081359050613f1781615f83565b92915050565b600081519050613f2c81615f83565b92915050565b600082601f830112613f4357600080fd5b8135613f53848260208601613d65565b91505092915050565b60008083601f840112613f6e57600080fd5b8235905067ffffffffffffffff811115613f8757600080fd5b602083019150836001820283011115613f9f57600080fd5b9250929050565b600082601f830112613fb757600080fd5b8135613fc7848260208601613da3565b91505092915050565b600081359050613fdf81615f9a565b92915050565b600081359050613ff481615fb1565b92915050565b60008151905061400981615fb1565b92915050565b60006020828403121561402157600080fd5b600061402f84828501613de1565b91505092915050565b6000806040838503121561404b57600080fd5b600061405985828601613de1565b925050602061406a85828601613de1565b9150509250929050565b600080600080600060a0868803121561408c57600080fd5b600061409a88828901613de1565b95505060206140ab88828901613de1565b945050604086013567ffffffffffffffff8111156140c857600080fd5b6140d488828901613eb4565b935050606086013567ffffffffffffffff8111156140f157600080fd5b6140fd88828901613eb4565b925050608086013567ffffffffffffffff81111561411a57600080fd5b61412688828901613f32565b9150509295509295909350565b600080600080600060a0868803121561414b57600080fd5b600061415988828901613de1565b955050602061416a88828901613de1565b945050604061417b88828901613fe5565b935050606061418c88828901613fe5565b925050608086013567ffffffffffffffff8111156141a957600080fd5b6141b588828901613f32565b9150509295509295909350565b600080604083850312156141d557600080fd5b60006141e385828601613de1565b92505060206141f485828601613ede565b9150509250929050565b6000806040838503121561421157600080fd5b600061421f85828601613de1565b925050602061423085828601613fe5565b9150509250929050565b6000806040838503121561424d57600080fd5b600083013567ffffffffffffffff81111561426757600080fd5b61427385828601613e40565b925050602083013567ffffffffffffffff81111561429057600080fd5b61429c85828601613eb4565b9150509250929050565b6000602082840312156142b857600080fd5b60006142c684828501613ef3565b91505092915050565b6000602082840312156142e157600080fd5b60006142ef84828501613f08565b91505092915050565b60006020828403121561430a57600080fd5b600061431884828501613f1d565b91505092915050565b6000806020838503121561433457600080fd5b600083013567ffffffffffffffff81111561434e57600080fd5b61435a85828601613f5c565b92509250509250929050565b60006020828403121561437857600080fd5b600082013567ffffffffffffffff81111561439257600080fd5b61439e84828501613fa6565b91505092915050565b600080604083850312156143ba57600080fd5b600083013567ffffffffffffffff8111156143d457600080fd5b6143e085828601613fa6565b925050602083013567ffffffffffffffff8111156143fd57600080fd5b61440985828601613fa6565b9150509250929050565b60008060008060008060008060008060006101008c8e03121561443557600080fd5b60006144438e828f01613fd0565b9b505060206144548e828f01613fe5565b9a505060408c013567ffffffffffffffff81111561447157600080fd5b61447d8e828f01613f5c565b995099505060608c013567ffffffffffffffff81111561449c57600080fd5b6144a88e828f01613df6565b975097505060808c013567ffffffffffffffff8111156144c757600080fd5b6144d38e828f01613e6a565b955095505060a06144e68e828f01613fd0565b93505060c06144f78e828f01613ede565b92505060e06145088e828f01613fe5565b9150509295989b509295989b9093969950565b60006020828403121561452d57600080fd5b600061453b84828501613fe5565b91505092915050565b6000806040838503121561455757600080fd5b600061456585828601613fe5565b925050602061457685828601613fe5565b9150509250929050565b6000806040838503121561459357600080fd5b60006145a185828601613ffa565b92505060206145b285828601613ffa565b9150509250929050565b60006145c88383614658565b60208301905092915050565b60006145e08383614c16565b60408301905092915050565b60006145f88383614c63565b60208301905092915050565b60006146108383614c72565b60208301905092915050565b61462581615756565b82525050565b61463481615756565b82525050565b61464381615756565b82525050565b61465281615744565b82525050565b61466181615744565b82525050565b6000614673838561563e565b935061467e82615595565b8060005b858110156146b75761469482846156c0565b61469e88826145bc565b97506146a98361560a565b925050600181019050614682565b5085925050509392505050565b60006146cf826155de565b6146d9818561564f565b93506146e48361559f565b8060005b838110156147155781516146fc88826145d4565b975061470783615617565b9250506001810190506146e8565b5085935050505092915050565b600061472e8385615660565b9350614739826155af565b8060005b858110156147725761474f82846156d7565b61475988826145ec565b975061476483615624565b92505060018101905061473d565b5085925050509392505050565b600061478a826155e9565b6147948185615671565b935061479f836155b9565b8060005b838110156147d05781516147b78882614604565b97506147c283615631565b9250506001810190506147a3565b5085935050505092915050565b6147e681615768565b82525050565b60006147f7826155f4565b6148018185615682565b93506148118185602086016157f4565b61481a81615982565b840191505092915050565b8082525050565b8082525050565b600061483f8385615693565b935061484c8385846157e5565b61485583615982565b840190509392505050565b600061486c83856156a4565b93506148798385846157e5565b61488283615982565b840190509392505050565b6000614898826155ff565b6148a28185615693565b93506148b28185602086016157f4565b6148bb81615982565b840191505092915050565b60006148d1826155ff565b6148db81856156b5565b93506148eb8185602086016157f4565b80840191505092915050565b6000815461490481615827565b61490e81866156b5565b94506001821660008114614929576001811461493a5761496d565b60ff1983168652818601935061496d565b614943856155c9565b60005b8381101561496557815481890152600182019150602081019050614946565b838801955050505b50505092915050565b6000614983603483615693565b915061498e826159a0565b604082019050919050565b60006149a6602883615693565b91506149b1826159ef565b604082019050919050565b60006149c9601483615693565b91506149d482615a3e565b602082019050919050565b60006149ec602b83615693565b91506149f782615a67565b604082019050919050565b6000614a0f602683615693565b9150614a1a82615ab6565b604082019050919050565b6000614a32602983615693565b9150614a3d82615b05565b604082019050919050565b6000614a55601083615693565b9150614a6082615b54565b602082019050919050565b6000614a78602583615693565b9150614a8382615b7d565b604082019050919050565b6000614a9b603283615693565b9150614aa682615bcc565b604082019050919050565b6000614abe602e83615693565b9150614ac982615c1b565b604082019050919050565b6000614ae1602a83615693565b9150614aec82615c6a565b604082019050919050565b6000614b04602083615693565b9150614b0f82615cb9565b602082019050919050565b6000614b27600983615693565b9150614b3282615ce2565b602082019050919050565b6000614b4a602b83615693565b9150614b5582615d0b565b604082019050919050565b6000614b6d6004836156b5565b9150614b7882615d5a565b600482019050919050565b6000614b90602983615693565b9150614b9b82615d83565b604082019050919050565b6000614bb3602983615693565b9150614bbe82615dd2565b604082019050919050565b6000614bd6602883615693565b9150614be182615e21565b604082019050919050565b6000614bf9602183615693565b9150614c0482615e70565b604082019050919050565b8082525050565b604082016000820151614c2c600085018261461c565b506020820151614c3f6020850182614c72565b50505050565b614c4e816157a0565b82525050565b614c5d816157a0565b82525050565b614c6c816157a0565b82525050565b614c7b816157ce565b82525050565b614c8a816157ce565b82525050565b614c99816157ce565b82525050565b614ca8816157d8565b82525050565b6000614cba82846148c6565b9150614cc582614b60565b915081905092915050565b6000614cdc82856148f7565b9150614ce882846148f7565b91508190509392505050565b6000602082019050614d096000830184614649565b92915050565b6000604082019050614d24600083018561462b565b614d316020830184614c81565b9392505050565b6000608082019050614d4d600083018761463a565b614d5a6020830186614c90565b614d67604083018561482c565b614d746060830184614c0f565b95945050505050565b600060a082019050614d92600083018861463a565b614d9f6020830187614c90565b614dac604083018661482c565b614db96060830185614c90565b614dc66080830184614c0f565b9695505050505050565b600060a082019050614de56000830188614649565b614df26020830187614649565b8181036040830152614e04818661477f565b90508181036060830152614e18818561477f565b90508181036080830152614e2c81846147ec565b90509695505050505050565b600060a082019050614e4d6000830188614649565b614e5a6020830187614649565b614e676040830186614c81565b614e746060830185614c81565b8181036080830152614e8681846147ec565b90509695505050505050565b6000604082019050614ea76000830185614649565b614eb46020830184614c81565b9392505050565b60006020820190508181036000830152614ed581846146c4565b905092915050565b60006020820190508181036000830152614ef7818461477f565b905092915050565b60006040820190508181036000830152614f19818561477f565b90508181036020830152614f2d818461477f565b90509392505050565b6000602082019050614f4b60008301846147dd565b92915050565b60006020820190508181036000830152614f6b818461488d565b905092915050565b60006020820190508181036000830152614f8c81614976565b9050919050565b60006020820190508181036000830152614fac81614999565b9050919050565b60006020820190508181036000830152614fcc816149bc565b9050919050565b60006020820190508181036000830152614fec816149df565b9050919050565b6000602082019050818103600083015261500c81614a02565b9050919050565b6000602082019050818103600083015261502c81614a25565b9050919050565b6000602082019050818103600083015261504c81614a48565b9050919050565b6000602082019050818103600083015261506c81614a6b565b9050919050565b6000602082019050818103600083015261508c81614a8e565b9050919050565b600060208201905081810360008301526150ac81614ab1565b9050919050565b600060208201905081810360008301526150cc81614ad4565b9050919050565b600060208201905081810360008301526150ec81614af7565b9050919050565b6000602082019050818103600083015261510c81614b1a565b9050919050565b6000602082019050818103600083015261512c81614b3d565b9050919050565b6000602082019050818103600083015261514c81614b83565b9050919050565b6000602082019050818103600083015261516c81614ba6565b9050919050565b6000602082019050818103600083015261518c81614bc9565b9050919050565b600060208201905081810360008301526151ac81614bec565b9050919050565b600060c0820190506151c8600083018c614c54565b6151d5602083018b614c90565b81810360408301526151e881898b614860565b905081810360608301526151fd818789614667565b90508181036080830152615212818587614722565b905061522160a0830184614c54565b9a9950505050505050505050565b60006020820190506152446000830184614c81565b92915050565b600060808201905061525f6000830187614c81565b61526c6020830186614649565b6152796040830185614649565b6152866060830184614c81565b95945050505050565b600060c0820190506152a46000830189614c81565b6152b16020830188614649565b6152be6040830187614c45565b6152cb60608301866147dd565b6152d860808301856147dd565b6152e560a0830184614c81565b979650505050505050565b60006080820190506153056000830189614c90565b8181036020830152615318818789614667565b9050818103604083015261532d818587614722565b905061533c6060830184614825565b979650505050505050565b600060408201905061535c6000830185614c81565b61536960208301846147dd565b9392505050565b600060a0820190506153856000830188614c90565b615392602083018761482c565b61539f604083018661463a565b6153ac6060830185614c9f565b6153b96080830184614c0f565b9695505050505050565b60006040820190506153d86000830185614c81565b6153e56020830184614c81565b9392505050565b60006060820190506154016000830186614c81565b61540e6020830185614c81565b61541b6040830184614c81565b949350505050565b60006080820190506154386000830188614c81565b6154456020830187614c81565b6154526040830186614c81565b8181036060830152615465818486614833565b90509695505050505050565b60006080820190506154866000830187614c81565b6154936020830186614c81565b6154a06040830185614c81565b6154ad6060830184614c81565b95945050505050565b60006154c06154d1565b90506154cc8282615859565b919050565b6000604051905090565b600067ffffffffffffffff8211156154f6576154f5615931565b5b602082029050602081019050919050565b600067ffffffffffffffff82111561552257615521615931565b5b602082029050602081019050919050565b600067ffffffffffffffff82111561554e5761554d615931565b5b61555782615982565b9050602081019050919050565b600067ffffffffffffffff82111561557f5761557e615931565b5b61558882615982565b9050602081019050919050565b6000819050919050565b6000819050602082019050919050565b6000819050919050565b6000819050602082019050919050565b60008190508160005260206000209050919050565b600081519050919050565b600081519050919050565b600081519050919050565b600081519050919050565b6000602082019050919050565b6000602082019050919050565b6000602082019050919050565b6000602082019050919050565b600082825260208201905092915050565b600082825260208201905092915050565b600082825260208201905092915050565b600082825260208201905092915050565b600082825260208201905092915050565b600082825260208201905092915050565b600082825260208201905092915050565b600081905092915050565b60006156cf6020840184613de1565b905092915050565b60006156e66020840184613fd0565b905092915050565b60006156f9826157ce565b9150615704836157ce565b9250827fffffffffffffffffffffffffffffffffffffffffffffffffffffffffffffffff03821115615739576157386158d3565b5b828201905092915050565b600061574f826157ae565b9050919050565b6000615761826157ae565b9050919050565b60008115159050919050565b60007fffffffff0000000000000000000000000000000000000000000000000000000082169050919050565b600061ffff82169050919050565b600073ffffffffffffffffffffffffffffffffffffffff82169050919050565b6000819050919050565b600060ff82169050919050565b82818337600083830152505050565b60005b838110156158125780820151818401526020810190506157f7565b83811115615821576000848401525b50505050565b6000600282049050600182168061583f57607f821691505b6020821081141561585357615852615902565b5b50919050565b61586282615982565b810181811067ffffffffffffffff8211171561588157615880615931565b5b80604052505050565b6000615895826157ce565b91507fffffffffffffffffffffffffffffffffffffffffffffffffffffffffffffffff8214156158c8576158c76158d3565b5b600182019050919050565b7f4e487b7100000000000000000000000000000000000000000000000000000000600052601160045260246000fd5b7f4e487b7100000000000000000000000000000000000000000000000000000000600052602260045260246000fd5b7f4e487b7100000000000000000000000000000000000000000000000000000000600052604160045260246000fd5b600060033d111561597f5760046000803e61597c600051615993565b90505b90565b6000601f19601f8301169050919050565b60008160e01c9050919050565b7f455243313135353a207472616e7366657220746f206e6f6e204552433131353560008201527f526563656976657220696d706c656d656e746572000000000000000000000000602082015250565b7f455243313135353a204552433131353552656365697665722072656a6563746560008201527f6420746f6b656e73000000000000000000000000000000000000000000000000602082015250565b7f5061757361626c653a206e6f7420706175736564000000000000000000000000600082015250565b7f455243313135353a2062616c616e636520717565727920666f7220746865207a60008201527f65726f2061646472657373000000000000000000000000000000000000000000602082015250565b7f4f776e61626c653a206e6577206f776e657220697320746865207a65726f206160008201527f6464726573730000000000000000000000000000000000000000000000000000602082015250565b7f455243313135353a2063616c6c6572206973206e6f74206f776e6572206e6f7260008201527f20617070726f7665640000000000000000000000000000000000000000000000602082015250565b7f5061757361626c653a2070617573656400000000000000000000000000000000600082015250565b7f455243313135353a207472616e7366657220746f20746865207a65726f20616460008201527f6472657373000000000000000000000000000000000000000000000000000000602082015250565b7f455243313135353a207472616e736665722063616c6c6572206973206e6f742060008201527f6f776e6572206e6f7220617070726f7665640000000000000000000000000000602082015250565b7f496e697469616c697a61626c653a20636f6e747261637420697320616c72656160008201527f647920696e697469616c697a6564000000000000000000000000000000000000602082015250565b7f455243313135353a20696e73756666696369656e742062616c616e636520666f60008201527f72207472616e7366657200000000000000000000000000000000000000000000602082015250565b7f4f776e61626c653a2063616c6c6572206973206e6f7420746865206f776e6572600082015250565b7f546f6b656e20444e450000000000000000000000000000000000000000000000600082015250565b7f496e697469616c697a61626c653a20636f6e7472616374206973206e6f74206960008201527f6e697469616c697a696e67000000000000000000000000000000000000000000602082015250565b7f7b69647d00000000000000000000000000000000000000000000000000000000600082015250565b7f455243313135353a2073657474696e6720617070726f76616c2073746174757360008201527f20666f722073656c660000000000000000000000000000000000000000000000602082015250565b7f455243313135353a206163636f756e747320616e6420696473206c656e67746860008201527f206d69736d617463680000000000000000000000000000000000000000000000602082015250565b7f455243313135353a2069647320616e6420616d6f756e7473206c656e6774682060008201527f6d69736d61746368000000000000000000000000000000000000000000000000602082015250565b7f455243313135353a206d696e7420746f20746865207a65726f2061646472657360008201527f7300000000000000000000000000000000000000000000000000000000000000602082015250565b600060443d1015615ecf57615f52565b615ed76154d1565b60043d036004823e80513d602482011167ffffffffffffffff82111715615eff575050615f52565b808201805167ffffffffffffffff811115615f1d5750505050615f52565b80602083010160043d038501811115615f3a575050505050615f52565b615f4982602001850186615859565b82955050505050505b90565b615f5e81615744565b8114615f6957600080fd5b50565b615f7581615768565b8114615f8057600080fd5b50565b615f8c81615774565b8114615f9757600080fd5b50565b615fa3816157a0565b8114615fae57600080fd5b50565b615fba816157ce565b8114615fc557600080fd5b5056fea264697066735822122062815f7c324a6dec671a57bc289abb154891ab1078ec0ee09ab0123112faa22264736f6c63430008040033",
  "linkReferences": {
    "contracts/v1/lib/MusixverseLib.sol": {
      "MusixverseLib": [
        {
          "length": 20,
          "start": 4571
        },
        {
          "length": 20,
          "start": 5662
        },
        {
          "length": 20,
          "start": 6284
        },
        {
          "length": 20,
          "start": 8019
        },
        {
          "length": 20,
          "start": 8768
        }
      ]
    }
  },
  "deployedLinkReferences": {
    "contracts/v1/lib/MusixverseLib.sol": {
      "MusixverseLib": [
        {
          "length": 20,
          "start": 4538
        },
        {
          "length": 20,
          "start": 5629
        },
        {
          "length": 20,
          "start": 6251
        },
        {
          "length": 20,
          "start": 7986
        },
        {
          "length": 20,
          "start": 8735
        }
      ]
    }
  }
}