{
  "_format": "hh-sol-artifact-1",
  "contractName": "MusixverseDiamond",
  "sourceName": "contracts/shared/MusixverseDiamond.sol",
  "abi": [
    {
      "inputs": [
        {
          "internalType": "address",
          "name": "_contractOwner",
          "type": "address"
        },
        {
          "internalType": "address",
          "name": "_diamondCutFacet",
          "type": "address"
        }
      ],
      "stateMutability": "payable",
      "type": "constructor"
    },
    {
      "anonymous": false,
      "inputs": [
        {
          "indexed": false,
          "internalType": "address",
          "name": "",
          "type": "address"
        },
        {
          "indexed": false,
          "internalType": "uint256",
          "name": "",
          "type": "uint256"
        }
      ],
      "name": "Received",
      "type": "event"
    },
    {
      "stateMutability": "payable",
      "type": "fallback"
    },
    {
      "inputs": [],
      "name": "withdraw",
      "outputs": [],
      "stateMutability": "nonpayable",
      "type": "function"
    },
    {
      "stateMutability": "payable",
      "type": "receive"
    }
  ],
  "bytecode": "0x60806040526040516200520f3803806200520f833981810160405281019062000029919062001c79565b6200003f82620002ab60201b620002271760201c565b6000600167ffffffffffffffff81111562000083577f4e487b7100000000000000000000000000000000000000000000000000000000600052604160045260246000fd5b604051908082528060200260200182016040528015620000c057816020015b620000ac62001bf2565b815260200190600190039081620000a25790505b5090506000600167ffffffffffffffff81111562000107577f4e487b7100000000000000000000000000000000000000000000000000000000600052604160045260246000fd5b604051908082528060200260200182016040528015620001365781602001602082028036833780820191505090505b509050631f931c1c60e01b816000815181106200017c577f4e487b7100000000000000000000000000000000000000000000000000000000600052603260045260246000fd5b60200260200101907bffffffffffffffffffffffffffffffffffffffffffffffffffffffff191690817bffffffffffffffffffffffffffffffffffffffffffffffffffffffff19168152505060405180606001604052808473ffffffffffffffffffffffffffffffffffffffff168152602001600060028111156200022a577f4e487b7100000000000000000000000000000000000000000000000000000000600052602160045260246000fd5b815260200182815250826000815181106200026e577f4e487b7100000000000000000000000000000000000000000000000000000000600052603260045260246000fd5b6020026020010181905250620002a1826000604051806020016040528060008152506200038a60201b620002fe1760201c565b5050505062002931565b6000620002bd620007e560201b60201c565b905060008160040160009054906101000a900473ffffffffffffffffffffffffffffffffffffffff169050828260040160006101000a81548173ffffffffffffffffffffffffffffffffffffffff021916908373ffffffffffffffffffffffffffffffffffffffff1602179055508273ffffffffffffffffffffffffffffffffffffffff168173ffffffffffffffffffffffffffffffffffffffff167f8be0079c531659141344cd1fd0a4f28419497f9722a3daafe3b4186f6b6457e060405160405180910390a3505050565b60005b835181101562000790576000848281518110620003d3577f4e487b7100000000000000000000000000000000000000000000000000000000600052603260045260246000fd5b6020026020010151602001519050600060028111156200041c577f4e487b7100000000000000000000000000000000000000000000000000000000600052602160045260246000fd5b81600281111562000456577f4e487b7100000000000000000000000000000000000000000000000000000000600052602160045260246000fd5b1415620004ff57620004f98583815181106200049b577f4e487b7100000000000000000000000000000000000000000000000000000000600052603260045260246000fd5b602002602001015160000151868481518110620004e1577f4e487b7100000000000000000000000000000000000000000000000000000000600052603260045260246000fd5b6020026020010151604001516200081260201b60201c565b62000779565b600160028111156200053a577f4e487b7100000000000000000000000000000000000000000000000000000000600052602160045260246000fd5b81600281111562000574577f4e487b7100000000000000000000000000000000000000000000000000000000600052602160045260246000fd5b14156200061d5762000617858381518110620005b9577f4e487b7100000000000000000000000000000000000000000000000000000000600052603260045260246000fd5b602002602001015160000151868481518110620005ff577f4e487b7100000000000000000000000000000000000000000000000000000000600052603260045260246000fd5b60200260200101516040015162000ada60201b60201c565b62000778565b60028081111562000657577f4e487b7100000000000000000000000000000000000000000000000000000000600052602160045260246000fd5b81600281111562000691577f4e487b7100000000000000000000000000000000000000000000000000000000600052602160045260246000fd5b14156200073a5762000734858381518110620006d6577f4e487b7100000000000000000000000000000000000000000000000000000000600052603260045260246000fd5b6020026020010151600001518684815181106200071c577f4e487b7100000000000000000000000000000000000000000000000000000000600052603260045260246000fd5b60200260200101516040015162000db560201b60201c565b62000777565b6040517f08c379a00000000000000000000000000000000000000000000000000000000081526004016200076e90620021e5565b60405180910390fd5b5b5b5080806200078790620024a4565b9150506200038d565b507f8faa70878671ccd212d20771b795c50af8fd3ff6cf27f4bde57e5d4de0aeb673838383604051620007c693929190620020ee565b60405180910390a1620007e0828262000f8160201b60201c565b505050565b6000807f7ebe20acead178826e523aa23b9f2d4ec9903a0a82ea2ad143a2aab72ae49df190508091505090565b600081511162000859576040517f08c379a00000000000000000000000000000000000000000000000000000000081526004016200085090620021a1565b60405180910390fd5b60006200086b620007e560201b60201c565b9050600073ffffffffffffffffffffffffffffffffffffffff168373ffffffffffffffffffffffffffffffffffffffff161415620008e0576040517f08c379a0000000000000000000000000000000000000000000000000000000008152600401620008d79062002207565b60405180910390fd5b60008160010160008573ffffffffffffffffffffffffffffffffffffffff1673ffffffffffffffffffffffffffffffffffffffff1681526020019081526020016000206000018054905090506000816bffffffffffffffffffffffff1614156200095757620009568285620011b060201b60201c565b5b60005b835181101562000ad3576000848281518110620009a0577f4e487b7100000000000000000000000000000000000000000000000000000000600052603260045260246000fd5b602002602001015190506000846000016000837bffffffffffffffffffffffffffffffffffffffffffffffffffffffff19167bffffffffffffffffffffffffffffffffffffffffffffffffffffffff1916815260200190815260200160002060000160009054906101000a900473ffffffffffffffffffffffffffffffffffffffff169050600073ffffffffffffffffffffffffffffffffffffffff168173ffffffffffffffffffffffffffffffffffffffff161462000a97576040517f08c379a000000000000000000000000000000000000000000000000000000000815260040162000a8e906200226d565b60405180910390fd5b62000aab8583868a6200129460201b60201c565b838062000ab890620024f2565b9450505050808062000aca90620024a4565b9150506200095a565b5050505050565b600081511162000b21576040517f08c379a000000000000000000000000000000000000000000000000000000000815260040162000b1890620021a1565b60405180910390fd5b600062000b33620007e560201b60201c565b9050600073ffffffffffffffffffffffffffffffffffffffff168373ffffffffffffffffffffffffffffffffffffffff16141562000ba8576040517f08c379a000000000000000000000000000000000000000000000000000000000815260040162000b9f9062002207565b60405180910390fd5b60008160010160008573ffffffffffffffffffffffffffffffffffffffff1673ffffffffffffffffffffffffffffffffffffffff1681526020019081526020016000206000018054905090506000816bffffffffffffffffffffffff16141562000c1f5762000c1e8285620011b060201b60201c565b5b60005b835181101562000dae57600084828151811062000c68577f4e487b7100000000000000000000000000000000000000000000000000000000600052603260045260246000fd5b602002602001015190506000846000016000837bffffffffffffffffffffffffffffffffffffffffffffffffffffffff19167bffffffffffffffffffffffffffffffffffffffffffffffffffffffff1916815260200190815260200160002060000160009054906101000a900473ffffffffffffffffffffffffffffffffffffffff1690508673ffffffffffffffffffffffffffffffffffffffff168173ffffffffffffffffffffffffffffffffffffffff16141562000d5f576040517f08c379a000000000000000000000000000000000000000000000000000000000815260040162000d56906200228f565b60405180910390fd5b62000d728582846200144160201b60201c565b62000d868583868a6200129460201b60201c565b838062000d9390620024f2565b9450505050808062000da590620024a4565b91505062000c22565b5050505050565b600081511162000dfc576040517f08c379a000000000000000000000000000000000000000000000000000000000815260040162000df390620021a1565b60405180910390fd5b600062000e0e620007e560201b60201c565b9050600073ffffffffffffffffffffffffffffffffffffffff168373ffffffffffffffffffffffffffffffffffffffff161462000e82576040517f08c379a000000000000000000000000000000000000000000000000000000000815260040162000e7990620022b1565b60405180910390fd5b60005b825181101562000f7b57600083828151811062000ecb577f4e487b7100000000000000000000000000000000000000000000000000000000600052603260045260246000fd5b602002602001015190506000836000016000837bffffffffffffffffffffffffffffffffffffffffffffffffffffffff19167bffffffffffffffffffffffffffffffffffffffffffffffffffffffff1916815260200190815260200160002060000160009054906101000a900473ffffffffffffffffffffffffffffffffffffffff16905062000f638482846200144160201b60201c565b5050808062000f7290620024a4565b91505062000e85565b50505050565b600073ffffffffffffffffffffffffffffffffffffffff168273ffffffffffffffffffffffffffffffffffffffff1614156200100457600081511462000ffe576040517f08c379a000000000000000000000000000000000000000000000000000000000815260040162000ff5906200215d565b60405180910390fd5b620011ac565b60008151116200104b576040517f08c379a0000000000000000000000000000000000000000000000000000000008152600401620010429062002229565b60405180910390fd5b3073ffffffffffffffffffffffffffffffffffffffff168273ffffffffffffffffffffffffffffffffffffffff1614620010ab57620010aa82604051806060016040528060288152602001620051c36028913962001b9d60201b60201c565b5b6000808373ffffffffffffffffffffffffffffffffffffffff1683604051620010d59190620020d5565b600060405180830381855af49150503d806000811462001112576040519150601f19603f3d011682016040523d82523d6000602084013e62001117565b606091505b509150915081620011a9576000815111156200116c57806040517f08c379a000000000000000000000000000000000000000000000000000000000815260040162001163919062002139565b60405180910390fd5b6040517f08c379a0000000000000000000000000000000000000000000000000000000008152600401620011a0906200217f565b60405180910390fd5b50505b5050565b620011db81604051806060016040528060248152602001620051eb6024913962001b9d60201b60201c565b81600201805490508260010160008373ffffffffffffffffffffffffffffffffffffffff1673ffffffffffffffffffffffffffffffffffffffff1681526020019081526020016000206001018190555081600201819080600181540180825580915050600190039060005260206000200160009091909190916101000a81548173ffffffffffffffffffffffffffffffffffffffff021916908373ffffffffffffffffffffffffffffffffffffffff1602179055505050565b81846000016000857bffffffffffffffffffffffffffffffffffffffffffffffffffffffff19167bffffffffffffffffffffffffffffffffffffffffffffffffffffffff1916815260200190815260200160002060000160146101000a8154816bffffffffffffffffffffffff02191690836bffffffffffffffffffffffff1602179055508360010160008273ffffffffffffffffffffffffffffffffffffffff1673ffffffffffffffffffffffffffffffffffffffff1681526020019081526020016000206000018390806001815401808255809150506001900390600052602060002090600891828204019190066004029091909190916101000a81548163ffffffff021916908360e01c021790555080846000016000857bffffffffffffffffffffffffffffffffffffffffffffffffffffffff19167bffffffffffffffffffffffffffffffffffffffffffffffffffffffff1916815260200190815260200160002060000160006101000a81548173ffffffffffffffffffffffffffffffffffffffff021916908373ffffffffffffffffffffffffffffffffffffffff16021790555050505050565b600073ffffffffffffffffffffffffffffffffffffffff168273ffffffffffffffffffffffffffffffffffffffff161415620014b4576040517f08c379a0000000000000000000000000000000000000000000000000000000008152600401620014ab90620021c3565b60405180910390fd5b3073ffffffffffffffffffffffffffffffffffffffff168273ffffffffffffffffffffffffffffffffffffffff16141562001526576040517f08c379a00000000000000000000000000000000000000000000000000000000081526004016200151d906200224b565b60405180910390fd5b6000836000016000837bffffffffffffffffffffffffffffffffffffffffffffffffffffffff19167bffffffffffffffffffffffffffffffffffffffffffffffffffffffff1916815260200190815260200160002060000160149054906101000a90046bffffffffffffffffffffffff166bffffffffffffffffffffffff169050600060018560010160008673ffffffffffffffffffffffffffffffffffffffff1673ffffffffffffffffffffffffffffffffffffffff16815260200190815260200160002060000180549050620015ff919062002388565b9050808214620017e25760008560010160008673ffffffffffffffffffffffffffffffffffffffff1673ffffffffffffffffffffffffffffffffffffffff168152602001908152602001600020600001828154811062001688577f4e487b7100000000000000000000000000000000000000000000000000000000600052603260045260246000fd5b90600052602060002090600891828204019190066004029054906101000a900460e01b9050808660010160008773ffffffffffffffffffffffffffffffffffffffff1673ffffffffffffffffffffffffffffffffffffffff16815260200190815260200160002060000184815481106200172b577f4e487b7100000000000000000000000000000000000000000000000000000000600052603260045260246000fd5b90600052602060002090600891828204019190066004026101000a81548163ffffffff021916908360e01c021790555082866000016000837bffffffffffffffffffffffffffffffffffffffffffffffffffffffff19167bffffffffffffffffffffffffffffffffffffffffffffffffffffffff1916815260200190815260200160002060000160146101000a8154816bffffffffffffffffffffffff02191690836bffffffffffffffffffffffff160217905550505b8460010160008573ffffffffffffffffffffffffffffffffffffffff1673ffffffffffffffffffffffffffffffffffffffff1681526020019081526020016000206000018054806200185d577f4e487b7100000000000000000000000000000000000000000000000000000000600052603160045260246000fd5b60019003818190600052602060002090600891828204019190066004026101000a81549063ffffffff02191690559055846000016000847bffffffffffffffffffffffffffffffffffffffffffffffffffffffff19167bffffffffffffffffffffffffffffffffffffffffffffffffffffffff19168152602001908152602001600020600080820160006101000a81549073ffffffffffffffffffffffffffffffffffffffff02191690556000820160146101000a8154906bffffffffffffffffffffffff02191690555050600081141562001b96576000600186600201805490506200194b919062002388565b905060008660010160008773ffffffffffffffffffffffffffffffffffffffff1673ffffffffffffffffffffffffffffffffffffffff16815260200190815260200160002060010154905081811462001adb576000876002018381548110620019dd577f4e487b7100000000000000000000000000000000000000000000000000000000600052603260045260246000fd5b9060005260206000200160009054906101000a900473ffffffffffffffffffffffffffffffffffffffff1690508088600201838154811062001a48577f4e487b7100000000000000000000000000000000000000000000000000000000600052603260045260246000fd5b9060005260206000200160006101000a81548173ffffffffffffffffffffffffffffffffffffffff021916908373ffffffffffffffffffffffffffffffffffffffff160217905550818860010160008373ffffffffffffffffffffffffffffffffffffffff1673ffffffffffffffffffffffffffffffffffffffff16815260200190815260200160002060010181905550505b8660020180548062001b16577f4e487b7100000000000000000000000000000000000000000000000000000000600052603160045260246000fd5b6001900381819060005260206000200160006101000a81549073ffffffffffffffffffffffffffffffffffffffff021916905590558660010160008773ffffffffffffffffffffffffffffffffffffffff1673ffffffffffffffffffffffffffffffffffffffff1681526020019081526020016000206001016000905550505b5050505050565b6000823b905060008111829062001bec576040517f08c379a000000000000000000000000000000000000000000000000000000000815260040162001be3919062002139565b60405180910390fd5b50505050565b6040518060600160405280600073ffffffffffffffffffffffffffffffffffffffff1681526020016000600281111562001c55577f4e487b7100000000000000000000000000000000000000000000000000000000600052602160045260246000fd5b8152602001606081525090565b60008151905062001c738162002917565b92915050565b6000806040838503121562001c8d57600080fd5b600062001c9d8582860162001c62565b925050602062001cb08582860162001c62565b9150509250929050565b600062001cc8838362001df7565b60208301905092915050565b600062001ce283836200207f565b905092915050565b62001cf581620023c3565b82525050565b62001d0681620023c3565b82525050565b600062001d1982620022f3565b62001d25818562002339565b935062001d3283620022d3565b8060005b8381101562001d6957815162001d4d888262001cba565b975062001d5a836200231f565b92505060018101905062001d36565b5085935050505092915050565b600062001d8382620022fe565b62001d8f81856200234a565b93508360208202850162001da385620022e3565b8060005b8581101562001de5578484038952815162001dc3858262001cd4565b945062001dd0836200232c565b925060208a0199505060018101905062001da7565b50829750879550505050505092915050565b62001e0281620023d7565b82525050565b600062001e158262002309565b62001e2181856200235b565b935062001e338185602086016200246e565b62001e3e816200258a565b840191505092915050565b600062001e568262002309565b62001e6281856200236c565b935062001e748185602086016200246e565b80840191505092915050565b62001e8b816200245a565b82525050565b600062001e9e8262002314565b62001eaa818562002377565b935062001ebc8185602086016200246e565b62001ec7816200258a565b840191505092915050565b600062001ee1603c8362002377565b915062001eee826200259b565b604082019050919050565b600062001f0860268362002377565b915062001f1582620025ea565b604082019050919050565b600062001f2f602b8362002377565b915062001f3c8262002639565b604082019050919050565b600062001f5660378362002377565b915062001f638262002688565b604082019050919050565b600062001f7d60278362002377565b915062001f8a82620026d7565b604082019050919050565b600062001fa4602c8362002377565b915062001fb18262002726565b604082019050919050565b600062001fcb603d8362002377565b915062001fd88262002775565b604082019050919050565b600062001ff2602e8362002377565b915062001fff82620027c4565b604082019050919050565b60006200201960358362002377565b9150620020268262002813565b604082019050919050565b60006200204060388362002377565b91506200204d8262002862565b604082019050919050565b60006200206760368362002377565b91506200207482620028b1565b604082019050919050565b600060608301600083015162002099600086018262001cea565b506020830151620020ae602086018262001e80565b5060408301518482036040860152620020c8828262001d0c565b9150508091505092915050565b6000620020e3828462001e49565b915081905092915050565b600060608201905081810360008301526200210a818662001d76565b90506200211b602083018562001cfb565b81810360408301526200212f818462001e08565b9050949350505050565b6000602082019050818103600083015262002155818462001e91565b905092915050565b60006020820190508181036000830152620021788162001ed2565b9050919050565b600060208201905081810360008301526200219a8162001ef9565b9050919050565b60006020820190508181036000830152620021bc8162001f20565b9050919050565b60006020820190508181036000830152620021de8162001f47565b9050919050565b60006020820190508181036000830152620022008162001f6e565b9050919050565b60006020820190508181036000830152620022228162001f95565b9050919050565b60006020820190508181036000830152620022448162001fbc565b9050919050565b60006020820190508181036000830152620022668162001fe3565b9050919050565b6000602082019050818103600083015262002288816200200a565b9050919050565b60006020820190508181036000830152620022aa8162002031565b9050919050565b60006020820190508181036000830152620022cc8162002058565b9050919050565b6000819050602082019050919050565b6000819050602082019050919050565b600081519050919050565b600081519050919050565b600081519050919050565b600081519050919050565b6000602082019050919050565b6000602082019050919050565b600082825260208201905092915050565b600082825260208201905092915050565b600082825260208201905092915050565b600081905092915050565b600082825260208201905092915050565b6000620023958262002438565b9150620023a28362002438565b925082821015620023b857620023b76200252c565b5b828203905092915050565b6000620023d08262002418565b9050919050565b60007fffffffff0000000000000000000000000000000000000000000000000000000082169050919050565b6000819050620024138262002900565b919050565b600073ffffffffffffffffffffffffffffffffffffffff82169050919050565b6000819050919050565b60006bffffffffffffffffffffffff82169050919050565b6000620024678262002403565b9050919050565b60005b838110156200248e57808201518184015260208101905062002471565b838111156200249e576000848401525b50505050565b6000620024b18262002438565b91507fffffffffffffffffffffffffffffffffffffffffffffffffffffffffffffffff821415620024e757620024e66200252c565b5b600182019050919050565b6000620024ff8262002442565b91506bffffffffffffffffffffffff8214156200252157620025206200252c565b5b600182019050919050565b7f4e487b7100000000000000000000000000000000000000000000000000000000600052601160045260246000fd5b7f4e487b7100000000000000000000000000000000000000000000000000000000600052602160045260246000fd5b6000601f19601f8301169050919050565b7f4c69624469616d6f6e644375743a205f696e697420697320616464726573732860008201527f3029206275745f63616c6c64617461206973206e6f7420656d70747900000000602082015250565b7f4c69624469616d6f6e644375743a205f696e69742066756e6374696f6e20726560008201527f7665727465640000000000000000000000000000000000000000000000000000602082015250565b7f4c69624469616d6f6e644375743a204e6f2073656c6563746f727320696e206660008201527f6163657420746f20637574000000000000000000000000000000000000000000602082015250565b7f4c69624469616d6f6e644375743a2043616e27742072656d6f76652066756e6360008201527f74696f6e207468617420646f65736e2774206578697374000000000000000000602082015250565b7f4c69624469616d6f6e644375743a20496e636f7272656374204661636574437560008201527f74416374696f6e00000000000000000000000000000000000000000000000000602082015250565b7f4c69624469616d6f6e644375743a204164642066616365742063616e2774206260008201527f6520616464726573732830290000000000000000000000000000000000000000602082015250565b7f4c69624469616d6f6e644375743a205f63616c6c6461746120697320656d707460008201527f7920627574205f696e6974206973206e6f742061646472657373283029000000602082015250565b7f4c69624469616d6f6e644375743a2043616e27742072656d6f766520696d6d7560008201527f7461626c652066756e6374696f6e000000000000000000000000000000000000602082015250565b7f4c69624469616d6f6e644375743a2043616e2774206164642066756e6374696f60008201527f6e207468617420616c7265616479206578697374730000000000000000000000602082015250565b7f4c69624469616d6f6e644375743a2043616e2774207265706c6163652066756e60008201527f6374696f6e20776974682073616d652066756e6374696f6e0000000000000000602082015250565b7f4c69624469616d6f6e644375743a2052656d6f7665206661636574206164647260008201527f657373206d757374206265206164647265737328302900000000000000000000602082015250565b600381106200291457620029136200255b565b5b50565b6200292281620023c3565b81146200292e57600080fd5b50565b61288280620029416000396000f3fe6080604052600436106100225760003560e01c80633ccfd60b146101bf57610062565b36610062577f88a5966d370b9919b20f3e2c13ff65706f196a4e32cc2c12bf57088f885258743334604051610058929190611f31565b60405180910390a1005b6000807f7ebe20acead178826e523aa23b9f2d4ec9903a0a82ea2ad143a2aab72ae49df19050809150600082600001600080357fffffffff00000000000000000000000000000000000000000000000000000000167bffffffffffffffffffffffffffffffffffffffffffffffffffffffff19167bffffffffffffffffffffffffffffffffffffffffffffffffffffffff1916815260200190815260200160002060000160009054906101000a900473ffffffffffffffffffffffffffffffffffffffff169050600073ffffffffffffffffffffffffffffffffffffffff168173ffffffffffffffffffffffffffffffffffffffff161415610199576040517f08c379a0000000000000000000000000000000000000000000000000000000008152600401610190906120a1565b60405180910390fd5b3660008037600080366000845af43d6000803e80600081146101ba573d6000f35b3d6000fd5b3480156101cb57600080fd5b506101d46101d6565b005b6101de61071e565b3373ffffffffffffffffffffffffffffffffffffffff166108fc479081150290604051600060405180830381858888f19350505050158015610224573d6000803e3d6000fd5b50565b60006102316107b9565b905060008160040160009054906101000a900473ffffffffffffffffffffffffffffffffffffffff169050828260040160006101000a81548173ffffffffffffffffffffffffffffffffffffffff021916908373ffffffffffffffffffffffffffffffffffffffff1602179055508273ffffffffffffffffffffffffffffffffffffffff168173ffffffffffffffffffffffffffffffffffffffff167f8be0079c531659141344cd1fd0a4f28419497f9722a3daafe3b4186f6b6457e060405160405180910390a3505050565b60005b83518110156106d3576000848281518110610345577f4e487b7100000000000000000000000000000000000000000000000000000000600052603260045260246000fd5b60200260200101516020015190506000600281111561038d577f4e487b7100000000000000000000000000000000000000000000000000000000600052602160045260246000fd5b8160028111156103c6577f4e487b7100000000000000000000000000000000000000000000000000000000600052602160045260246000fd5b14156104635761045e858381518110610408577f4e487b7100000000000000000000000000000000000000000000000000000000600052603260045260246000fd5b60200260200101516000015186848151811061044d577f4e487b7100000000000000000000000000000000000000000000000000000000600052603260045260246000fd5b6020026020010151604001516107e6565b6106bf565b6001600281111561049d577f4e487b7100000000000000000000000000000000000000000000000000000000600052602160045260246000fd5b8160028111156104d6577f4e487b7100000000000000000000000000000000000000000000000000000000600052602160045260246000fd5b14156105735761056e858381518110610518577f4e487b7100000000000000000000000000000000000000000000000000000000600052603260045260246000fd5b60200260200101516000015186848151811061055d577f4e487b7100000000000000000000000000000000000000000000000000000000600052603260045260246000fd5b602002602001015160400151610a85565b6106be565b6002808111156105ac577f4e487b7100000000000000000000000000000000000000000000000000000000600052602160045260246000fd5b8160028111156105e5577f4e487b7100000000000000000000000000000000000000000000000000000000600052602160045260246000fd5b14156106825761067d858381518110610627577f4e487b7100000000000000000000000000000000000000000000000000000000600052603260045260246000fd5b60200260200101516000015186848151811061066c577f4e487b7100000000000000000000000000000000000000000000000000000000600052603260045260246000fd5b602002602001015160400151610d2f565b6106bd565b6040517f08c379a00000000000000000000000000000000000000000000000000000000081526004016106b490612061565b60405180910390fd5b5b5b5080806106cb90612322565b915050610301565b507f8faa70878671ccd212d20771b795c50af8fd3ff6cf27f4bde57e5d4de0aeb67383838360405161070793929190611f5a565b60405180910390a16107198282610ee0565b505050565b6107266107b9565b60040160009054906101000a900473ffffffffffffffffffffffffffffffffffffffff1673ffffffffffffffffffffffffffffffffffffffff163373ffffffffffffffffffffffffffffffffffffffff16146107b7576040517f08c379a00000000000000000000000000000000000000000000000000000000081526004016107ae90612001565b60405180910390fd5b565b6000807f7ebe20acead178826e523aa23b9f2d4ec9903a0a82ea2ad143a2aab72ae49df190508091505090565b600081511161082a576040517f08c379a000000000000000000000000000000000000000000000000000000000815260040161082190612021565b60405180910390fd5b60006108346107b9565b9050600073ffffffffffffffffffffffffffffffffffffffff168373ffffffffffffffffffffffffffffffffffffffff1614156108a6576040517f08c379a000000000000000000000000000000000000000000000000000000000815260040161089d90612081565b60405180910390fd5b60008160010160008573ffffffffffffffffffffffffffffffffffffffff1673ffffffffffffffffffffffffffffffffffffffff1681526020019081526020016000206000018054905090506000816bffffffffffffffffffffffff1614156109145761091382856110f3565b5b60005b8351811015610a7e57600084828151811061095b577f4e487b7100000000000000000000000000000000000000000000000000000000600052603260045260246000fd5b602002602001015190506000846000016000837bffffffffffffffffffffffffffffffffffffffffffffffffffffffff19167bffffffffffffffffffffffffffffffffffffffffffffffffffffffff1916815260200190815260200160002060000160009054906101000a900473ffffffffffffffffffffffffffffffffffffffff169050600073ffffffffffffffffffffffffffffffffffffffff168173ffffffffffffffffffffffffffffffffffffffff1614610a4f576040517f08c379a0000000000000000000000000000000000000000000000000000000008152600401610a4690612101565b60405180910390fd5b610a5b8583868a6111ce565b8380610a669061236b565b94505050508080610a7690612322565b915050610917565b5050505050565b6000815111610ac9576040517f08c379a0000000000000000000000000000000000000000000000000000000008152600401610ac090612021565b60405180910390fd5b6000610ad36107b9565b9050600073ffffffffffffffffffffffffffffffffffffffff168373ffffffffffffffffffffffffffffffffffffffff161415610b45576040517f08c379a0000000000000000000000000000000000000000000000000000000008152600401610b3c90612081565b60405180910390fd5b60008160010160008573ffffffffffffffffffffffffffffffffffffffff1673ffffffffffffffffffffffffffffffffffffffff1681526020019081526020016000206000018054905090506000816bffffffffffffffffffffffff161415610bb357610bb282856110f3565b5b60005b8351811015610d28576000848281518110610bfa577f4e487b7100000000000000000000000000000000000000000000000000000000600052603260045260246000fd5b602002602001015190506000846000016000837bffffffffffffffffffffffffffffffffffffffffffffffffffffffff19167bffffffffffffffffffffffffffffffffffffffffffffffffffffffff1916815260200190815260200160002060000160009054906101000a900473ffffffffffffffffffffffffffffffffffffffff1690508673ffffffffffffffffffffffffffffffffffffffff168173ffffffffffffffffffffffffffffffffffffffff161415610cee576040517f08c379a0000000000000000000000000000000000000000000000000000000008152600401610ce590612121565b60405180910390fd5b610cf985828461137b565b610d058583868a6111ce565b8380610d109061236b565b94505050508080610d2090612322565b915050610bb6565b5050505050565b6000815111610d73576040517f08c379a0000000000000000000000000000000000000000000000000000000008152600401610d6a90612021565b60405180910390fd5b6000610d7d6107b9565b9050600073ffffffffffffffffffffffffffffffffffffffff168373ffffffffffffffffffffffffffffffffffffffff1614610dee576040517f08c379a0000000000000000000000000000000000000000000000000000000008152600401610de590612141565b60405180910390fd5b60005b8251811015610eda576000838281518110610e35577f4e487b7100000000000000000000000000000000000000000000000000000000600052603260045260246000fd5b602002602001015190506000836000016000837bffffffffffffffffffffffffffffffffffffffffffffffffffffffff19167bffffffffffffffffffffffffffffffffffffffffffffffffffffffff1916815260200190815260200160002060000160009054906101000a900473ffffffffffffffffffffffffffffffffffffffff169050610ec584828461137b565b50508080610ed290612322565b915050610df1565b50505050565b600073ffffffffffffffffffffffffffffffffffffffff168273ffffffffffffffffffffffffffffffffffffffff161415610f5e576000815114610f59576040517f08c379a0000000000000000000000000000000000000000000000000000000008152600401610f5090611fc1565b60405180910390fd5b6110ef565b6000815111610fa2576040517f08c379a0000000000000000000000000000000000000000000000000000000008152600401610f99906120c1565b60405180910390fd5b3073ffffffffffffffffffffffffffffffffffffffff168273ffffffffffffffffffffffffffffffffffffffff1614610ff857610ff78260405180606001604052806028815260200161280160289139611ac4565b5b6000808373ffffffffffffffffffffffffffffffffffffffff16836040516110209190611f1a565b600060405180830381855af49150503d806000811461105b576040519150601f19603f3d011682016040523d82523d6000602084013e611060565b606091505b5091509150816110ec576000815111156110b157806040517f08c379a00000000000000000000000000000000000000000000000000000000081526004016110a89190611f9f565b60405180910390fd5b6040517f08c379a00000000000000000000000000000000000000000000000000000000081526004016110e390611fe1565b60405180910390fd5b50505b5050565b6111158160405180606001604052806024815260200161282960249139611ac4565b81600201805490508260010160008373ffffffffffffffffffffffffffffffffffffffff1673ffffffffffffffffffffffffffffffffffffffff1681526020019081526020016000206001018190555081600201819080600181540180825580915050600190039060005260206000200160009091909190916101000a81548173ffffffffffffffffffffffffffffffffffffffff021916908373ffffffffffffffffffffffffffffffffffffffff1602179055505050565b81846000016000857bffffffffffffffffffffffffffffffffffffffffffffffffffffffff19167bffffffffffffffffffffffffffffffffffffffffffffffffffffffff1916815260200190815260200160002060000160146101000a8154816bffffffffffffffffffffffff02191690836bffffffffffffffffffffffff1602179055508360010160008273ffffffffffffffffffffffffffffffffffffffff1673ffffffffffffffffffffffffffffffffffffffff1681526020019081526020016000206000018390806001815401808255809150506001900390600052602060002090600891828204019190066004029091909190916101000a81548163ffffffff021916908360e01c021790555080846000016000857bffffffffffffffffffffffffffffffffffffffffffffffffffffffff19167bffffffffffffffffffffffffffffffffffffffffffffffffffffffff1916815260200190815260200160002060000160006101000a81548173ffffffffffffffffffffffffffffffffffffffff021916908373ffffffffffffffffffffffffffffffffffffffff16021790555050505050565b600073ffffffffffffffffffffffffffffffffffffffff168273ffffffffffffffffffffffffffffffffffffffff1614156113eb576040517f08c379a00000000000000000000000000000000000000000000000000000000081526004016113e290612041565b60405180910390fd5b3073ffffffffffffffffffffffffffffffffffffffff168273ffffffffffffffffffffffffffffffffffffffff16141561145a576040517f08c379a0000000000000000000000000000000000000000000000000000000008152600401611451906120e1565b60405180910390fd5b6000836000016000837bffffffffffffffffffffffffffffffffffffffffffffffffffffffff19167bffffffffffffffffffffffffffffffffffffffffffffffffffffffff1916815260200190815260200160002060000160149054906101000a90046bffffffffffffffffffffffff166bffffffffffffffffffffffff169050600060018560010160008673ffffffffffffffffffffffffffffffffffffffff1673ffffffffffffffffffffffffffffffffffffffff168152602001908152602001600020600001805490506115319190612216565b90508082146117115760008560010160008673ffffffffffffffffffffffffffffffffffffffff1673ffffffffffffffffffffffffffffffffffffffff16815260200190815260200160002060000182815481106115b8577f4e487b7100000000000000000000000000000000000000000000000000000000600052603260045260246000fd5b90600052602060002090600891828204019190066004029054906101000a900460e01b9050808660010160008773ffffffffffffffffffffffffffffffffffffffff1673ffffffffffffffffffffffffffffffffffffffff168152602001908152602001600020600001848154811061165a577f4e487b7100000000000000000000000000000000000000000000000000000000600052603260045260246000fd5b90600052602060002090600891828204019190066004026101000a81548163ffffffff021916908360e01c021790555082866000016000837bffffffffffffffffffffffffffffffffffffffffffffffffffffffff19167bffffffffffffffffffffffffffffffffffffffffffffffffffffffff1916815260200190815260200160002060000160146101000a8154816bffffffffffffffffffffffff02191690836bffffffffffffffffffffffff160217905550505b8460010160008573ffffffffffffffffffffffffffffffffffffffff1673ffffffffffffffffffffffffffffffffffffffff16815260200190815260200160002060000180548061178b577f4e487b7100000000000000000000000000000000000000000000000000000000600052603160045260246000fd5b60019003818190600052602060002090600891828204019190066004026101000a81549063ffffffff02191690559055846000016000847bffffffffffffffffffffffffffffffffffffffffffffffffffffffff19167bffffffffffffffffffffffffffffffffffffffffffffffffffffffff19168152602001908152602001600020600080820160006101000a81549073ffffffffffffffffffffffffffffffffffffffff02191690556000820160146101000a8154906bffffffffffffffffffffffff021916905550506000811415611abd576000600186600201805490506118769190612216565b905060008660010160008773ffffffffffffffffffffffffffffffffffffffff1673ffffffffffffffffffffffffffffffffffffffff168152602001908152602001600020600101549050818114611a03576000876002018381548110611906577f4e487b7100000000000000000000000000000000000000000000000000000000600052603260045260246000fd5b9060005260206000200160009054906101000a900473ffffffffffffffffffffffffffffffffffffffff16905080886002018381548110611970577f4e487b7100000000000000000000000000000000000000000000000000000000600052603260045260246000fd5b9060005260206000200160006101000a81548173ffffffffffffffffffffffffffffffffffffffff021916908373ffffffffffffffffffffffffffffffffffffffff160217905550818860010160008373ffffffffffffffffffffffffffffffffffffffff1673ffffffffffffffffffffffffffffffffffffffff16815260200190815260200160002060010181905550505b86600201805480611a3d577f4e487b7100000000000000000000000000000000000000000000000000000000600052603160045260246000fd5b6001900381819060005260206000200160006101000a81549073ffffffffffffffffffffffffffffffffffffffff021916905590558660010160008773ffffffffffffffffffffffffffffffffffffffff1673ffffffffffffffffffffffffffffffffffffffff1681526020019081526020016000206001016000905550505b5050505050565b6000823b9050600081118290611b10576040517f08c379a0000000000000000000000000000000000000000000000000000000008152600401611b079190611f9f565b60405180910390fd5b50505050565b6000611b228383611c33565b60208301905092915050565b6000611b3a8383611ebb565b905092915050565b611b4b8161224a565b82525050565b611b5a8161224a565b82525050565b6000611b6b82612181565b611b7581856121c7565b9350611b8083612161565b8060005b83811015611bb1578151611b988882611b16565b9750611ba3836121ad565b925050600181019050611b84565b5085935050505092915050565b6000611bc98261218c565b611bd381856121d8565b935083602082028501611be585612171565b8060005b85811015611c215784840389528151611c028582611b2e565b9450611c0d836121ba565b925060208a01995050600181019050611be9565b50829750879550505050505092915050565b611c3c8161225c565b82525050565b6000611c4d82612197565b611c5781856121e9565b9350611c678185602086016122ef565b611c70816123fe565b840191505092915050565b6000611c8682612197565b611c9081856121fa565b9350611ca08185602086016122ef565b80840191505092915050565b611cb5816122dd565b82525050565b6000611cc6826121a2565b611cd08185612205565b9350611ce08185602086016122ef565b611ce9816123fe565b840191505092915050565b6000611d01603c83612205565b9150611d0c8261240f565b604082019050919050565b6000611d24602683612205565b9150611d2f8261245e565b604082019050919050565b6000611d47602283612205565b9150611d52826124ad565b604082019050919050565b6000611d6a602b83612205565b9150611d75826124fc565b604082019050919050565b6000611d8d603783612205565b9150611d988261254b565b604082019050919050565b6000611db0602783612205565b9150611dbb8261259a565b604082019050919050565b6000611dd3602c83612205565b9150611dde826125e9565b604082019050919050565b6000611df6602083612205565b9150611e0182612638565b602082019050919050565b6000611e19603d83612205565b9150611e2482612661565b604082019050919050565b6000611e3c602e83612205565b9150611e47826126b0565b604082019050919050565b6000611e5f603583612205565b9150611e6a826126ff565b604082019050919050565b6000611e82603883612205565b9150611e8d8261274e565b604082019050919050565b6000611ea5603683612205565b9150611eb08261279d565b604082019050919050565b6000606083016000830151611ed36000860182611b42565b506020830151611ee66020860182611cac565b5060408301518482036040860152611efe8282611b60565b9150508091505092915050565b611f14816122bb565b82525050565b6000611f268284611c7b565b915081905092915050565b6000604082019050611f466000830185611b51565b611f536020830184611f0b565b9392505050565b60006060820190508181036000830152611f748186611bbe565b9050611f836020830185611b51565b8181036040830152611f958184611c42565b9050949350505050565b60006020820190508181036000830152611fb98184611cbb565b905092915050565b60006020820190508181036000830152611fda81611cf4565b9050919050565b60006020820190508181036000830152611ffa81611d17565b9050919050565b6000602082019050818103600083015261201a81611d3a565b9050919050565b6000602082019050818103600083015261203a81611d5d565b9050919050565b6000602082019050818103600083015261205a81611d80565b9050919050565b6000602082019050818103600083015261207a81611da3565b9050919050565b6000602082019050818103600083015261209a81611dc6565b9050919050565b600060208201905081810360008301526120ba81611de9565b9050919050565b600060208201905081810360008301526120da81611e0c565b9050919050565b600060208201905081810360008301526120fa81611e2f565b9050919050565b6000602082019050818103600083015261211a81611e52565b9050919050565b6000602082019050818103600083015261213a81611e75565b9050919050565b6000602082019050818103600083015261215a81611e98565b9050919050565b6000819050602082019050919050565b6000819050602082019050919050565b600081519050919050565b600081519050919050565b600081519050919050565b600081519050919050565b6000602082019050919050565b6000602082019050919050565b600082825260208201905092915050565b600082825260208201905092915050565b600082825260208201905092915050565b600081905092915050565b600082825260208201905092915050565b6000612221826122bb565b915061222c836122bb565b92508282101561223f5761223e6123a0565b5b828203905092915050565b60006122558261229b565b9050919050565b60007fffffffff0000000000000000000000000000000000000000000000000000000082169050919050565b6000819050612296826127ec565b919050565b600073ffffffffffffffffffffffffffffffffffffffff82169050919050565b6000819050919050565b60006bffffffffffffffffffffffff82169050919050565b60006122e882612288565b9050919050565b60005b8381101561230d5780820151818401526020810190506122f2565b8381111561231c576000848401525b50505050565b600061232d826122bb565b91507fffffffffffffffffffffffffffffffffffffffffffffffffffffffffffffffff8214156123605761235f6123a0565b5b600182019050919050565b6000612376826122c5565b91506bffffffffffffffffffffffff821415612395576123946123a0565b5b600182019050919050565b7f4e487b7100000000000000000000000000000000000000000000000000000000600052601160045260246000fd5b7f4e487b7100000000000000000000000000000000000000000000000000000000600052602160045260246000fd5b6000601f19601f8301169050919050565b7f4c69624469616d6f6e644375743a205f696e697420697320616464726573732860008201527f3029206275745f63616c6c64617461206973206e6f7420656d70747900000000602082015250565b7f4c69624469616d6f6e644375743a205f696e69742066756e6374696f6e20726560008201527f7665727465640000000000000000000000000000000000000000000000000000602082015250565b7f4c69624469616d6f6e643a204d75737420626520636f6e7472616374206f776e60008201527f6572000000000000000000000000000000000000000000000000000000000000602082015250565b7f4c69624469616d6f6e644375743a204e6f2073656c6563746f727320696e206660008201527f6163657420746f20637574000000000000000000000000000000000000000000602082015250565b7f4c69624469616d6f6e644375743a2043616e27742072656d6f76652066756e6360008201527f74696f6e207468617420646f65736e2774206578697374000000000000000000602082015250565b7f4c69624469616d6f6e644375743a20496e636f7272656374204661636574437560008201527f74416374696f6e00000000000000000000000000000000000000000000000000602082015250565b7f4c69624469616d6f6e644375743a204164642066616365742063616e2774206260008201527f6520616464726573732830290000000000000000000000000000000000000000602082015250565b7f4469616d6f6e643a2046756e6374696f6e20646f6573206e6f74206578697374600082015250565b7f4c69624469616d6f6e644375743a205f63616c6c6461746120697320656d707460008201527f7920627574205f696e6974206973206e6f742061646472657373283029000000602082015250565b7f4c69624469616d6f6e644375743a2043616e27742072656d6f766520696d6d7560008201527f7461626c652066756e6374696f6e000000000000000000000000000000000000602082015250565b7f4c69624469616d6f6e644375743a2043616e2774206164642066756e6374696f60008201527f6e207468617420616c7265616479206578697374730000000000000000000000602082015250565b7f4c69624469616d6f6e644375743a2043616e2774207265706c6163652066756e60008201527f6374696f6e20776974682073616d652066756e6374696f6e0000000000000000602082015250565b7f4c69624469616d6f6e644375743a2052656d6f7665206661636574206164647260008201527f657373206d757374206265206164647265737328302900000000000000000000602082015250565b600381106127fd576127fc6123cf565b5b5056fe4c69624469616d6f6e644375743a205f696e6974206164647265737320686173206e6f20636f64654c69624469616d6f6e644375743a204e657720666163657420686173206e6f20636f6465a2646970667358221220e633014c29975cbcaaa4f62f3611e52a8fec5ef85658367f80ee3bc192e4fd4364736f6c634300080400334c69624469616d6f6e644375743a205f696e6974206164647265737320686173206e6f20636f64654c69624469616d6f6e644375743a204e657720666163657420686173206e6f20636f6465",
  "linkReferences": {},
  "deployedLinkReferences": {}
}