{
  "_format": "hh-sol-artifact-1",
  "contractName": "MusixverseEternalStorage",
  "sourceName": "contracts/MusixverseEternalStorage.sol",
  "abi": [
    {
      "anonymous": false,
      "inputs": [
        {
          "indexed": false,
          "internalType": "uint256",
          "name": "tokenId",
          "type": "uint256"
        },
        {
          "indexed": false,
          "internalType": "uint256",
          "name": "price",
          "type": "uint256"
        },
        {
          "indexed": false,
          "internalType": "uint256",
          "name": "createTime",
          "type": "uint256"
        },
        {
          "indexed": false,
          "internalType": "bool",
          "name": "onSale",
          "type": "bool"
        }
      ],
      "name": "MusicNFTCreated",
      "type": "event"
    },
    {
      "anonymous": false,
      "inputs": [
        {
          "indexed": false,
          "internalType": "uint256",
          "name": "tokenId",
          "type": "uint256"
        },
        {
          "indexed": false,
          "internalType": "bool",
          "name": "onSale",
          "type": "bool"
        }
      ],
      "name": "OnSaleUpdated",
      "type": "event"
    },
    {
      "anonymous": false,
      "inputs": [
        {
          "indexed": false,
          "internalType": "uint256",
          "name": "tokenId",
          "type": "uint256"
        },
        {
          "indexed": false,
          "internalType": "uint256",
          "name": "price",
          "type": "uint256"
        }
      ],
      "name": "PriceUpdated",
      "type": "event"
    },
    {
      "anonymous": false,
      "inputs": [
        {
          "indexed": false,
          "internalType": "address",
          "name": "",
          "type": "address"
        },
        {
          "indexed": false,
          "internalType": "uint256",
          "name": "",
          "type": "uint256"
        }
      ],
      "name": "Received",
      "type": "event"
    },
    {
      "anonymous": false,
      "inputs": [
        {
          "indexed": false,
          "internalType": "uint256",
          "name": "tokenId",
          "type": "uint256"
        },
        {
          "indexed": false,
          "internalType": "address",
          "name": "previousOwner",
          "type": "address"
        },
        {
          "indexed": false,
          "internalType": "uint256",
          "name": "price",
          "type": "uint256"
        },
        {
          "indexed": false,
          "internalType": "address",
          "name": "newOwner",
          "type": "address"
        }
      ],
      "name": "Sale",
      "type": "event"
    },
    {
      "inputs": [],
      "name": "baseURI",
      "outputs": [
        {
          "internalType": "string",
          "name": "",
          "type": "string"
        }
      ],
      "stateMutability": "view",
      "type": "function"
    },
    {
      "inputs": [],
      "name": "contractURI",
      "outputs": [
        {
          "internalType": "string",
          "name": "",
          "type": "string"
        }
      ],
      "stateMutability": "view",
      "type": "function"
    },
    {
      "inputs": [
        {
          "internalType": "uint256",
          "name": "",
          "type": "uint256"
        }
      ],
      "name": "musicNFTs",
      "outputs": [
        {
          "internalType": "uint256",
          "name": "price",
          "type": "uint256"
        },
        {
          "internalType": "address",
          "name": "artistAddress",
          "type": "address"
        },
        {
          "internalType": "uint16",
          "name": "resaleRoyaltyPercentage",
          "type": "uint16"
        },
        {
          "internalType": "bool",
          "name": "onSale",
          "type": "bool"
        },
        {
          "internalType": "bool",
          "name": "soldOnce",
          "type": "bool"
        },
        {
          "internalType": "uint256",
          "name": "unlockTimestamp",
          "type": "uint256"
        }
      ],
      "stateMutability": "view",
      "type": "function"
    },
    {
      "inputs": [],
      "name": "mxvLatestTokenID",
      "outputs": [
        {
          "internalType": "uint256",
          "name": "_value",
          "type": "uint256"
        }
      ],
      "stateMutability": "view",
      "type": "function"
    },
    {
      "inputs": [],
      "name": "name",
      "outputs": [
        {
          "internalType": "string",
          "name": "",
          "type": "string"
        }
      ],
      "stateMutability": "view",
      "type": "function"
    },
    {
      "inputs": [
        {
          "internalType": "uint256",
          "name": "",
          "type": "uint256"
        },
        {
          "internalType": "uint256",
          "name": "",
          "type": "uint256"
        }
      ],
      "name": "royalties",
      "outputs": [
        {
          "internalType": "address payable",
          "name": "recipient",
          "type": "address"
        },
        {
          "internalType": "uint256",
          "name": "percentage",
          "type": "uint256"
        }
      ],
      "stateMutability": "view",
      "type": "function"
    },
    {
      "inputs": [],
      "name": "symbol",
      "outputs": [
        {
          "internalType": "string",
          "name": "",
          "type": "string"
        }
      ],
      "stateMutability": "view",
      "type": "function"
    },
    {
      "stateMutability": "payable",
      "type": "receive"
    }
  ],
  "bytecode": "0x608060405234801561001057600080fd5b5061089d806100206000396000f3fe6080604052600436106100745760003560e01c80638924af741161004e5780638924af741461015157806395d89b411461018f578063d2723894146101ba578063e8a3d485146101e5576100b4565b806306fdde03146100b95780635d269138146100e45780636c0360eb14610126576100b4565b366100b4577f88a5966d370b9919b20f3e2c13ff65706f196a4e32cc2c12bf57088f8852587433346040516100aa929190610660565b60405180910390a1005b600080fd5b3480156100c557600080fd5b506100ce610210565b6040516100db9190610689565b60405180910390f35b3480156100f057600080fd5b5061010b6004803603810190610106919061054e565b61029e565b60405161011d969594939291906106c6565b60405180910390f35b34801561013257600080fd5b5061013b610322565b6040516101489190610689565b60405180910390f35b34801561015d57600080fd5b5061017860048036038101906101739190610577565b6103b0565b604051610186929190610637565b60405180910390f35b34801561019b57600080fd5b506101a4610411565b6040516101b19190610689565b60405180910390f35b3480156101c657600080fd5b506101cf61049f565b6040516101dc91906106ab565b60405180910390f35b3480156101f157600080fd5b506101fa6104ab565b6040516102079190610689565b60405180910390f35b6000805461021d906107de565b80601f0160208091040260200160405190810160405280929190818152602001828054610249906107de565b80156102965780601f1061026b57610100808354040283529160200191610296565b820191906000526020600020905b81548152906001019060200180831161027957829003601f168201915b505050505081565b60086020528060005260406000206000915090508060000154908060010160009054906101000a900473ffffffffffffffffffffffffffffffffffffffff16908060010160149054906101000a900461ffff16908060010160169054906101000a900460ff16908060010160179054906101000a900460ff16908060020154905086565b6003805461032f906107de565b80601f016020809104026020016040519081016040528092919081815260200182805461035b906107de565b80156103a85780601f1061037d576101008083540402835291602001916103a8565b820191906000526020600020905b81548152906001019060200180831161038b57829003601f168201915b505050505081565b600960205281600052604060002081815481106103cc57600080fd5b9060005260206000209060020201600091509150508060000160009054906101000a900473ffffffffffffffffffffffffffffffffffffffff16908060010154905082565b6001805461041e906107de565b80601f016020809104026020016040519081016040528092919081815260200182805461044a906107de565b80156104975780601f1061046c57610100808354040283529160200191610497565b820191906000526020600020905b81548152906001019060200180831161047a57829003601f168201915b505050505081565b60058060000154905081565b600280546104b8906107de565b80601f01602080910402602001604051908101604052809291908181526020018280546104e4906107de565b80156105315780601f1061050657610100808354040283529160200191610531565b820191906000526020600020905b81548152906001019060200180831161051457829003601f168201915b505050505081565b60008135905061054881610850565b92915050565b60006020828403121561056057600080fd5b600061056e84828501610539565b91505092915050565b6000806040838503121561058a57600080fd5b600061059885828601610539565b92505060206105a985828601610539565b9150509250929050565b6105bc81610755565b82525050565b6105cb81610743565b82525050565b6105da81610767565b82525050565b60006105eb82610727565b6105f58185610732565b93506106058185602086016107ab565b61060e8161083f565b840191505092915050565b61062281610773565b82525050565b610631816107a1565b82525050565b600060408201905061064c60008301856105b3565b6106596020830184610628565b9392505050565b600060408201905061067560008301856105c2565b6106826020830184610628565b9392505050565b600060208201905081810360008301526106a381846105e0565b905092915050565b60006020820190506106c06000830184610628565b92915050565b600060c0820190506106db6000830189610628565b6106e860208301886105c2565b6106f56040830187610619565b61070260608301866105d1565b61070f60808301856105d1565b61071c60a0830184610628565b979650505050505050565b600081519050919050565b600082825260208201905092915050565b600061074e82610781565b9050919050565b600061076082610781565b9050919050565b60008115159050919050565b600061ffff82169050919050565b600073ffffffffffffffffffffffffffffffffffffffff82169050919050565b6000819050919050565b60005b838110156107c95780820151818401526020810190506107ae565b838111156107d8576000848401525b50505050565b600060028204905060018216806107f657607f821691505b6020821081141561080a57610809610810565b5b50919050565b7f4e487b7100000000000000000000000000000000000000000000000000000000600052602260045260246000fd5b6000601f19601f8301169050919050565b610859816107a1565b811461086457600080fd5b5056fea26469706673582212206434a203ae6794d764be0331c1949feb2502d9d35612bcb77e0213ae4fdf6b0d64736f6c63430008040033",
  "linkReferences": {},
  "deployedLinkReferences": {}
}