{
  "_format": "hh-sol-artifact-1",
  "contractName": "MusixverseEternalStorage",
  "sourceName": "contracts/MusixverseEternalStorage.sol",
  "abi": [
    {
      "anonymous": false,
      "inputs": [
        {
          "indexed": false,
          "internalType": "address",
          "name": "",
          "type": "address"
        },
        {
          "indexed": false,
          "internalType": "uint256",
          "name": "",
          "type": "uint256"
        }
      ],
      "name": "Received",
      "type": "event"
    },
    {
      "anonymous": false,
      "inputs": [
        {
          "indexed": false,
          "internalType": "uint256",
          "name": "trackId",
          "type": "uint256"
        },
        {
          "indexed": false,
          "internalType": "uint256",
          "name": "tokenId",
          "type": "uint256"
        },
        {
          "indexed": false,
          "internalType": "uint256",
          "name": "price",
          "type": "uint256"
        },
        {
          "indexed": false,
          "internalType": "uint256",
          "name": "localTokenId",
          "type": "uint256"
        }
      ],
      "name": "TokenCreated",
      "type": "event"
    },
    {
      "anonymous": false,
      "inputs": [
        {
          "indexed": false,
          "internalType": "uint256",
          "name": "tokenId",
          "type": "uint256"
        },
        {
          "indexed": false,
          "internalType": "bool",
          "name": "onSale",
          "type": "bool"
        }
      ],
      "name": "TokenOnSaleUpdated",
      "type": "event"
    },
    {
      "anonymous": false,
      "inputs": [
        {
          "indexed": false,
          "internalType": "uint256",
          "name": "tokenId",
          "type": "uint256"
        },
        {
          "indexed": false,
          "internalType": "uint256",
          "name": "oldPrice",
          "type": "uint256"
        },
        {
          "indexed": false,
          "internalType": "uint256",
          "name": "newPrice",
          "type": "uint256"
        }
      ],
      "name": "TokenPriceUpdated",
      "type": "event"
    },
    {
      "anonymous": false,
      "inputs": [
        {
          "indexed": false,
          "internalType": "uint256",
          "name": "tokenId",
          "type": "uint256"
        },
        {
          "indexed": false,
          "internalType": "address",
          "name": "previousOwner",
          "type": "address"
        },
        {
          "indexed": false,
          "internalType": "address",
          "name": "newOwner",
          "type": "address"
        },
        {
          "indexed": false,
          "internalType": "uint256",
          "name": "price",
          "type": "uint256"
        }
      ],
      "name": "TokenPurchased",
      "type": "event"
    },
    {
      "anonymous": false,
      "inputs": [
        {
          "indexed": false,
          "internalType": "uint256",
          "name": "trackId",
          "type": "uint256"
        },
        {
          "indexed": false,
          "internalType": "uint256",
          "name": "maxTokenId",
          "type": "uint256"
        },
        {
          "indexed": false,
          "internalType": "uint256",
          "name": "price",
          "type": "uint256"
        },
        {
          "indexed": false,
          "internalType": "string",
          "name": "URIHash",
          "type": "string"
        }
      ],
      "name": "TrackMinted",
      "type": "event"
    },
    {
      "inputs": [],
      "name": "baseURI",
      "outputs": [
        {
          "internalType": "string",
          "name": "",
          "type": "string"
        }
      ],
      "stateMutability": "view",
      "type": "function"
    },
    {
      "inputs": [],
      "name": "contractURI",
      "outputs": [
        {
          "internalType": "string",
          "name": "",
          "type": "string"
        }
      ],
      "stateMutability": "view",
      "type": "function"
    },
    {
      "inputs": [],
      "name": "mxvLatestTokenId",
      "outputs": [
        {
          "internalType": "uint256",
          "name": "_value",
          "type": "uint256"
        }
      ],
      "stateMutability": "view",
      "type": "function"
    },
    {
      "inputs": [],
      "name": "name",
      "outputs": [
        {
          "internalType": "string",
          "name": "",
          "type": "string"
        }
      ],
      "stateMutability": "view",
      "type": "function"
    },
    {
      "inputs": [
        {
          "internalType": "uint256",
          "name": "",
          "type": "uint256"
        },
        {
          "internalType": "uint256",
          "name": "",
          "type": "uint256"
        }
      ],
      "name": "royalties",
      "outputs": [
        {
          "internalType": "address payable",
          "name": "recipient",
          "type": "address"
        },
        {
          "internalType": "uint256",
          "name": "percentage",
          "type": "uint256"
        }
      ],
      "stateMutability": "view",
      "type": "function"
    },
    {
      "inputs": [],
      "name": "symbol",
      "outputs": [
        {
          "internalType": "string",
          "name": "",
          "type": "string"
        }
      ],
      "stateMutability": "view",
      "type": "function"
    },
    {
      "inputs": [],
      "name": "totalTracks",
      "outputs": [
        {
          "internalType": "uint256",
          "name": "_value",
          "type": "uint256"
        }
      ],
      "stateMutability": "view",
      "type": "function"
    },
    {
      "inputs": [
        {
          "internalType": "uint256",
          "name": "",
          "type": "uint256"
        }
      ],
      "name": "trackNFTs",
      "outputs": [
        {
          "internalType": "uint256",
          "name": "price",
          "type": "uint256"
        },
        {
          "internalType": "address",
          "name": "artistAddress",
          "type": "address"
        },
        {
          "internalType": "uint16",
          "name": "resaleRoyaltyPercentage",
          "type": "uint16"
        },
        {
          "internalType": "bool",
          "name": "onSale",
          "type": "bool"
        },
        {
          "internalType": "bool",
          "name": "soldOnce",
          "type": "bool"
        },
        {
          "internalType": "uint256",
          "name": "unlockTimestamp",
          "type": "uint256"
        }
      ],
      "stateMutability": "view",
      "type": "function"
    },
    {
      "stateMutability": "payable",
      "type": "receive"
    }
  ],
  "bytecode": "0x608060405234801561001057600080fd5b506108df806100206000396000f3fe60806040526004361061007f5760003560e01c80638924af741161004e5780638924af741461018757806395d89b41146101c5578063e8a3d485146101f0578063ef3c61061461021b576100bf565b806306fdde03146100c457806340dee0b5146100ef5780636c0360eb1461011a578063831744ca14610145576100bf565b366100bf577f88a5966d370b9919b20f3e2c13ff65706f196a4e32cc2c12bf57088f8852587433346040516100b59291906106a2565b60405180910390a1005b600080fd5b3480156100d057600080fd5b506100d9610246565b6040516100e691906106cb565b60405180910390f35b3480156100fb57600080fd5b506101046102d4565b60405161011191906106ed565b60405180910390f35b34801561012657600080fd5b5061012f6102e0565b60405161013c91906106cb565b60405180910390f35b34801561015157600080fd5b5061016c60048036038101906101679190610590565b61036e565b60405161017e96959493929190610708565b60405180910390f35b34801561019357600080fd5b506101ae60048036038101906101a991906105b9565b6103f2565b6040516101bc929190610679565b60405180910390f35b3480156101d157600080fd5b506101da610453565b6040516101e791906106cb565b60405180910390f35b3480156101fc57600080fd5b506102056104e1565b60405161021291906106cb565b60405180910390f35b34801561022757600080fd5b5061023061056f565b60405161023d91906106ed565b60405180910390f35b6000805461025390610820565b80601f016020809104026020016040519081016040528092919081815260200182805461027f90610820565b80156102cc5780601f106102a1576101008083540402835291602001916102cc565b820191906000526020600020905b8154815290600101906020018083116102af57829003601f168201915b505050505081565b60068060000154905081565b600380546102ed90610820565b80601f016020809104026020016040519081016040528092919081815260200182805461031990610820565b80156103665780601f1061033b57610100808354040283529160200191610366565b820191906000526020600020905b81548152906001019060200180831161034957829003601f168201915b505050505081565b60096020528060005260406000206000915090508060000154908060010160009054906101000a900473ffffffffffffffffffffffffffffffffffffffff16908060010160149054906101000a900461ffff16908060010160169054906101000a900460ff16908060010160179054906101000a900460ff16908060020154905086565b600a602052816000526040600020818154811061040e57600080fd5b9060005260206000209060020201600091509150508060000160009054906101000a900473ffffffffffffffffffffffffffffffffffffffff16908060010154905082565b6001805461046090610820565b80601f016020809104026020016040519081016040528092919081815260200182805461048c90610820565b80156104d95780601f106104ae576101008083540402835291602001916104d9565b820191906000526020600020905b8154815290600101906020018083116104bc57829003601f168201915b505050505081565b600280546104ee90610820565b80601f016020809104026020016040519081016040528092919081815260200182805461051a90610820565b80156105675780601f1061053c57610100808354040283529160200191610567565b820191906000526020600020905b81548152906001019060200180831161054a57829003601f168201915b505050505081565b60058060000154905081565b60008135905061058a81610892565b92915050565b6000602082840312156105a257600080fd5b60006105b08482850161057b565b91505092915050565b600080604083850312156105cc57600080fd5b60006105da8582860161057b565b92505060206105eb8582860161057b565b9150509250929050565b6105fe81610797565b82525050565b61060d81610785565b82525050565b61061c816107a9565b82525050565b600061062d82610769565b6106378185610774565b93506106478185602086016107ed565b61065081610881565b840191505092915050565b610664816107b5565b82525050565b610673816107e3565b82525050565b600060408201905061068e60008301856105f5565b61069b602083018461066a565b9392505050565b60006040820190506106b76000830185610604565b6106c4602083018461066a565b9392505050565b600060208201905081810360008301526106e58184610622565b905092915050565b6000602082019050610702600083018461066a565b92915050565b600060c08201905061071d600083018961066a565b61072a6020830188610604565b610737604083018761065b565b6107446060830186610613565b6107516080830185610613565b61075e60a083018461066a565b979650505050505050565b600081519050919050565b600082825260208201905092915050565b6000610790826107c3565b9050919050565b60006107a2826107c3565b9050919050565b60008115159050919050565b600061ffff82169050919050565b600073ffffffffffffffffffffffffffffffffffffffff82169050919050565b6000819050919050565b60005b8381101561080b5780820151818401526020810190506107f0565b8381111561081a576000848401525b50505050565b6000600282049050600182168061083857607f821691505b6020821081141561084c5761084b610852565b5b50919050565b7f4e487b7100000000000000000000000000000000000000000000000000000000600052602260045260246000fd5b6000601f19601f8301169050919050565b61089b816107e3565b81146108a657600080fd5b5056fea2646970667358221220b732363cd9cd52acfbabc9442cd7a1a01770d196c2b8df5c20becace92bef3af64736f6c63430008040033",
  "linkReferences": {},
  "deployedLinkReferences": {}
}