{
  "_format": "hh-sol-artifact-1",
  "contractName": "MusixverseEternalStorage",
  "sourceName": "contracts/MusixverseEternalStorage.sol",
  "abi": [
    {
      "anonymous": false,
      "inputs": [
        {
          "indexed": false,
          "internalType": "uint256",
          "name": "tokenId",
          "type": "uint256"
        },
        {
          "indexed": false,
          "internalType": "uint256",
          "name": "price",
          "type": "uint256"
        },
        {
          "indexed": false,
          "internalType": "uint256",
          "name": "createTime",
          "type": "uint256"
        },
        {
          "indexed": false,
          "internalType": "bool",
          "name": "onSale",
          "type": "bool"
        }
      ],
      "name": "MusicNFTCreated",
      "type": "event"
    },
    {
      "anonymous": false,
      "inputs": [
        {
          "indexed": false,
          "internalType": "uint256",
          "name": "tokenId",
          "type": "uint256"
        },
        {
          "indexed": false,
          "internalType": "bool",
          "name": "onSale",
          "type": "bool"
        }
      ],
      "name": "OnSaleUpdated",
      "type": "event"
    },
    {
      "anonymous": false,
      "inputs": [
        {
          "indexed": false,
          "internalType": "uint256",
          "name": "tokenId",
          "type": "uint256"
        },
        {
          "indexed": false,
          "internalType": "uint256",
          "name": "price",
          "type": "uint256"
        }
      ],
      "name": "PriceUpdated",
      "type": "event"
    },
    {
      "anonymous": false,
      "inputs": [
        {
          "indexed": false,
          "internalType": "address",
          "name": "",
          "type": "address"
        },
        {
          "indexed": false,
          "internalType": "uint256",
          "name": "",
          "type": "uint256"
        }
      ],
      "name": "Received",
      "type": "event"
    },
    {
      "anonymous": false,
      "inputs": [
        {
          "indexed": false,
          "internalType": "uint256",
          "name": "tokenId",
          "type": "uint256"
        },
        {
          "indexed": false,
          "internalType": "address",
          "name": "previousOwner",
          "type": "address"
        },
        {
          "indexed": false,
          "internalType": "uint256",
          "name": "price",
          "type": "uint256"
        },
        {
          "indexed": false,
          "internalType": "address",
          "name": "newOwner",
          "type": "address"
        }
      ],
      "name": "Sale",
      "type": "event"
    },
    {
      "inputs": [],
      "name": "baseURI",
      "outputs": [
        {
          "internalType": "string",
          "name": "",
          "type": "string"
        }
      ],
      "stateMutability": "view",
      "type": "function"
    },
    {
      "inputs": [],
      "name": "contractURI",
      "outputs": [
        {
          "internalType": "string",
          "name": "",
          "type": "string"
        }
      ],
      "stateMutability": "view",
      "type": "function"
    },
    {
      "inputs": [
        {
          "internalType": "uint256",
          "name": "",
          "type": "uint256"
        }
      ],
      "name": "musicNFTs",
      "outputs": [
        {
          "internalType": "uint256",
          "name": "price",
          "type": "uint256"
        },
        {
          "internalType": "address",
          "name": "artistAddress",
          "type": "address"
        },
        {
          "internalType": "uint16",
          "name": "resaleRoyaltyPercentage",
          "type": "uint16"
        },
        {
          "internalType": "bool",
          "name": "onSale",
          "type": "bool"
        },
        {
          "internalType": "bool",
          "name": "soldOnce",
          "type": "bool"
        }
      ],
      "stateMutability": "view",
      "type": "function"
    },
    {
      "inputs": [],
      "name": "mxvLatestTokenID",
      "outputs": [
        {
          "internalType": "uint256",
          "name": "_value",
          "type": "uint256"
        }
      ],
      "stateMutability": "view",
      "type": "function"
    },
    {
      "inputs": [],
      "name": "name",
      "outputs": [
        {
          "internalType": "string",
          "name": "",
          "type": "string"
        }
      ],
      "stateMutability": "view",
      "type": "function"
    },
    {
      "inputs": [
        {
          "internalType": "uint256",
          "name": "",
          "type": "uint256"
        },
        {
          "internalType": "uint256",
          "name": "",
          "type": "uint256"
        }
      ],
      "name": "royalties",
      "outputs": [
        {
          "internalType": "address payable",
          "name": "recipient",
          "type": "address"
        },
        {
          "internalType": "uint256",
          "name": "percentage",
          "type": "uint256"
        }
      ],
      "stateMutability": "view",
      "type": "function"
    },
    {
      "inputs": [],
      "name": "symbol",
      "outputs": [
        {
          "internalType": "string",
          "name": "",
          "type": "string"
        }
      ],
      "stateMutability": "view",
      "type": "function"
    },
    {
      "stateMutability": "payable",
      "type": "receive"
    }
  ],
  "bytecode": "0x608060405234801561001057600080fd5b50610888806100206000396000f3fe6080604052600436106100745760003560e01c80638924af741161004e5780638924af741461015057806395d89b411461018e578063d2723894146101b9578063e8a3d485146101e4576100b4565b806306fdde03146100b95780635d269138146100e45780636c0360eb14610125576100b4565b366100b4577f88a5966d370b9919b20f3e2c13ff65706f196a4e32cc2c12bf57088f8852587433346040516100aa929190610659565b60405180910390a1005b600080fd5b3480156100c557600080fd5b506100ce61020f565b6040516100db9190610682565b60405180910390f35b3480156100f057600080fd5b5061010b60048036038101906101069190610547565b61029d565b60405161011c9594939291906106bf565b60405180910390f35b34801561013157600080fd5b5061013a61031b565b6040516101479190610682565b60405180910390f35b34801561015c57600080fd5b5061017760048036038101906101729190610570565b6103a9565b604051610185929190610630565b60405180910390f35b34801561019a57600080fd5b506101a361040a565b6040516101b09190610682565b60405180910390f35b3480156101c557600080fd5b506101ce610498565b6040516101db91906106a4565b60405180910390f35b3480156101f057600080fd5b506101f96104a4565b6040516102069190610682565b60405180910390f35b6000805461021c906107c9565b80601f0160208091040260200160405190810160405280929190818152602001828054610248906107c9565b80156102955780601f1061026a57610100808354040283529160200191610295565b820191906000526020600020905b81548152906001019060200180831161027857829003601f168201915b505050505081565b60086020528060005260406000206000915090508060000154908060010160009054906101000a900473ffffffffffffffffffffffffffffffffffffffff16908060010160149054906101000a900461ffff16908060010160169054906101000a900460ff16908060010160179054906101000a900460ff16905085565b60038054610328906107c9565b80601f0160208091040260200160405190810160405280929190818152602001828054610354906107c9565b80156103a15780601f10610376576101008083540402835291602001916103a1565b820191906000526020600020905b81548152906001019060200180831161038457829003601f168201915b505050505081565b600960205281600052604060002081815481106103c557600080fd5b9060005260206000209060020201600091509150508060000160009054906101000a900473ffffffffffffffffffffffffffffffffffffffff16908060010154905082565b60018054610417906107c9565b80601f0160208091040260200160405190810160405280929190818152602001828054610443906107c9565b80156104905780601f1061046557610100808354040283529160200191610490565b820191906000526020600020905b81548152906001019060200180831161047357829003601f168201915b505050505081565b60058060000154905081565b600280546104b1906107c9565b80601f01602080910402602001604051908101604052809291908181526020018280546104dd906107c9565b801561052a5780601f106104ff5761010080835404028352916020019161052a565b820191906000526020600020905b81548152906001019060200180831161050d57829003601f168201915b505050505081565b6000813590506105418161083b565b92915050565b60006020828403121561055957600080fd5b600061056784828501610532565b91505092915050565b6000806040838503121561058357600080fd5b600061059185828601610532565b92505060206105a285828601610532565b9150509250929050565b6105b581610740565b82525050565b6105c48161072e565b82525050565b6105d381610752565b82525050565b60006105e482610712565b6105ee818561071d565b93506105fe818560208601610796565b6106078161082a565b840191505092915050565b61061b8161075e565b82525050565b61062a8161078c565b82525050565b600060408201905061064560008301856105ac565b6106526020830184610621565b9392505050565b600060408201905061066e60008301856105bb565b61067b6020830184610621565b9392505050565b6000602082019050818103600083015261069c81846105d9565b905092915050565b60006020820190506106b96000830184610621565b92915050565b600060a0820190506106d46000830188610621565b6106e160208301876105bb565b6106ee6040830186610612565b6106fb60608301856105ca565b61070860808301846105ca565b9695505050505050565b600081519050919050565b600082825260208201905092915050565b60006107398261076c565b9050919050565b600061074b8261076c565b9050919050565b60008115159050919050565b600061ffff82169050919050565b600073ffffffffffffffffffffffffffffffffffffffff82169050919050565b6000819050919050565b60005b838110156107b4578082015181840152602081019050610799565b838111156107c3576000848401525b50505050565b600060028204905060018216806107e157607f821691505b602082108114156107f5576107f46107fb565b5b50919050565b7f4e487b7100000000000000000000000000000000000000000000000000000000600052602260045260246000fd5b6000601f19601f8301169050919050565b6108448161078c565b811461084f57600080fd5b5056fea2646970667358221220531f32715a737b271517154e7835b6706cc5642fe2f5d657ea9dd6dfd151aaa864736f6c63430008040033",
  "linkReferences": {},
  "deployedLinkReferences": {}
}