{
  "_format": "hh-sol-artifact-1",
  "contractName": "MusixverseStorage",
  "sourceName": "contracts/MusixverseStorage.sol",
  "abi": [
    {
      "anonymous": false,
      "inputs": [
        {
          "indexed": false,
          "internalType": "uint256",
          "name": "id",
          "type": "uint256"
        },
        {
          "indexed": false,
          "internalType": "address",
          "name": "previousOwner",
          "type": "address"
        },
        {
          "indexed": false,
          "internalType": "uint256",
          "name": "price",
          "type": "uint256"
        },
        {
          "indexed": false,
          "internalType": "uint256",
          "name": "saleTime",
          "type": "uint256"
        },
        {
          "indexed": false,
          "internalType": "address",
          "name": "newOwner",
          "type": "address"
        }
      ],
      "name": "Sale",
      "type": "event"
    },
    {
      "anonymous": false,
      "inputs": [
        {
          "indexed": false,
          "internalType": "uint256",
          "name": "id",
          "type": "uint256"
        },
        {
          "indexed": false,
          "internalType": "uint256",
          "name": "price",
          "type": "uint256"
        },
        {
          "indexed": false,
          "internalType": "uint256",
          "name": "createTime",
          "type": "uint256"
        }
      ],
      "name": "SongCreated",
      "type": "event"
    },
    {
      "inputs": [],
      "name": "_baseURI",
      "outputs": [
        {
          "internalType": "string",
          "name": "",
          "type": "string"
        }
      ],
      "stateMutability": "view",
      "type": "function"
    },
    {
      "inputs": [],
      "name": "_contractMetadataURI",
      "outputs": [
        {
          "internalType": "string",
          "name": "",
          "type": "string"
        }
      ],
      "stateMutability": "view",
      "type": "function"
    },
    {
      "inputs": [],
      "name": "name",
      "outputs": [
        {
          "internalType": "string",
          "name": "",
          "type": "string"
        }
      ],
      "stateMutability": "view",
      "type": "function"
    },
    {
      "inputs": [
        {
          "internalType": "uint256",
          "name": "",
          "type": "uint256"
        },
        {
          "internalType": "uint256",
          "name": "",
          "type": "uint256"
        }
      ],
      "name": "royalties",
      "outputs": [
        {
          "internalType": "address payable",
          "name": "recipient",
          "type": "address"
        },
        {
          "internalType": "uint256",
          "name": "percentage",
          "type": "uint256"
        }
      ],
      "stateMutability": "view",
      "type": "function"
    },
    {
      "inputs": [],
      "name": "symbol",
      "outputs": [
        {
          "internalType": "string",
          "name": "",
          "type": "string"
        }
      ],
      "stateMutability": "view",
      "type": "function"
    }
  ],
  "bytecode": "0x608060405234801561001057600080fd5b506105db806100206000396000f3fe608060405234801561001057600080fd5b50600436106100575760003560e01c806306fdde031461005c578063743976a01461007a5780638924af741461009857806395d89b41146100c9578063adb28a1d146100e7575b600080fd5b610064610105565b604051610071919061046f565b60405180910390f35b610082610193565b60405161008f919061046f565b60405180910390f35b6100b260048036038101906100ad91906103b3565b610221565b6040516100c0929190610446565b60405180910390f35b6100d1610282565b6040516100de919061046f565b60405180910390f35b6100ef610310565b6040516100fc919061046f565b60405180910390f35b600080546101129061051c565b80601f016020809104026020016040519081016040528092919081815260200182805461013e9061051c565b801561018b5780601f106101605761010080835404028352916020019161018b565b820191906000526020600020905b81548152906001019060200180831161016e57829003601f168201915b505050505081565b600580546101a09061051c565b80601f01602080910402602001604051908101604052809291908181526020018280546101cc9061051c565b80156102195780601f106101ee57610100808354040283529160200191610219565b820191906000526020600020905b8154815290600101906020018083116101fc57829003601f168201915b505050505081565b6007602052816000526040600020818154811061023d57600080fd5b9060005260206000209060020201600091509150508060000160009054906101000a900473ffffffffffffffffffffffffffffffffffffffff16908060010154905082565b6001805461028f9061051c565b80601f01602080910402602001604051908101604052809291908181526020018280546102bb9061051c565b80156103085780601f106102dd57610100808354040283529160200191610308565b820191906000526020600020905b8154815290600101906020018083116102eb57829003601f168201915b505050505081565b6004805461031d9061051c565b80601f01602080910402602001604051908101604052809291908181526020018280546103499061051c565b80156103965780601f1061036b57610100808354040283529160200191610396565b820191906000526020600020905b81548152906001019060200180831161037957829003601f168201915b505050505081565b6000813590506103ad8161058e565b92915050565b600080604083850312156103c657600080fd5b60006103d48582860161039e565b92505060206103e58582860161039e565b9150509250929050565b6103f8816104ad565b82525050565b600061040982610491565b610413818561049c565b93506104238185602086016104e9565b61042c8161057d565b840191505092915050565b610440816104df565b82525050565b600060408201905061045b60008301856103ef565b6104686020830184610437565b9392505050565b6000602082019050818103600083015261048981846103fe565b905092915050565b600081519050919050565b600082825260208201905092915050565b60006104b8826104bf565b9050919050565b600073ffffffffffffffffffffffffffffffffffffffff82169050919050565b6000819050919050565b60005b838110156105075780820151818401526020810190506104ec565b83811115610516576000848401525b50505050565b6000600282049050600182168061053457607f821691505b602082108114156105485761054761054e565b5b50919050565b7f4e487b7100000000000000000000000000000000000000000000000000000000600052602260045260246000fd5b6000601f19601f8301169050919050565b610597816104df565b81146105a257600080fd5b5056fea2646970667358221220c8e233bfc6a7710a144b4fbba6ee36580e4916f2b7896ad2c7c580395627e26e64736f6c63430008020033",
  "linkReferences": {},
  "deployedLinkReferences": {}
}